{
  "address": "0xDEBfC98FBa99fc14C2d8B76661E44228e90b2157",
  "abi": [
    {
      "inputs": [
        {
          "internalType": "address",
          "name": "gelato_",
          "type": "address"
        },
        {
          "internalType": "uint16",
          "name": "managerFeeBPS_",
          "type": "uint16"
        },
        {
          "internalType": "address",
          "name": "terms_",
          "type": "address"
        },
        {
          "internalType": "uint256",
          "name": "mmTermDuration_",
          "type": "uint256"
        }
      ],
      "stateMutability": "nonpayable",
      "type": "constructor"
    },
    {
      "anonymous": false,
      "inputs": [
        {
          "indexed": true,
          "internalType": "address",
          "name": "gasStation",
          "type": "address"
        },
        {
          "indexed": false,
          "internalType": "address[]",
          "name": "operators",
          "type": "address[]"
        }
      ],
      "name": "AddOperators",
      "type": "event"
    },
    {
      "anonymous": false,
      "inputs": [
        {
          "indexed": true,
          "internalType": "address",
          "name": "vault",
          "type": "address"
        },
        {
          "indexed": false,
          "internalType": "bytes",
          "name": "datas",
          "type": "bytes"
        },
        {
          "indexed": false,
          "internalType": "string",
          "name": "strat",
          "type": "string"
        }
      ],
      "name": "AddVault",
      "type": "event"
    },
    {
      "anonymous": false,
      "inputs": [
        {
          "indexed": true,
          "internalType": "address",
          "name": "vault",
          "type": "address"
        },
        {
          "indexed": false,
          "internalType": "uint256",
          "name": "oldMmTermDuration",
          "type": "uint256"
        },
        {
          "indexed": false,
          "internalType": "uint256",
          "name": "newMmTermDuration",
          "type": "uint256"
        }
      ],
      "name": "ExpandTermDuration",
      "type": "event"
    },
    {
      "anonymous": false,
      "inputs": [
        {
          "indexed": false,
          "internalType": "uint8",
          "name": "version",
          "type": "uint8"
        }
      ],
      "name": "Initialized",
      "type": "event"
    },
    {
      "anonymous": false,
      "inputs": [
        {
          "indexed": true,
          "internalType": "address",
          "name": "previousOwner",
          "type": "address"
        },
        {
          "indexed": true,
          "internalType": "address",
          "name": "newOwner",
          "type": "address"
        }
      ],
      "name": "OwnershipTransferred",
      "type": "event"
    },
    {
      "anonymous": false,
      "inputs": [
        {
          "indexed": false,
          "internalType": "address",
          "name": "account",
          "type": "address"
        }
      ],
      "name": "Paused",
      "type": "event"
    },
    {
      "anonymous": false,
      "inputs": [
        {
          "indexed": true,
          "internalType": "address",
          "name": "vault",
          "type": "address"
        },
        {
          "indexed": false,
          "internalType": "uint256",
          "name": "newBalance",
          "type": "uint256"
        }
      ],
      "name": "RebalanceVault",
      "type": "event"
    },
    {
      "anonymous": false,
      "inputs": [
        {
          "indexed": true,
          "internalType": "address",
          "name": "gasStation",
          "type": "address"
        },
        {
          "indexed": false,
          "internalType": "address[]",
          "name": "operators",
          "type": "address[]"
        }
      ],
      "name": "RemoveOperators",
      "type": "event"
    },
    {
      "anonymous": false,
      "inputs": [
        {
          "indexed": true,
          "internalType": "address",
          "name": "vault",
          "type": "address"
        },
        {
          "indexed": false,
          "internalType": "uint256",
          "name": "sendBack",
          "type": "uint256"
        }
      ],
      "name": "RemoveVault",
      "type": "event"
    },
    {
      "anonymous": false,
      "inputs": [
        {
          "indexed": true,
          "internalType": "address",
          "name": "vault",
          "type": "address"
        },
        {
          "indexed": false,
          "internalType": "bytes",
          "name": "data",
          "type": "bytes"
        }
      ],
      "name": "SetVaultData",
      "type": "event"
    },
    {
      "anonymous": false,
      "inputs": [
        {
          "indexed": true,
          "internalType": "address",
          "name": "vault",
          "type": "address"
        },
        {
          "indexed": false,
          "internalType": "bytes32",
          "name": "strat",
          "type": "bytes32"
        }
      ],
      "name": "SetVaultStrat",
      "type": "event"
    },
    {
      "anonymous": false,
      "inputs": [
        {
          "indexed": true,
          "internalType": "address",
          "name": "vault",
          "type": "address"
        }
      ],
      "name": "ToggleRestrictMint",
      "type": "event"
    },
    {
      "anonymous": false,
      "inputs": [
        {
          "indexed": false,
          "internalType": "address",
          "name": "account",
          "type": "address"
        }
      ],
      "name": "Unpaused",
      "type": "event"
    },
    {
      "anonymous": false,
      "inputs": [
        {
          "indexed": true,
          "internalType": "address",
          "name": "vault",
          "type": "address"
        },
        {
          "indexed": false,
          "internalType": "uint256",
          "name": "newBalance",
          "type": "uint256"
        }
      ],
      "name": "UpdateVaultBalance",
      "type": "event"
    },
    {
      "anonymous": false,
      "inputs": [
        {
          "indexed": true,
          "internalType": "address",
          "name": "gasStation",
          "type": "address"
        },
        {
          "indexed": false,
          "internalType": "string",
          "name": "strat",
          "type": "string"
        }
      ],
      "name": "WhitelistStrat",
      "type": "event"
    },
    {
      "anonymous": false,
      "inputs": [
        {
          "indexed": true,
          "internalType": "address",
          "name": "vault",
          "type": "address"
        },
        {
          "indexed": false,
          "internalType": "uint256",
          "name": "amount",
          "type": "uint256"
        },
        {
          "indexed": false,
          "internalType": "address",
          "name": "to",
          "type": "address"
        },
        {
          "indexed": false,
          "internalType": "uint256",
          "name": "newBalance",
          "type": "uint256"
        }
      ],
      "name": "WithdrawVaultBalance",
      "type": "event"
    },
    {
      "inputs": [
        {
          "internalType": "address[]",
          "name": "operators_",
          "type": "address[]"
        }
      ],
      "name": "addOperators",
      "outputs": [],
      "stateMutability": "nonpayable",
      "type": "function"
    },
    {
      "inputs": [
        {
          "internalType": "address",
          "name": "vault_",
          "type": "address"
        },
        {
          "internalType": "bytes",
          "name": "datas_",
          "type": "bytes"
        },
        {
          "internalType": "string",
          "name": "strat_",
          "type": "string"
        }
      ],
      "name": "addVault",
      "outputs": [],
      "stateMutability": "payable",
      "type": "function"
    },
    {
      "inputs": [
        {
          "internalType": "address",
          "name": "vault_",
          "type": "address"
        }
      ],
      "name": "expandMMTermDuration",
      "outputs": [],
      "stateMutability": "nonpayable",
      "type": "function"
    },
    {
      "inputs": [
        {
          "internalType": "address",
          "name": "vault_",
          "type": "address"
        }
      ],
      "name": "fundVaultBalance",
      "outputs": [],
      "stateMutability": "payable",
      "type": "function"
    },
    {
      "inputs": [],
      "name": "gelato",
      "outputs": [
        {
          "internalType": "address payable",
          "name": "",
          "type": "address"
        }
      ],
      "stateMutability": "view",
      "type": "function"
    },
    {
      "inputs": [
        {
          "internalType": "address",
          "name": "vault_",
          "type": "address"
        }
      ],
      "name": "getVaultInfo",
      "outputs": [
        {
          "components": [
            {
              "internalType": "uint256",
              "name": "balance",
              "type": "uint256"
            },
            {
              "internalType": "uint256",
              "name": "lastRebalance",
              "type": "uint256"
            },
            {
              "internalType": "bytes",
              "name": "datas",
              "type": "bytes"
            },
            {
              "internalType": "bytes32",
              "name": "strat",
              "type": "bytes32"
            },
            {
              "internalType": "uint256",
              "name": "endOfMM",
              "type": "uint256"
            }
          ],
          "internalType": "struct VaultInfo",
          "name": "",
          "type": "tuple"
        }
      ],
      "stateMutability": "view",
      "type": "function"
    },
    {
      "inputs": [],
      "name": "getWhitelistedStrat",
      "outputs": [
        {
          "internalType": "bytes32[]",
          "name": "",
          "type": "bytes32[]"
        }
      ],
      "stateMutability": "view",
      "type": "function"
    },
    {
      "inputs": [
        {
          "internalType": "address",
          "name": "owner_",
          "type": "address"
        }
      ],
      "name": "initialize",
      "outputs": [],
      "stateMutability": "nonpayable",
      "type": "function"
    },
    {
      "inputs": [],
      "name": "managerFeeBPS",
      "outputs": [
        {
          "internalType": "uint16",
          "name": "",
          "type": "uint16"
        }
      ],
      "stateMutability": "view",
      "type": "function"
    },
    {
      "inputs": [],
      "name": "mmTermDuration",
      "outputs": [
        {
          "internalType": "uint256",
          "name": "",
          "type": "uint256"
        }
      ],
      "stateMutability": "view",
      "type": "function"
    },
    {
      "inputs": [
        {
          "internalType": "uint256",
          "name": "",
          "type": "uint256"
        }
      ],
      "name": "operators",
      "outputs": [
        {
          "internalType": "address",
          "name": "",
          "type": "address"
        }
      ],
      "stateMutability": "view",
      "type": "function"
    },
    {
      "inputs": [],
      "name": "owner",
      "outputs": [
        {
          "internalType": "address",
          "name": "",
          "type": "address"
        }
      ],
      "stateMutability": "view",
      "type": "function"
    },
    {
      "inputs": [],
      "name": "pause",
      "outputs": [],
      "stateMutability": "nonpayable",
      "type": "function"
    },
    {
      "inputs": [],
      "name": "paused",
      "outputs": [
        {
          "internalType": "bool",
          "name": "",
          "type": "bool"
        }
      ],
      "stateMutability": "view",
      "type": "function"
    },
    {
      "inputs": [
        {
          "internalType": "address",
          "name": "vault_",
          "type": "address"
        },
        {
          "components": [
            {
              "internalType": "int24",
              "name": "lowerTick",
              "type": "int24"
            },
            {
              "internalType": "int24",
              "name": "upperTick",
              "type": "int24"
            },
            {
              "internalType": "uint24",
              "name": "feeTier",
              "type": "uint24"
            }
          ],
          "internalType": "struct Range[]",
          "name": "ranges_",
          "type": "tuple[]"
        },
        {
          "components": [
            {
              "components": [
                {
                  "internalType": "uint128",
                  "name": "liquidity",
                  "type": "uint128"
                },
                {
                  "components": [
                    {
                      "internalType": "int24",
                      "name": "lowerTick",
                      "type": "int24"
                    },
                    {
                      "internalType": "int24",
                      "name": "upperTick",
                      "type": "int24"
                    },
                    {
                      "internalType": "uint24",
                      "name": "feeTier",
                      "type": "uint24"
                    }
                  ],
                  "internalType": "struct Range",
                  "name": "range",
                  "type": "tuple"
                }
              ],
              "internalType": "struct PositionLiquidity[]",
              "name": "removes",
              "type": "tuple[]"
            },
            {
              "components": [
                {
                  "internalType": "uint128",
                  "name": "liquidity",
                  "type": "uint128"
                },
                {
                  "components": [
                    {
                      "internalType": "int24",
                      "name": "lowerTick",
                      "type": "int24"
                    },
                    {
                      "internalType": "int24",
                      "name": "upperTick",
                      "type": "int24"
                    },
                    {
                      "internalType": "uint24",
                      "name": "feeTier",
                      "type": "uint24"
                    }
                  ],
                  "internalType": "struct Range",
                  "name": "range",
                  "type": "tuple"
                }
              ],
              "internalType": "struct PositionLiquidity[]",
              "name": "deposits",
              "type": "tuple[]"
            },
            {
              "components": [
                {
                  "internalType": "bytes",
                  "name": "payload",
                  "type": "bytes"
                },
                {
                  "internalType": "address",
                  "name": "pool",
                  "type": "address"
                },
                {
                  "internalType": "address",
                  "name": "router",
                  "type": "address"
                },
                {
                  "internalType": "uint256",
                  "name": "amountIn",
                  "type": "uint256"
                },
                {
                  "internalType": "uint256",
                  "name": "expectedMinReturn",
                  "type": "uint256"
                },
                {
                  "internalType": "bool",
                  "name": "zeroForOne",
                  "type": "bool"
                }
              ],
              "internalType": "struct SwapPayload",
              "name": "swap",
              "type": "tuple"
            }
          ],
          "internalType": "struct Rebalance",
          "name": "rebalanceParams_",
          "type": "tuple"
        },
        {
          "components": [
            {
              "internalType": "int24",
              "name": "lowerTick",
              "type": "int24"
            },
            {
              "internalType": "int24",
              "name": "upperTick",
              "type": "int24"
            },
            {
              "internalType": "uint24",
              "name": "feeTier",
              "type": "uint24"
            }
          ],
          "internalType": "struct Range[]",
          "name": "rangesToRemove_",
          "type": "tuple[]"
        },
        {
          "internalType": "uint256",
          "name": "feeAmount_",
          "type": "uint256"
        }
      ],
      "name": "rebalance",
      "outputs": [],
      "stateMutability": "nonpayable",
      "type": "function"
    },
    {
      "inputs": [
        {
          "internalType": "address[]",
          "name": "operators_",
          "type": "address[]"
        }
      ],
      "name": "removeOperators",
      "outputs": [],
      "stateMutability": "nonpayable",
      "type": "function"
    },
    {
      "inputs": [
        {
          "internalType": "address",
          "name": "vault_",
          "type": "address"
        },
        {
          "internalType": "address payable",
          "name": "to_",
          "type": "address"
        }
      ],
      "name": "removeVault",
      "outputs": [],
      "stateMutability": "nonpayable",
      "type": "function"
    },
    {
      "inputs": [],
      "name": "renounceOwnership",
      "outputs": [],
      "stateMutability": "nonpayable",
      "type": "function"
    },
    {
      "inputs": [
        {
          "internalType": "address",
          "name": "vault_",
          "type": "address"
        },
        {
          "internalType": "bytes",
          "name": "data_",
          "type": "bytes"
        }
      ],
      "name": "setVaultData",
      "outputs": [],
      "stateMutability": "nonpayable",
      "type": "function"
    },
    {
      "inputs": [
        {
          "internalType": "address",
          "name": "vault_",
          "type": "address"
        },
        {
          "internalType": "string",
          "name": "strat_",
          "type": "string"
        }
      ],
      "name": "setVaultStraByName",
      "outputs": [],
      "stateMutability": "nonpayable",
      "type": "function"
    },
    {
      "inputs": [],
      "name": "terms",
      "outputs": [
        {
          "internalType": "address",
          "name": "",
          "type": "address"
        }
      ],
      "stateMutability": "view",
      "type": "function"
    },
    {
      "inputs": [
        {
          "internalType": "address",
          "name": "vault_",
          "type": "address"
        }
      ],
      "name": "toggleRestrictMint",
      "outputs": [],
      "stateMutability": "nonpayable",
      "type": "function"
    },
    {
      "inputs": [
        {
          "internalType": "address",
          "name": "newOwner",
          "type": "address"
        }
      ],
      "name": "transferOwnership",
      "outputs": [],
      "stateMutability": "nonpayable",
      "type": "function"
    },
    {
      "inputs": [],
      "name": "unpause",
      "outputs": [],
      "stateMutability": "nonpayable",
      "type": "function"
    },
    {
      "inputs": [
        {
          "internalType": "address",
          "name": "",
          "type": "address"
        }
      ],
      "name": "vaults",
      "outputs": [
        {
          "internalType": "uint256",
          "name": "balance",
          "type": "uint256"
        },
        {
          "internalType": "uint256",
          "name": "lastRebalance",
          "type": "uint256"
        },
        {
          "internalType": "bytes",
          "name": "datas",
          "type": "bytes"
        },
        {
          "internalType": "bytes32",
          "name": "strat",
          "type": "bytes32"
        },
        {
          "internalType": "uint256",
          "name": "endOfMM",
          "type": "uint256"
        }
      ],
      "stateMutability": "view",
      "type": "function"
    },
    {
      "inputs": [
        {
          "internalType": "string",
          "name": "strat_",
          "type": "string"
        }
      ],
      "name": "whitelistStrat",
      "outputs": [],
      "stateMutability": "nonpayable",
      "type": "function"
    },
    {
      "inputs": [
        {
          "internalType": "address",
          "name": "vault_",
          "type": "address"
        },
        {
          "internalType": "uint256",
          "name": "amount_",
          "type": "uint256"
        },
        {
          "internalType": "address payable",
          "name": "to_",
          "type": "address"
        }
      ],
      "name": "withdrawVaultBalance",
      "outputs": [],
      "stateMutability": "nonpayable",
      "type": "function"
    }
  ],
  "transactionHash": "0xfbed8aa1e45de4b748a9bfddf76905cfa95117243c55fa493c14075daf4a72b2",
  "args": [
    "0x7598e84B2E114AB62CAB288CE5f7d5f6bad35BbA",
    100,
    "0x631fCEC46c08C73AAeB765bF6362A37778D2C2c9",
    31536000
  ],
  "numDeployments": 1,
  "solcInputHash": "c131c61c8b958fdaf616040d0c0b4f34",
  "bytecode": "0x6101006040523480156200001257600080fd5b506040516200338238038062003382833981016040819052620000359162000079565b6001600160a01b0393841660805261ffff90921660a0529190911660c05260e052620000d3565b80516001600160a01b03811681146200007457600080fd5b919050565b600080600080608085870312156200009057600080fd5b6200009b856200005c565b9350602085015161ffff81168114620000b357600080fd5b9250620000c3604086016200005c565b6060959095015193969295505050565b60805160a05160c05160e05161325962000129600039600081816103f701528181610baa01526123190152600081816104e001528181610a770152611714015260006104790152600061021d01526132596000f3fe60806040526004361061019c5760003560e01c806390229af7116100ec578063ccdf7a021161008a578063da5e3bb811610064578063da5e3bb814610502578063ded2df7114610524578063e28d490614610537578063f2fde38b1461055757600080fd5b8063ccdf7a0214610467578063d365a377146104ae578063d5025625146104ce57600080fd5b8063a622ee7c116100c6578063a622ee7c146103b4578063a737224f146103e5578063b7d3824314610427578063c4d66de81461044757600080fd5b806390229af7146103475780639d6bc8f114610374578063a07aea1c1461039457600080fd5b80635c975abb116101595780637407e38c116101335780637407e38c146102d45780638456cb59146102f457806386de1467146103095780638da5cb5b1461032957600080fd5b80635c975abb1461027c5780636f2cbdf01461029f578063715018a6146102bf57600080fd5b80630cff5594146101a1578063152f2bb7146101b65780633f4ba83a146101d65780634802b951146101eb578063573ea5751461020b5780635c1c3fe11461025c575b600080fd5b6101b46101af366004612755565b610577565b005b3480156101c257600080fd5b506101b46101d13660046127c2565b6105f8565b3480156101e257600080fd5b506101b4610757565b3480156101f757600080fd5b506101b4610206366004612817565b610769565b34801561021757600080fd5b5061023f7f000000000000000000000000000000000000000000000000000000000000000081565b6040516001600160a01b0390911681526020015b60405180910390f35b34801561026857600080fd5b506101b4610277366004612755565b6108b2565b34801561028857600080fd5b5060655460ff166040519015158152602001610253565b3480156102ab57600080fd5b506101b46102ba366004612755565b610a64565b3480156102cb57600080fd5b506101b4610c04565b3480156102e057600080fd5b506101b46102ef3660046127c2565b610c16565b34801561030057600080fd5b506101b4610d7b565b34801561031557600080fd5b506101b4610324366004612859565b610d8b565b34801561033557600080fd5b506033546001600160a01b031661023f565b34801561035357600080fd5b50610367610362366004612755565b610eeb565b60405161025391906128e8565b34801561038057600080fd5b506101b461038f36600461297d565b61103a565b3480156103a057600080fd5b506101b46103af366004612a35565b611234565b3480156103c057600080fd5b506103d46103cf366004612755565b61137e565b604051610253959493929190612aaa565b3480156103f157600080fd5b506104197f000000000000000000000000000000000000000000000000000000000000000081565b604051908152602001610253565b34801561043357600080fd5b506101b4610442366004612add565b611435565b34801561045357600080fd5b506101b4610462366004612755565b61156b565b34801561047357600080fd5b5061049b7f000000000000000000000000000000000000000000000000000000000000000081565b60405161ffff9091168152602001610253565b3480156104ba57600080fd5b506101b46104c9366004612a35565b611685565b3480156104da57600080fd5b5061023f7f000000000000000000000000000000000000000000000000000000000000000081565b34801561050e57600080fd5b506105176116d1565b6040516102539190612b16565b6101b4610532366004612b5a565b6116e2565b34801561054357600080fd5b5061023f610552366004612bdd565b611810565b34801561056357600080fd5b506101b4610572366004612755565b61183a565b61057f6118b3565b6001600160a01b038116600090815260996020526040902060040154819042118015906105c657506001600160a01b03811660009081526099602052604090206004015415155b6105eb5760405162461bcd60e51b81526004016105e290612bf6565b60405180910390fd5b6105f4826118f9565b5050565b6106006118b3565b826001600160a01b0381166106275760405162461bcd60e51b81526004016105e290612c2d565b83336001600160a01b0316816001600160a01b0316638da5cb5b6040518163ffffffff1660e01b8152600401602060405180830381865afa158015610670573d6000803e3d6000fd5b505050506040513d601f19601f820116820180604052508101906106949190612c64565b6001600160a01b0316146106ba5760405162461bcd60e51b81526004016105e290612c81565b6001600160a01b0385166000908152609960205260409020600401548590421180159061070157506001600160a01b03811660009081526099602052604090206004015415155b61071d5760405162461bcd60e51b81526004016105e290612bf6565b61074f868686604051602001610734929190612cb8565b60405160208183030381529060405280519060200120611977565b505050505050565b61075f611a88565b610767611ae2565b565b6107716118b3565b610779611a88565b6000828260405160200161078e929190612cb8565b60408051601f19818403018152828252805160209182012060008452908301918290529151902090915081036108065760405162461bcd60e51b815260206004820152601860248201527f47617353746174696f6e3a20656d70747920737472696e67000000000000000060448201526064016105e2565b610811609782611b34565b1561085e5760405162461bcd60e51b815260206004820152601e60248201527f47617353746174696f6e3a2073747261742077686974656c69737465642e000060448201526064016105e2565b610869609782611b51565b50306001600160a01b03167fa4094cdcb85e338885979ed54c0222c307ef0c73799c0c1abecf12fb787e3fdb84846040516108a5929190612cf1565b60405180910390a2505050565b6108ba6118b3565b806001600160a01b0381166108e15760405162461bcd60e51b81526004016105e290612c2d565b81336001600160a01b0316816001600160a01b0316638da5cb5b6040518163ffffffff1660e01b8152600401602060405180830381865afa15801561092a573d6000803e3d6000fd5b505050506040513d601f19601f8201168201806040525081019061094e9190612c64565b6001600160a01b0316146109745760405162461bcd60e51b81526004016105e290612c81565b6001600160a01b038316600090815260996020526040902060040154839042118015906109bb57506001600160a01b03811660009081526099602052604090206004015415155b6109d75760405162461bcd60e51b81526004016105e290612bf6565b836001600160a01b0316635f59dce56040518163ffffffff1660e01b8152600401600060405180830381600087803b158015610a1257600080fd5b505af1158015610a26573d6000803e3d6000fd5b50506040516001600160a01b03871692507fecf03d338988442b436adebc08a049afb0e961f5d4fecc3ec2acf9d28fd339449150600090a250505050565b610a6c6118b3565b336001600160a01b037f00000000000000000000000000000000000000000000000000000000000000001614610add5760405162461bcd60e51b815260206004820152601660248201527547617353746174696f6e3a206f6e6c79205465726d7360501b60448201526064016105e2565b806001600160a01b038116610b045760405162461bcd60e51b81526004016105e290612c2d565b6001600160a01b03821660009081526099602052604090206004015482904211801590610b4b57506001600160a01b03811660009081526099602052604090206004015415155b610b675760405162461bcd60e51b81526004016105e290612bf6565b6001600160a01b0383166000818152609960205260409020600401547f89dbf4d2948690f95ffdf2bbe3451d1b1f91497b265c4261e9c31f5a0dfd679f90610bcf7f000000000000000000000000000000000000000000000000000000000000000042612d23565b6001600160a01b03871660009081526099602052604090819020600401829055516108a5929190918252602082015260400190565b610c0c611a88565b6107676000611b5d565b610c1e6118b3565b826001600160a01b038116610c455760405162461bcd60e51b81526004016105e290612c2d565b83336001600160a01b0316816001600160a01b0316638da5cb5b6040518163ffffffff1660e01b8152600401602060405180830381865afa158015610c8e573d6000803e3d6000fd5b505050506040513d601f19601f82011682018060405250810190610cb29190612c64565b6001600160a01b031614610cd85760405162461bcd60e51b81526004016105e290612c81565b6001600160a01b03851660009081526099602052604090206004015485904211801590610d1f57506001600160a01b03811660009081526099602052604090206004015415155b610d3b5760405162461bcd60e51b81526004016105e290612bf6565b61074f8686868080601f016020809104026020016040519081016040528093929190818152602001838380828437600092019190915250611baf92505050565b610d83611a88565b610767611c9d565b610d936118b3565b826001600160a01b038116610dba5760405162461bcd60e51b81526004016105e290612c2d565b83336001600160a01b0316816001600160a01b0316638da5cb5b6040518163ffffffff1660e01b8152600401602060405180830381865afa158015610e03573d6000803e3d6000fd5b505050506040513d601f19601f82011682018060405250810190610e279190612c64565b6001600160a01b031614610e4d5760405162461bcd60e51b81526004016105e290612c81565b6001600160a01b03851660009081526099602052604090206004015485904211801590610e9457506001600160a01b03811660009081526099602052604090206004015415155b610eb05760405162461bcd60e51b81526004016105e290612bf6565b836001600160a01b038116610ed75760405162461bcd60e51b81526004016105e290612c2d565b610ee2878787611cda565b50505050505050565b610f206040518060a0016040528060008152602001600081526020016060815260200160008019168152602001600081525090565b816001600160a01b038116610f475760405162461bcd60e51b81526004016105e290612c2d565b60996000846001600160a01b03166001600160a01b031681526020019081526020016000206040518060a00160405290816000820154815260200160018201548152602001600282018054610f9b90612d3b565b80601f0160208091040260200160405190810160405280929190818152602001828054610fc790612d3b565b80156110145780601f10610fe957610100808354040283529160200191611014565b820191906000526020600020905b815481529060010190602001808311610ff757829003601f168201915b505050505081526020016003820154815260200160048201548152505091505b50919050565b6110426118b3565b6001600160a01b0387166000908152609960205260409020600401548790421180159061108957506001600160a01b03811660009081526099602052604090206004015415155b6110a55760405162461bcd60e51b81526004016105e290612bf6565b60006110b033611df4565b509050806110fa5760405162461bcd60e51b815260206004820152601760248201527623b0b9a9ba30ba34b7b71d1037379037b832b930ba37b960491b60448201526064016105e2565b6001600160a01b03891660009081526099602052604090206004015442106111705760405162461bcd60e51b8152602060048201526024808201527f47617353746174696f6e3a207661756c74206e6f206c6f6e676572206d616e6160448201526333b2b21760e11b60648201526084016105e2565b600061117c8a85611e8e565b60405163236bc33960e21b81529091506001600160a01b038b1690638daf0ce4906111b3908c908c908c908c908c90600401612ec6565b600060405180830381600087803b1580156111cd57600080fd5b505af11580156111e1573d6000803e3d6000fd5b50505050896001600160a01b03167fa44b3c204c0102fc9bea80c7d9b377b92e3d60599ce49e19119c40d9325c2aaa8260405161122091815260200190565b60405180910390a250505050505050505050565b61123c6118b3565b611244611a88565b60005b8181101561133657600061128084848481811061126657611266613023565b905060200201602081019061127b9190612755565b611df4565b50905080156112c85760405162461bcd60e51b815260206004820152601460248201527323b0b9a9ba30ba34b7b71d1037b832b930ba37b960611b60448201526064016105e2565b609a8484848181106112dc576112dc613023565b90506020020160208101906112f19190612755565b81546001810183556000928352602090922090910180546001600160a01b0319166001600160a01b03909216919091179055508061132e81613039565b915050611247565b50306001600160a01b03167fe34691fbf3490a795c0691aaf30195d24d57b28fbf9a6c40a81732d567c38a808383604051611372929190613052565b60405180910390a25050565b609960205260009081526040902080546001820154600283018054929391926113a690612d3b565b80601f01602080910402602001604051908101604052809291908181526020018280546113d290612d3b565b801561141f5780601f106113f45761010080835404028352916020019161141f565b820191906000526020600020905b81548152906001019060200180831161140257829003601f168201915b5050505050908060030154908060040154905085565b61143d6118b3565b816001600160a01b0381166114645760405162461bcd60e51b81526004016105e290612c2d565b82336001600160a01b0316816001600160a01b0316638da5cb5b6040518163ffffffff1660e01b8152600401602060405180830381865afa1580156114ad573d6000803e3d6000fd5b505050506040513d601f19601f820116820180604052508101906114d19190612c64565b6001600160a01b0316146114f75760405162461bcd60e51b81526004016105e290612c81565b6001600160a01b0384166000908152609960205260409020600401548490421180159061153e57506001600160a01b03811660009081526099602052604090206004015415155b61155a5760405162461bcd60e51b81526004016105e290612bf6565b6115648585612019565b5050505050565b600054610100900460ff161580801561158b5750600054600160ff909116105b806115a55750303b1580156115a5575060005460ff166001145b6116085760405162461bcd60e51b815260206004820152602e60248201527f496e697469616c697a61626c653a20636f6e747261637420697320616c72656160448201526d191e481a5b9a5d1a585b1a5e995960921b60648201526084016105e2565b6000805460ff19166001179055801561162b576000805461ff0019166101001790555b61163482611b5d565b61163c6120af565b80156105f4576000805461ff0019169055604051600181527f7f26b83ff96e1f2b6a682f133852f6798a09c465da95921460cefb38474024989060200160405180910390a15050565b61168d6118b3565b611695611a88565b6105f48282808060200260200160405190810160405280939291908181526020018383602002808284376000920191909152506120de92505050565b60606116dd60976121d5565b905090565b6116ea6118b3565b846001600160a01b0381166117115760405162461bcd60e51b81526004016105e290612c2d565b857f00000000000000000000000000000000000000000000000000000000000000006001600160a01b0316816001600160a01b0316638da5cb5b6040518163ffffffff1660e01b8152600401602060405180830381865afa15801561177a573d6000803e3d6000fd5b505050506040513d601f19601f8201168201806040525081019061179e9190612c64565b6001600160a01b0316146117f45760405162461bcd60e51b815260206004820152601a60248201527f47617353746174696f6e3a206f776e6572206e6f205465726d7300000000000060448201526064016105e2565b61180187878787876121e0565b3415610ee257610ee2876118f9565b609a818154811061182057600080fd5b6000918252602090912001546001600160a01b0316905081565b611842611a88565b6001600160a01b0381166118a75760405162461bcd60e51b815260206004820152602660248201527f4f776e61626c653a206e6577206f776e657220697320746865207a65726f206160448201526564647265737360d01b60648201526084016105e2565b6118b081611b5d565b50565b60655460ff16156107675760405162461bcd60e51b815260206004820152601060248201526f14185d5cd8589b194e881c185d5cd95960821b60448201526064016105e2565b6001600160a01b03811660009081526099602052604081208054349290611921908490612d23565b90915550506001600160a01b0381166000818152609960209081526040918290205491519182527f2bae9ef5356c8b1ba3acb21df1a9201ff1ef943f4d8425697ce2d6381fcdac9991015b60405180910390a250565b6001600160a01b0382166000908152609960205260409020600301548190036119d65760405162461bcd60e51b815260206004820152601160248201527011d85cd4dd185d1a5bdb8e881cdd1c985d607a1b60448201526064016105e2565b6119e1609782611b34565b611a385760405162461bcd60e51b815260206004820152602260248201527f47617353746174696f6e3a207374726174206e6f742077686974656c69737465604482015261321760f11b60648201526084016105e2565b6001600160a01b03821660008181526099602052604090819020600301839055517f243930e940e93a5b6e26b15204394bc1aa410465b647ea787ae57960c5cf79a8906113729084815260200190565b6033546001600160a01b031633146107675760405162461bcd60e51b815260206004820181905260248201527f4f776e61626c653a2063616c6c6572206973206e6f7420746865206f776e657260448201526064016105e2565b611aea6123a4565b6065805460ff191690557f5db9ee0a495bf2e6ff9c91a7834c1ba4fdd244a5e8aa4e537bd38aeae4b073aa335b6040516001600160a01b03909116815260200160405180910390a1565b600081815260018301602052604081205415155b90505b92915050565b6000611b4883836123ed565b603380546001600160a01b038381166001600160a01b0319831681179093556040519116919082907f8be0079c531659141344cd1fd0a4f28419497f9722a3daafe3b4186f6b6457e090600090a35050565b808051906020012060996000846001600160a01b03166001600160a01b03168152602001908152602001600020600201604051611bec91906130a0565b604051809103902003611c345760405162461bcd60e51b815260206004820152601060248201526f47617353746174696f6e3a206461746160801b60448201526064016105e2565b6001600160a01b03821660009081526099602090815260409091208251611c63926002909201918401906125e9565b50816001600160a01b03167f428733985d5c007cd5d8813643ceb64f6a3f2606066e9a08d07af65254ea395282604051611372919061313b565b611ca56118b3565b6065805460ff191660011790557f62e78cea01bee320cd4e420270b5ea74000d11b0c9f74754ebdbfc544b05a258611b173390565b6001600160a01b038316600090815260996020526040902054821115611d575760405162461bcd60e51b815260206004820152602c60248201527f47617353746174696f6e3a20616d6f756e74206578636565647320617661696c60448201526b61626c652062616c616e636560a01b60648201526084016105e2565b6001600160a01b03831660009081526099602052604081208054849290611d7f90849061314e565b90915550611d9890506001600160a01b0382168361243c565b6001600160a01b038381166000818152609960209081526040918290205482518781529486169185019190915290830152907f7408fb14206b893353f1ad47950175963a6dfacb1021ac84e613aa220fd4e1ad906060016108a5565b600080826001600160a01b038116611e1e5760405162461bcd60e51b81526004016105e290612c2d565b60005b609a54811015611e7f57846001600160a01b0316609a8281548110611e4857611e48613023565b6000918252602090912001546001600160a01b031603611e6d57600193509150611e88565b80611e7781613039565b915050611e21565b50600080925092505b50915091565b60008060996000856001600160a01b03166001600160a01b031681526020019081526020016000206040518060a00160405290816000820154815260200160018201548152602001600282018054611ee590612d3b565b80601f0160208091040260200160405190810160405280929190818152602001828054611f1190612d3b565b8015611f5e5780601f10611f3357610100808354040283529160200191611f5e565b820191906000526020600020905b815481529060010190602001808311611f4157829003601f168201915b5050505050815260200160038201548152602001600482015481525050905082816000015111611fe25760405162461bcd60e51b815260206004820152602960248201527f47617353746174696f6e3a204e6f7420656e6f7567682062616c616e636520746044820152686f207061792066656560b81b60648201526084016105e2565b8051611fef90849061314e565b6001600160a01b039094166000908152609960205260409020426001820155849055509192915050565b6001600160a01b03821660009081526099602052604081208054828255600182018390559161204b600283018261266d565b506000600382018190556004909101558015612074576120746001600160a01b0383168261243c565b826001600160a01b03167f3c5c011a5287a3bb157571fbfec1ee8b0ced5809ff6a685b64e5858ea037c149826040516108a591815260200190565b600054610100900460ff166120d65760405162461bcd60e51b81526004016105e290613165565b61076761255a565b60005b815181101561219b5760008061210f84848151811061210257612102613023565b6020026020010151611df4565b915091508161215a5760405162461bcd60e51b815260206004820152601760248201527623b0b9a9ba30ba34b7b71d1037379037b832b930ba37b960491b60448201526064016105e2565b609a818154811061216d5761216d613023565b600091825260209091200180546001600160a01b03191690555081905061219381613039565b9150506120e1565b50306001600160a01b03167fb100901cd71d3dd7c28d4fa27a37dbebbd65dcb04e26e62e0fc6e8c963fb16138260405161196c91906131b0565b6060611b4b8261258d565b600082826040516020016121f5929190612cb8565b60408051601f198184030181529190528051602090910120905061221a609782611b34565b6122665760405162461bcd60e51b815260206004820152601b60248201527f47617353746174696f6e3a204e6f742077686974656c6973746564000000000060448201526064016105e2565b6001600160a01b038616600090815260996020526040902060040154156122cf5760405162461bcd60e51b815260206004820152601f60248201527f47617353746174696f6e3a205661756c7420616c72656164792061646465640060448201526064016105e2565b6001600160a01b03861660009081526099602052604090206122f59060020186866126a7565b506001600160a01b038616600090815260996020526040902060030181905561233e7f000000000000000000000000000000000000000000000000000000000000000042612d23565b6001600160a01b038716600081815260996020526040908190206004019290925590517fe2ac259cf4e54760e2d0661b0606ddf3f470df2dc47f57e5cc9c4f533a870826906123949088908890889088906131f1565b60405180910390a2505050505050565b60655460ff166107675760405162461bcd60e51b815260206004820152601460248201527314185d5cd8589b194e881b9bdd081c185d5cd95960621b60448201526064016105e2565b600081815260018301602052604081205461243457508154600181810184556000848152602080822090930184905584548482528286019093526040902091909155611b4b565b506000611b4b565b8047101561248c5760405162461bcd60e51b815260206004820152601d60248201527f416464726573733a20696e73756666696369656e742062616c616e636500000060448201526064016105e2565b6000826001600160a01b03168260405160006040518083038185875af1925050503d80600081146124d9576040519150601f19603f3d011682016040523d82523d6000602084013e6124de565b606091505b50509050806125555760405162461bcd60e51b815260206004820152603a60248201527f416464726573733a20756e61626c6520746f2073656e642076616c75652c207260448201527f6563697069656e74206d6179206861766520726576657274656400000000000060648201526084016105e2565b505050565b600054610100900460ff166125815760405162461bcd60e51b81526004016105e290613165565b6065805460ff19169055565b6060816000018054806020026020016040519081016040528092919081815260200182805480156125dd57602002820191906000526020600020905b8154815260200190600101908083116125c9575b50505050509050919050565b8280546125f590612d3b565b90600052602060002090601f016020900481019282612617576000855561265d565b82601f1061263057805160ff191683800117855561265d565b8280016001018555821561265d579182015b8281111561265d578251825591602001919060010190612642565b5061266992915061271b565b5090565b50805461267990612d3b565b6000825580601f10612689575050565b601f0160209004906000526020600020908101906118b0919061271b565b8280546126b390612d3b565b90600052602060002090601f0160209004810192826126d5576000855561265d565b82601f106126ee5782800160ff1982351617855561265d565b8280016001018555821561265d579182015b8281111561265d578235825591602001919060010190612700565b5b80821115612669576000815560010161271c565b6001600160a01b03811681146118b057600080fd5b803561275081612730565b919050565b60006020828403121561276757600080fd5b813561277281612730565b9392505050565b60008083601f84011261278b57600080fd5b50813567ffffffffffffffff8111156127a357600080fd5b6020830191508360208285010111156127bb57600080fd5b9250929050565b6000806000604084860312156127d757600080fd5b83356127e281612730565b9250602084013567ffffffffffffffff8111156127fe57600080fd5b61280a86828701612779565b9497909650939450505050565b6000806020838503121561282a57600080fd5b823567ffffffffffffffff81111561284157600080fd5b61284d85828601612779565b90969095509350505050565b60008060006060848603121561286e57600080fd5b833561287981612730565b925060208401359150604084013561289081612730565b809150509250925092565b6000815180845260005b818110156128c1576020818501810151868301820152016128a5565b818111156128d3576000602083870101525b50601f01601f19169290920160200192915050565b6020815281516020820152602082015160408201526000604083015160a0606084015261291860c084018261289b565b905060608401516080840152608084015160a08401528091505092915050565b60008083601f84011261294a57600080fd5b50813567ffffffffffffffff81111561296257600080fd5b6020830191508360206060830285010111156127bb57600080fd5b600080600080600080600060a0888a03121561299857600080fd5b87356129a381612730565b9650602088013567ffffffffffffffff808211156129c057600080fd5b6129cc8b838c01612938565b909850965060408a01359150808211156129e557600080fd5b908901906060828c0312156129f957600080fd5b90945060608901359080821115612a0f57600080fd5b50612a1c8a828b01612938565b989b979a50959894979596608090950135949350505050565b60008060208385031215612a4857600080fd5b823567ffffffffffffffff80821115612a6057600080fd5b818501915085601f830112612a7457600080fd5b813581811115612a8357600080fd5b8660208260051b8501011115612a9857600080fd5b60209290920196919550909350505050565b85815284602082015260a060408201526000612ac960a083018661289b565b606083019490945250608001529392505050565b60008060408385031215612af057600080fd5b8235612afb81612730565b91506020830135612b0b81612730565b809150509250929050565b6020808252825182820181905260009190848201906040850190845b81811015612b4e57835183529284019291840191600101612b32565b50909695505050505050565b600080600080600060608688031215612b7257600080fd5b8535612b7d81612730565b9450602086013567ffffffffffffffff80821115612b9a57600080fd5b612ba689838a01612779565b90965094506040880135915080821115612bbf57600080fd5b50612bcc88828901612779565b969995985093965092949392505050565b600060208284031215612bef57600080fd5b5035919050565b6020808252601d908201527f47617353746174696f6e3a205661756c74206e6f74206d616e61676564000000604082015260600190565b60208082526018908201527f47617353746174696f6e3a2061646472657373205a65726f0000000000000000604082015260600190565b600060208284031215612c7657600080fd5b815161277281612730565b6020808252601c908201527f47617353746174696f6e3a206f6e6c79207661756c74206f776e657200000000604082015260600190565b8183823760009101908152919050565b81835281816020850137506000828201602090810191909152601f909101601f19169091010190565b602081526000612d05602083018486612cc8565b949350505050565b634e487b7160e01b600052601160045260246000fd5b60008219821115612d3657612d36612d0d565b500190565b600181811c90821680612d4f57607f821691505b60208210810361103457634e487b7160e01b600052602260045260246000fd5b8035600281900b811461275057600080fd5b612d8a81612d6f565b60020b8252612d9b60208201612d6f565b60020b6020830152604081013562ffffff8116808214612dba57600080fd5b80604085015250505050565b81835260208301925060008160005b84811015612dfa57612de78683612d81565b6060958601959190910190600101612dd5565b5093949350505050565b6000808335601e19843603018112612e1b57600080fd5b830160208101925035905067ffffffffffffffff811115612e3b57600080fd5b8060071b36038313156127bb57600080fd5b818352600060208085019450826000805b86811015612eaa5782356fffffffffffffffffffffffffffffffff8116808214612e86578384fd5b895250612e97848901848601612d81565b6080978801979290920191600101612e5e565b50959695505050505050565b8035801515811461275057600080fd5b60006060808352612eda818401888a612dc6565b602084820381860152612eed8889612e04565b848452612efd8585018284612e4d565b915050612f0c828a018a612e04565b84830384860152612f1e838284612e4d565b92505050604089013560be198a3603018112612f3957600080fd5b8981019050838203604085015280359350601e19813603018412612f5c57600080fd5b92830192833567ffffffffffffffff811115612f7757600080fd5b803603821315612f8657600080fd5b60c08352612f9a60c0840182868801612cc8565b945050612fa8838201612745565b6001600160a01b031683830152612fc160408201612745565b6001600160a01b03811660408401529250848101358583015260808101356080830152612ff060a08201612eb6565b94505061300160a082018515159052565b50508381036040850152613016818688612dc6565b9998505050505050505050565b634e487b7160e01b600052603260045260246000fd5b60006001820161304b5761304b612d0d565b5060010190565b60208082528181018390526000908460408401835b8681101561309557823561307a81612730565b6001600160a01b031682529183019190830190600101613067565b509695505050505050565b600080835481600182811c9150808316806130bc57607f831692505b602080841082036130db57634e487b7160e01b86526022600452602486fd5b8180156130ef57600181146131005761312d565b60ff1986168952848901965061312d565b60008a81526020902060005b868110156131255781548b82015290850190830161310c565b505084890196505b509498975050505050505050565b602081526000611b48602083018461289b565b60008282101561316057613160612d0d565b500390565b6020808252602b908201527f496e697469616c697a61626c653a20636f6e7472616374206973206e6f74206960408201526a6e697469616c697a696e6760a81b606082015260800190565b6020808252825182820181905260009190848201906040850190845b81811015612b4e5783516001600160a01b0316835292840192918401916001016131cc565b604081526000613205604083018688612cc8565b8281036020840152613218818587612cc8565b97965050505050505056fea2646970667358221220699a6260ac4e44988b1c095a4c8ff7c3b8f1db642d698cf97714a70ecb1faa6464736f6c634300080d0033",
  "devdoc": {
    "kind": "dev",
    "methods": {
      "owner()": {
        "details": "Returns the address of the current owner."
      },
      "paused()": {
        "details": "Returns true if the contract is paused, and false otherwise."
      },
      "renounceOwnership()": {
        "details": "Leaves the contract without owner. It will not be possible to call `onlyOwner` functions anymore. Can only be called by the current owner. NOTE: Renouncing ownership will leave the contract without an owner, thereby removing any functionality that is only available to the owner."
      },
      "transferOwnership(address)": {
        "details": "Transfers ownership of the contract to a new account (`newOwner`). Can only be called by the current owner."
      }
    },
    "version": 1
  },
  "userdoc": {
    "kind": "user",
    "methods": {},
    "version": 1
  },
  "storageLayout": {
    "storage": [
      {
        "astId": 315,
        "contract": "contracts/GasStation.sol:GasStation",
        "label": "_initialized",
        "offset": 0,
        "slot": "0",
        "type": "t_uint8"
      },
      {
        "astId": 318,
        "contract": "contracts/GasStation.sol:GasStation",
        "label": "_initializing",
        "offset": 1,
        "slot": "0",
        "type": "t_bool"
      },
      {
        "astId": 929,
        "contract": "contracts/GasStation.sol:GasStation",
        "label": "__gap",
        "offset": 0,
        "slot": "1",
        "type": "t_array(t_uint256)50_storage"
      },
      {
        "astId": 187,
        "contract": "contracts/GasStation.sol:GasStation",
        "label": "_owner",
        "offset": 0,
        "slot": "51",
        "type": "t_address"
      },
      {
        "astId": 307,
        "contract": "contracts/GasStation.sol:GasStation",
        "label": "__gap",
        "offset": 0,
        "slot": "52",
        "type": "t_array(t_uint256)49_storage"
      },
      {
        "astId": 480,
        "contract": "contracts/GasStation.sol:GasStation",
        "label": "_paused",
        "offset": 0,
        "slot": "101",
        "type": "t_bool"
      },
      {
        "astId": 585,
        "contract": "contracts/GasStation.sol:GasStation",
        "label": "__gap",
        "offset": 0,
        "slot": "102",
        "type": "t_array(t_uint256)49_storage"
      },
      {
        "astId": 6212,
        "contract": "contracts/GasStation.sol:GasStation",
        "label": "_whitelistedStrat",
        "offset": 0,
        "slot": "151",
        "type": "t_struct(Bytes32Set)3342_storage"
      },
      {
        "astId": 6217,
        "contract": "contracts/GasStation.sol:GasStation",
        "label": "vaults",
        "offset": 0,
        "slot": "153",
        "type": "t_mapping(t_address,t_struct(VaultInfo)8851_storage)"
      },
      {
        "astId": 6220,
        "contract": "contracts/GasStation.sol:GasStation",
        "label": "operators",
        "offset": 0,
        "slot": "154",
        "type": "t_array(t_address)dyn_storage"
      }
    ],
    "types": {
      "t_address": {
        "encoding": "inplace",
        "label": "address",
        "numberOfBytes": "20"
      },
      "t_array(t_address)dyn_storage": {
        "base": "t_address",
        "encoding": "dynamic_array",
        "label": "address[]",
        "numberOfBytes": "32"
      },
      "t_array(t_bytes32)dyn_storage": {
        "base": "t_bytes32",
        "encoding": "dynamic_array",
        "label": "bytes32[]",
        "numberOfBytes": "32"
      },
      "t_array(t_uint256)49_storage": {
        "base": "t_uint256",
        "encoding": "inplace",
        "label": "uint256[49]",
        "numberOfBytes": "1568"
      },
      "t_array(t_uint256)50_storage": {
        "base": "t_uint256",
        "encoding": "inplace",
        "label": "uint256[50]",
        "numberOfBytes": "1600"
      },
      "t_bool": {
        "encoding": "inplace",
        "label": "bool",
        "numberOfBytes": "1"
      },
      "t_bytes32": {
        "encoding": "inplace",
        "label": "bytes32",
        "numberOfBytes": "32"
      },
      "t_bytes_storage": {
        "encoding": "bytes",
        "label": "bytes",
        "numberOfBytes": "32"
      },
      "t_mapping(t_address,t_struct(VaultInfo)8851_storage)": {
        "encoding": "mapping",
        "key": "t_address",
        "label": "mapping(address => struct VaultInfo)",
        "numberOfBytes": "32",
        "value": "t_struct(VaultInfo)8851_storage"
      },
      "t_mapping(t_bytes32,t_uint256)": {
        "encoding": "mapping",
        "key": "t_bytes32",
        "label": "mapping(bytes32 => uint256)",
        "numberOfBytes": "32",
        "value": "t_uint256"
      },
      "t_struct(Bytes32Set)3342_storage": {
        "encoding": "inplace",
        "label": "struct EnumerableSet.Bytes32Set",
        "members": [
          {
            "astId": 3341,
            "contract": "contracts/GasStation.sol:GasStation",
            "label": "_inner",
            "offset": 0,
            "slot": "0",
            "type": "t_struct(Set)3148_storage"
          }
        ],
        "numberOfBytes": "64"
      },
      "t_struct(Set)3148_storage": {
        "encoding": "inplace",
        "label": "struct EnumerableSet.Set",
        "members": [
          {
            "astId": 3143,
            "contract": "contracts/GasStation.sol:GasStation",
            "label": "_values",
            "offset": 0,
            "slot": "0",
            "type": "t_array(t_bytes32)dyn_storage"
          },
          {
            "astId": 3147,
            "contract": "contracts/GasStation.sol:GasStation",
            "label": "_indexes",
            "offset": 0,
            "slot": "1",
            "type": "t_mapping(t_bytes32,t_uint256)"
          }
        ],
        "numberOfBytes": "64"
      },
      "t_struct(VaultInfo)8851_storage": {
        "encoding": "inplace",
        "label": "struct VaultInfo",
        "members": [
          {
            "astId": 8842,
            "contract": "contracts/GasStation.sol:GasStation",
            "label": "balance",
            "offset": 0,
            "slot": "0",
            "type": "t_uint256"
          },
          {
            "astId": 8844,
            "contract": "contracts/GasStation.sol:GasStation",
            "label": "lastRebalance",
            "offset": 0,
            "slot": "1",
            "type": "t_uint256"
          },
          {
            "astId": 8846,
            "contract": "contracts/GasStation.sol:GasStation",
            "label": "datas",
            "offset": 0,
            "slot": "2",
            "type": "t_bytes_storage"
          },
          {
            "astId": 8848,
            "contract": "contracts/GasStation.sol:GasStation",
            "label": "strat",
            "offset": 0,
            "slot": "3",
            "type": "t_bytes32"
          },
          {
            "astId": 8850,
            "contract": "contracts/GasStation.sol:GasStation",
            "label": "endOfMM",
            "offset": 0,
            "slot": "4",
            "type": "t_uint256"
          }
        ],
        "numberOfBytes": "160"
      },
      "t_uint256": {
        "encoding": "inplace",
        "label": "uint256",
        "numberOfBytes": "32"
      },
      "t_uint8": {
        "encoding": "inplace",
        "label": "uint8",
        "numberOfBytes": "1"
      }
    }
  }
}