{
  "address": "0xA01E3f964A4E6b9d54d57675BA60c7db4688C8EF",
  "abi": [
    {
      "inputs": [
        {
          "internalType": "address",
          "name": "gelato_",
          "type": "address"
        },
        {
          "internalType": "uint16",
          "name": "managerFeeBPS_",
          "type": "uint16"
        },
        {
          "internalType": "address",
          "name": "terms_",
          "type": "address"
        },
        {
          "internalType": "uint256",
          "name": "mmTermDuration_",
          "type": "uint256"
        }
      ],
      "stateMutability": "nonpayable",
      "type": "constructor"
    },
    {
      "anonymous": false,
      "inputs": [
        {
          "indexed": true,
          "internalType": "address",
          "name": "gasStation",
          "type": "address"
        },
        {
          "indexed": false,
          "internalType": "address[]",
          "name": "operators",
          "type": "address[]"
        }
      ],
      "name": "AddOperators",
      "type": "event"
    },
    {
      "anonymous": false,
      "inputs": [
        {
          "indexed": true,
          "internalType": "address",
          "name": "vault",
          "type": "address"
        },
        {
          "indexed": false,
          "internalType": "bytes",
          "name": "datas",
          "type": "bytes"
        },
        {
          "indexed": false,
          "internalType": "string",
          "name": "strat",
          "type": "string"
        }
      ],
      "name": "AddVault",
      "type": "event"
    },
    {
      "anonymous": false,
      "inputs": [
        {
          "indexed": true,
          "internalType": "address",
          "name": "vault",
          "type": "address"
        },
        {
          "indexed": false,
          "internalType": "uint256",
          "name": "oldMmTermDuration",
          "type": "uint256"
        },
        {
          "indexed": false,
          "internalType": "uint256",
          "name": "newMmTermDuration",
          "type": "uint256"
        }
      ],
      "name": "ExpandTermDuration",
      "type": "event"
    },
    {
      "anonymous": false,
      "inputs": [
        {
          "indexed": true,
          "internalType": "address",
          "name": "previousowner",
          "type": "address"
        },
        {
          "indexed": true,
          "internalType": "address",
          "name": "newowner",
          "type": "address"
        }
      ],
      "name": "OwnershipTransferred",
      "type": "event"
    },
    {
      "anonymous": false,
      "inputs": [
        {
          "indexed": false,
          "internalType": "address",
          "name": "account",
          "type": "address"
        }
      ],
      "name": "Paused",
      "type": "event"
    },
    {
      "anonymous": false,
      "inputs": [
        {
          "indexed": true,
          "internalType": "address",
          "name": "vault",
          "type": "address"
        },
        {
          "indexed": false,
          "internalType": "uint256",
          "name": "newBalance",
          "type": "uint256"
        }
      ],
      "name": "RebalanceVault",
      "type": "event"
    },
    {
      "anonymous": false,
      "inputs": [
        {
          "indexed": true,
          "internalType": "address",
          "name": "gasStation",
          "type": "address"
        },
        {
          "indexed": false,
          "internalType": "address[]",
          "name": "operators",
          "type": "address[]"
        }
      ],
      "name": "RemoveOperators",
      "type": "event"
    },
    {
      "anonymous": false,
      "inputs": [
        {
          "indexed": true,
          "internalType": "address",
          "name": "vault",
          "type": "address"
        },
        {
          "indexed": false,
          "internalType": "uint256",
          "name": "sendBack",
          "type": "uint256"
        }
      ],
      "name": "RemoveVault",
      "type": "event"
    },
    {
      "anonymous": false,
      "inputs": [
        {
          "indexed": true,
          "internalType": "address",
          "name": "vault",
          "type": "address"
        },
        {
          "indexed": false,
          "internalType": "bytes",
          "name": "data",
          "type": "bytes"
        }
      ],
      "name": "SetVaultData",
      "type": "event"
    },
    {
      "anonymous": false,
      "inputs": [
        {
          "indexed": true,
          "internalType": "address",
          "name": "vault",
          "type": "address"
        },
        {
          "indexed": false,
          "internalType": "bytes32",
          "name": "strat",
          "type": "bytes32"
        }
      ],
      "name": "SetVaultStrat",
      "type": "event"
    },
    {
      "anonymous": false,
      "inputs": [
        {
          "indexed": true,
          "internalType": "address",
          "name": "vault",
          "type": "address"
        }
      ],
      "name": "ToggleRestrictMint",
      "type": "event"
    },
    {
      "anonymous": false,
      "inputs": [
        {
          "indexed": false,
          "internalType": "address",
          "name": "account",
          "type": "address"
        }
      ],
      "name": "Unpaused",
      "type": "event"
    },
    {
      "anonymous": false,
      "inputs": [
        {
          "indexed": true,
          "internalType": "address",
          "name": "vault",
          "type": "address"
        },
        {
          "indexed": false,
          "internalType": "uint256",
          "name": "newBalance",
          "type": "uint256"
        }
      ],
      "name": "UpdateVaultBalance",
      "type": "event"
    },
    {
      "anonymous": false,
      "inputs": [
        {
          "indexed": true,
          "internalType": "address",
          "name": "gasStation",
          "type": "address"
        },
        {
          "indexed": false,
          "internalType": "string",
          "name": "strat",
          "type": "string"
        }
      ],
      "name": "WhitelistStrat",
      "type": "event"
    },
    {
      "anonymous": false,
      "inputs": [
        {
          "indexed": true,
          "internalType": "address",
          "name": "vault",
          "type": "address"
        },
        {
          "indexed": false,
          "internalType": "uint256",
          "name": "amount",
          "type": "uint256"
        },
        {
          "indexed": false,
          "internalType": "address",
          "name": "to",
          "type": "address"
        },
        {
          "indexed": false,
          "internalType": "uint256",
          "name": "newBalance",
          "type": "uint256"
        }
      ],
      "name": "WithdrawVaultBalance",
      "type": "event"
    },
    {
      "inputs": [
        {
          "internalType": "address[]",
          "name": "operators_",
          "type": "address[]"
        }
      ],
      "name": "addOperators",
      "outputs": [],
      "stateMutability": "nonpayable",
      "type": "function"
    },
    {
      "inputs": [
        {
          "internalType": "address",
          "name": "vault_",
          "type": "address"
        },
        {
          "internalType": "bytes",
          "name": "datas_",
          "type": "bytes"
        },
        {
          "internalType": "string",
          "name": "strat_",
          "type": "string"
        }
      ],
      "name": "addVault",
      "outputs": [],
      "stateMutability": "payable",
      "type": "function"
    },
    {
      "inputs": [
        {
          "internalType": "address",
          "name": "vault_",
          "type": "address"
        }
      ],
      "name": "expandMMTermDuration",
      "outputs": [],
      "stateMutability": "nonpayable",
      "type": "function"
    },
    {
      "inputs": [
        {
          "internalType": "address",
          "name": "vault_",
          "type": "address"
        }
      ],
      "name": "fundVaultBalance",
      "outputs": [],
      "stateMutability": "payable",
      "type": "function"
    },
    {
      "inputs": [],
      "name": "gelato",
      "outputs": [
        {
          "internalType": "address payable",
          "name": "",
          "type": "address"
        }
      ],
      "stateMutability": "view",
      "type": "function"
    },
    {
      "inputs": [
        {
          "internalType": "address",
          "name": "vault_",
          "type": "address"
        }
      ],
      "name": "getVaultInfo",
      "outputs": [
        {
          "components": [
            {
              "internalType": "uint256",
              "name": "balance",
              "type": "uint256"
            },
            {
              "internalType": "uint256",
              "name": "lastRebalance",
              "type": "uint256"
            },
            {
              "internalType": "bytes",
              "name": "datas",
              "type": "bytes"
            },
            {
              "internalType": "bytes32",
              "name": "strat",
              "type": "bytes32"
            },
            {
              "internalType": "uint256",
              "name": "endOfMM",
              "type": "uint256"
            }
          ],
          "internalType": "struct VaultInfo",
          "name": "",
          "type": "tuple"
        }
      ],
      "stateMutability": "view",
      "type": "function"
    },
    {
      "inputs": [],
      "name": "getWhitelistedStrat",
      "outputs": [
        {
          "internalType": "bytes32[]",
          "name": "",
          "type": "bytes32[]"
        }
      ],
      "stateMutability": "view",
      "type": "function"
    },
    {
      "inputs": [
        {
          "internalType": "address",
          "name": "owner_",
          "type": "address"
        }
      ],
      "name": "initialize",
      "outputs": [],
      "stateMutability": "nonpayable",
      "type": "function"
    },
    {
      "inputs": [],
      "name": "managerFeeBPS",
      "outputs": [
        {
          "internalType": "uint16",
          "name": "",
          "type": "uint16"
        }
      ],
      "stateMutability": "view",
      "type": "function"
    },
    {
      "inputs": [],
      "name": "mmTermDuration",
      "outputs": [
        {
          "internalType": "uint256",
          "name": "",
          "type": "uint256"
        }
      ],
      "stateMutability": "view",
      "type": "function"
    },
    {
      "inputs": [
        {
          "internalType": "uint256",
          "name": "",
          "type": "uint256"
        }
      ],
      "name": "operators",
      "outputs": [
        {
          "internalType": "address",
          "name": "",
          "type": "address"
        }
      ],
      "stateMutability": "view",
      "type": "function"
    },
    {
      "inputs": [],
      "name": "owner",
      "outputs": [
        {
          "internalType": "address",
          "name": "",
          "type": "address"
        }
      ],
      "stateMutability": "view",
      "type": "function"
    },
    {
      "inputs": [],
      "name": "pause",
      "outputs": [],
      "stateMutability": "nonpayable",
      "type": "function"
    },
    {
      "inputs": [],
      "name": "paused",
      "outputs": [
        {
          "internalType": "bool",
          "name": "",
          "type": "bool"
        }
      ],
      "stateMutability": "view",
      "type": "function"
    },
    {
      "inputs": [
        {
          "internalType": "address",
          "name": "vault_",
          "type": "address"
        },
        {
          "components": [
            {
              "internalType": "int24",
              "name": "lowerTick",
              "type": "int24"
            },
            {
              "internalType": "int24",
              "name": "upperTick",
              "type": "int24"
            },
            {
              "internalType": "uint24",
              "name": "feeTier",
              "type": "uint24"
            }
          ],
          "internalType": "struct Range[]",
          "name": "ranges_",
          "type": "tuple[]"
        },
        {
          "components": [
            {
              "components": [
                {
                  "internalType": "uint128",
                  "name": "liquidity",
                  "type": "uint128"
                },
                {
                  "components": [
                    {
                      "internalType": "int24",
                      "name": "lowerTick",
                      "type": "int24"
                    },
                    {
                      "internalType": "int24",
                      "name": "upperTick",
                      "type": "int24"
                    },
                    {
                      "internalType": "uint24",
                      "name": "feeTier",
                      "type": "uint24"
                    }
                  ],
                  "internalType": "struct Range",
                  "name": "range",
                  "type": "tuple"
                }
              ],
              "internalType": "struct PositionLiquidity[]",
              "name": "removes",
              "type": "tuple[]"
            },
            {
              "components": [
                {
                  "internalType": "uint128",
                  "name": "liquidity",
                  "type": "uint128"
                },
                {
                  "components": [
                    {
                      "internalType": "int24",
                      "name": "lowerTick",
                      "type": "int24"
                    },
                    {
                      "internalType": "int24",
                      "name": "upperTick",
                      "type": "int24"
                    },
                    {
                      "internalType": "uint24",
                      "name": "feeTier",
                      "type": "uint24"
                    }
                  ],
                  "internalType": "struct Range",
                  "name": "range",
                  "type": "tuple"
                }
              ],
              "internalType": "struct PositionLiquidity[]",
              "name": "deposits",
              "type": "tuple[]"
            },
            {
              "components": [
                {
                  "internalType": "bytes",
                  "name": "payload",
                  "type": "bytes"
                },
                {
                  "internalType": "address",
                  "name": "pool",
                  "type": "address"
                },
                {
                  "internalType": "address",
                  "name": "router",
                  "type": "address"
                },
                {
                  "internalType": "uint256",
                  "name": "amountIn",
                  "type": "uint256"
                },
                {
                  "internalType": "uint256",
                  "name": "expectedMinReturn",
                  "type": "uint256"
                },
                {
                  "internalType": "bool",
                  "name": "zeroForOne",
                  "type": "bool"
                }
              ],
              "internalType": "struct SwapPayload",
              "name": "swap",
              "type": "tuple"
            }
          ],
          "internalType": "struct Rebalance",
          "name": "rebalanceParams_",
          "type": "tuple"
        },
        {
          "components": [
            {
              "internalType": "int24",
              "name": "lowerTick",
              "type": "int24"
            },
            {
              "internalType": "int24",
              "name": "upperTick",
              "type": "int24"
            },
            {
              "internalType": "uint24",
              "name": "feeTier",
              "type": "uint24"
            }
          ],
          "internalType": "struct Range[]",
          "name": "rangesToRemove_",
          "type": "tuple[]"
        },
        {
          "internalType": "uint256",
          "name": "feeAmount_",
          "type": "uint256"
        }
      ],
      "name": "rebalance",
      "outputs": [],
      "stateMutability": "nonpayable",
      "type": "function"
    },
    {
      "inputs": [
        {
          "internalType": "address[]",
          "name": "operators_",
          "type": "address[]"
        }
      ],
      "name": "removeOperators",
      "outputs": [],
      "stateMutability": "nonpayable",
      "type": "function"
    },
    {
      "inputs": [
        {
          "internalType": "address",
          "name": "vault_",
          "type": "address"
        },
        {
          "internalType": "address payable",
          "name": "to_",
          "type": "address"
        }
      ],
      "name": "removeVault",
      "outputs": [],
      "stateMutability": "nonpayable",
      "type": "function"
    },
    {
      "inputs": [],
      "name": "renounceOwnership",
      "outputs": [],
      "stateMutability": "nonpayable",
      "type": "function"
    },
    {
      "inputs": [
        {
          "internalType": "address",
          "name": "vault_",
          "type": "address"
        },
        {
          "internalType": "bytes",
          "name": "data_",
          "type": "bytes"
        }
      ],
      "name": "setVaultData",
      "outputs": [],
      "stateMutability": "nonpayable",
      "type": "function"
    },
    {
      "inputs": [
        {
          "internalType": "address",
          "name": "vault_",
          "type": "address"
        },
        {
          "internalType": "string",
          "name": "strat_",
          "type": "string"
        }
      ],
      "name": "setVaultStraByName",
      "outputs": [],
      "stateMutability": "nonpayable",
      "type": "function"
    },
    {
      "inputs": [],
      "name": "terms",
      "outputs": [
        {
          "internalType": "address",
          "name": "",
          "type": "address"
        }
      ],
      "stateMutability": "view",
      "type": "function"
    },
    {
      "inputs": [
        {
          "internalType": "address",
          "name": "vault_",
          "type": "address"
        }
      ],
      "name": "toggleRestrictMint",
      "outputs": [],
      "stateMutability": "nonpayable",
      "type": "function"
    },
    {
      "inputs": [
        {
          "internalType": "address",
          "name": "newOwner",
          "type": "address"
        }
      ],
      "name": "transferOwnership",
      "outputs": [],
      "stateMutability": "nonpayable",
      "type": "function"
    },
    {
      "inputs": [],
      "name": "unpause",
      "outputs": [],
      "stateMutability": "nonpayable",
      "type": "function"
    },
    {
      "inputs": [
        {
          "internalType": "address",
          "name": "",
          "type": "address"
        }
      ],
      "name": "vaults",
      "outputs": [
        {
          "internalType": "uint256",
          "name": "balance",
          "type": "uint256"
        },
        {
          "internalType": "uint256",
          "name": "lastRebalance",
          "type": "uint256"
        },
        {
          "internalType": "bytes",
          "name": "datas",
          "type": "bytes"
        },
        {
          "internalType": "bytes32",
          "name": "strat",
          "type": "bytes32"
        },
        {
          "internalType": "uint256",
          "name": "endOfMM",
          "type": "uint256"
        }
      ],
      "stateMutability": "view",
      "type": "function"
    },
    {
      "inputs": [
        {
          "internalType": "string",
          "name": "strat_",
          "type": "string"
        }
      ],
      "name": "whitelistStrat",
      "outputs": [],
      "stateMutability": "nonpayable",
      "type": "function"
    },
    {
      "inputs": [
        {
          "internalType": "address",
          "name": "vault_",
          "type": "address"
        },
        {
          "internalType": "uint256",
          "name": "amount_",
          "type": "uint256"
        },
        {
          "internalType": "address payable",
          "name": "to_",
          "type": "address"
        }
      ],
      "name": "withdrawVaultBalance",
      "outputs": [],
      "stateMutability": "nonpayable",
      "type": "function"
    }
  ],
  "transactionHash": "0x09ee157e01c656d389062bba8da3c2d05254cd6db726147bd2514dbf7eaff655",
  "args": [
    "0x7598e84B2E114AB62CAB288CE5f7d5f6bad35BbA",
    100,
    "0xA6557A1745C2E9BC52F6bD053c6EB3b34fB264b5",
    31536000
  ],
  "solcInputHash": "06ad119a9b48c817bdb145383f4f9104",
  "bytecode": "0x6101006040523480156200001257600080fd5b50604051620035db380380620035db833981016040819052620000359162000079565b6001600160a01b0393841660805261ffff90921660a0529190911660c05260e052620000d3565b80516001600160a01b03811681146200007457600080fd5b919050565b600080600080608085870312156200009057600080fd5b6200009b856200005c565b9350602085015161ffff81168114620000b357600080fd5b9250620000c3604086016200005c565b6060959095015193969295505050565b60805160a05160c05160e0516134b262000129600039600081816103f701528181610c35015261252e0152600081816104e001528181610b020152611935015260006104790152600061021d01526134b26000f3fe60806040526004361061019c5760003560e01c806390229af7116100ec578063ccdf7a021161008a578063da5e3bb811610064578063da5e3bb814610502578063ded2df7114610524578063e28d490614610537578063f2fde38b1461055757600080fd5b8063ccdf7a0214610467578063d365a377146104ae578063d5025625146104ce57600080fd5b8063a622ee7c116100c6578063a622ee7c146103b4578063a737224f146103e5578063b7d3824314610427578063c4d66de81461044757600080fd5b806390229af7146103475780639d6bc8f114610374578063a07aea1c1461039457600080fd5b80635c975abb116101595780637407e38c116101335780637407e38c146102d45780638456cb59146102f457806386de1467146103095780638da5cb5b1461032957600080fd5b80635c975abb1461027c5780636f2cbdf01461029f578063715018a6146102bf57600080fd5b80630cff5594146101a1578063152f2bb7146101b65780633f4ba83a146101d65780634802b951146101eb578063573ea5751461020b5780635c1c3fe11461025c575b600080fd5b6101b46101af36600461294f565b610577565b005b3480156101c257600080fd5b506101b46101d13660046129bc565b610613565b3480156101e257600080fd5b506101b461078d565b3480156101f757600080fd5b506101b4610206366004612a11565b6107d0565b34801561021757600080fd5b5061023f7f000000000000000000000000000000000000000000000000000000000000000081565b6040516001600160a01b0390911681526020015b60405180910390f35b34801561026857600080fd5b506101b461027736600461294f565b610907565b34801561028857600080fd5b5060335460ff166040519015158152602001610253565b3480156102ab57600080fd5b506101b46102ba36600461294f565b610ad4565b3480156102cb57600080fd5b506101b4610c8f565b3480156102e057600080fd5b506101b46102ef3660046129bc565b610d12565b34801561030057600080fd5b506101b4610e92565b34801561031557600080fd5b506101b4610324366004612a53565b610ed3565b34801561033557600080fd5b506000546001600160a01b031661023f565b34801561035357600080fd5b5061036761036236600461294f565b61104e565b6040516102539190612ae2565b34801561038057600080fd5b506101b461038f366004612b77565b61119d565b3480156103a057600080fd5b506101b46103af366004612c2f565b6113b2565b3480156103c057600080fd5b506103d46103cf36600461294f565b611548565b604051610253959493929190612ca4565b3480156103f157600080fd5b506104197f000000000000000000000000000000000000000000000000000000000000000081565b604051908152602001610253565b34801561043357600080fd5b506101b4610442366004612cd7565b6115ff565b34801561045357600080fd5b506101b461046236600461294f565b611750565b34801561047357600080fd5b5061049b7f000000000000000000000000000000000000000000000000000000000000000081565b60405161ffff9091168152602001610253565b3480156104ba57600080fd5b506101b46104c9366004612c2f565b61183f565b3480156104da57600080fd5b5061023f7f000000000000000000000000000000000000000000000000000000000000000081565b34801561050e57600080fd5b506105176118d7565b6040516102539190612d10565b6101b4610532366004612d54565b6118e8565b34801561054357600080fd5b5061023f610552366004612dd7565b611a31565b34801561056357600080fd5b506101b461057236600461294f565b611a5b565b60335460ff16156105a35760405162461bcd60e51b815260040161059a90612df0565b60405180910390fd5b6001600160a01b038116600090815260676020526040902060040154819042118015906105ea57506001600160a01b03811660009081526067602052604090206004015415155b6106065760405162461bcd60e51b815260040161059a90612e1a565b61060f82611b54565b5050565b60335460ff16156106365760405162461bcd60e51b815260040161059a90612df0565b826001600160a01b03811661065d5760405162461bcd60e51b815260040161059a90612e51565b83336001600160a01b0316816001600160a01b0316638da5cb5b6040518163ffffffff1660e01b8152600401602060405180830381865afa1580156106a6573d6000803e3d6000fd5b505050506040513d601f19601f820116820180604052508101906106ca9190612e88565b6001600160a01b0316146106f05760405162461bcd60e51b815260040161059a90612ea5565b6001600160a01b0385166000908152606760205260409020600401548590421180159061073757506001600160a01b03811660009081526067602052604090206004015415155b6107535760405162461bcd60e51b815260040161059a90612e1a565b61078586868660405160200161076a929190612edc565b60405160208183030381529060405280519060200120611bd2565b505050505050565b336107a06000546001600160a01b031690565b6001600160a01b0316146107c65760405162461bcd60e51b815260040161059a90612eec565b6107ce611ce3565b565b60335460ff16156107f35760405162461bcd60e51b815260040161059a90612df0565b336108066000546001600160a01b031690565b6001600160a01b03161461082c5760405162461bcd60e51b815260040161059a90612eec565b60008282604051602001610841929190612edc565b60408051601f1981840301815291905280516020909101209050610866606582611d76565b156108b35760405162461bcd60e51b815260206004820152601e60248201527f47617353746174696f6e3a2073747261742077686974656c69737465642e0000604482015260640161059a565b6108be606582611d93565b50306001600160a01b03167fa4094cdcb85e338885979ed54c0222c307ef0c73799c0c1abecf12fb787e3fdb84846040516108fa929190612f4a565b60405180910390a2505050565b60335460ff161561092a5760405162461bcd60e51b815260040161059a90612df0565b806001600160a01b0381166109515760405162461bcd60e51b815260040161059a90612e51565b81336001600160a01b0316816001600160a01b0316638da5cb5b6040518163ffffffff1660e01b8152600401602060405180830381865afa15801561099a573d6000803e3d6000fd5b505050506040513d601f19601f820116820180604052508101906109be9190612e88565b6001600160a01b0316146109e45760405162461bcd60e51b815260040161059a90612ea5565b6001600160a01b03831660009081526067602052604090206004015483904211801590610a2b57506001600160a01b03811660009081526067602052604090206004015415155b610a475760405162461bcd60e51b815260040161059a90612e1a565b836001600160a01b0316635f59dce56040518163ffffffff1660e01b8152600401600060405180830381600087803b158015610a8257600080fd5b505af1158015610a96573d6000803e3d6000fd5b50506040516001600160a01b03871692507fecf03d338988442b436adebc08a049afb0e961f5d4fecc3ec2acf9d28fd339449150600090a250505050565b60335460ff1615610af75760405162461bcd60e51b815260040161059a90612df0565b336001600160a01b037f00000000000000000000000000000000000000000000000000000000000000001614610b685760405162461bcd60e51b815260206004820152601660248201527547617353746174696f6e3a206f6e6c79205465726d7360501b604482015260640161059a565b806001600160a01b038116610b8f5760405162461bcd60e51b815260040161059a90612e51565b6001600160a01b03821660009081526067602052604090206004015482904211801590610bd657506001600160a01b03811660009081526067602052604090206004015415155b610bf25760405162461bcd60e51b815260040161059a90612e1a565b6001600160a01b0383166000818152606760205260409020600401547f89dbf4d2948690f95ffdf2bbe3451d1b1f91497b265c4261e9c31f5a0dfd679f90610c5a7f000000000000000000000000000000000000000000000000000000000000000042612f7c565b6001600160a01b03871660009081526067602052604090819020600401829055516108fa929190918252602082015260400190565b33610ca26000546001600160a01b031690565b6001600160a01b031614610cc85760405162461bcd60e51b815260040161059a90612eec565b600080546040516001600160a01b03909116907f8be0079c531659141344cd1fd0a4f28419497f9722a3daafe3b4186f6b6457e0908390a3600080546001600160a01b0319169055565b60335460ff1615610d355760405162461bcd60e51b815260040161059a90612df0565b826001600160a01b038116610d5c5760405162461bcd60e51b815260040161059a90612e51565b83336001600160a01b0316816001600160a01b0316638da5cb5b6040518163ffffffff1660e01b8152600401602060405180830381865afa158015610da5573d6000803e3d6000fd5b505050506040513d601f19601f82011682018060405250810190610dc99190612e88565b6001600160a01b031614610def5760405162461bcd60e51b815260040161059a90612ea5565b6001600160a01b03851660009081526067602052604090206004015485904211801590610e3657506001600160a01b03811660009081526067602052604090206004015415155b610e525760405162461bcd60e51b815260040161059a90612e1a565b6107858686868080601f016020809104026020016040519081016040528093929190818152602001838380828437600092019190915250611d9f92505050565b33610ea56000546001600160a01b031690565b6001600160a01b031614610ecb5760405162461bcd60e51b815260040161059a90612eec565b6107ce611e8d565b60335460ff1615610ef65760405162461bcd60e51b815260040161059a90612df0565b826001600160a01b038116610f1d5760405162461bcd60e51b815260040161059a90612e51565b83336001600160a01b0316816001600160a01b0316638da5cb5b6040518163ffffffff1660e01b8152600401602060405180830381865afa158015610f66573d6000803e3d6000fd5b505050506040513d601f19601f82011682018060405250810190610f8a9190612e88565b6001600160a01b031614610fb05760405162461bcd60e51b815260040161059a90612ea5565b6001600160a01b03851660009081526067602052604090206004015485904211801590610ff757506001600160a01b03811660009081526067602052604090206004015415155b6110135760405162461bcd60e51b815260040161059a90612e1a565b836001600160a01b03811661103a5760405162461bcd60e51b815260040161059a90612e51565b611045878787611ee5565b50505050505050565b6110836040518060a0016040528060008152602001600081526020016060815260200160008019168152602001600081525090565b816001600160a01b0381166110aa5760405162461bcd60e51b815260040161059a90612e51565b60676000846001600160a01b03166001600160a01b031681526020019081526020016000206040518060a001604052908160008201548152602001600182015481526020016002820180546110fe90612f94565b80601f016020809104026020016040519081016040528092919081815260200182805461112a90612f94565b80156111775780601f1061114c57610100808354040283529160200191611177565b820191906000526020600020905b81548152906001019060200180831161115a57829003601f168201915b505050505081526020016003820154815260200160048201548152505091505b50919050565b60335460ff16156111c05760405162461bcd60e51b815260040161059a90612df0565b6001600160a01b0387166000908152606760205260409020600401548790421180159061120757506001600160a01b03811660009081526067602052604090206004015415155b6112235760405162461bcd60e51b815260040161059a90612e1a565b600061122e33611fff565b509050806112785760405162461bcd60e51b815260206004820152601760248201527623b0b9a9ba30ba34b7b71d1037379037b832b930ba37b960491b604482015260640161059a565b6001600160a01b03891660009081526067602052604090206004015442106112ee5760405162461bcd60e51b8152602060048201526024808201527f47617353746174696f6e3a207661756c74206e6f206c6f6e676572206d616e6160448201526333b2b21760e11b606482015260840161059a565b60006112fa8a85612099565b60405163236bc33960e21b81529091506001600160a01b038b1690638daf0ce490611331908c908c908c908c908c9060040161311f565b600060405180830381600087803b15801561134b57600080fd5b505af115801561135f573d6000803e3d6000fd5b50505050896001600160a01b03167fa44b3c204c0102fc9bea80c7d9b377b92e3d60599ce49e19119c40d9325c2aaa8260405161139e91815260200190565b60405180910390a250505050505050505050565b60335460ff16156113d55760405162461bcd60e51b815260040161059a90612df0565b336113e86000546001600160a01b031690565b6001600160a01b03161461140e5760405162461bcd60e51b815260040161059a90612eec565b60005b8181101561150057600061144a8484848181106114305761143061327c565b9050602002016020810190611445919061294f565b611fff565b50905080156114925760405162461bcd60e51b815260206004820152601460248201527323b0b9a9ba30ba34b7b71d1037b832b930ba37b960611b604482015260640161059a565b60688484848181106114a6576114a661327c565b90506020020160208101906114bb919061294f565b81546001810183556000928352602090922090910180546001600160a01b0319166001600160a01b0390921691909117905550806114f881613292565b915050611411565b50306001600160a01b03167fe34691fbf3490a795c0691aaf30195d24d57b28fbf9a6c40a81732d567c38a80838360405161153c9291906132ab565b60405180910390a25050565b6067602052600090815260409020805460018201546002830180549293919261157090612f94565b80601f016020809104026020016040519081016040528092919081815260200182805461159c90612f94565b80156115e95780601f106115be576101008083540402835291602001916115e9565b820191906000526020600020905b8154815290600101906020018083116115cc57829003601f168201915b5050505050908060030154908060040154905085565b60335460ff16156116225760405162461bcd60e51b815260040161059a90612df0565b816001600160a01b0381166116495760405162461bcd60e51b815260040161059a90612e51565b82336001600160a01b0316816001600160a01b0316638da5cb5b6040518163ffffffff1660e01b8152600401602060405180830381865afa158015611692573d6000803e3d6000fd5b505050506040513d601f19601f820116820180604052508101906116b69190612e88565b6001600160a01b0316146116dc5760405162461bcd60e51b815260040161059a90612ea5565b6001600160a01b0384166000908152606760205260409020600401548490421180159061172357506001600160a01b03811660009081526067602052604090206004015415155b61173f5760405162461bcd60e51b815260040161059a90612e1a565b6117498585612224565b5050505050565b600054600160a81b900460ff1661177457600054600160a01b900460ff1615611778565b303b155b6117db5760405162461bcd60e51b815260206004820152602e60248201527f496e697469616c697a61626c653a20636f6e747261637420697320616c72656160448201526d191e481a5b9a5d1a585b1a5e995960921b606482015260840161059a565b600054600160a81b900460ff16158015611805576000805461ffff60a01b191661010160a01b1790555b600080546001600160a01b0319166001600160a01b0384161790556118286122ba565b801561060f576000805460ff60a81b191690555050565b60335460ff16156118625760405162461bcd60e51b815260040161059a90612df0565b336118756000546001600160a01b031690565b6001600160a01b03161461189b5760405162461bcd60e51b815260040161059a90612eec565b61060f8282808060200260200160405190810160405280939291908181526020018383602002808284376000920191909152506122f392505050565b60606118e360656123ea565b905090565b60335460ff161561190b5760405162461bcd60e51b815260040161059a90612df0565b846001600160a01b0381166119325760405162461bcd60e51b815260040161059a90612e51565b857f00000000000000000000000000000000000000000000000000000000000000006001600160a01b0316816001600160a01b0316638da5cb5b6040518163ffffffff1660e01b8152600401602060405180830381865afa15801561199b573d6000803e3d6000fd5b505050506040513d601f19601f820116820180604052508101906119bf9190612e88565b6001600160a01b031614611a155760405162461bcd60e51b815260206004820152601a60248201527f47617353746174696f6e3a206f776e6572206e6f205465726d73000000000000604482015260640161059a565b611a2287878787876123f5565b34156110455761104587611b54565b60688181548110611a4157600080fd5b6000918252602090912001546001600160a01b0316905081565b33611a6e6000546001600160a01b031690565b6001600160a01b031614611a945760405162461bcd60e51b815260040161059a90612eec565b6001600160a01b038116611af95760405162461bcd60e51b815260206004820152602660248201527f4f776e61626c653a206e6577206f776e657220697320746865207a65726f206160448201526564647265737360d01b606482015260840161059a565b600080546040516001600160a01b03808516939216917f8be0079c531659141344cd1fd0a4f28419497f9722a3daafe3b4186f6b6457e091a3600080546001600160a01b0319166001600160a01b0392909216919091179055565b6001600160a01b03811660009081526067602052604081208054349290611b7c908490612f7c565b90915550506001600160a01b0381166000818152606760209081526040918290205491519182527f2bae9ef5356c8b1ba3acb21df1a9201ff1ef943f4d8425697ce2d6381fcdac9991015b60405180910390a250565b6001600160a01b038216600090815260676020526040902060030154819003611c315760405162461bcd60e51b815260206004820152601160248201527011d85cd4dd185d1a5bdb8e881cdd1c985d607a1b604482015260640161059a565b611c3c606582611d76565b611c935760405162461bcd60e51b815260206004820152602260248201527f47617353746174696f6e3a207374726174206e6f742077686974656c69737465604482015261321760f11b606482015260840161059a565b6001600160a01b03821660008181526067602052604090819020600301839055517f243930e940e93a5b6e26b15204394bc1aa410465b647ea787ae57960c5cf79a89061153c9084815260200190565b60335460ff16611d2c5760405162461bcd60e51b815260206004820152601460248201527314185d5cd8589b194e881b9bdd081c185d5cd95960621b604482015260640161059a565b6033805460ff191690557f5db9ee0a495bf2e6ff9c91a7834c1ba4fdd244a5e8aa4e537bd38aeae4b073aa335b6040516001600160a01b03909116815260200160405180910390a1565b600081815260018301602052604081205415155b90505b92915050565b6000611d8a83836125b9565b808051906020012060676000846001600160a01b03166001600160a01b03168152602001908152602001600020600201604051611ddc91906132f9565b604051809103902003611e245760405162461bcd60e51b815260206004820152601060248201526f47617353746174696f6e3a206461746160801b604482015260640161059a565b6001600160a01b03821660009081526067602090815260409091208251611e53926002909201918401906127e0565b50816001600160a01b03167f428733985d5c007cd5d8813643ceb64f6a3f2606066e9a08d07af65254ea39528260405161153c9190613394565b60335460ff1615611eb05760405162461bcd60e51b815260040161059a90612df0565b6033805460ff191660011790557f62e78cea01bee320cd4e420270b5ea74000d11b0c9f74754ebdbfc544b05a258611d593390565b6001600160a01b038316600090815260676020526040902054821115611f625760405162461bcd60e51b815260206004820152602c60248201527f47617353746174696f6e3a20616d6f756e74206578636565647320617661696c60448201526b61626c652062616c616e636560a01b606482015260840161059a565b6001600160a01b03831660009081526067602052604081208054849290611f8a9084906133a7565b90915550611fa390506001600160a01b03821683612608565b6001600160a01b038381166000818152606760209081526040918290205482518781529486169185019190915290830152907f7408fb14206b893353f1ad47950175963a6dfacb1021ac84e613aa220fd4e1ad906060016108fa565b600080826001600160a01b0381166120295760405162461bcd60e51b815260040161059a90612e51565b60005b60685481101561208a57846001600160a01b0316606882815481106120535761205361327c565b6000918252602090912001546001600160a01b03160361207857600193509150612093565b8061208281613292565b91505061202c565b50600080925092505b50915091565b60008060676000856001600160a01b03166001600160a01b031681526020019081526020016000206040518060a001604052908160008201548152602001600182015481526020016002820180546120f090612f94565b80601f016020809104026020016040519081016040528092919081815260200182805461211c90612f94565b80156121695780601f1061213e57610100808354040283529160200191612169565b820191906000526020600020905b81548152906001019060200180831161214c57829003601f168201915b50505050508152602001600382015481526020016004820154815250509050828160000151116121ed5760405162461bcd60e51b815260206004820152602960248201527f47617353746174696f6e3a204e6f7420656e6f7567682062616c616e636520746044820152686f207061792066656560b81b606482015260840161059a565b80516121fa9084906133a7565b6001600160a01b039094166000908152606760205260409020426001820155849055509192915050565b6001600160a01b0382166000908152606760205260408120805482825560018201839055916122566002830182612864565b50600060038201819055600490910155801561227f5761227f6001600160a01b03831682612608565b826001600160a01b03167f3c5c011a5287a3bb157571fbfec1ee8b0ced5809ff6a685b64e5858ea037c149826040516108fa91815260200190565b600054600160a81b900460ff166122e35760405162461bcd60e51b815260040161059a906133be565b6122eb612726565b6107ce61274f565b60005b81518110156123b0576000806123248484815181106123175761231761327c565b6020026020010151611fff565b915091508161236f5760405162461bcd60e51b815260206004820152601760248201527623b0b9a9ba30ba34b7b71d1037379037b832b930ba37b960491b604482015260640161059a565b606881815481106123825761238261327c565b600091825260209091200180546001600160a01b0319169055508190506123a881613292565b9150506122f6565b50306001600160a01b03167fb100901cd71d3dd7c28d4fa27a37dbebbd65dcb04e26e62e0fc6e8c963fb161382604051611bc79190613409565b6060611d8d82612784565b6000828260405160200161240a929190612edc565b60408051601f198184030181529190528051602090910120905061242f606582611d76565b61247b5760405162461bcd60e51b815260206004820152601b60248201527f47617353746174696f6e3a204e6f742077686974656c69737465640000000000604482015260640161059a565b6001600160a01b038616600090815260676020526040902060040154156124e45760405162461bcd60e51b815260206004820152601f60248201527f47617353746174696f6e3a205661756c7420616c726561647920616464656400604482015260640161059a565b6001600160a01b038616600090815260676020526040902061250a9060020186866128a1565b506001600160a01b03861660009081526067602052604090206003018190556125537f000000000000000000000000000000000000000000000000000000000000000042612f7c565b6001600160a01b038716600081815260676020526040908190206004019290925590517fe2ac259cf4e54760e2d0661b0606ddf3f470df2dc47f57e5cc9c4f533a870826906125a990889088908890889061344a565b60405180910390a2505050505050565b600081815260018301602052604081205461260057508154600181810184556000848152602080822090930184905584548482528286019093526040902091909155611d8d565b506000611d8d565b804710156126585760405162461bcd60e51b815260206004820152601d60248201527f416464726573733a20696e73756666696369656e742062616c616e6365000000604482015260640161059a565b6000826001600160a01b03168260405160006040518083038185875af1925050503d80600081146126a5576040519150601f19603f3d011682016040523d82523d6000602084013e6126aa565b606091505b50509050806127215760405162461bcd60e51b815260206004820152603a60248201527f416464726573733a20756e61626c6520746f2073656e642076616c75652c207260448201527f6563697069656e74206d61792068617665207265766572746564000000000000606482015260840161059a565b505050565b600054600160a81b900460ff166107ce5760405162461bcd60e51b815260040161059a906133be565b600054600160a81b900460ff166127785760405162461bcd60e51b815260040161059a906133be565b6033805460ff19169055565b6060816000018054806020026020016040519081016040528092919081815260200182805480156127d457602002820191906000526020600020905b8154815260200190600101908083116127c0575b50505050509050919050565b8280546127ec90612f94565b90600052602060002090601f01602090048101928261280e5760008555612854565b82601f1061282757805160ff1916838001178555612854565b82800160010185558215612854579182015b82811115612854578251825591602001919060010190612839565b50612860929150612915565b5090565b50805461287090612f94565b6000825580601f10612880575050565b601f01602090049060005260206000209081019061289e9190612915565b50565b8280546128ad90612f94565b90600052602060002090601f0160209004810192826128cf5760008555612854565b82601f106128e85782800160ff19823516178555612854565b82800160010185558215612854579182015b828111156128545782358255916020019190600101906128fa565b5b808211156128605760008155600101612916565b6001600160a01b038116811461289e57600080fd5b803561294a8161292a565b919050565b60006020828403121561296157600080fd5b813561296c8161292a565b9392505050565b60008083601f84011261298557600080fd5b50813567ffffffffffffffff81111561299d57600080fd5b6020830191508360208285010111156129b557600080fd5b9250929050565b6000806000604084860312156129d157600080fd5b83356129dc8161292a565b9250602084013567ffffffffffffffff8111156129f857600080fd5b612a0486828701612973565b9497909650939450505050565b60008060208385031215612a2457600080fd5b823567ffffffffffffffff811115612a3b57600080fd5b612a4785828601612973565b90969095509350505050565b600080600060608486031215612a6857600080fd5b8335612a738161292a565b9250602084013591506040840135612a8a8161292a565b809150509250925092565b6000815180845260005b81811015612abb57602081850181015186830182015201612a9f565b81811115612acd576000602083870101525b50601f01601f19169290920160200192915050565b6020815281516020820152602082015160408201526000604083015160a06060840152612b1260c0840182612a95565b905060608401516080840152608084015160a08401528091505092915050565b60008083601f840112612b4457600080fd5b50813567ffffffffffffffff811115612b5c57600080fd5b6020830191508360206060830285010111156129b557600080fd5b600080600080600080600060a0888a031215612b9257600080fd5b8735612b9d8161292a565b9650602088013567ffffffffffffffff80821115612bba57600080fd5b612bc68b838c01612b32565b909850965060408a0135915080821115612bdf57600080fd5b908901906060828c031215612bf357600080fd5b90945060608901359080821115612c0957600080fd5b50612c168a828b01612b32565b989b979a50959894979596608090950135949350505050565b60008060208385031215612c4257600080fd5b823567ffffffffffffffff80821115612c5a57600080fd5b818501915085601f830112612c6e57600080fd5b813581811115612c7d57600080fd5b8660208260051b8501011115612c9257600080fd5b60209290920196919550909350505050565b85815284602082015260a060408201526000612cc360a0830186612a95565b606083019490945250608001529392505050565b60008060408385031215612cea57600080fd5b8235612cf58161292a565b91506020830135612d058161292a565b809150509250929050565b6020808252825182820181905260009190848201906040850190845b81811015612d4857835183529284019291840191600101612d2c565b50909695505050505050565b600080600080600060608688031215612d6c57600080fd5b8535612d778161292a565b9450602086013567ffffffffffffffff80821115612d9457600080fd5b612da089838a01612973565b90965094506040880135915080821115612db957600080fd5b50612dc688828901612973565b969995985093965092949392505050565b600060208284031215612de957600080fd5b5035919050565b60208082526010908201526f14185d5cd8589b194e881c185d5cd95960821b604082015260600190565b6020808252601d908201527f47617353746174696f6e3a205661756c74206e6f74206d616e61676564000000604082015260600190565b60208082526018908201527f47617353746174696f6e3a2061646472657373205a65726f0000000000000000604082015260600190565b600060208284031215612e9a57600080fd5b815161296c8161292a565b6020808252601c908201527f47617353746174696f6e3a206f6e6c79207661756c74206f776e657200000000604082015260600190565b8183823760009101908152919050565b6020808252818101527f4f776e61626c653a2063616c6c6572206973206e6f7420746865206f776e6572604082015260600190565b81835281816020850137506000828201602090810191909152601f909101601f19169091010190565b602081526000612f5e602083018486612f21565b949350505050565b634e487b7160e01b600052601160045260246000fd5b60008219821115612f8f57612f8f612f66565b500190565b600181811c90821680612fa857607f821691505b60208210810361119757634e487b7160e01b600052602260045260246000fd5b8035600281900b811461294a57600080fd5b612fe381612fc8565b60020b8252612ff460208201612fc8565b60020b6020830152604081013562ffffff811680821461301357600080fd5b80604085015250505050565b81835260208301925060008160005b84811015613053576130408683612fda565b606095860195919091019060010161302e565b5093949350505050565b6000808335601e1984360301811261307457600080fd5b830160208101925035905067ffffffffffffffff81111561309457600080fd5b8060071b36038313156129b557600080fd5b818352600060208085019450826000805b868110156131035782356fffffffffffffffffffffffffffffffff81168082146130df578384fd5b8952506130f0848901848601612fda565b60809788019792909201916001016130b7565b50959695505050505050565b8035801515811461294a57600080fd5b60006060808352613133818401888a61301f565b602084820381860152613146888961305d565b84845261315685850182846130a6565b915050613165828a018a61305d565b848303848601526131778382846130a6565b92505050604089013560be198a360301811261319257600080fd5b8981019050838203604085015280359350601e198136030184126131b557600080fd5b92830192833567ffffffffffffffff8111156131d057600080fd5b8036038213156131df57600080fd5b60c083526131f360c0840182868801612f21565b94505061320183820161293f565b6001600160a01b03168383015261321a6040820161293f565b6001600160a01b0381166040840152925084810135858301526080810135608083015261324960a0820161310f565b94505061325a60a082018515159052565b5050838103604085015261326f81868861301f565b9998505050505050505050565b634e487b7160e01b600052603260045260246000fd5b6000600182016132a4576132a4612f66565b5060010190565b60208082528181018390526000908460408401835b868110156132ee5782356132d38161292a565b6001600160a01b0316825291830191908301906001016132c0565b509695505050505050565b600080835481600182811c91508083168061331557607f831692505b6020808410820361333457634e487b7160e01b86526022600452602486fd5b818015613348576001811461335957613386565b60ff19861689528489019650613386565b60008a81526020902060005b8681101561337e5781548b820152908501908301613365565b505084890196505b509498975050505050505050565b602081526000611d8a6020830184612a95565b6000828210156133b9576133b9612f66565b500390565b6020808252602b908201527f496e697469616c697a61626c653a20636f6e7472616374206973206e6f74206960408201526a6e697469616c697a696e6760a81b606082015260800190565b6020808252825182820181905260009190848201906040850190845b81811015612d485783516001600160a01b031683529284019291840191600101613425565b60408152600061345e604083018688612f21565b8281036020840152613471818587612f21565b97965050505050505056fea2646970667358221220be6cf6543b9d4f5c1f9b583223a832cdc1e3ba9b96f85aa5a83cc95c3d0ea26c64736f6c634300080d0033",
  "devdoc": {
    "kind": "dev",
    "methods": {
      "owner()": {
        "details": "Returns the address of the current owner."
      },
      "paused()": {
        "details": "Returns true if the contract is paused, and false otherwise."
      },
      "renounceOwnership()": {
        "details": "Leaves the contract without owner. It will not be possible to call `onlyowner` functions anymore. Can only be called by the current owner. NOTE: Renouncing ownership will leave the contract without an owner, thereby removing any functionality that is only available to the owner."
      },
      "transferOwnership(address)": {
        "details": "Transfers ownership of the contract to a new account (`newOwner`). Can only be called by the current owner."
      }
    },
    "version": 1
  },
  "userdoc": {
    "kind": "user",
    "methods": {},
    "version": 1
  },
  "storageLayout": {
    "storage": [
      {
        "astId": 7726,
        "contract": "contracts/GasStation.sol:GasStation",
        "label": "_owner",
        "offset": 0,
        "slot": "0",
        "type": "t_address"
      },
      {
        "astId": 6,
        "contract": "contracts/GasStation.sol:GasStation",
        "label": "_initialized",
        "offset": 20,
        "slot": "0",
        "type": "t_bool"
      },
      {
        "astId": 9,
        "contract": "contracts/GasStation.sol:GasStation",
        "label": "_initializing",
        "offset": 21,
        "slot": "0",
        "type": "t_bool"
      },
      {
        "astId": 532,
        "contract": "contracts/GasStation.sol:GasStation",
        "label": "__gap",
        "offset": 0,
        "slot": "1",
        "type": "t_array(t_uint256)50_storage"
      },
      {
        "astId": 94,
        "contract": "contracts/GasStation.sol:GasStation",
        "label": "_paused",
        "offset": 0,
        "slot": "51",
        "type": "t_bool"
      },
      {
        "astId": 185,
        "contract": "contracts/GasStation.sol:GasStation",
        "label": "__gap",
        "offset": 0,
        "slot": "52",
        "type": "t_array(t_uint256)49_storage"
      },
      {
        "astId": 5097,
        "contract": "contracts/GasStation.sol:GasStation",
        "label": "_whitelistedStrat",
        "offset": 0,
        "slot": "101",
        "type": "t_struct(Bytes32Set)1930_storage"
      },
      {
        "astId": 5102,
        "contract": "contracts/GasStation.sol:GasStation",
        "label": "vaults",
        "offset": 0,
        "slot": "103",
        "type": "t_mapping(t_address,t_struct(VaultInfo)7478_storage)"
      },
      {
        "astId": 5105,
        "contract": "contracts/GasStation.sol:GasStation",
        "label": "operators",
        "offset": 0,
        "slot": "104",
        "type": "t_array(t_address)dyn_storage"
      }
    ],
    "types": {
      "t_address": {
        "encoding": "inplace",
        "label": "address",
        "numberOfBytes": "20"
      },
      "t_array(t_address)dyn_storage": {
        "base": "t_address",
        "encoding": "dynamic_array",
        "label": "address[]",
        "numberOfBytes": "32"
      },
      "t_array(t_bytes32)dyn_storage": {
        "base": "t_bytes32",
        "encoding": "dynamic_array",
        "label": "bytes32[]",
        "numberOfBytes": "32"
      },
      "t_array(t_uint256)49_storage": {
        "base": "t_uint256",
        "encoding": "inplace",
        "label": "uint256[49]",
        "numberOfBytes": "1568"
      },
      "t_array(t_uint256)50_storage": {
        "base": "t_uint256",
        "encoding": "inplace",
        "label": "uint256[50]",
        "numberOfBytes": "1600"
      },
      "t_bool": {
        "encoding": "inplace",
        "label": "bool",
        "numberOfBytes": "1"
      },
      "t_bytes32": {
        "encoding": "inplace",
        "label": "bytes32",
        "numberOfBytes": "32"
      },
      "t_bytes_storage": {
        "encoding": "bytes",
        "label": "bytes",
        "numberOfBytes": "32"
      },
      "t_mapping(t_address,t_struct(VaultInfo)7478_storage)": {
        "encoding": "mapping",
        "key": "t_address",
        "label": "mapping(address => struct VaultInfo)",
        "numberOfBytes": "32",
        "value": "t_struct(VaultInfo)7478_storage"
      },
      "t_mapping(t_bytes32,t_uint256)": {
        "encoding": "mapping",
        "key": "t_bytes32",
        "label": "mapping(bytes32 => uint256)",
        "numberOfBytes": "32",
        "value": "t_uint256"
      },
      "t_struct(Bytes32Set)1930_storage": {
        "encoding": "inplace",
        "label": "struct EnumerableSet.Bytes32Set",
        "members": [
          {
            "astId": 1929,
            "contract": "contracts/GasStation.sol:GasStation",
            "label": "_inner",
            "offset": 0,
            "slot": "0",
            "type": "t_struct(Set)1736_storage"
          }
        ],
        "numberOfBytes": "64"
      },
      "t_struct(Set)1736_storage": {
        "encoding": "inplace",
        "label": "struct EnumerableSet.Set",
        "members": [
          {
            "astId": 1731,
            "contract": "contracts/GasStation.sol:GasStation",
            "label": "_values",
            "offset": 0,
            "slot": "0",
            "type": "t_array(t_bytes32)dyn_storage"
          },
          {
            "astId": 1735,
            "contract": "contracts/GasStation.sol:GasStation",
            "label": "_indexes",
            "offset": 0,
            "slot": "1",
            "type": "t_mapping(t_bytes32,t_uint256)"
          }
        ],
        "numberOfBytes": "64"
      },
      "t_struct(VaultInfo)7478_storage": {
        "encoding": "inplace",
        "label": "struct VaultInfo",
        "members": [
          {
            "astId": 7469,
            "contract": "contracts/GasStation.sol:GasStation",
            "label": "balance",
            "offset": 0,
            "slot": "0",
            "type": "t_uint256"
          },
          {
            "astId": 7471,
            "contract": "contracts/GasStation.sol:GasStation",
            "label": "lastRebalance",
            "offset": 0,
            "slot": "1",
            "type": "t_uint256"
          },
          {
            "astId": 7473,
            "contract": "contracts/GasStation.sol:GasStation",
            "label": "datas",
            "offset": 0,
            "slot": "2",
            "type": "t_bytes_storage"
          },
          {
            "astId": 7475,
            "contract": "contracts/GasStation.sol:GasStation",
            "label": "strat",
            "offset": 0,
            "slot": "3",
            "type": "t_bytes32"
          },
          {
            "astId": 7477,
            "contract": "contracts/GasStation.sol:GasStation",
            "label": "endOfMM",
            "offset": 0,
            "slot": "4",
            "type": "t_uint256"
          }
        ],
        "numberOfBytes": "160"
      },
      "t_uint256": {
        "encoding": "inplace",
        "label": "uint256",
        "numberOfBytes": "32"
      }
    }
  }
}