{
  "address": "0x2e7c05e24E96C3F34c5693bA8dedcDcF3530CEFC",
  "abi": [
    {
      "inputs": [
        {
          "internalType": "contract IArrakisV2Factory",
          "name": "v2factory_",
          "type": "address"
        }
      ],
      "stateMutability": "nonpayable",
      "type": "constructor"
    },
    {
      "anonymous": false,
      "inputs": [
        {
          "indexed": false,
          "internalType": "address",
          "name": "creator",
          "type": "address"
        },
        {
          "indexed": false,
          "internalType": "address",
          "name": "vault",
          "type": "address"
        }
      ],
      "name": "AddVault",
      "type": "event"
    },
    {
      "anonymous": false,
      "inputs": [
        {
          "indexed": false,
          "internalType": "address",
          "name": "creator",
          "type": "address"
        },
        {
          "indexed": false,
          "internalType": "address",
          "name": "vault",
          "type": "address"
        },
        {
          "indexed": false,
          "internalType": "uint256",
          "name": "amount0",
          "type": "uint256"
        },
        {
          "indexed": false,
          "internalType": "uint256",
          "name": "amount1",
          "type": "uint256"
        },
        {
          "indexed": false,
          "internalType": "address",
          "name": "to",
          "type": "address"
        },
        {
          "indexed": false,
          "internalType": "uint256",
          "name": "emolument0",
          "type": "uint256"
        },
        {
          "indexed": false,
          "internalType": "uint256",
          "name": "emolument1",
          "type": "uint256"
        }
      ],
      "name": "CloseTerm",
      "type": "event"
    },
    {
      "anonymous": false,
      "inputs": [
        {
          "indexed": false,
          "internalType": "address",
          "name": "creator",
          "type": "address"
        },
        {
          "indexed": false,
          "internalType": "address",
          "name": "vault",
          "type": "address"
        },
        {
          "indexed": false,
          "internalType": "uint256",
          "name": "emolument0",
          "type": "uint256"
        },
        {
          "indexed": false,
          "internalType": "uint256",
          "name": "emolument1",
          "type": "uint256"
        }
      ],
      "name": "DecreaseLiquidity",
      "type": "event"
    },
    {
      "anonymous": false,
      "inputs": [
        {
          "indexed": false,
          "internalType": "address",
          "name": "creator",
          "type": "address"
        },
        {
          "indexed": false,
          "internalType": "address",
          "name": "vault",
          "type": "address"
        },
        {
          "indexed": false,
          "internalType": "address",
          "name": "delegate",
          "type": "address"
        }
      ],
      "name": "DelegateVault",
      "type": "event"
    },
    {
      "anonymous": false,
      "inputs": [
        {
          "indexed": false,
          "internalType": "address",
          "name": "creator",
          "type": "address"
        },
        {
          "indexed": false,
          "internalType": "address",
          "name": "vault",
          "type": "address"
        }
      ],
      "name": "IncreaseLiquidity",
      "type": "event"
    },
    {
      "anonymous": false,
      "inputs": [
        {
          "indexed": false,
          "internalType": "uint8",
          "name": "version",
          "type": "uint8"
        }
      ],
      "name": "Initialized",
      "type": "event"
    },
    {
      "anonymous": false,
      "inputs": [
        {
          "indexed": false,
          "internalType": "address",
          "name": "creator",
          "type": "address"
        },
        {
          "indexed": false,
          "internalType": "address",
          "name": "vault",
          "type": "address"
        },
        {
          "indexed": false,
          "internalType": "uint24[]",
          "name": "feeTiers",
          "type": "uint24[]"
        }
      ],
      "name": "LogAddPools",
      "type": "event"
    },
    {
      "anonymous": false,
      "inputs": [
        {
          "indexed": false,
          "internalType": "address",
          "name": "creator",
          "type": "address"
        },
        {
          "indexed": false,
          "internalType": "address",
          "name": "vault",
          "type": "address"
        },
        {
          "indexed": false,
          "internalType": "address[]",
          "name": "routers",
          "type": "address[]"
        }
      ],
      "name": "LogBlacklistRouters",
      "type": "event"
    },
    {
      "anonymous": false,
      "inputs": [
        {
          "indexed": false,
          "internalType": "address",
          "name": "creator",
          "type": "address"
        },
        {
          "indexed": false,
          "internalType": "address",
          "name": "vault",
          "type": "address"
        },
        {
          "indexed": false,
          "internalType": "address[]",
          "name": "pools",
          "type": "address[]"
        }
      ],
      "name": "LogRemovePools",
      "type": "event"
    },
    {
      "anonymous": false,
      "inputs": [
        {
          "indexed": false,
          "internalType": "address",
          "name": "creator",
          "type": "address"
        },
        {
          "indexed": false,
          "internalType": "address",
          "name": "vault",
          "type": "address"
        },
        {
          "indexed": false,
          "internalType": "address",
          "name": "delegate",
          "type": "address"
        }
      ],
      "name": "LogSetDelegate",
      "type": "event"
    },
    {
      "anonymous": false,
      "inputs": [
        {
          "indexed": false,
          "internalType": "address",
          "name": "creatorOrDelegate",
          "type": "address"
        },
        {
          "indexed": false,
          "internalType": "address",
          "name": "vault",
          "type": "address"
        },
        {
          "indexed": false,
          "internalType": "bytes",
          "name": "data",
          "type": "bytes"
        }
      ],
      "name": "LogSetVaultData",
      "type": "event"
    },
    {
      "anonymous": false,
      "inputs": [
        {
          "indexed": false,
          "internalType": "address",
          "name": "creatorOrDelegate",
          "type": "address"
        },
        {
          "indexed": false,
          "internalType": "address",
          "name": "vault",
          "type": "address"
        },
        {
          "indexed": false,
          "internalType": "string",
          "name": "strat",
          "type": "string"
        }
      ],
      "name": "LogSetVaultStratByName",
      "type": "event"
    },
    {
      "anonymous": false,
      "inputs": [
        {
          "indexed": false,
          "internalType": "address",
          "name": "creator",
          "type": "address"
        },
        {
          "indexed": false,
          "internalType": "address",
          "name": "vault",
          "type": "address"
        },
        {
          "indexed": false,
          "internalType": "address[]",
          "name": "routers",
          "type": "address[]"
        }
      ],
      "name": "LogWhitelistRouters",
      "type": "event"
    },
    {
      "anonymous": false,
      "inputs": [
        {
          "indexed": false,
          "internalType": "address",
          "name": "creator",
          "type": "address"
        },
        {
          "indexed": false,
          "internalType": "address",
          "name": "vault",
          "type": "address"
        },
        {
          "indexed": false,
          "internalType": "address",
          "name": "to",
          "type": "address"
        },
        {
          "indexed": false,
          "internalType": "uint256",
          "name": "sentBack",
          "type": "uint256"
        }
      ],
      "name": "LogWithdrawVaultBalance",
      "type": "event"
    },
    {
      "anonymous": false,
      "inputs": [
        {
          "indexed": true,
          "internalType": "address",
          "name": "previousOwner",
          "type": "address"
        },
        {
          "indexed": true,
          "internalType": "address",
          "name": "newOwner",
          "type": "address"
        }
      ],
      "name": "OwnershipTransferred",
      "type": "event"
    },
    {
      "anonymous": false,
      "inputs": [
        {
          "indexed": false,
          "internalType": "address",
          "name": "creator",
          "type": "address"
        },
        {
          "indexed": false,
          "internalType": "address",
          "name": "vault",
          "type": "address"
        }
      ],
      "name": "RemoveVault",
      "type": "event"
    },
    {
      "anonymous": false,
      "inputs": [
        {
          "indexed": false,
          "internalType": "address",
          "name": "vault",
          "type": "address"
        },
        {
          "indexed": false,
          "internalType": "uint256",
          "name": "emolument0",
          "type": "uint256"
        },
        {
          "indexed": false,
          "internalType": "uint256",
          "name": "emolument1",
          "type": "uint256"
        }
      ],
      "name": "RenewTerm",
      "type": "event"
    },
    {
      "anonymous": false,
      "inputs": [
        {
          "indexed": false,
          "internalType": "uint16",
          "name": "oldEmolument",
          "type": "uint16"
        },
        {
          "indexed": false,
          "internalType": "uint16",
          "name": "newEmolment",
          "type": "uint16"
        }
      ],
      "name": "SetEmolument",
      "type": "event"
    },
    {
      "anonymous": false,
      "inputs": [
        {
          "indexed": false,
          "internalType": "address",
          "name": "oldManager",
          "type": "address"
        },
        {
          "indexed": false,
          "internalType": "address",
          "name": "newManager",
          "type": "address"
        }
      ],
      "name": "SetManager",
      "type": "event"
    },
    {
      "anonymous": false,
      "inputs": [
        {
          "indexed": false,
          "internalType": "contract IArrakisV2Resolver",
          "name": "oldResolver",
          "type": "address"
        },
        {
          "indexed": false,
          "internalType": "contract IArrakisV2Resolver",
          "name": "newResolver",
          "type": "address"
        }
      ],
      "name": "SetResolver",
      "type": "event"
    },
    {
      "anonymous": false,
      "inputs": [
        {
          "indexed": false,
          "internalType": "address",
          "name": "oldTermTreasury",
          "type": "address"
        },
        {
          "indexed": false,
          "internalType": "address",
          "name": "newTermTreasury",
          "type": "address"
        }
      ],
      "name": "SetTermTreasury",
      "type": "event"
    },
    {
      "anonymous": false,
      "inputs": [
        {
          "indexed": false,
          "internalType": "address",
          "name": "creator",
          "type": "address"
        },
        {
          "indexed": false,
          "internalType": "address",
          "name": "vault",
          "type": "address"
        }
      ],
      "name": "SetupVault",
      "type": "event"
    },
    {
      "inputs": [
        {
          "internalType": "contract IArrakisV2",
          "name": "vault_",
          "type": "address"
        },
        {
          "internalType": "uint24[]",
          "name": "feeTiers_",
          "type": "uint24[]"
        }
      ],
      "name": "addPools",
      "outputs": [],
      "stateMutability": "nonpayable",
      "type": "function"
    },
    {
      "inputs": [
        {
          "internalType": "contract IArrakisV2",
          "name": "vault_",
          "type": "address"
        },
        {
          "internalType": "address[]",
          "name": "routers_",
          "type": "address[]"
        }
      ],
      "name": "blacklistRouters",
      "outputs": [],
      "stateMutability": "nonpayable",
      "type": "function"
    },
    {
      "inputs": [
        {
          "internalType": "contract IArrakisV2",
          "name": "vault_",
          "type": "address"
        },
        {
          "internalType": "address",
          "name": "to_",
          "type": "address"
        },
        {
          "internalType": "address",
          "name": "newOwner_",
          "type": "address"
        },
        {
          "internalType": "address",
          "name": "newManager_",
          "type": "address"
        }
      ],
      "name": "closeTerm",
      "outputs": [],
      "stateMutability": "nonpayable",
      "type": "function"
    },
    {
      "inputs": [
        {
          "components": [
            {
              "internalType": "contract IArrakisV2",
              "name": "vault",
              "type": "address"
            },
            {
              "internalType": "uint256",
              "name": "amount0",
              "type": "uint256"
            },
            {
              "internalType": "uint256",
              "name": "amount1",
              "type": "uint256"
            },
            {
              "internalType": "address",
              "name": "to",
              "type": "address"
            }
          ],
          "internalType": "struct DecreaseBalance",
          "name": "decreaseBalance_",
          "type": "tuple"
        },
        {
          "internalType": "uint256",
          "name": "mintAmount_",
          "type": "uint256"
        }
      ],
      "name": "decreaseLiquidity",
      "outputs": [],
      "stateMutability": "nonpayable",
      "type": "function"
    },
    {
      "inputs": [
        {
          "internalType": "address",
          "name": "",
          "type": "address"
        }
      ],
      "name": "delegateByVaults",
      "outputs": [
        {
          "internalType": "address",
          "name": "",
          "type": "address"
        }
      ],
      "stateMutability": "view",
      "type": "function"
    },
    {
      "inputs": [],
      "name": "emolument",
      "outputs": [
        {
          "internalType": "uint16",
          "name": "",
          "type": "uint16"
        }
      ],
      "stateMutability": "view",
      "type": "function"
    },
    {
      "inputs": [
        {
          "components": [
            {
              "internalType": "contract IArrakisV2",
              "name": "vault",
              "type": "address"
            },
            {
              "internalType": "bool",
              "name": "projectTknIsTknZero",
              "type": "bool"
            },
            {
              "internalType": "uint256",
              "name": "amount0",
              "type": "uint256"
            },
            {
              "internalType": "uint256",
              "name": "amount1",
              "type": "uint256"
            }
          ],
          "internalType": "struct IncreaseBalance",
          "name": "increaseBalance_",
          "type": "tuple"
        },
        {
          "internalType": "uint256",
          "name": "mintAmount_",
          "type": "uint256"
        }
      ],
      "name": "increaseLiquidity",
      "outputs": [],
      "stateMutability": "nonpayable",
      "type": "function"
    },
    {
      "inputs": [
        {
          "internalType": "address",
          "name": "owner_",
          "type": "address"
        },
        {
          "internalType": "address",
          "name": "termTreasury_",
          "type": "address"
        },
        {
          "internalType": "uint16",
          "name": "emolument_",
          "type": "uint16"
        },
        {
          "internalType": "contract IArrakisV2Resolver",
          "name": "resolver_",
          "type": "address"
        }
      ],
      "name": "initialize",
      "outputs": [],
      "stateMutability": "nonpayable",
      "type": "function"
    },
    {
      "inputs": [],
      "name": "manager",
      "outputs": [
        {
          "internalType": "address",
          "name": "",
          "type": "address"
        }
      ],
      "stateMutability": "view",
      "type": "function"
    },
    {
      "inputs": [
        {
          "components": [
            {
              "internalType": "uint24[]",
              "name": "feeTiers",
              "type": "uint24[]"
            },
            {
              "internalType": "contract IERC20",
              "name": "token0",
              "type": "address"
            },
            {
              "internalType": "contract IERC20",
              "name": "token1",
              "type": "address"
            },
            {
              "internalType": "bool",
              "name": "projectTknIsTknZero",
              "type": "bool"
            },
            {
              "internalType": "address",
              "name": "owner",
              "type": "address"
            },
            {
              "internalType": "uint256",
              "name": "amount0",
              "type": "uint256"
            },
            {
              "internalType": "uint256",
              "name": "amount1",
              "type": "uint256"
            },
            {
              "internalType": "bytes",
              "name": "datas",
              "type": "bytes"
            },
            {
              "internalType": "string",
              "name": "strat",
              "type": "string"
            },
            {
              "internalType": "bool",
              "name": "isBeacon",
              "type": "bool"
            },
            {
              "internalType": "address",
              "name": "delegate",
              "type": "address"
            }
          ],
          "internalType": "struct SetupPayload",
          "name": "setup_",
          "type": "tuple"
        },
        {
          "internalType": "uint256",
          "name": "mintAmount_",
          "type": "uint256"
        }
      ],
      "name": "openTerm",
      "outputs": [
        {
          "internalType": "address",
          "name": "vault",
          "type": "address"
        }
      ],
      "stateMutability": "payable",
      "type": "function"
    },
    {
      "inputs": [],
      "name": "owner",
      "outputs": [
        {
          "internalType": "address",
          "name": "",
          "type": "address"
        }
      ],
      "stateMutability": "view",
      "type": "function"
    },
    {
      "inputs": [
        {
          "internalType": "contract IArrakisV2",
          "name": "vault_",
          "type": "address"
        },
        {
          "internalType": "address[]",
          "name": "pools_",
          "type": "address[]"
        }
      ],
      "name": "removePools",
      "outputs": [],
      "stateMutability": "nonpayable",
      "type": "function"
    },
    {
      "inputs": [
        {
          "internalType": "contract IArrakisV2",
          "name": "vault_",
          "type": "address"
        }
      ],
      "name": "renewTerm",
      "outputs": [],
      "stateMutability": "nonpayable",
      "type": "function"
    },
    {
      "inputs": [],
      "name": "renounceOwnership",
      "outputs": [],
      "stateMutability": "nonpayable",
      "type": "function"
    },
    {
      "inputs": [],
      "name": "resolver",
      "outputs": [
        {
          "internalType": "contract IArrakisV2Resolver",
          "name": "",
          "type": "address"
        }
      ],
      "stateMutability": "view",
      "type": "function"
    },
    {
      "inputs": [
        {
          "internalType": "address",
          "name": "vault_",
          "type": "address"
        },
        {
          "internalType": "address",
          "name": "delegate_",
          "type": "address"
        }
      ],
      "name": "setDelegate",
      "outputs": [],
      "stateMutability": "nonpayable",
      "type": "function"
    },
    {
      "inputs": [
        {
          "internalType": "uint16",
          "name": "emolument_",
          "type": "uint16"
        }
      ],
      "name": "setEmolument",
      "outputs": [],
      "stateMutability": "nonpayable",
      "type": "function"
    },
    {
      "inputs": [
        {
          "internalType": "address",
          "name": "manager_",
          "type": "address"
        }
      ],
      "name": "setManager",
      "outputs": [],
      "stateMutability": "nonpayable",
      "type": "function"
    },
    {
      "inputs": [
        {
          "internalType": "contract IArrakisV2Resolver",
          "name": "resolver_",
          "type": "address"
        }
      ],
      "name": "setResolver",
      "outputs": [],
      "stateMutability": "nonpayable",
      "type": "function"
    },
    {
      "inputs": [
        {
          "internalType": "address",
          "name": "termTreasury_",
          "type": "address"
        }
      ],
      "name": "setTermTreasury",
      "outputs": [],
      "stateMutability": "nonpayable",
      "type": "function"
    },
    {
      "inputs": [
        {
          "internalType": "address",
          "name": "vault_",
          "type": "address"
        },
        {
          "internalType": "bytes",
          "name": "data_",
          "type": "bytes"
        }
      ],
      "name": "setVaultData",
      "outputs": [],
      "stateMutability": "nonpayable",
      "type": "function"
    },
    {
      "inputs": [
        {
          "internalType": "address",
          "name": "vault_",
          "type": "address"
        },
        {
          "internalType": "string",
          "name": "strat_",
          "type": "string"
        }
      ],
      "name": "setVaultStratByName",
      "outputs": [],
      "stateMutability": "nonpayable",
      "type": "function"
    },
    {
      "inputs": [],
      "name": "termTreasury",
      "outputs": [
        {
          "internalType": "address",
          "name": "",
          "type": "address"
        }
      ],
      "stateMutability": "view",
      "type": "function"
    },
    {
      "inputs": [
        {
          "internalType": "address",
          "name": "newOwner",
          "type": "address"
        }
      ],
      "name": "transferOwnership",
      "outputs": [],
      "stateMutability": "nonpayable",
      "type": "function"
    },
    {
      "inputs": [],
      "name": "v2factory",
      "outputs": [
        {
          "internalType": "contract IArrakisV2Factory",
          "name": "",
          "type": "address"
        }
      ],
      "stateMutability": "view",
      "type": "function"
    },
    {
      "inputs": [
        {
          "internalType": "address",
          "name": "",
          "type": "address"
        },
        {
          "internalType": "uint256",
          "name": "",
          "type": "uint256"
        }
      ],
      "name": "vaults",
      "outputs": [
        {
          "internalType": "address",
          "name": "",
          "type": "address"
        }
      ],
      "stateMutability": "view",
      "type": "function"
    },
    {
      "inputs": [
        {
          "internalType": "contract IArrakisV2",
          "name": "vault_",
          "type": "address"
        },
        {
          "internalType": "address[]",
          "name": "routers_",
          "type": "address[]"
        }
      ],
      "name": "whitelistRouters",
      "outputs": [],
      "stateMutability": "nonpayable",
      "type": "function"
    },
    {
      "inputs": [
        {
          "internalType": "address",
          "name": "vault_",
          "type": "address"
        },
        {
          "internalType": "uint256",
          "name": "amount_",
          "type": "uint256"
        },
        {
          "internalType": "address payable",
          "name": "to_",
          "type": "address"
        }
      ],
      "name": "withdrawVaultBalance",
      "outputs": [],
      "stateMutability": "nonpayable",
      "type": "function"
    }
  ],
  "transactionHash": "0x5c7b992620178b5a40659c0e70c052a2d862abdf97d32326ec90faff2cacc0c9",
  "args": [
    "0xf5973723eb067F90276d9f9bE80F7C9De67d22af"
  ],
  "numDeployments": 2,
  "solcInputHash": "1e49627be276f7948e39e9430e42125e",
  "bytecode": "0x60a06040523480156200001157600080fd5b506040516200552838038062005528833981016040819052620000349162000046565b6001600160a01b031660805262000078565b6000602082840312156200005957600080fd5b81516001600160a01b03811681146200007157600080fd5b9392505050565b60805161548d6200009b600039600081816102820152612786015261548d6000f3fe6080604052600436106101b75760003560e01c80637bbfc69e116100ec578063bfd7e7521161008a578063ea6b186c11610064578063ea6b186c14610500578063eaaa929914610520578063f2cb118a14610540578063f2fde38b1461056057600080fd5b8063bfd7e752146104a0578063c28d4647146104c0578063d0ebdbe7146104e057600080fd5b8063ac484c55116100c6578063ac484c551461042d578063ae5e24c214610440578063b1ffa58214610460578063b33d46dc1461048057600080fd5b80637bbfc69e146103cf57806386de1467146103ef5780638da5cb5b1461040f57600080fd5b80633ce3b0d2116101595780635c873849116101335780635c8738491461035a57806368b6702e1461037a578063715018a61461039a5780637407e38c146103af57600080fd5b80633ce3b0d2146102e4578063481c6a751461031a5780634e543b261461033a57600080fd5b806326c1a7b11161019557806326c1a7b11461023b578063330807a914610270578063332d28ef146102a45780633a91f42a146102c457600080fd5b806304f3bcec146101bc57806319549dc6146101f957806319e050d01461021b575b600080fd5b3480156101c857600080fd5b50609a546101dc906001600160a01b031681565b6040516001600160a01b0390911681526020015b60405180910390f35b34801561020557600080fd5b5061021961021436600461480e565b610580565b005b34801561022757600080fd5b50610219610236366004614862565b6106c7565b34801561024757600080fd5b5060995461025d90600160a01b900461ffff1681565b60405161ffff90911681526020016101f0565b34801561027c57600080fd5b506101dc7f000000000000000000000000000000000000000000000000000000000000000081565b3480156102b057600080fd5b506102196102bf366004614897565b610fe8565b3480156102d057600080fd5b506102196102df366004614903565b61198b565b3480156102f057600080fd5b506101dc6102ff366004614862565b609b602052600090815260409020546001600160a01b031681565b34801561032657600080fd5b506099546101dc906001600160a01b031681565b34801561034657600080fd5b50610219610355366004614862565b611b13565b34801561036657600080fd5b5061021961037536600461494a565b611bfe565b34801561038657600080fd5b50610219610395366004614983565b611ccc565b3480156103a657600080fd5b50610219612277565b3480156103bb57600080fd5b506102196103ca366004614903565b61228b565b3480156103db57600080fd5b506101dc6103ea3660046149df565b6123e2565b3480156103fb57600080fd5b5061021961040a366004614a0b565b61241a565b34801561041b57600080fd5b506033546001600160a01b03166101dc565b6101dc61043b366004614a4d565b6125f3565b34801561044c57600080fd5b5061021961045b36600461480e565b612e00565b34801561046c57600080fd5b5061021961047b366004614aa0565b612f2d565b34801561048c57600080fd5b5061021961049b366004614adf565b6130ea565b3480156104ac57600080fd5b506102196104bb366004614862565b6131c3565b3480156104cc57600080fd5b506102196104db36600461480e565b6132a6565b3480156104ec57600080fd5b506102196104fb366004614862565b6133d3565b34801561050c57600080fd5b506098546101dc906001600160a01b031681565b34801561052c57600080fd5b5061021961053b36600461480e565b6134b7565b34801561054c57600080fd5b5061021961055b366004614897565b6135e4565b34801561056c57600080fd5b5061021961057b366004614862565b613ce2565b826001600160a01b0381166105b05760405162461bcd60e51b81526004016105a790614afa565b60405180910390fd5b3360009081526097602090815260409182902080548351818402810184019094528084528793610622939092919083018282801561061757602002820191906000526020600020905b81546001600160a01b031681526001909101906020018083116105f9575b505050505082613d5b565b5060405163a5ff1dc760e01b81526001600160a01b0386169063a5ff1dc7906106519087908790600401614b7a565b600060405180830381600087803b15801561066b57600080fd5b505af115801561067f573d6000803e3d6000fd5b505050507fa5217cdb9444a5f916bdf40d5cd8f7cb42d2a5f877ea5945648259eae1a3e0d7338286866040516106b89493929190614b8e565b60405180910390a15050505050565b806001600160a01b0316630dfe16816040518163ffffffff1660e01b8152600401602060405180830381865afa158015610705573d6000803e3d6000fd5b505050506040513d601f19601f820116820180604052508101906107299190614bc5565b816001600160a01b031663d21220a76040518163ffffffff1660e01b8152600401602060405180830381865afa158015610767573d6000803e3d6000fd5b505050506040513d601f19601f8201168201806040525081019061078b9190614bc5565b6040516370a0823160e01b81523060048201526000906001600160a01b038416906370a0823190602401602060405180830381865afa1580156107d2573d6000803e3d6000fd5b505050506040513d601f19601f820116820180604052508101906107f69190614be2565b6040516370a0823160e01b81523060048201529091506000906001600160a01b038416906370a0823190602401602060405180830381865afa158015610840573d6000803e3d6000fd5b505050506040513d601f19601f820116820180604052508101906108649190614be2565b6099546040516390229af760e01b81526001600160a01b038881166004830152929350911690429082906390229af790602401600060405180830381865afa1580156108b4573d6000803e3d6000fd5b505050506040513d6000823e601f3d908101601f191682016040526108dc9190810190614d3c565b608001511061092d5760405162461bcd60e51b815260206004820152601a60248201527f50414c4d5465726d733a207465726d206e6f7420656e6465642e00000000000060448201526064016105a7565b60995460405163019e050d60e41b81526001600160a01b038881166004830152909116906319e050d090602401600060405180830381600087803b15801561097457600080fd5b505af1158015610988573d6000803e3d6000fd5b5050609a546000925082915081906109ac908a9030906001600160a01b0316613db7565b92509250925060006109ce84609960149054906101000a900461ffff16613f29565b905060006109ec84609960149054906101000a900461ffff16613f29565b90508a6001600160a01b0316630dfe16816040518163ffffffff1660e01b8152600401602060405180830381865afa158015610a2c573d6000803e3d6000fd5b505050506040513d601f19601f82011682018060405250810190610a509190614bc5565b6001600160a01b031663095ea7b38c610a698589614de9565b6040518363ffffffff1660e01b8152600401610a86929190614e00565b6020604051808303816000875af1158015610aa5573d6000803e3d6000fd5b505050506040513d601f19601f82011682018060405250810190610ac99190614e27565b508a6001600160a01b031663d21220a76040518163ffffffff1660e01b8152600401602060405180830381865afa158015610b08573d6000803e3d6000fd5b505050506040513d601f19601f82011682018060405250810190610b2c9190614bc5565b6001600160a01b031663095ea7b38c610b458488614de9565b6040518363ffffffff1660e01b8152600401610b62929190614e00565b6020604051808303816000875af1158015610b81573d6000803e3d6000fd5b505050506040513d601f19601f82011682018060405250810190610ba59190614e27565b508115610c3857610c38609860009054906101000a90046001600160a01b0316838d6001600160a01b0316630dfe16816040518163ffffffff1660e01b8152600401602060405180830381865afa158015610c04573d6000803e3d6000fd5b505050506040513d601f19601f82011682018060405250810190610c289190614bc5565b6001600160a01b03169190613f4d565b8015610c9657610c96609860009054906101000a90046001600160a01b0316828d6001600160a01b031663d21220a76040518163ffffffff1660e01b8152600401602060405180830381865afa158015610c04573d6000803e3d6000fd5b6040805180820190915260008082526020820152610cc784610cb88589614de9565b610cc28589614de9565b613fa8565b60208301819052818352604051633f7b613560e01b81526001600160a01b038f1692633f7b613592610d0492600401918252602082015260400190565b600060405180830381600087803b158015610d1e57600080fd5b505af1158015610d32573d6000803e3d6000fd5b50506040516394bf804d60e01b8152600481018790523060248201526001600160a01b038f1693506394bf804d9250604401905060408051808303816000875af1158015610d84573d6000803e3d6000fd5b505050506040513d601f19601f82011682018060405250810190610da89190614e44565b5050604080516001600160a01b038d168152602081018490529081018290527f59e2f591f61aa724c8984e092e32f4f83dcd07cbf01b88c0c79e8dd0adde82069060600160405180910390a150506040516370a0823160e01b8152306004820152600094508693506001600160a01b03891692506370a082319150602401602060405180830381865afa158015610e43573d6000803e3d6000fd5b505050506040513d601f19601f82011682018060405250810190610e679190614be2565b610e719190614de9565b6040516370a0823160e01b815230600482015290915060009083906001600160a01b038716906370a0823190602401602060405180830381865afa158015610ebd573d6000803e3d6000fd5b505050506040513d601f19601f82011682018060405250810190610ee19190614be2565b610eeb9190614de9565b90508115610f665760405163a9059cbb60e01b81526001600160a01b0387169063a9059cbb90610f219033908690600401614e00565b6020604051808303816000875af1158015610f40573d6000803e3d6000fd5b505050506040513d601f19601f82011682018060405250810190610f649190614e27565b505b8015610fdf5760405163a9059cbb60e01b81526001600160a01b0386169063a9059cbb90610f9a9033908590600401614e00565b6020604051808303816000875af1158015610fb9573d6000803e3d6000fd5b505050506040513d601f19601f82011682018060405250810190610fdd9190614e27565b505b50505050505050565b610ff56020830183614862565b6001600160a01b0316630dfe16816040518163ffffffff1660e01b8152600401602060405180830381865afa158015611032573d6000803e3d6000fd5b505050506040513d601f19601f820116820180604052508101906110569190614bc5565b6110636020840184614862565b6001600160a01b031663d21220a76040518163ffffffff1660e01b8152600401602060405180830381865afa1580156110a0573d6000803e3d6000fd5b505050506040513d601f19601f820116820180604052508101906110c49190614bc5565b6040516370a0823160e01b81523060048201526000906001600160a01b038416906370a0823190602401602060405180830381865afa15801561110b573d6000803e3d6000fd5b505050506040513d601f19601f8201168201806040525081019061112f9190614be2565b6040516370a0823160e01b81523060048201529091506000906001600160a01b038416906370a0823190602401602060405180830381865afa158015611179573d6000803e3d6000fd5b505050506040513d601f19601f8201168201806040525081019061119d9190614be2565b90506111a885613fdd565b336000908152609760209081526040918290208054835181840281018401909452808452611223939283018282801561120a57602002820191906000526020600020905b81546001600160a01b031681526001909101906020018083116111ec575b5061121e9350505060208a01905089614862565b613d5b565b503060008061124b61123860208b018b614862565b609a5485906001600160a01b0316613db7565b5091509150818960200135106112b25760405162461bcd60e51b815260206004820152602660248201527f50414c4d5465726d733a2073656e64206261636b20616d6f756e7430203e206160448201526506d6f756e74360d41b60648201526084016105a7565b808960400135106113145760405162461bcd60e51b815260206004820152602660248201527f50414c4d5465726d733a2073656e64206261636b20616d6f756e7431203e20616044820152656d6f756e743160d01b60648201526084016105a7565b60006113348a60200135609960149054906101000a900461ffff16613f29565b905060006113568b60400135609960149054906101000a900461ffff16613f29565b9050600061136760208d018d614862565b6001600160a01b0316630dfe16816040518163ffffffff1660e01b8152600401602060405180830381865afa1580156113a4573d6000803e3d6000fd5b505050506040513d601f19601f820116820180604052508101906113c89190614bc5565b905060006113d960208e018e614862565b6001600160a01b031663d21220a76040518163ffffffff1660e01b8152600401602060405180830381865afa158015611416573d6000803e3d6000fd5b505050506040513d601f19601f8201168201806040525081019061143a9190614bc5565b9050831561145c5760985461145c906001600160a01b03848116911686613f4d565b821561147c5760985461147c906001600160a01b03838116911685613f4d565b6114b38d60600160208101906114929190614862565b858f602001356114a29190614de9565b6001600160a01b0385169190613f4d565b6114ea8d60600160208101906114c99190614862565b848f604001356114d99190614de9565b6001600160a01b0384169190613f4d565b816001600160a01b031663095ea7b38e600001602081019061150c9190614862565b8f602001358961151c9190614de9565b6040518363ffffffff1660e01b8152600401611539929190614e00565b6020604051808303816000875af1158015611558573d6000803e3d6000fd5b505050506040513d601f19601f8201168201806040525081019061157c9190614e27565b50806001600160a01b031663095ea7b38e600001602081019061159f9190614862565b8f60400135886115af9190614de9565b6040518363ffffffff1660e01b81526004016115cc929190614e00565b6020604051808303816000875af11580156115eb573d6000803e3d6000fd5b505050506040513d601f19601f8201168201806040525081019061160f9190614e27565b5050506000806116398c8e60200135886116299190614de9565b8f6040013588610cc29190614de9565b909250905061164b60208e018e614862565b604051633f7b613560e01b815260048101849052602481018390526001600160a01b039190911690633f7b613590604401600060405180830381600087803b15801561169657600080fd5b505af11580156116aa573d6000803e3d6000fd5b506116c09450505060208e0191508d9050614862565b6040516394bf804d60e01b8152600481018c90526001600160a01b03878116602483015291909116906394bf804d9060440160408051808303816000875af1158015611710573d6000803e3d6000fd5b505050506040513d601f19601f820116820180604052508101906117349190614e44565b507fc00aed996acfb0673742e8911b6ff20f93754b815a7540b7e761d7429ffa08ab90503361176660208e018e614862565b604080516001600160a01b03938416815292909116602083015281018490526060810183905260800160405180910390a150506040516370a0823160e01b8152306004820152600093508592506001600160a01b03881691506370a08231906024015b602060405180830381865afa1580156117e6573d6000803e3d6000fd5b505050506040513d601f19601f8201168201806040525081019061180a9190614be2565b6118149190614de9565b6040516370a0823160e01b815230600482015290915060009083906001600160a01b038716906370a0823190602401602060405180830381865afa158015611860573d6000803e3d6000fd5b505050506040513d601f19601f820116820180604052508101906118849190614be2565b61188e9190614de9565b905081156119095760405163a9059cbb60e01b81526001600160a01b0387169063a9059cbb906118c49033908690600401614e00565b6020604051808303816000875af11580156118e3573d6000803e3d6000fd5b505050506040513d601f19601f820116820180604052508101906119079190614e27565b505b8015610fdd5760405163a9059cbb60e01b81526001600160a01b0386169063a9059cbb9061193d9033908590600401614e00565b6020604051808303816000875af115801561195c573d6000803e3d6000fd5b505050506040513d601f19601f820116820180604052508101906119809190614e27565b505050505050505050565b826001600160a01b0381166119b25760405162461bcd60e51b81526004016105a790614afa565b6001600160a01b038085166000908152609b6020908152604080832054338452609783529281902080548251818502810185019093528083528995611a37951693830182828015611a2c57602002820191906000526020600020905b81546001600160a01b03168152600190910190602001808311611a0e575b50505050508361402d565b60995460405163152f2bb760e01b81526001600160a01b039091169063152f2bb790611a6b90889088908890600401614e91565b600060405180830381600087803b158015611a8557600080fd5b505af1158015611a99573d6000803e3d6000fd5b505050506001600160a01b038581166000908152609b60205260409020547f01e616d15b59874215258e3e3646672746d2fafa2a88ab82d89c49991bcdbbe99116611ae45733611b00565b6001600160a01b038087166000908152609b6020526040902054165b8286866040516106b89493929190614ebf565b611b1b61409d565b806001600160a01b038116611b425760405162461bcd60e51b81526004016105a790614afa565b609a546001600160a01b03808416911603611b9f5760405162461bcd60e51b815260206004820152601b60248201527f50414c4d5465726d733a20616c7265616479207265736f6c766572000000000060448201526064016105a7565b609a80546001600160a01b031981166001600160a01b038581169182179093556040805193909216835260208301527f6cb59c795917577ec693948e42535bd42e4c7784893c9fff6d7b7102f64a1d7291015b60405180910390a15050565b3360009081526097602090815260409182902080548351818402810184019094528084528593611c6e9390929190830182828015610617576020028201919060005260206000209081546001600160a01b031681526001909101906020018083116105f957505050505082613d5b565b50611c7983836140f7565b604080513381526001600160a01b0380841660208301528416918101919091527f0bcba02da0cdd1a6aac8553dd2668cbc3dae93fab8859665ba2d470a2ba8f445906060015b60405180910390a1505050565b816001600160a01b038116611cf35760405162461bcd60e51b81526004016105a790614afa565b836001600160a01b038116611d1a5760405162461bcd60e51b81526004016105a790614afa565b33600090815260976020908152604080832080548251818502810185019093528083528a9493611d8b93929190830182828015611d8057602002820191906000526020600020905b81546001600160a01b03168152600190910190602001808311611d62575b505050505083613d5b565b33600090815260976020526040902080549192509082908110611db057611db0614eec565b600091825260209091200180546001600160a01b0319169055805b33600090815260976020526040902054611de790600190614de9565b811015611e8c57336000908152609760205260409020611e08826001614f02565b81548110611e1857611e18614eec565b60009182526020808320909101543383526097909152604090912080546001600160a01b039092169183908110611e5157611e51614eec565b600091825260209091200180546001600160a01b0319166001600160a01b039290921691909117905580611e8481614f1a565b915050611dcb565b50336000908152609760205260409020805480611eab57611eab614f33565b600082815260208120820160001990810180546001600160a01b0319169055909101909155609a548190611eeb908b9030906001600160a01b0316613db7565b50915091506000611f0c83609960149054906101000a900461ffff16613f29565b90506000611f2a83609960149054906101000a900461ffff16613f29565b90508115611f8a57611f8a609860009054906101000a90046001600160a01b0316838e6001600160a01b0316630dfe16816040518163ffffffff1660e01b8152600401602060405180830381865afa158015610c04573d6000803e3d6000fd5b8015611fe857611fe8609860009054906101000a90046001600160a01b0316828e6001600160a01b031663d21220a76040518163ffffffff1660e01b8152600401602060405180830381865afa158015610c04573d6000803e3d6000fd5b831561203a5761203a8b611ffc8487614de9565b8e6001600160a01b0316630dfe16816040518163ffffffff1660e01b8152600401602060405180830381865afa158015610c04573d6000803e3d6000fd5b821561208c5761208c8b61204e8386614de9565b8e6001600160a01b031663d21220a76040518163ffffffff1660e01b8152600401602060405180830381865afa158015610c04573d6000803e3d6000fd5b60995460405163b7d3824360e01b81526001600160a01b0388811660048301528d811660248301529091169063b7d3824390604401600060405180830381600087803b1580156120db57600080fd5b505af11580156120ef573d6000803e3d6000fd5b505060405163d0ebdbe760e01b81526001600160a01b038c811660048301528f16925063d0ebdbe79150602401600060405180830381600087803b15801561213657600080fd5b505af115801561214a573d6000803e3d6000fd5b5050604051630d6e663160e01b8152600060048201526001600160a01b038f169250630d6e66319150602401600060405180830381600087803b15801561219057600080fd5b505af11580156121a4573d6000803e3d6000fd5b505060405163f2fde38b60e01b81526001600160a01b038d811660048301528f16925063f2fde38b9150602401600060405180830381600087803b1580156121eb57600080fd5b505af11580156121ff573d6000803e3d6000fd5b5050604080513381526001600160a01b038a81166020830152818301899052606082018890528f16608082015260a0810186905260c0810185905290517f0d52372e455cc3305a983c590d790ca4175987649a8e2959ed7dd506387961b993509081900360e0019150a1505050505050505050505050565b61227f61409d565b61228960006141d0565b565b826001600160a01b0381166122b25760405162461bcd60e51b81526004016105a790614afa565b6001600160a01b038085166000908152609b6020908152604080832054338452609783529281902080548251818502810185019093528083528995612335951693830182828015611a2c576020028201919060005260206000209081546001600160a01b03168152600190910190602001808311611a0e5750505050508361402d565b609954604051631d01f8e360e21b81526001600160a01b0390911690637407e38c9061236990889088908890600401614e91565b600060405180830381600087803b15801561238357600080fd5b505af1158015612397573d6000803e3d6000fd5b505050506001600160a01b038581166000908152609b60205260409020547fdcd296d17559776406261383f6e29108f53a3ca0edf2041fa6a75335e59c18e69116611ae45733611b00565b609760205281600052604060002081815481106123fe57600080fd5b6000918252602090912001546001600160a01b03169150829050565b826001600160a01b0381166124415760405162461bcd60e51b81526004016105a790614afa565b609954604051632988bb9f60e21b81526001600160a01b03808716600483015286921690600090829063a622ee7c90602401600060405180830381865afa158015612490573d6000803e3d6000fd5b505050506040513d6000823e601f3d908101601f191682016040526124b89190810190614f49565b505033600090815260976020908152604091829020805483518184028101840190945280845295965061252e95929450925083018282801561252357602002820191906000526020600020905b81546001600160a01b03168152600190910190602001808311612505575b505050505084613d5b565b506040516386de146760e01b81526001600160a01b0388811660048301526024820188905286811660448301528316906386de146790606401600060405180830381600087803b15801561258157600080fd5b505af1158015612595573d6000803e3d6000fd5b5050604080513381526001600160a01b0387811660208301528916818301526060810185905290517f9a06175b960d2874575c5001db984a61e4ee5d9a6db26e152a9de72d6a317d8e9350908190036080019150a150505050505050565b60006126056040840160208501614862565b6126156060850160408601614862565b6040516370a0823160e01b81523060048201526000906001600160a01b038416906370a0823190602401602060405180830381865afa15801561265c573d6000803e3d6000fd5b505050506040513d601f19601f820116820180604052508101906126809190614be2565b6040516370a0823160e01b81523060048201529091506000906001600160a01b038416906370a0823190602401602060405180830381865afa1580156126ca573d6000803e3d6000fd5b505050506040513d601f19601f820116820180604052508101906126ee9190614be2565b90506126f986613fdd565b61271b61270c6080890160608a01614fab565b8860a001358960c00135614222565b61274361272e6040890160208a01614862565b61273e60608a0160408b01614862565b614291565b604080518082019091526000808252602082015261276a878960a001358a60c00135613fa8565b602083015281526040805160e081019091526001600160a01b037f0000000000000000000000000000000000000000000000000000000000000000169063f391606e90806127b88c80614fc8565b808060200260200160405190810160405280939291908181526020018383602002808284376000920191909152505050908252506020908101906128029060408e01908e01614862565b6001600160a01b0316815260200161282060608d0160408e01614862565b6001600160a01b03908116825230602080840191909152865160408401528601516060830152609954166080909101526128626101408c016101208d01614fab565b6040518363ffffffff1660e01b815260040161287f929190615011565b6020604051808303816000875af115801561289e573d6000803e3d6000fd5b505050506040513d601f19601f820116820180604052508101906128c29190614bc5565b95508590506128e06128da60a08a0160808b01614862565b87614300565b60006128f46101608a016101408b01614862565b6001600160a01b03161461291d5761291d866129186101608b016101408c01614862565b6140f7565b6099546001600160a01b031663ded2df71348861293d60e08d018d6150eb565b61294b6101008f018f6150eb565b6040518763ffffffff1660e01b815260040161296b959493929190615131565b6000604051808303818588803b15801561298457600080fd5b505af1158015612998573d6000803e3d6000fd5b50505050506129cb33308a60a001358b60200160208101906129ba9190614862565b6001600160a01b0316929190614415565b6129e5333060c08b01356129ba60608d0160408e01614862565b6129f56040890160208a01614862565b6001600160a01b031663095ea7b3878a60a001356040518363ffffffff1660e01b8152600401612a26929190614e00565b6020604051808303816000875af1158015612a45573d6000803e3d6000fd5b505050506040513d601f19601f82011682018060405250810190612a699190614e27565b50612a7a6060890160408a01614862565b6001600160a01b031663095ea7b3878a60c001356040518363ffffffff1660e01b8152600401612aab929190614e00565b6020604051808303816000875af1158015612aca573d6000803e3d6000fd5b505050506040513d601f19601f82011682018060405250810190612aee9190614e27565b50604051630d6e663160e01b81523060048201526001600160a01b03821690630d6e663190602401600060405180830381600087803b158015612b3057600080fd5b505af1158015612b44573d6000803e3d6000fd5b50506040516394bf804d60e01b8152600481018a90523060248201526001600160a01b03841692506394bf804d915060440160408051808303816000875af1158015612b94573d6000803e3d6000fd5b505050506040513d601f19601f82011682018060405250810190612bb89190614e44565b507fd78ce241ef5794ab1864a13f548169c9ffc03abda8ed1064065fa81c340c91799050612bec60a08a0160808b01614862565b604080516001600160a01b03928316815291891660208301520160405180910390a1506040516370a0823160e01b815230600482015260009083906001600160a01b038716906370a0823190602401602060405180830381865afa158015612c58573d6000803e3d6000fd5b505050506040513d601f19601f82011682018060405250810190612c7c9190614be2565b612c869190614de9565b6040516370a0823160e01b815230600482015290915060009083906001600160a01b038716906370a0823190602401602060405180830381865afa158015612cd2573d6000803e3d6000fd5b505050506040513d601f19601f82011682018060405250810190612cf69190614be2565b612d009190614de9565b90508115612d7b5760405163a9059cbb60e01b81526001600160a01b0387169063a9059cbb90612d369033908690600401614e00565b6020604051808303816000875af1158015612d55573d6000803e3d6000fd5b505050506040513d601f19601f82011682018060405250810190612d799190614e27565b505b8015612df45760405163a9059cbb60e01b81526001600160a01b0386169063a9059cbb90612daf9033908590600401614e00565b6020604051808303816000875af1158015612dce573d6000803e3d6000fd5b505050506040513d601f19601f82011682018060405250810190612df29190614e27565b505b50505050505092915050565b826001600160a01b038116612e275760405162461bcd60e51b81526004016105a790614afa565b3360009081526097602090815260409182902080548351818402810184019094528084528793612e979390929190830182828015610617576020028201919060005260206000209081546001600160a01b031681526001909101906020018083116105f957505050505082613d5b565b506040516386ac1cb960e01b81526001600160a01b038616906386ac1cb990612ec690879087906004016151c0565b600060405180830381600087803b158015612ee057600080fd5b505af1158015612ef4573d6000803e3d6000fd5b505050507f3c97f149136cfbb978755d7cac071dcf9e7bbf5fde8a030fa2d972d78644441c338286866040516106b894939291906151d4565b600054610100900460ff1615808015612f4d5750600054600160ff909116105b80612f675750303b158015612f67575060005460ff166001145b612fca5760405162461bcd60e51b815260206004820152602e60248201527f496e697469616c697a61626c653a20636f6e747261637420697320616c72656160448201526d191e481a5b9a5d1a585b1a5e995960921b60648201526084016105a7565b6000805460ff191660011790558015612fed576000805461ff0019166101001790555b609954612710600160a01b90910461ffff161061304c5760405162461bcd60e51b815260206004820152601d60248201527f50414c4d5465726d733a20656d6f6c756d656e74203e3d20313030252e00000060448201526064016105a7565b613055856141d0565b609880546001600160a01b038087166001600160a01b0319928316179092556099805461ffff8716600160a01b0261ffff60a01b19909116179055609a80549285169290911691909117905580156130e3576000805461ff0019169055604051600181527f7f26b83ff96e1f2b6a682f133852f6798a09c465da95921460cefb3847402498906020016106b8565b5050505050565b6130f261409d565b60995461ffff600160a01b9091048116908216106131645760405162461bcd60e51b815260206004820152602960248201527f50414c4d5465726d733a206e657720656d6f6c756d656e74203e3d206f6c6420604482015268195b5bdb1d5b595b9d60ba1b60648201526084016105a7565b6099805461ffff838116600160a01b81810261ffff60a01b198516179094556040805194909304909116835260208301527f7179ea06c1633dd908ac95e2c4749f1063eadecbe01501941080e07bb96764db910160405180910390a150565b6131cb61409d565b806001600160a01b0381166131f25760405162461bcd60e51b81526004016105a790614afa565b6098546001600160a01b0380841691160361324f5760405162461bcd60e51b815260206004820181905260248201527f50414c4d5465726d733a20616c7265616479207465726d20747265617375727960448201526064016105a7565b609880546001600160a01b031981166001600160a01b038581169182179093556040805193909216835260208301527fdaecbed9cdf338cbedbd120eefc62bec9856ad3657ea396258b681e6bc17bed59101611bf2565b826001600160a01b0381166132cd5760405162461bcd60e51b81526004016105a790614afa565b336000908152609760209081526040918290208054835181840281018401909452808452879361333d9390929190830182828015610617576020028201919060005260206000209081546001600160a01b031681526001909101906020018083116105f957505050505082613d5b565b506040516392e49dfd60e01b81526001600160a01b038616906392e49dfd9061336c9087908790600401614b7a565b600060405180830381600087803b15801561338657600080fd5b505af115801561339a573d6000803e3d6000fd5b505050507f56c591ad091ad6159d554662a44cdfbd66dcf88173aa8809686c226e560c7948338286866040516106b89493929190614b8e565b6133db61409d565b806001600160a01b0381166134025760405162461bcd60e51b81526004016105a790614afa565b6099546001600160a01b03908116908316036134605760405162461bcd60e51b815260206004820152601a60248201527f50414c4d5465726d733a20616c7265616479206d616e6167657200000000000060448201526064016105a7565b609980546001600160a01b031981166001600160a01b038581169182179093556040805193909216835260208301527f8d235c6c97ff1b07a41b6b8ac6ea040a6a6b411b20a0f02f02946fa45590bcfc9101611bf2565b826001600160a01b0381166134de5760405162461bcd60e51b81526004016105a790614afa565b336000908152609760209081526040918290208054835181840281018401909452808452879361354e9390929190830182828015610617576020028201919060005260206000209081546001600160a01b031681526001909101906020018083116105f957505050505082613d5b565b5060405163012c590560e61b81526001600160a01b03861690634b1641409061357d9087908790600401614b7a565b600060405180830381600087803b15801561359757600080fd5b505af11580156135ab573d6000803e3d6000fd5b505050507fa51d837555a436e00533e1177576e060e79c5cf3196bd2809db7ed4b6c771947338286866040516106b89493929190614b8e565b6135f16020830183614862565b6001600160a01b0316630dfe16816040518163ffffffff1660e01b8152600401602060405180830381865afa15801561362e573d6000803e3d6000fd5b505050506040513d601f19601f820116820180604052508101906136529190614bc5565b61365f6020840184614862565b6001600160a01b031663d21220a76040518163ffffffff1660e01b8152600401602060405180830381865afa15801561369c573d6000803e3d6000fd5b505050506040513d601f19601f820116820180604052508101906136c09190614bc5565b6040516370a0823160e01b81523060048201526000906001600160a01b038416906370a0823190602401602060405180830381865afa158015613707573d6000803e3d6000fd5b505050506040513d601f19601f8201168201806040525081019061372b9190614be2565b6040516370a0823160e01b81523060048201529091506000906001600160a01b038416906370a0823190602401602060405180830381865afa158015613775573d6000803e3d6000fd5b505050506040513d601f19601f820116820180604052508101906137999190614be2565b90506137a485613fdd565b6137c66137b76040880160208901614fab565b87604001358860600135614222565b33600090815260976020908152604091829020805483518184028101840190945280845261383a939283018282801561120a576020028201919060005260206000209081546001600160a01b031681526001909101906020018083116111ec575061121e9350505060208a01905089614862565b5060008061386161384e60208a018a614862565b609a5430906001600160a01b0316613db7565b5090925090506138df333060408b013561387e60208d018d614862565b6001600160a01b0316630dfe16816040518163ffffffff1660e01b8152600401602060405180830381865afa1580156138bb573d6000803e3d6000fd5b505050506040513d601f19601f820116820180604052508101906129ba9190614bc5565b613933333060608b01356138f660208d018d614862565b6001600160a01b031663d21220a76040518163ffffffff1660e01b8152600401602060405180830381865afa1580156138bb573d6000803e3d6000fd5b6139406020890189614862565b6001600160a01b0316630dfe16816040518163ffffffff1660e01b8152600401602060405180830381865afa15801561397d573d6000803e3d6000fd5b505050506040513d601f19601f820116820180604052508101906139a19190614bc5565b6001600160a01b031663095ea7b36139bc60208b018b614862565b6139ca8560408d0135614f02565b6040518363ffffffff1660e01b81526004016139e7929190614e00565b6020604051808303816000875af1158015613a06573d6000803e3d6000fd5b505050506040513d601f19601f82011682018060405250810190613a2a9190614e27565b50613a386020890189614862565b6001600160a01b031663d21220a76040518163ffffffff1660e01b8152600401602060405180830381865afa158015613a75573d6000803e3d6000fd5b505050506040513d601f19601f82011682018060405250810190613a999190614bc5565b6001600160a01b031663095ea7b3613ab460208b018b614862565b613ac28460608d0135614f02565b6040518363ffffffff1660e01b8152600401613adf929190614e00565b6020604051808303816000875af1158015613afe573d6000803e3d6000fd5b505050506040513d601f19601f82011682018060405250810190613b229190614e27565b506040805180820190915260008082526020820152613b5788613b498560408d0135614f02565b610cc28560608e0135614f02565b602080840191909152908252613b6f908a018a614862565b81516020830151604051633f7b613560e01b8152600481019290925260248201526001600160a01b039190911690633f7b613590604401600060405180830381600087803b158015613bc057600080fd5b505af1158015613bd4573d6000803e3d6000fd5b50613be89350505060208a01905089614862565b6040516394bf804d60e01b8152600481018990523060248201526001600160a01b0391909116906394bf804d9060440160408051808303816000875af1158015613c36573d6000803e3d6000fd5b505050506040513d601f19601f82011682018060405250810190613c5a9190614e44565b507fd8604e87f6aa7aa2a3261108ed89a3ca0b8c8e08803677ccad6c16c9d48a7d03905033613c8c60208b018b614862565b604080516001600160a01b0393841681529290911660208301520160405180910390a150506040516370a0823160e01b815230600482015260009083906001600160a01b038716906370a08231906024016117c9565b613cea61409d565b6001600160a01b038116613d4f5760405162461bcd60e51b815260206004820152602660248201527f4f776e61626c653a206e6577206f776e657220697320746865207a65726f206160448201526564647265737360d01b60648201526084016105a7565b613d58816141d0565b50565b600080613d68848461444d565b9250905080613db05760405162461bcd60e51b81526020600482015260146024820152732820a626aa32b936b99d103737ba1037bbb732b960611b60448201526064016105a7565b5092915050565b6040516370a0823160e01b81526001600160a01b03838116600483015260009182918291908716906370a0823190602401602060405180830381865afa158015613e05573d6000803e3d6000fd5b505050506040513d601f19601f82011682018060405250810190613e299190614be2565b6040516330c3f3f760e21b8152600481018290526001600160a01b03888116602483015291925060009186169063c30fcfdc90604401600060405180830381865afa158015613e7c573d6000803e3d6000fd5b505050506040513d6000823e601f3d908101601f19168201604052613ea49190810190615213565b60405163f4effe4160e01b81529091506001600160a01b0388169063f4effe4190613ed790849086908b90600401615338565b60408051808303816000875af1158015613ef5573d6000803e3d6000fd5b505050506040513d601f19601f82011682018060405250810190613f199190614e44565b9098909750919550909350505050565b6000612710613f3c61ffff8416856153c7565b613f4691906153e6565b9392505050565b613fa38363a9059cbb60e01b8484604051602401613f6c929190614e00565b60408051601f198184030181529190526020810180516001600160e01b03166001600160e01b0319909316929092179091526144b5565b505050565b600080613fbe84670de0b6b3a764000087614587565b9150613fd383670de0b6b3a764000087614587565b9050935093915050565b60008111613d585760405162461bcd60e51b815260206004820152601b60248201527f50414c4d5465726d733a206d696e74416d6f756e74207a65726f2e000000000060448201526064016105a7565b6001600160a01b0383161561408d57336001600160a01b03841614613fa35760405162461bcd60e51b815260206004820152601660248201527550414c4d5465726d733a206e6f2064656c656761746560501b60448201526064016105a7565b6140978282613d5b565b50505050565b6033546001600160a01b031633146122895760405162461bcd60e51b815260206004820181905260248201527f4f776e61626c653a2063616c6c6572206973206e6f7420746865206f776e657260448201526064016105a7565b6001600160a01b038281166000908152609b60205260409020548183169116036141635760405162461bcd60e51b815260206004820152601b60248201527f50414c4d5465726d733a20616c72656164792064656c6567617465000000000060448201526064016105a7565b6001600160a01b038281166000818152609b602090815260409182902080546001600160a01b03191694861694851790558151338152908101929092528101919091527f1bdc0199979c7643aefd2462992328b03f70259b45fa89814e0d1008c105d06d90606001611bf2565b603380546001600160a01b038381166001600160a01b0319831681179093556040519116919082907f8be0079c531659141344cd1fd0a4f28419497f9722a3daafe3b4186f6b6457e090600090a35050565b826142305760008111614235565b600082115b613fa35760405162461bcd60e51b815260206004820152602760248201527f50414c4d5465726d733a206e6f2070726f6a65637420746f6b656e20616c6c6f60448201526631b0ba34b7b71760c91b60648201526084016105a7565b806001600160a01b0316826001600160a01b0316106142fc5760405162461bcd60e51b815260206004820152602160248201527f50414c4d5465726d733a20746f6b656e73206f7264657220696e7665727465646044820152601760f91b60648201526084016105a7565b5050565b6001600160a01b0382166000908152609760205260408120905b81548110156143ac57826001600160a01b031682828154811061433f5761433f614eec565b6000918252602090912001546001600160a01b03160361439a5760405162461bcd60e51b81526020600482015260166024820152751410531355195c9b5cce881d985d5b1d08195e1a5cdd60521b60448201526064016105a7565b806143a481614f1a565b91505061431a565b508054600181018255600082815260209081902090910180546001600160a01b0319166001600160a01b03858116918217909255604080519287168352928201527f7f03ac7449144076e2d9d5a237c3ff0d0108e0a2ebdd5213c4b0de6f4d4f69539101611cbf565b6040516001600160a01b03808516602483015283166044820152606481018290526140979085906323b872dd60e01b90608401613f6c565b6000805b83518110156144a757826001600160a01b031684828151811061447657614476614eec565b60200260200101516001600160a01b03160361449557600191506144ae565b8061449f81614f1a565b915050614451565b5060009050805b9250929050565b600061450a826040518060400160405280602081526020017f5361666545524332303a206c6f772d6c6576656c2063616c6c206661696c6564815250856001600160a01b03166146349092919063ffffffff16565b805190915015613fa357808060200190518101906145289190614e27565b613fa35760405162461bcd60e51b815260206004820152602a60248201527f5361666545524332303a204552433230206f7065726174696f6e20646964206e6044820152691bdd081cdd58d8d9595960b21b60648201526084016105a7565b60008080600019858709858702925082811083820303915050806000036145c057600084116145b557600080fd5b508290049050613f46565b8084116145cc57600080fd5b600084868809600260036001881981018916988990049182028318808302840302808302840302808302840302808302840302808302840302918202909203026000889003889004909101858311909403939093029303949094049190911702949350505050565b6060614643848460008561464b565b949350505050565b6060824710156146ac5760405162461bcd60e51b815260206004820152602660248201527f416464726573733a20696e73756666696369656e742062616c616e636520666f6044820152651c8818d85b1b60d21b60648201526084016105a7565b6001600160a01b0385163b6147035760405162461bcd60e51b815260206004820152601d60248201527f416464726573733a2063616c6c20746f206e6f6e2d636f6e747261637400000060448201526064016105a7565b600080866001600160a01b0316858760405161471f9190615408565b60006040518083038185875af1925050503d806000811461475c576040519150601f19603f3d011682016040523d82523d6000602084013e614761565b606091505b509150915061477182828661477c565b979650505050505050565b6060831561478b575081613f46565b82511561479b5782518084602001fd5b8160405162461bcd60e51b81526004016105a79190615424565b6001600160a01b0381168114613d5857600080fd5b60008083601f8401126147dc57600080fd5b5081356001600160401b038111156147f357600080fd5b6020830191508360208260051b85010111156144ae57600080fd5b60008060006040848603121561482357600080fd5b833561482e816147b5565b925060208401356001600160401b0381111561484957600080fd5b614855868287016147ca565b9497909650939450505050565b60006020828403121561487457600080fd5b8135613f46816147b5565b60006080828403121561489157600080fd5b50919050565b60008060a083850312156148aa57600080fd5b6148b4848461487f565b946080939093013593505050565b60008083601f8401126148d457600080fd5b5081356001600160401b038111156148eb57600080fd5b6020830191508360208285010111156144ae57600080fd5b60008060006040848603121561491857600080fd5b8335614923816147b5565b925060208401356001600160401b0381111561493e57600080fd5b614855868287016148c2565b6000806040838503121561495d57600080fd5b8235614968816147b5565b91506020830135614978816147b5565b809150509250929050565b6000806000806080858703121561499957600080fd5b84356149a4816147b5565b935060208501356149b4816147b5565b925060408501356149c4816147b5565b915060608501356149d4816147b5565b939692955090935050565b600080604083850312156149f257600080fd5b82356149fd816147b5565b946020939093013593505050565b600080600060608486031215614a2057600080fd5b8335614a2b816147b5565b9250602084013591506040840135614a42816147b5565b809150509250925092565b60008060408385031215614a6057600080fd5b82356001600160401b03811115614a7657600080fd5b830161016081860312156149fd57600080fd5b803561ffff81168114614a9b57600080fd5b919050565b60008060008060808587031215614ab657600080fd5b8435614ac1816147b5565b93506020850135614ad1816147b5565b92506149c460408601614a89565b600060208284031215614af157600080fd5b613f4682614a89565b60208082526017908201527f50414c4d5465726d733a2061646472657373205a65726f000000000000000000604082015260600190565b8183526000602080850194508260005b85811015614b6f578135614b54816147b5565b6001600160a01b031687529582019590820190600101614b41565b509495945050505050565b602081526000614643602083018486614b31565b6001600160a01b03858116825284166020820152606060408201819052600090614bbb9083018486614b31565b9695505050505050565b600060208284031215614bd757600080fd5b8151613f46816147b5565b600060208284031215614bf457600080fd5b5051919050565b634e487b7160e01b600052604160045260246000fd5b60405160a081016001600160401b0381118282101715614c3357614c33614bfb565b60405290565b604080519081016001600160401b0381118282101715614c3357614c33614bfb565b604051606081016001600160401b0381118282101715614c3357614c33614bfb565b604051601f8201601f191681016001600160401b0381118282101715614ca557614ca5614bfb565b604052919050565b60005b83811015614cc8578181015183820152602001614cb0565b838111156140975750506000910152565b600082601f830112614cea57600080fd5b81516001600160401b03811115614d0357614d03614bfb565b614d16601f8201601f1916602001614c7d565b818152846020838601011115614d2b57600080fd5b614643826020830160208701614cad565b600060208284031215614d4e57600080fd5b81516001600160401b0380821115614d6557600080fd5b9083019060a08286031215614d7957600080fd5b614d81614c11565b8251815260208301516020820152604083015182811115614da157600080fd5b614dad87828601614cd9565b604083015250606083015160608201526080830151608082015280935050505092915050565b634e487b7160e01b600052601160045260246000fd5b600082821015614dfb57614dfb614dd3565b500390565b6001600160a01b03929092168252602082015260400190565b8015158114613d5857600080fd5b600060208284031215614e3957600080fd5b8151613f4681614e19565b60008060408385031215614e5757600080fd5b505080516020909101519092909150565b81835281816020850137506000828201602090810191909152601f909101601f19169091010190565b6001600160a01b0384168152604060208201819052600090614eb69083018486614e68565b95945050505050565b6001600160a01b03858116825284166020820152606060408201819052600090614bbb9083018486614e68565b634e487b7160e01b600052603260045260246000fd5b60008219821115614f1557614f15614dd3565b500190565b600060018201614f2c57614f2c614dd3565b5060010190565b634e487b7160e01b600052603160045260246000fd5b600080600080600060a08688031215614f6157600080fd5b855194506020860151935060408601516001600160401b03811115614f8557600080fd5b614f9188828901614cd9565b606088015160809098015196999598509695949350505050565b600060208284031215614fbd57600080fd5b8135613f4681614e19565b6000808335601e19843603018112614fdf57600080fd5b8301803591506001600160401b03821115614ff957600080fd5b6020019150600581901b36038213156144ae57600080fd5b6040815260006101208201845160e060408501528181518084526101408601915060209350838301925060005b8181101561505f57835162ffffff168352928401929184019160010161503e565b5050868301516001600160a01b0381166060870152915060408701516001600160a01b0381166080870152915060608701516001600160a01b03811660a08701529150608087015160c086015260a087015160e086015260c087015191506150d36101008601836001600160a01b03169052565b8515158386015292506150e39050565b509392505050565b6000808335601e1984360301811261510257600080fd5b8301803591506001600160401b0382111561511c57600080fd5b6020019150368190038213156144ae57600080fd5b6001600160a01b03861681526060602082018190526000906151569083018688614e68565b8281036040840152615169818587614e68565b98975050505050505050565b62ffffff81168114613d5857600080fd5b8183526000602080850194508260005b85811015614b6f5781356151a981615175565b62ffffff1687529582019590820190600101615196565b602081526000614643602083018486615186565b6001600160a01b03858116825284166020820152606060408201819052600090614bbb9083018486615186565b8051600281900b8114614a9b57600080fd5b6000602080838503121561522657600080fd5b82516001600160401b038082111561523d57600080fd5b818501915085601f83011261525157600080fd5b81518181111561526357615263614bfb565b615271848260051b01614c7d565b818152848101925060079190911b83018401908782111561529157600080fd5b928401925b818410156147715783880360808112156152b05760008081fd5b6152b8614c39565b85516001600160801b03811681146152d05760008081fd5b81526060601f1983018113156152e65760008081fd5b6152ee614c5b565b92506152fb888801615201565b8352604061530a818901615201565b848a0152908701519061531c82615175565b8301528087019190915283526080939093019291840191615296565b6060808252845182820181905260009190608090818501906020808a01865b838110156153a657815180516001600160801b031686528301518051600290810b8588015281850151900b604080880191909152015162ffffff16878601529385019390820190600101615357565b50508601889052506001600160a01b03861660408601529250614643915050565b60008160001904831182151516156153e1576153e1614dd3565b500290565b60008261540357634e487b7160e01b600052601260045260246000fd5b500490565b6000825161541a818460208701614cad565b9190910192915050565b6020815260008251806020840152615443816040850160208701614cad565b601f01601f1916919091016040019291505056fea26469706673582212201aefce900ecf4a74aab87ccb76f66ce500fdaea4ff9d899722249910f9aa691b64736f6c634300080d0033",
  "devdoc": {
    "kind": "dev",
    "methods": {
      "owner()": {
        "details": "Returns the address of the current owner."
      },
      "renounceOwnership()": {
        "details": "Leaves the contract without owner. It will not be possible to call `onlyOwner` functions anymore. Can only be called by the current owner. NOTE: Renouncing ownership will leave the contract without an owner, thereby removing any functionality that is only available to the owner."
      },
      "transferOwnership(address)": {
        "details": "Transfers ownership of the contract to a new account (`newOwner`). Can only be called by the current owner."
      }
    },
    "version": 1
  },
  "userdoc": {
    "kind": "user",
    "methods": {
      "openTerm((uint24[],address,address,bool,address,uint256,uint256,bytes,string,bool,address),uint256)": {
        "notice": "do all neccesary step to initialize market making."
      }
    },
    "version": 1
  },
  "storageLayout": {
    "storage": [
      {
        "astId": 315,
        "contract": "contracts/PALMTerms.sol:PALMTerms",
        "label": "_initialized",
        "offset": 0,
        "slot": "0",
        "type": "t_uint8"
      },
      {
        "astId": 318,
        "contract": "contracts/PALMTerms.sol:PALMTerms",
        "label": "_initializing",
        "offset": 1,
        "slot": "0",
        "type": "t_bool"
      },
      {
        "astId": 929,
        "contract": "contracts/PALMTerms.sol:PALMTerms",
        "label": "__gap",
        "offset": 0,
        "slot": "1",
        "type": "t_array(t_uint256)50_storage"
      },
      {
        "astId": 187,
        "contract": "contracts/PALMTerms.sol:PALMTerms",
        "label": "_owner",
        "offset": 0,
        "slot": "51",
        "type": "t_address"
      },
      {
        "astId": 307,
        "contract": "contracts/PALMTerms.sol:PALMTerms",
        "label": "__gap",
        "offset": 0,
        "slot": "52",
        "type": "t_array(t_uint256)49_storage"
      },
      {
        "astId": 600,
        "contract": "contracts/PALMTerms.sol:PALMTerms",
        "label": "_status",
        "offset": 0,
        "slot": "101",
        "type": "t_uint256"
      },
      {
        "astId": 644,
        "contract": "contracts/PALMTerms.sol:PALMTerms",
        "label": "__gap",
        "offset": 0,
        "slot": "102",
        "type": "t_array(t_uint256)49_storage"
      },
      {
        "astId": 8498,
        "contract": "contracts/PALMTerms.sol:PALMTerms",
        "label": "vaults",
        "offset": 0,
        "slot": "151",
        "type": "t_mapping(t_address,t_array(t_address)dyn_storage)"
      },
      {
        "astId": 8500,
        "contract": "contracts/PALMTerms.sol:PALMTerms",
        "label": "termTreasury",
        "offset": 0,
        "slot": "152",
        "type": "t_address"
      },
      {
        "astId": 8502,
        "contract": "contracts/PALMTerms.sol:PALMTerms",
        "label": "manager",
        "offset": 0,
        "slot": "153",
        "type": "t_address"
      },
      {
        "astId": 8504,
        "contract": "contracts/PALMTerms.sol:PALMTerms",
        "label": "emolument",
        "offset": 20,
        "slot": "153",
        "type": "t_uint16"
      },
      {
        "astId": 8507,
        "contract": "contracts/PALMTerms.sol:PALMTerms",
        "label": "resolver",
        "offset": 0,
        "slot": "154",
        "type": "t_contract(IArrakisV2Resolver)9860"
      },
      {
        "astId": 8511,
        "contract": "contracts/PALMTerms.sol:PALMTerms",
        "label": "delegateByVaults",
        "offset": 0,
        "slot": "155",
        "type": "t_mapping(t_address,t_address)"
      }
    ],
    "types": {
      "t_address": {
        "encoding": "inplace",
        "label": "address",
        "numberOfBytes": "20"
      },
      "t_array(t_address)dyn_storage": {
        "base": "t_address",
        "encoding": "dynamic_array",
        "label": "address[]",
        "numberOfBytes": "32"
      },
      "t_array(t_uint256)49_storage": {
        "base": "t_uint256",
        "encoding": "inplace",
        "label": "uint256[49]",
        "numberOfBytes": "1568"
      },
      "t_array(t_uint256)50_storage": {
        "base": "t_uint256",
        "encoding": "inplace",
        "label": "uint256[50]",
        "numberOfBytes": "1600"
      },
      "t_bool": {
        "encoding": "inplace",
        "label": "bool",
        "numberOfBytes": "1"
      },
      "t_contract(IArrakisV2Resolver)9860": {
        "encoding": "inplace",
        "label": "contract IArrakisV2Resolver",
        "numberOfBytes": "20"
      },
      "t_mapping(t_address,t_address)": {
        "encoding": "mapping",
        "key": "t_address",
        "label": "mapping(address => address)",
        "numberOfBytes": "32",
        "value": "t_address"
      },
      "t_mapping(t_address,t_array(t_address)dyn_storage)": {
        "encoding": "mapping",
        "key": "t_address",
        "label": "mapping(address => address[])",
        "numberOfBytes": "32",
        "value": "t_array(t_address)dyn_storage"
      },
      "t_uint16": {
        "encoding": "inplace",
        "label": "uint16",
        "numberOfBytes": "2"
      },
      "t_uint256": {
        "encoding": "inplace",
        "label": "uint256",
        "numberOfBytes": "32"
      },
      "t_uint8": {
        "encoding": "inplace",
        "label": "uint8",
        "numberOfBytes": "1"
      }
    }
  }
}