{
  "address": "0xe277Bf661cD362C4C979b42e902104c1729961AF",
  "abi": [
    {
      "inputs": [
        {
          "internalType": "uint16",
          "name": "managerFeeBPS_",
          "type": "uint16"
        },
        {
          "internalType": "address",
          "name": "terms_",
          "type": "address"
        },
        {
          "internalType": "uint256",
          "name": "termDuration_",
          "type": "uint256"
        }
      ],
      "stateMutability": "nonpayable",
      "type": "constructor"
    },
    {
      "anonymous": false,
      "inputs": [
        {
          "indexed": true,
          "internalType": "address",
          "name": "manager",
          "type": "address"
        },
        {
          "indexed": false,
          "internalType": "address[]",
          "name": "operators",
          "type": "address[]"
        }
      ],
      "name": "AddOperators",
      "type": "event"
    },
    {
      "anonymous": false,
      "inputs": [
        {
          "indexed": true,
          "internalType": "address",
          "name": "vault",
          "type": "address"
        },
        {
          "indexed": false,
          "internalType": "bytes",
          "name": "datas",
          "type": "bytes"
        },
        {
          "indexed": false,
          "internalType": "string",
          "name": "strat",
          "type": "string"
        }
      ],
      "name": "AddVault",
      "type": "event"
    },
    {
      "anonymous": false,
      "inputs": [
        {
          "indexed": false,
          "internalType": "uint8",
          "name": "version",
          "type": "uint8"
        }
      ],
      "name": "Initialized",
      "type": "event"
    },
    {
      "anonymous": false,
      "inputs": [
        {
          "indexed": true,
          "internalType": "address",
          "name": "previousOwner",
          "type": "address"
        },
        {
          "indexed": true,
          "internalType": "address",
          "name": "newOwner",
          "type": "address"
        }
      ],
      "name": "OwnershipTransferred",
      "type": "event"
    },
    {
      "anonymous": false,
      "inputs": [
        {
          "indexed": false,
          "internalType": "address",
          "name": "account",
          "type": "address"
        }
      ],
      "name": "Paused",
      "type": "event"
    },
    {
      "anonymous": false,
      "inputs": [
        {
          "indexed": true,
          "internalType": "address",
          "name": "vault",
          "type": "address"
        },
        {
          "indexed": false,
          "internalType": "uint256",
          "name": "newBalance",
          "type": "uint256"
        }
      ],
      "name": "RebalanceVault",
      "type": "event"
    },
    {
      "anonymous": false,
      "inputs": [
        {
          "indexed": true,
          "internalType": "address",
          "name": "manager",
          "type": "address"
        },
        {
          "indexed": false,
          "internalType": "address[]",
          "name": "operators",
          "type": "address[]"
        }
      ],
      "name": "RemoveOperators",
      "type": "event"
    },
    {
      "anonymous": false,
      "inputs": [
        {
          "indexed": true,
          "internalType": "address",
          "name": "vault",
          "type": "address"
        },
        {
          "indexed": false,
          "internalType": "uint256",
          "name": "sendBack",
          "type": "uint256"
        }
      ],
      "name": "RemoveVault",
      "type": "event"
    },
    {
      "anonymous": false,
      "inputs": [
        {
          "indexed": true,
          "internalType": "address",
          "name": "vault",
          "type": "address"
        },
        {
          "indexed": false,
          "internalType": "address",
          "name": "gelatoFeeCollector",
          "type": "address"
        }
      ],
      "name": "SetGelatoFeeCollector",
      "type": "event"
    },
    {
      "anonymous": false,
      "inputs": [
        {
          "indexed": true,
          "internalType": "address",
          "name": "vault",
          "type": "address"
        },
        {
          "indexed": false,
          "internalType": "uint256",
          "name": "oldtermDuration",
          "type": "uint256"
        },
        {
          "indexed": false,
          "internalType": "uint256",
          "name": "newtermDuration",
          "type": "uint256"
        }
      ],
      "name": "SetTermEnd",
      "type": "event"
    },
    {
      "anonymous": false,
      "inputs": [
        {
          "indexed": true,
          "internalType": "address",
          "name": "vault",
          "type": "address"
        },
        {
          "indexed": false,
          "internalType": "bytes",
          "name": "data",
          "type": "bytes"
        }
      ],
      "name": "SetVaultData",
      "type": "event"
    },
    {
      "anonymous": false,
      "inputs": [
        {
          "indexed": true,
          "internalType": "address",
          "name": "vault",
          "type": "address"
        },
        {
          "indexed": false,
          "internalType": "bytes32",
          "name": "strat",
          "type": "bytes32"
        }
      ],
      "name": "SetVaultStrat",
      "type": "event"
    },
    {
      "anonymous": false,
      "inputs": [
        {
          "indexed": false,
          "internalType": "address",
          "name": "account",
          "type": "address"
        }
      ],
      "name": "Unpaused",
      "type": "event"
    },
    {
      "anonymous": false,
      "inputs": [
        {
          "indexed": true,
          "internalType": "address",
          "name": "vault",
          "type": "address"
        },
        {
          "indexed": false,
          "internalType": "uint256",
          "name": "newBalance",
          "type": "uint256"
        }
      ],
      "name": "UpdateVaultBalance",
      "type": "event"
    },
    {
      "anonymous": false,
      "inputs": [
        {
          "indexed": true,
          "internalType": "address",
          "name": "manager",
          "type": "address"
        },
        {
          "indexed": false,
          "internalType": "string",
          "name": "strat",
          "type": "string"
        }
      ],
      "name": "WhitelistStrat",
      "type": "event"
    },
    {
      "anonymous": false,
      "inputs": [
        {
          "indexed": true,
          "internalType": "address",
          "name": "vault",
          "type": "address"
        },
        {
          "indexed": false,
          "internalType": "uint256",
          "name": "amount",
          "type": "uint256"
        },
        {
          "indexed": false,
          "internalType": "address",
          "name": "to",
          "type": "address"
        },
        {
          "indexed": false,
          "internalType": "uint256",
          "name": "newBalance",
          "type": "uint256"
        }
      ],
      "name": "WithdrawVaultBalance",
      "type": "event"
    },
    {
      "inputs": [
        {
          "internalType": "address[]",
          "name": "operators_",
          "type": "address[]"
        }
      ],
      "name": "addOperators",
      "outputs": [],
      "stateMutability": "nonpayable",
      "type": "function"
    },
    {
      "inputs": [
        {
          "internalType": "address",
          "name": "vault_",
          "type": "address"
        },
        {
          "internalType": "bytes",
          "name": "datas_",
          "type": "bytes"
        },
        {
          "internalType": "string",
          "name": "strat_",
          "type": "string"
        }
      ],
      "name": "addVault",
      "outputs": [],
      "stateMutability": "payable",
      "type": "function"
    },
    {
      "inputs": [
        {
          "internalType": "address",
          "name": "vault_",
          "type": "address"
        }
      ],
      "name": "fundVaultBalance",
      "outputs": [],
      "stateMutability": "payable",
      "type": "function"
    },
    {
      "inputs": [],
      "name": "gelatoFeeCollector",
      "outputs": [
        {
          "internalType": "address payable",
          "name": "",
          "type": "address"
        }
      ],
      "stateMutability": "view",
      "type": "function"
    },
    {
      "inputs": [
        {
          "internalType": "address",
          "name": "vault_",
          "type": "address"
        }
      ],
      "name": "getVaultInfo",
      "outputs": [
        {
          "components": [
            {
              "internalType": "uint256",
              "name": "balance",
              "type": "uint256"
            },
            {
              "internalType": "uint256",
              "name": "lastRebalance",
              "type": "uint256"
            },
            {
              "internalType": "bytes",
              "name": "datas",
              "type": "bytes"
            },
            {
              "internalType": "bytes32",
              "name": "strat",
              "type": "bytes32"
            },
            {
              "internalType": "uint256",
              "name": "termEnd",
              "type": "uint256"
            }
          ],
          "internalType": "struct VaultInfo",
          "name": "",
          "type": "tuple"
        }
      ],
      "stateMutability": "view",
      "type": "function"
    },
    {
      "inputs": [],
      "name": "getWhitelistedStrat",
      "outputs": [
        {
          "internalType": "bytes32[]",
          "name": "",
          "type": "bytes32[]"
        }
      ],
      "stateMutability": "view",
      "type": "function"
    },
    {
      "inputs": [
        {
          "internalType": "address",
          "name": "owner_",
          "type": "address"
        },
        {
          "internalType": "address",
          "name": "gelatoFeeCollector_",
          "type": "address"
        }
      ],
      "name": "initialize",
      "outputs": [],
      "stateMutability": "nonpayable",
      "type": "function"
    },
    {
      "inputs": [],
      "name": "managerFeeBPS",
      "outputs": [
        {
          "internalType": "uint16",
          "name": "",
          "type": "uint16"
        }
      ],
      "stateMutability": "view",
      "type": "function"
    },
    {
      "inputs": [
        {
          "internalType": "uint256",
          "name": "",
          "type": "uint256"
        }
      ],
      "name": "operators",
      "outputs": [
        {
          "internalType": "address",
          "name": "",
          "type": "address"
        }
      ],
      "stateMutability": "view",
      "type": "function"
    },
    {
      "inputs": [],
      "name": "owner",
      "outputs": [
        {
          "internalType": "address",
          "name": "",
          "type": "address"
        }
      ],
      "stateMutability": "view",
      "type": "function"
    },
    {
      "inputs": [],
      "name": "pause",
      "outputs": [],
      "stateMutability": "nonpayable",
      "type": "function"
    },
    {
      "inputs": [],
      "name": "paused",
      "outputs": [
        {
          "internalType": "bool",
          "name": "",
          "type": "bool"
        }
      ],
      "stateMutability": "view",
      "type": "function"
    },
    {
      "inputs": [
        {
          "internalType": "address",
          "name": "vault_",
          "type": "address"
        },
        {
          "components": [
            {
              "internalType": "int24",
              "name": "lowerTick",
              "type": "int24"
            },
            {
              "internalType": "int24",
              "name": "upperTick",
              "type": "int24"
            },
            {
              "internalType": "uint24",
              "name": "feeTier",
              "type": "uint24"
            }
          ],
          "internalType": "struct Range[]",
          "name": "ranges_",
          "type": "tuple[]"
        },
        {
          "components": [
            {
              "components": [
                {
                  "internalType": "uint128",
                  "name": "liquidity",
                  "type": "uint128"
                },
                {
                  "components": [
                    {
                      "internalType": "int24",
                      "name": "lowerTick",
                      "type": "int24"
                    },
                    {
                      "internalType": "int24",
                      "name": "upperTick",
                      "type": "int24"
                    },
                    {
                      "internalType": "uint24",
                      "name": "feeTier",
                      "type": "uint24"
                    }
                  ],
                  "internalType": "struct Range",
                  "name": "range",
                  "type": "tuple"
                }
              ],
              "internalType": "struct PositionLiquidity[]",
              "name": "removes",
              "type": "tuple[]"
            },
            {
              "components": [
                {
                  "internalType": "uint128",
                  "name": "liquidity",
                  "type": "uint128"
                },
                {
                  "components": [
                    {
                      "internalType": "int24",
                      "name": "lowerTick",
                      "type": "int24"
                    },
                    {
                      "internalType": "int24",
                      "name": "upperTick",
                      "type": "int24"
                    },
                    {
                      "internalType": "uint24",
                      "name": "feeTier",
                      "type": "uint24"
                    }
                  ],
                  "internalType": "struct Range",
                  "name": "range",
                  "type": "tuple"
                }
              ],
              "internalType": "struct PositionLiquidity[]",
              "name": "deposits",
              "type": "tuple[]"
            },
            {
              "components": [
                {
                  "internalType": "bytes",
                  "name": "payload",
                  "type": "bytes"
                },
                {
                  "internalType": "address",
                  "name": "router",
                  "type": "address"
                },
                {
                  "internalType": "uint256",
                  "name": "amountIn",
                  "type": "uint256"
                },
                {
                  "internalType": "uint256",
                  "name": "expectedMinReturn",
                  "type": "uint256"
                },
                {
                  "internalType": "bool",
                  "name": "zeroForOne",
                  "type": "bool"
                }
              ],
              "internalType": "struct SwapPayload",
              "name": "swap",
              "type": "tuple"
            },
            {
              "internalType": "uint256",
              "name": "minDeposit0",
              "type": "uint256"
            },
            {
              "internalType": "uint256",
              "name": "minDeposit1",
              "type": "uint256"
            }
          ],
          "internalType": "struct Rebalance",
          "name": "rebalanceParams_",
          "type": "tuple"
        },
        {
          "components": [
            {
              "internalType": "int24",
              "name": "lowerTick",
              "type": "int24"
            },
            {
              "internalType": "int24",
              "name": "upperTick",
              "type": "int24"
            },
            {
              "internalType": "uint24",
              "name": "feeTier",
              "type": "uint24"
            }
          ],
          "internalType": "struct Range[]",
          "name": "rangesToRemove_",
          "type": "tuple[]"
        },
        {
          "internalType": "uint256",
          "name": "feeAmount_",
          "type": "uint256"
        }
      ],
      "name": "rebalance",
      "outputs": [],
      "stateMutability": "nonpayable",
      "type": "function"
    },
    {
      "inputs": [
        {
          "internalType": "address[]",
          "name": "operators_",
          "type": "address[]"
        }
      ],
      "name": "removeOperators",
      "outputs": [],
      "stateMutability": "nonpayable",
      "type": "function"
    },
    {
      "inputs": [
        {
          "internalType": "address",
          "name": "vault_",
          "type": "address"
        },
        {
          "internalType": "address payable",
          "name": "to_",
          "type": "address"
        }
      ],
      "name": "removeVault",
      "outputs": [],
      "stateMutability": "nonpayable",
      "type": "function"
    },
    {
      "inputs": [
        {
          "internalType": "address",
          "name": "vault_",
          "type": "address"
        }
      ],
      "name": "renewTerm",
      "outputs": [],
      "stateMutability": "nonpayable",
      "type": "function"
    },
    {
      "inputs": [],
      "name": "renounceOwnership",
      "outputs": [],
      "stateMutability": "nonpayable",
      "type": "function"
    },
    {
      "inputs": [
        {
          "internalType": "address payable",
          "name": "gelatoFeeCollector_",
          "type": "address"
        }
      ],
      "name": "setGelatoFeeCollector",
      "outputs": [],
      "stateMutability": "nonpayable",
      "type": "function"
    },
    {
      "inputs": [
        {
          "internalType": "address",
          "name": "vault_",
          "type": "address"
        },
        {
          "internalType": "bytes",
          "name": "data_",
          "type": "bytes"
        }
      ],
      "name": "setVaultData",
      "outputs": [],
      "stateMutability": "nonpayable",
      "type": "function"
    },
    {
      "inputs": [
        {
          "internalType": "address",
          "name": "vault_",
          "type": "address"
        },
        {
          "internalType": "string",
          "name": "strat_",
          "type": "string"
        }
      ],
      "name": "setVaultStraByName",
      "outputs": [],
      "stateMutability": "nonpayable",
      "type": "function"
    },
    {
      "inputs": [],
      "name": "termDuration",
      "outputs": [
        {
          "internalType": "uint256",
          "name": "",
          "type": "uint256"
        }
      ],
      "stateMutability": "view",
      "type": "function"
    },
    {
      "inputs": [],
      "name": "terms",
      "outputs": [
        {
          "internalType": "address",
          "name": "",
          "type": "address"
        }
      ],
      "stateMutability": "view",
      "type": "function"
    },
    {
      "inputs": [
        {
          "internalType": "address",
          "name": "newOwner",
          "type": "address"
        }
      ],
      "name": "transferOwnership",
      "outputs": [],
      "stateMutability": "nonpayable",
      "type": "function"
    },
    {
      "inputs": [],
      "name": "unpause",
      "outputs": [],
      "stateMutability": "nonpayable",
      "type": "function"
    },
    {
      "inputs": [
        {
          "internalType": "address",
          "name": "",
          "type": "address"
        }
      ],
      "name": "vaults",
      "outputs": [
        {
          "internalType": "uint256",
          "name": "balance",
          "type": "uint256"
        },
        {
          "internalType": "uint256",
          "name": "lastRebalance",
          "type": "uint256"
        },
        {
          "internalType": "bytes",
          "name": "datas",
          "type": "bytes"
        },
        {
          "internalType": "bytes32",
          "name": "strat",
          "type": "bytes32"
        },
        {
          "internalType": "uint256",
          "name": "termEnd",
          "type": "uint256"
        }
      ],
      "stateMutability": "view",
      "type": "function"
    },
    {
      "inputs": [
        {
          "internalType": "string",
          "name": "strat_",
          "type": "string"
        }
      ],
      "name": "whitelistStrat",
      "outputs": [],
      "stateMutability": "nonpayable",
      "type": "function"
    },
    {
      "inputs": [
        {
          "internalType": "address[]",
          "name": "tokens_",
          "type": "address[]"
        },
        {
          "internalType": "address",
          "name": "to_",
          "type": "address"
        }
      ],
      "name": "withdrawFeesEarned",
      "outputs": [],
      "stateMutability": "nonpayable",
      "type": "function"
    },
    {
      "inputs": [
        {
          "internalType": "address",
          "name": "vault_",
          "type": "address"
        },
        {
          "internalType": "uint256",
          "name": "amount_",
          "type": "uint256"
        },
        {
          "internalType": "address payable",
          "name": "to_",
          "type": "address"
        }
      ],
      "name": "withdrawVaultBalance",
      "outputs": [],
      "stateMutability": "nonpayable",
      "type": "function"
    }
  ],
  "transactionHash": "0x687e8ebab288b44808747e44fa61048d5dbdc77015b89f0b5a3cb21c97779221",
  "args": [
    4750,
    "0x48C58178121cBD28833149cb808ce045497A8c4d",
    7884000
  ],
  "numDeployments": 3,
  "solcInputHash": "8541a40743acf17d172129c38f717dd8",
  "bytecode": "0x60e06040523480156200001157600080fd5b506040516200359438038062003594833981016040819052620000349162000052565b61ffff9092166080526001600160a01b031660a05260c052620000ab565b6000806000606084860312156200006857600080fd5b835161ffff811681146200007b57600080fd5b60208501519093506001600160a01b03811681146200009957600080fd5b80925050604084015190509250925092565b60805160a05160c05161349d620000f7600039600081816104f50152818161084f01526122830152600081816104c10152818161073d015261161c0152600061045a015261349d6000f3fe6080604052600436106101b75760003560e01c80638da5cb5b116100ec578063d365a3771161008a578063da5e3bb811610064578063da5e3bb814610525578063ded2df7114610547578063e28d49061461055a578063f2fde38b1461057a57600080fd5b8063d365a3771461048f578063d5025625146104af578063d83d3241146104e357600080fd5b8063a622ee7c116100c6578063a622ee7c146103d7578063b7d3824314610408578063cc73ee0314610428578063ccdf7a021461044857600080fd5b80638da5cb5b1461035857806390229af71461038a578063a07aea1c146103b757600080fd5b80635c975abb11610159578063730bdcb111610133578063730bdcb1146102e35780637407e38c146103035780638456cb591461032357806386de14671461033857600080fd5b80635c975abb1461028657806370dff1dd146102ae578063715018a6146102ce57600080fd5b80631a24bd51116101955780631a24bd51146102115780633f4ba83a146102315780634802b95114610246578063485cc9551461026657600080fd5b80630cff5594146101bc578063152f2bb7146101d157806319e050d0146101f1575b600080fd5b6101cf6101ca36600461290f565b61059a565b005b3480156101dd57600080fd5b506101cf6101ec366004612975565b6105f3565b3480156101fd57600080fd5b506101cf61020c36600461290f565b61072a565b34801561021d57600080fd5b506101cf61022c366004612a0f565b6108b6565b34801561023d57600080fd5b506101cf6109c1565b34801561025257600080fd5b506101cf610261366004612a66565b6109d3565b34801561027257600080fd5b506101cf610281366004612aa8565b610b0f565b34801561029257600080fd5b5060655460ff1660405190151581526020015b60405180910390f35b3480156102ba57600080fd5b506101cf6102c9366004612b26565b610c7e565b3480156102da57600080fd5b506101cf610ddb565b3480156102ef57600080fd5b506101cf6102fe36600461290f565b610ded565b34801561030f57600080fd5b506101cf61031e366004612975565b610eb1565b34801561032f57600080fd5b506101cf610fee565b34801561034457600080fd5b506101cf610353366004612bde565b610ffe565b34801561036457600080fd5b506033546001600160a01b03165b6040516001600160a01b0390911681526020016102a5565b34801561039657600080fd5b506103aa6103a536600461290f565b611136565b6040516102a59190612c6d565b3480156103c357600080fd5b506101cf6103d2366004612cbd565b611285565b3480156103e357600080fd5b506103f76103f236600461290f565b6113d0565b6040516102a5959493929190612cf3565b34801561041457600080fd5b506101cf610423366004612aa8565b611487565b34801561043457600080fd5b50609b54610372906001600160a01b031681565b34801561045457600080fd5b5061047c7f000000000000000000000000000000000000000000000000000000000000000081565b60405161ffff90911681526020016102a5565b34801561049b57600080fd5b506101cf6104aa366004612cbd565b61158d565b3480156104bb57600080fd5b506103727f000000000000000000000000000000000000000000000000000000000000000081565b3480156104ef57600080fd5b506105177f000000000000000000000000000000000000000000000000000000000000000081565b6040519081526020016102a5565b34801561053157600080fd5b5061053a6115d9565b6040516102a59190612d26565b6101cf610555366004612d6a565b6115ea565b34801561056657600080fd5b50610372610575366004612ded565b611718565b34801561058657600080fd5b506101cf61059536600461290f565b611742565b6105a26117bb565b6001600160a01b0381166000908152609960205260408120600401548291036105e65760405162461bcd60e51b81526004016105dd90612e06565b60405180910390fd5b6105ef82611801565b5050565b6105fb6117bb565b826001600160a01b0381166106225760405162461bcd60e51b81526004016105dd90612e3d565b83336001600160a01b0316816001600160a01b0316638da5cb5b6040518163ffffffff1660e01b8152600401602060405180830381865afa15801561066b573d6000803e3d6000fd5b505050506040513d601f19601f8201168201806040525081019061068f9190612e74565b6001600160a01b0316146106b55760405162461bcd60e51b81526004016105dd90612e91565b6001600160a01b0385166000908152609960205260408120600401548691036106f05760405162461bcd60e51b81526004016105dd90612e06565b610722868686604051602001610707929190612ec8565b60405160208183030381529060405280519060200120611878565b505050505050565b6107326117bb565b336001600160a01b037f000000000000000000000000000000000000000000000000000000000000000016146107aa5760405162461bcd60e51b815260206004820152601b60248201527f50414c4d4d616e616765723a206f6e6c792050414c4d5465726d73000000000060448201526064016105dd565b806001600160a01b0381166107d15760405162461bcd60e51b81526004016105dd90612e3d565b6001600160a01b03821660009081526099602052604081206004015483910361080c5760405162461bcd60e51b81526004016105dd90612e06565b6001600160a01b0383166000818152609960205260409020600401547f27d4ba059c105c4c040f57e190ccdf5cda73ddfa873ed76edf044fbb8df524da906108747f000000000000000000000000000000000000000000000000000000000000000042612eee565b6001600160a01b03871660009081526099602052604090819020600401829055516108a9929190918252602082015260400190565b60405180910390a2505050565b6108be6117bb565b6108c661198b565b60005b828110156109bb5760008484838181106108e5576108e5612f06565b90506020020160208101906108fa919061290f565b6040516370a0823160e01b81523060048201526001600160a01b0391909116906370a0823190602401602060405180830381865afa158015610940573d6000803e3d6000fd5b505050506040513d601f19601f820116820180604052508101906109649190612f1c565b905080156109a8576109a8838287878681811061098357610983612f06565b9050602002016020810190610998919061290f565b6001600160a01b031691906119e5565b50806109b381612f35565b9150506108c9565b50505050565b6109c961198b565b6109d1611a37565b565b6109db6117bb565b6109e361198b565b600082826040516020016109f8929190612ec8565b60408051601f1981840301815282825280516020918201206000845290830191829052915190209091508103610a705760405162461bcd60e51b815260206004820152601960248201527f50414c4d4d616e616765723a20656d70747920737472696e670000000000000060448201526064016105dd565b610a7b609782611a89565b15610ac85760405162461bcd60e51b815260206004820152601f60248201527f50414c4d4d616e616765723a2073747261742077686974656c69737465642e0060448201526064016105dd565b610ad3609782611aa6565b50306001600160a01b03167fa4094cdcb85e338885979ed54c0222c307ef0c73799c0c1abecf12fb787e3fdb84846040516108a9929190612f77565b600054610100900460ff1615808015610b2f5750600054600160ff909116105b80610b495750303b158015610b49575060005460ff166001145b610bac5760405162461bcd60e51b815260206004820152602e60248201527f496e697469616c697a61626c653a20636f6e747261637420697320616c72656160448201526d191e481a5b9a5d1a585b1a5e995960921b60648201526084016105dd565b6000805460ff191660011790558015610bcf576000805461ff0019166101001790555b610bd883611ab2565b610be0611b04565b609b80546001600160a01b0319166001600160a01b03841690811790915560405190815230907f28b9eaac57485acb85ea4e5cc0696a9cbdc6b2231d86e4dac5e77458ca67f7ba9060200160405180910390a28015610c79576000805461ff0019169055604051600181527f7f26b83ff96e1f2b6a682f133852f6798a09c465da95921460cefb38474024989060200160405180910390a15b505050565b610c866117bb565b6001600160a01b038716600090815260996020526040812060040154889103610cc15760405162461bcd60e51b81526004016105dd90612e06565b6000610ccc33611b33565b50905080610d175760405162461bcd60e51b81526020600482015260186024820152772820a626a6b0b730b3b2b91d1037379037b832b930ba37b960411b60448201526064016105dd565b6000610d238a85611bcd565b6040516326d8168960e21b81529091506001600160a01b038b1690639b605a2490610d5a908c908c908c908c908c906004016130eb565b600060405180830381600087803b158015610d7457600080fd5b505af1158015610d88573d6000803e3d6000fd5b50505050896001600160a01b03167fa44b3c204c0102fc9bea80c7d9b377b92e3d60599ce49e19119c40d9325c2aaa82604051610dc791815260200190565b60405180910390a250505050505050505050565b610de361198b565b6109d16000611ab2565b610df56117bb565b610dfd61198b565b609b546001600160a01b03808316911603610e5a5760405162461bcd60e51b815260206004820152601f60248201527f50414c4d4d616e616765723a2067656c61746f466565436f6c6c6563746f720060448201526064016105dd565b609b80546001600160a01b0319166001600160a01b03831690811790915560405190815230907f28b9eaac57485acb85ea4e5cc0696a9cbdc6b2231d86e4dac5e77458ca67f7ba906020015b60405180910390a250565b610eb96117bb565b826001600160a01b038116610ee05760405162461bcd60e51b81526004016105dd90612e3d565b83336001600160a01b0316816001600160a01b0316638da5cb5b6040518163ffffffff1660e01b8152600401602060405180830381865afa158015610f29573d6000803e3d6000fd5b505050506040513d601f19601f82011682018060405250810190610f4d9190612e74565b6001600160a01b031614610f735760405162461bcd60e51b81526004016105dd90612e91565b6001600160a01b038516600090815260996020526040812060040154869103610fae5760405162461bcd60e51b81526004016105dd90612e06565b6107228686868080601f016020809104026020016040519081016040528093929190818152602001838380828437600092019190915250611d6a92505050565b610ff661198b565b6109d1611e59565b6110066117bb565b826001600160a01b03811661102d5760405162461bcd60e51b81526004016105dd90612e3d565b83336001600160a01b0316816001600160a01b0316638da5cb5b6040518163ffffffff1660e01b8152600401602060405180830381865afa158015611076573d6000803e3d6000fd5b505050506040513d601f19601f8201168201806040525081019061109a9190612e74565b6001600160a01b0316146110c05760405162461bcd60e51b81526004016105dd90612e91565b6001600160a01b0385166000908152609960205260408120600401548691036110fb5760405162461bcd60e51b81526004016105dd90612e06565b836001600160a01b0381166111225760405162461bcd60e51b81526004016105dd90612e3d565b61112d878787611e96565b50505050505050565b61116b6040518060a0016040528060008152602001600081526020016060815260200160008019168152602001600081525090565b816001600160a01b0381166111925760405162461bcd60e51b81526004016105dd90612e3d565b60996000846001600160a01b03166001600160a01b031681526020019081526020016000206040518060a001604052908160008201548152602001600182015481526020016002820180546111e690613234565b80601f016020809104026020016040519081016040528092919081815260200182805461121290613234565b801561125f5780601f106112345761010080835404028352916020019161125f565b820191906000526020600020905b81548152906001019060200180831161124257829003601f168201915b505050505081526020016003820154815260200160048201548152505091505b50919050565b61128d6117bb565b61129561198b565b60005b818110156113885760006112d18484848181106112b7576112b7612f06565b90506020020160208101906112cc919061290f565b611b33565b509050801561131a5760405162461bcd60e51b81526020600482015260156024820152742820a626a6b0b730b3b2b91d1037b832b930ba37b960591b60448201526064016105dd565b609a84848481811061132e5761132e612f06565b9050602002016020810190611343919061290f565b81546001810183556000928352602090922090910180546001600160a01b0319166001600160a01b03909216919091179055508061138081612f35565b915050611298565b50306001600160a01b03167fe34691fbf3490a795c0691aaf30195d24d57b28fbf9a6c40a81732d567c38a8083836040516113c4929190613268565b60405180910390a25050565b609960205260009081526040902080546001820154600283018054929391926113f890613234565b80601f016020809104026020016040519081016040528092919081815260200182805461142490613234565b80156114715780601f1061144657610100808354040283529160200191611471565b820191906000526020600020905b81548152906001019060200180831161145457829003601f168201915b5050505050908060030154908060040154905085565b61148f6117bb565b816001600160a01b0381166114b65760405162461bcd60e51b81526004016105dd90612e3d565b82336001600160a01b0316816001600160a01b0316638da5cb5b6040518163ffffffff1660e01b8152600401602060405180830381865afa1580156114ff573d6000803e3d6000fd5b505050506040513d601f19601f820116820180604052508101906115239190612e74565b6001600160a01b0316146115495760405162461bcd60e51b81526004016105dd90612e91565b6001600160a01b03841660009081526099602052604081206004015490036115835760405162461bcd60e51b81526004016105dd90612e06565b6109bb8484611fb1565b6115956117bb565b61159d61198b565b6105ef82828080602002602001604051908101604052809392919081815260200183836020028082843760009201919091525061204792505050565b60606115e5609761213f565b905090565b6115f26117bb565b846001600160a01b0381166116195760405162461bcd60e51b81526004016105dd90612e3d565b857f00000000000000000000000000000000000000000000000000000000000000006001600160a01b0316816001600160a01b0316638da5cb5b6040518163ffffffff1660e01b8152600401602060405180830381865afa158015611682573d6000803e3d6000fd5b505050506040513d601f19601f820116820180604052508101906116a69190612e74565b6001600160a01b0316146116fc5760405162461bcd60e51b815260206004820152601f60248201527f50414c4d4d616e616765723a206f776e6572206e6f2050414c4d5465726d730060448201526064016105dd565b611709878787878761214a565b341561112d5761112d87611801565b609a818154811061172857600080fd5b6000918252602090912001546001600160a01b0316905081565b61174a61198b565b6001600160a01b0381166117af5760405162461bcd60e51b815260206004820152602660248201527f4f776e61626c653a206e6577206f776e657220697320746865207a65726f206160448201526564647265737360d01b60648201526084016105dd565b6117b881611ab2565b50565b60655460ff16156109d15760405162461bcd60e51b815260206004820152601060248201526f14185d5cd8589b194e881c185d5cd95960821b60448201526064016105dd565b6001600160a01b03811660009081526099602052604081208054349290611829908490612eee565b90915550506001600160a01b0381166000818152609960209081526040918290205491519182527f2bae9ef5356c8b1ba3acb21df1a9201ff1ef943f4d8425697ce2d6381fcdac999101610ea6565b6001600160a01b0382166000908152609960205260409020600301548190036118d85760405162461bcd60e51b81526020600482015260126024820152711410531353585b9859d95c8e881cdd1c985d60721b60448201526064016105dd565b6118e3609782611a89565b61193b5760405162461bcd60e51b815260206004820152602360248201527f50414c4d4d616e616765723a207374726174206e6f742077686974656c69737460448201526232b21760e91b60648201526084016105dd565b6001600160a01b03821660008181526099602052604090819020600301839055517f243930e940e93a5b6e26b15204394bc1aa410465b647ea787ae57960c5cf79a8906113c49084815260200190565b6033546001600160a01b031633146109d15760405162461bcd60e51b815260206004820181905260248201527f4f776e61626c653a2063616c6c6572206973206e6f7420746865206f776e657260448201526064016105dd565b604080516001600160a01b038416602482015260448082018490528251808303909101815260649091019091526020810180516001600160e01b031663a9059cbb60e01b179052610c7990849061230e565b611a3f6123e0565b6065805460ff191690557f5db9ee0a495bf2e6ff9c91a7834c1ba4fdd244a5e8aa4e537bd38aeae4b073aa335b6040516001600160a01b03909116815260200160405180910390a1565b600081815260018301602052604081205415155b90505b92915050565b6000611a9d8383612429565b603380546001600160a01b038381166001600160a01b0319831681179093556040519116919082907f8be0079c531659141344cd1fd0a4f28419497f9722a3daafe3b4186f6b6457e090600090a35050565b600054610100900460ff16611b2b5760405162461bcd60e51b81526004016105dd906132b6565b6109d1612478565b600080826001600160a01b038116611b5d5760405162461bcd60e51b81526004016105dd90612e3d565b60005b609a54811015611bbe57846001600160a01b0316609a8281548110611b8757611b87612f06565b6000918252602090912001546001600160a01b031603611bac57600193509150611bc7565b80611bb681612f35565b915050611b60565b50600080925092505b50915091565b60008060996000856001600160a01b03166001600160a01b031681526020019081526020016000206040518060a00160405290816000820154815260200160018201548152602001600282018054611c2490613234565b80601f0160208091040260200160405190810160405280929190818152602001828054611c5090613234565b8015611c9d5780601f10611c7257610100808354040283529160200191611c9d565b820191906000526020600020905b815481529060010190602001808311611c8057829003601f168201915b505050505081526020016003820154815260200160048201548152505090508281600001511015611d235760405162461bcd60e51b815260206004820152602a60248201527f50414c4d4d616e616765723a204e6f7420656e6f7567682062616c616e636520604482015269746f207061792066656560b01b60648201526084016105dd565b8051611d30908490613301565b6001600160a01b038086166000908152609960205260409020426001820155829055609b54919350611d639116846124ab565b5092915050565b808051906020012060996000846001600160a01b03166001600160a01b03168152602001908152602001600020600201604051611da79190613318565b604051809103902003611df05760405162461bcd60e51b815260206004820152601160248201527050414c4d4d616e616765723a206461746160781b60448201526064016105dd565b6001600160a01b03821660009081526099602090815260409091208251611e1f926002909201918401906127a3565b50816001600160a01b03167f428733985d5c007cd5d8813643ceb64f6a3f2606066e9a08d07af65254ea3952826040516113c491906133b3565b611e616117bb565b6065805460ff191660011790557f62e78cea01bee320cd4e420270b5ea74000d11b0c9f74754ebdbfc544b05a258611a6c3390565b6001600160a01b038316600090815260996020526040902054821115611f145760405162461bcd60e51b815260206004820152602d60248201527f50414c4d4d616e616765723a20616d6f756e742065786365656473206176616960448201526c6c61626c652062616c616e636560981b60648201526084016105dd565b6001600160a01b03831660009081526099602052604081208054849290611f3c908490613301565b90915550611f5590506001600160a01b038216836124ab565b6001600160a01b038381166000818152609960209081526040918290205482518781529486169185019190915290830152907f7408fb14206b893353f1ad47950175963a6dfacb1021ac84e613aa220fd4e1ad906060016108a9565b6001600160a01b038216600090815260996020526040812080548282556001820183905591611fe36002830182612827565b50600060038201819055600490910155801561200c5761200c6001600160a01b038316826124ab565b826001600160a01b03167f3c5c011a5287a3bb157571fbfec1ee8b0ced5809ff6a685b64e5858ea037c149826040516108a991815260200190565b60005b81518110156121055760008061207884848151811061206b5761206b612f06565b6020026020010151611b33565b91509150816120c45760405162461bcd60e51b81526020600482015260186024820152772820a626a6b0b730b3b2b91d1037379037b832b930ba37b960411b60448201526064016105dd565b609a81815481106120d7576120d7612f06565b600091825260209091200180546001600160a01b0319169055508190506120fd81612f35565b91505061204a565b50306001600160a01b03167fb100901cd71d3dd7c28d4fa27a37dbebbd65dcb04e26e62e0fc6e8c963fb161382604051610ea691906133c6565b6060611aa0826125c4565b6000828260405160200161215f929190612ec8565b60408051601f1981840301815291905280516020909101209050612184609782611a89565b6121d05760405162461bcd60e51b815260206004820152601c60248201527f50414c4d4d616e616765723a204e6f742077686974656c69737465640000000060448201526064016105dd565b6001600160a01b038616600090815260996020526040902060040154156122395760405162461bcd60e51b815260206004820181905260248201527f50414c4d4d616e616765723a205661756c7420616c726561647920616464656460448201526064016105dd565b6001600160a01b038616600090815260996020526040902061225f906002018686612861565b506001600160a01b03861660009081526099602052604090206003018190556122a87f000000000000000000000000000000000000000000000000000000000000000042612eee565b6001600160a01b038716600081815260996020526040908190206004019290925590517fe2ac259cf4e54760e2d0661b0606ddf3f470df2dc47f57e5cc9c4f533a870826906122fe908890889088908890613407565b60405180910390a2505050505050565b6000612363826040518060400160405280602081526020017f5361666545524332303a206c6f772d6c6576656c2063616c6c206661696c6564815250856001600160a01b03166126209092919063ffffffff16565b805190915015610c795780806020019051810190612381919061342e565b610c795760405162461bcd60e51b815260206004820152602a60248201527f5361666545524332303a204552433230206f7065726174696f6e20646964206e6044820152691bdd081cdd58d8d9595960b21b60648201526084016105dd565b60655460ff166109d15760405162461bcd60e51b815260206004820152601460248201527314185d5cd8589b194e881b9bdd081c185d5cd95960621b60448201526064016105dd565b600081815260018301602052604081205461247057508154600181810184556000848152602080822090930184905584548482528286019093526040902091909155611aa0565b506000611aa0565b600054610100900460ff1661249f5760405162461bcd60e51b81526004016105dd906132b6565b6065805460ff19169055565b804710156124fb5760405162461bcd60e51b815260206004820152601d60248201527f416464726573733a20696e73756666696369656e742062616c616e636500000060448201526064016105dd565b6000826001600160a01b03168260405160006040518083038185875af1925050503d8060008114612548576040519150601f19603f3d011682016040523d82523d6000602084013e61254d565b606091505b5050905080610c795760405162461bcd60e51b815260206004820152603a60248201527f416464726573733a20756e61626c6520746f2073656e642076616c75652c207260448201527f6563697069656e74206d6179206861766520726576657274656400000000000060648201526084016105dd565b60608160000180548060200260200160405190810160405280929190818152602001828054801561261457602002820191906000526020600020905b815481526020019060010190808311612600575b50505050509050919050565b606061262f8484600085612639565b90505b9392505050565b60608247101561269a5760405162461bcd60e51b815260206004820152602660248201527f416464726573733a20696e73756666696369656e742062616c616e636520666f6044820152651c8818d85b1b60d21b60648201526084016105dd565b6001600160a01b0385163b6126f15760405162461bcd60e51b815260206004820152601d60248201527f416464726573733a2063616c6c20746f206e6f6e2d636f6e747261637400000060448201526064016105dd565b600080866001600160a01b0316858760405161270d919061344b565b60006040518083038185875af1925050503d806000811461274a576040519150601f19603f3d011682016040523d82523d6000602084013e61274f565b606091505b509150915061275f82828661276a565b979650505050505050565b60608315612779575081612632565b8251156127895782518084602001fd5b8160405162461bcd60e51b81526004016105dd91906133b3565b8280546127af90613234565b90600052602060002090601f0160209004810192826127d15760008555612817565b82601f106127ea57805160ff1916838001178555612817565b82800160010185558215612817579182015b828111156128175782518255916020019190600101906127fc565b506128239291506128d5565b5090565b50805461283390613234565b6000825580601f10612843575050565b601f0160209004906000526020600020908101906117b891906128d5565b82805461286d90613234565b90600052602060002090601f01602090048101928261288f5760008555612817565b82601f106128a85782800160ff19823516178555612817565b82800160010185558215612817579182015b828111156128175782358255916020019190600101906128ba565b5b8082111561282357600081556001016128d6565b6001600160a01b03811681146117b857600080fd5b803561290a816128ea565b919050565b60006020828403121561292157600080fd5b8135612632816128ea565b60008083601f84011261293e57600080fd5b50813567ffffffffffffffff81111561295657600080fd5b60208301915083602082850101111561296e57600080fd5b9250929050565b60008060006040848603121561298a57600080fd5b8335612995816128ea565b9250602084013567ffffffffffffffff8111156129b157600080fd5b6129bd8682870161292c565b9497909650939450505050565b60008083601f8401126129dc57600080fd5b50813567ffffffffffffffff8111156129f457600080fd5b6020830191508360208260051b850101111561296e57600080fd5b600080600060408486031215612a2457600080fd5b833567ffffffffffffffff811115612a3b57600080fd5b612a47868287016129ca565b9094509250506020840135612a5b816128ea565b809150509250925092565b60008060208385031215612a7957600080fd5b823567ffffffffffffffff811115612a9057600080fd5b612a9c8582860161292c565b90969095509350505050565b60008060408385031215612abb57600080fd5b8235612ac6816128ea565b91506020830135612ad6816128ea565b809150509250929050565b60008083601f840112612af357600080fd5b50813567ffffffffffffffff811115612b0b57600080fd5b60208301915083602060608302850101111561296e57600080fd5b600080600080600080600060a0888a031215612b4157600080fd5b8735612b4c816128ea565b9650602088013567ffffffffffffffff80821115612b6957600080fd5b612b758b838c01612ae1565b909850965060408a0135915080821115612b8e57600080fd5b9089019060a0828c031215612ba257600080fd5b90945060608901359080821115612bb857600080fd5b50612bc58a828b01612ae1565b989b979a50959894979596608090950135949350505050565b600080600060608486031215612bf357600080fd5b8335612bfe816128ea565b9250602084013591506040840135612a5b816128ea565b60005b83811015612c30578181015183820152602001612c18565b838111156109bb5750506000910152565b60008151808452612c59816020860160208601612c15565b601f01601f19169290920160200192915050565b6020815281516020820152602082015160408201526000604083015160a06060840152612c9d60c0840182612c41565b905060608401516080840152608084015160a08401528091505092915050565b60008060208385031215612cd057600080fd5b823567ffffffffffffffff811115612ce757600080fd5b612a9c858286016129ca565b85815284602082015260a060408201526000612d1260a0830186612c41565b606083019490945250608001529392505050565b6020808252825182820181905260009190848201906040850190845b81811015612d5e57835183529284019291840191600101612d42565b50909695505050505050565b600080600080600060608688031215612d8257600080fd5b8535612d8d816128ea565b9450602086013567ffffffffffffffff80821115612daa57600080fd5b612db689838a0161292c565b90965094506040880135915080821115612dcf57600080fd5b50612ddc8882890161292c565b969995985093965092949392505050565b600060208284031215612dff57600080fd5b5035919050565b6020808252601e908201527f50414c4d4d616e616765723a205661756c74206e6f74206d616e616765640000604082015260600190565b60208082526019908201527f50414c4d4d616e616765723a2061646472657373205a65726f00000000000000604082015260600190565b600060208284031215612e8657600080fd5b8151612632816128ea565b6020808252601d908201527f50414c4d4d616e616765723a206f6e6c79207661756c74206f776e6572000000604082015260600190565b8183823760009101908152919050565b634e487b7160e01b600052601160045260246000fd5b60008219821115612f0157612f01612ed8565b500190565b634e487b7160e01b600052603260045260246000fd5b600060208284031215612f2e57600080fd5b5051919050565b600060018201612f4757612f47612ed8565b5060010190565b81835281816020850137506000828201602090810191909152601f909101601f19169091010190565b60208152600061262f602083018486612f4e565b8035600281900b811461290a57600080fd5b612fa681612f8b565b60020b8252612fb760208201612f8b565b60020b6020830152604081013562ffffff8116808214612fd657600080fd5b80604085015250505050565b81835260208301925060008160005b84811015613016576130038683612f9d565b6060958601959190910190600101612ff1565b5093949350505050565b6000808335601e1984360301811261303757600080fd5b830160208101925035905067ffffffffffffffff81111561305757600080fd5b8060071b360383131561296e57600080fd5b818352600060208085019450826000805b868110156130c65782356fffffffffffffffffffffffffffffffff81168082146130a2578384fd5b8952506130b3848901848601612f9d565b608097880197929092019160010161307a565b50959695505050505050565b80151581146117b857600080fd5b803561290a816130d2565b600060608083526130ff818401888a612fe2565b6020848203818601526131128889613020565b60a0845261312460a085018284613069565b915050613133828a018a613020565b84830384860152613145838284613069565b925050506040890135609e198a360301811261316057600080fd5b83820360408501528901803536829003601e1901811261317f57600080fd5b8101803567ffffffffffffffff81111561319857600080fd5b8036038313156131a757600080fd5b60a084526131bb60a0850182878501612f4e565b9150506131c98483016128ff565b6001600160a01b0316848401526040828101359084015285820135868401526131f4608083016130e0565b80151560808501529350858b01358686015260808b013560808601528781036040890152613223818a8c612fe2565b9d9c50505050505050505050505050565b600181811c9082168061324857607f821691505b60208210810361127f57634e487b7160e01b600052602260045260246000fd5b60208082528181018390526000908460408401835b868110156132ab578235613290816128ea565b6001600160a01b03168252918301919083019060010161327d565b509695505050505050565b6020808252602b908201527f496e697469616c697a61626c653a20636f6e7472616374206973206e6f74206960408201526a6e697469616c697a696e6760a81b606082015260800190565b60008282101561331357613313612ed8565b500390565b600080835481600182811c91508083168061333457607f831692505b6020808410820361335357634e487b7160e01b86526022600452602486fd5b8180156133675760018114613378576133a5565b60ff198616895284890196506133a5565b60008a81526020902060005b8681101561339d5781548b820152908501908301613384565b505084890196505b509498975050505050505050565b602081526000611a9d6020830184612c41565b6020808252825182820181905260009190848201906040850190845b81811015612d5e5783516001600160a01b0316835292840192918401916001016133e2565b60408152600061341b604083018688612f4e565b828103602084015261275f818587612f4e565b60006020828403121561344057600080fd5b8151612632816130d2565b6000825161345d818460208701612c15565b919091019291505056fea264697066735822122049d758f331a32034a798d60fc07a16bf9e7f5c5d5b142d3b00c8d76353ea8b8064736f6c634300080d0033",
  "devdoc": {
    "kind": "dev",
    "methods": {
      "owner()": {
        "details": "Returns the address of the current owner."
      },
      "paused()": {
        "details": "Returns true if the contract is paused, and false otherwise."
      },
      "renounceOwnership()": {
        "details": "Leaves the contract without owner. It will not be possible to call `onlyOwner` functions anymore. Can only be called by the current owner. NOTE: Renouncing ownership will leave the contract without an owner, thereby removing any functionality that is only available to the owner."
      },
      "transferOwnership(address)": {
        "details": "Transfers ownership of the contract to a new account (`newOwner`). Can only be called by the current owner."
      }
    },
    "version": 1
  },
  "userdoc": {
    "kind": "user",
    "methods": {},
    "version": 1
  },
  "storageLayout": {
    "storage": [
      {
        "astId": 467,
        "contract": "contracts/PALMManager.sol:PALMManager",
        "label": "_initialized",
        "offset": 0,
        "slot": "0",
        "type": "t_uint8"
      },
      {
        "astId": 470,
        "contract": "contracts/PALMManager.sol:PALMManager",
        "label": "_initializing",
        "offset": 1,
        "slot": "0",
        "type": "t_bool"
      },
      {
        "astId": 1081,
        "contract": "contracts/PALMManager.sol:PALMManager",
        "label": "__gap",
        "offset": 0,
        "slot": "1",
        "type": "t_array(t_uint256)50_storage"
      },
      {
        "astId": 339,
        "contract": "contracts/PALMManager.sol:PALMManager",
        "label": "_owner",
        "offset": 0,
        "slot": "51",
        "type": "t_address"
      },
      {
        "astId": 459,
        "contract": "contracts/PALMManager.sol:PALMManager",
        "label": "__gap",
        "offset": 0,
        "slot": "52",
        "type": "t_array(t_uint256)49_storage"
      },
      {
        "astId": 632,
        "contract": "contracts/PALMManager.sol:PALMManager",
        "label": "_paused",
        "offset": 0,
        "slot": "101",
        "type": "t_bool"
      },
      {
        "astId": 737,
        "contract": "contracts/PALMManager.sol:PALMManager",
        "label": "__gap",
        "offset": 0,
        "slot": "102",
        "type": "t_array(t_uint256)49_storage"
      },
      {
        "astId": 5598,
        "contract": "contracts/PALMManager.sol:PALMManager",
        "label": "_whitelistedStrat",
        "offset": 0,
        "slot": "151",
        "type": "t_struct(Bytes32Set)3494_storage"
      },
      {
        "astId": 5603,
        "contract": "contracts/PALMManager.sol:PALMManager",
        "label": "vaults",
        "offset": 0,
        "slot": "153",
        "type": "t_mapping(t_address,t_struct(VaultInfo)8330_storage)"
      },
      {
        "astId": 5606,
        "contract": "contracts/PALMManager.sol:PALMManager",
        "label": "operators",
        "offset": 0,
        "slot": "154",
        "type": "t_array(t_address)dyn_storage"
      },
      {
        "astId": 5608,
        "contract": "contracts/PALMManager.sol:PALMManager",
        "label": "gelatoFeeCollector",
        "offset": 0,
        "slot": "155",
        "type": "t_address_payable"
      }
    ],
    "types": {
      "t_address": {
        "encoding": "inplace",
        "label": "address",
        "numberOfBytes": "20"
      },
      "t_address_payable": {
        "encoding": "inplace",
        "label": "address payable",
        "numberOfBytes": "20"
      },
      "t_array(t_address)dyn_storage": {
        "base": "t_address",
        "encoding": "dynamic_array",
        "label": "address[]",
        "numberOfBytes": "32"
      },
      "t_array(t_bytes32)dyn_storage": {
        "base": "t_bytes32",
        "encoding": "dynamic_array",
        "label": "bytes32[]",
        "numberOfBytes": "32"
      },
      "t_array(t_uint256)49_storage": {
        "base": "t_uint256",
        "encoding": "inplace",
        "label": "uint256[49]",
        "numberOfBytes": "1568"
      },
      "t_array(t_uint256)50_storage": {
        "base": "t_uint256",
        "encoding": "inplace",
        "label": "uint256[50]",
        "numberOfBytes": "1600"
      },
      "t_bool": {
        "encoding": "inplace",
        "label": "bool",
        "numberOfBytes": "1"
      },
      "t_bytes32": {
        "encoding": "inplace",
        "label": "bytes32",
        "numberOfBytes": "32"
      },
      "t_bytes_storage": {
        "encoding": "bytes",
        "label": "bytes",
        "numberOfBytes": "32"
      },
      "t_mapping(t_address,t_struct(VaultInfo)8330_storage)": {
        "encoding": "mapping",
        "key": "t_address",
        "label": "mapping(address => struct VaultInfo)",
        "numberOfBytes": "32",
        "value": "t_struct(VaultInfo)8330_storage"
      },
      "t_mapping(t_bytes32,t_uint256)": {
        "encoding": "mapping",
        "key": "t_bytes32",
        "label": "mapping(bytes32 => uint256)",
        "numberOfBytes": "32",
        "value": "t_uint256"
      },
      "t_struct(Bytes32Set)3494_storage": {
        "encoding": "inplace",
        "label": "struct EnumerableSet.Bytes32Set",
        "members": [
          {
            "astId": 3493,
            "contract": "contracts/PALMManager.sol:PALMManager",
            "label": "_inner",
            "offset": 0,
            "slot": "0",
            "type": "t_struct(Set)3300_storage"
          }
        ],
        "numberOfBytes": "64"
      },
      "t_struct(Set)3300_storage": {
        "encoding": "inplace",
        "label": "struct EnumerableSet.Set",
        "members": [
          {
            "astId": 3295,
            "contract": "contracts/PALMManager.sol:PALMManager",
            "label": "_values",
            "offset": 0,
            "slot": "0",
            "type": "t_array(t_bytes32)dyn_storage"
          },
          {
            "astId": 3299,
            "contract": "contracts/PALMManager.sol:PALMManager",
            "label": "_indexes",
            "offset": 0,
            "slot": "1",
            "type": "t_mapping(t_bytes32,t_uint256)"
          }
        ],
        "numberOfBytes": "64"
      },
      "t_struct(VaultInfo)8330_storage": {
        "encoding": "inplace",
        "label": "struct VaultInfo",
        "members": [
          {
            "astId": 8321,
            "contract": "contracts/PALMManager.sol:PALMManager",
            "label": "balance",
            "offset": 0,
            "slot": "0",
            "type": "t_uint256"
          },
          {
            "astId": 8323,
            "contract": "contracts/PALMManager.sol:PALMManager",
            "label": "lastRebalance",
            "offset": 0,
            "slot": "1",
            "type": "t_uint256"
          },
          {
            "astId": 8325,
            "contract": "contracts/PALMManager.sol:PALMManager",
            "label": "datas",
            "offset": 0,
            "slot": "2",
            "type": "t_bytes_storage"
          },
          {
            "astId": 8327,
            "contract": "contracts/PALMManager.sol:PALMManager",
            "label": "strat",
            "offset": 0,
            "slot": "3",
            "type": "t_bytes32"
          },
          {
            "astId": 8329,
            "contract": "contracts/PALMManager.sol:PALMManager",
            "label": "termEnd",
            "offset": 0,
            "slot": "4",
            "type": "t_uint256"
          }
        ],
        "numberOfBytes": "160"
      },
      "t_uint256": {
        "encoding": "inplace",
        "label": "uint256",
        "numberOfBytes": "32"
      },
      "t_uint8": {
        "encoding": "inplace",
        "label": "uint8",
        "numberOfBytes": "1"
      }
    }
  }
}