{
  "address": "0x871c8127BfD225626f69E71F9f8cD1876D5A1726",
  "abi": [
    {
      "inputs": [
        {
          "internalType": "contract IArrakisV2Factory",
          "name": "v2factory_",
          "type": "address"
        }
      ],
      "stateMutability": "nonpayable",
      "type": "constructor"
    },
    {
      "anonymous": false,
      "inputs": [
        {
          "indexed": false,
          "internalType": "address",
          "name": "creator",
          "type": "address"
        },
        {
          "indexed": false,
          "internalType": "address",
          "name": "vault",
          "type": "address"
        }
      ],
      "name": "AddVault",
      "type": "event"
    },
    {
      "anonymous": false,
      "inputs": [
        {
          "indexed": false,
          "internalType": "address",
          "name": "creator",
          "type": "address"
        },
        {
          "indexed": false,
          "internalType": "address",
          "name": "vault",
          "type": "address"
        },
        {
          "indexed": false,
          "internalType": "uint256",
          "name": "amount0",
          "type": "uint256"
        },
        {
          "indexed": false,
          "internalType": "uint256",
          "name": "amount1",
          "type": "uint256"
        },
        {
          "indexed": false,
          "internalType": "address",
          "name": "to",
          "type": "address"
        },
        {
          "indexed": false,
          "internalType": "uint256",
          "name": "emolument0",
          "type": "uint256"
        },
        {
          "indexed": false,
          "internalType": "uint256",
          "name": "emolument1",
          "type": "uint256"
        }
      ],
      "name": "CloseTerm",
      "type": "event"
    },
    {
      "anonymous": false,
      "inputs": [
        {
          "indexed": false,
          "internalType": "address",
          "name": "creator",
          "type": "address"
        },
        {
          "indexed": false,
          "internalType": "address",
          "name": "vault",
          "type": "address"
        },
        {
          "indexed": false,
          "internalType": "uint256",
          "name": "emolument0",
          "type": "uint256"
        },
        {
          "indexed": false,
          "internalType": "uint256",
          "name": "emolument1",
          "type": "uint256"
        }
      ],
      "name": "DecreaseLiquidity",
      "type": "event"
    },
    {
      "anonymous": false,
      "inputs": [
        {
          "indexed": false,
          "internalType": "address",
          "name": "creator",
          "type": "address"
        },
        {
          "indexed": false,
          "internalType": "address",
          "name": "vault",
          "type": "address"
        },
        {
          "indexed": false,
          "internalType": "address",
          "name": "delegate",
          "type": "address"
        }
      ],
      "name": "DelegateVault",
      "type": "event"
    },
    {
      "anonymous": false,
      "inputs": [
        {
          "indexed": false,
          "internalType": "address",
          "name": "creator",
          "type": "address"
        },
        {
          "indexed": false,
          "internalType": "address",
          "name": "vault",
          "type": "address"
        },
        {
          "indexed": false,
          "internalType": "uint256",
          "name": "emolument0",
          "type": "uint256"
        },
        {
          "indexed": false,
          "internalType": "uint256",
          "name": "emolument1",
          "type": "uint256"
        }
      ],
      "name": "ExtendingTerm",
      "type": "event"
    },
    {
      "anonymous": false,
      "inputs": [
        {
          "indexed": false,
          "internalType": "address",
          "name": "creator",
          "type": "address"
        },
        {
          "indexed": false,
          "internalType": "address",
          "name": "vault",
          "type": "address"
        }
      ],
      "name": "IncreaseLiquidity",
      "type": "event"
    },
    {
      "anonymous": false,
      "inputs": [
        {
          "indexed": false,
          "internalType": "uint8",
          "name": "version",
          "type": "uint8"
        }
      ],
      "name": "Initialized",
      "type": "event"
    },
    {
      "anonymous": false,
      "inputs": [
        {
          "indexed": false,
          "internalType": "address",
          "name": "creator",
          "type": "address"
        },
        {
          "indexed": false,
          "internalType": "address",
          "name": "vault",
          "type": "address"
        },
        {
          "indexed": false,
          "internalType": "uint24[]",
          "name": "feeTiers",
          "type": "uint24[]"
        }
      ],
      "name": "LogAddPools",
      "type": "event"
    },
    {
      "anonymous": false,
      "inputs": [
        {
          "indexed": false,
          "internalType": "address",
          "name": "creator",
          "type": "address"
        },
        {
          "indexed": false,
          "internalType": "address",
          "name": "vault",
          "type": "address"
        },
        {
          "indexed": false,
          "internalType": "address[]",
          "name": "pools",
          "type": "address[]"
        }
      ],
      "name": "LogRemovePools",
      "type": "event"
    },
    {
      "anonymous": false,
      "inputs": [
        {
          "indexed": false,
          "internalType": "address",
          "name": "creator",
          "type": "address"
        },
        {
          "indexed": false,
          "internalType": "address",
          "name": "vault",
          "type": "address"
        },
        {
          "indexed": false,
          "internalType": "address",
          "name": "delegate",
          "type": "address"
        }
      ],
      "name": "LogSetDelegate",
      "type": "event"
    },
    {
      "anonymous": false,
      "inputs": [
        {
          "indexed": false,
          "internalType": "address",
          "name": "creatorOrDelegate",
          "type": "address"
        },
        {
          "indexed": false,
          "internalType": "address",
          "name": "vault",
          "type": "address"
        },
        {
          "indexed": false,
          "internalType": "bytes",
          "name": "data",
          "type": "bytes"
        }
      ],
      "name": "LogSetVaultData",
      "type": "event"
    },
    {
      "anonymous": false,
      "inputs": [
        {
          "indexed": false,
          "internalType": "address",
          "name": "creatorOrDelegate",
          "type": "address"
        },
        {
          "indexed": false,
          "internalType": "address",
          "name": "vault",
          "type": "address"
        },
        {
          "indexed": false,
          "internalType": "string",
          "name": "strat",
          "type": "string"
        }
      ],
      "name": "LogSetVaultStratByName",
      "type": "event"
    },
    {
      "anonymous": false,
      "inputs": [
        {
          "indexed": false,
          "internalType": "address",
          "name": "creator",
          "type": "address"
        },
        {
          "indexed": false,
          "internalType": "address",
          "name": "vault",
          "type": "address"
        },
        {
          "indexed": false,
          "internalType": "address",
          "name": "to",
          "type": "address"
        },
        {
          "indexed": false,
          "internalType": "uint256",
          "name": "sentBack",
          "type": "uint256"
        }
      ],
      "name": "LogWithdrawVaultBalance",
      "type": "event"
    },
    {
      "anonymous": false,
      "inputs": [
        {
          "indexed": true,
          "internalType": "address",
          "name": "previousOwner",
          "type": "address"
        },
        {
          "indexed": true,
          "internalType": "address",
          "name": "newOwner",
          "type": "address"
        }
      ],
      "name": "OwnershipTransferred",
      "type": "event"
    },
    {
      "anonymous": false,
      "inputs": [
        {
          "indexed": false,
          "internalType": "address",
          "name": "creator",
          "type": "address"
        },
        {
          "indexed": false,
          "internalType": "address",
          "name": "vault",
          "type": "address"
        }
      ],
      "name": "RemoveVault",
      "type": "event"
    },
    {
      "anonymous": false,
      "inputs": [
        {
          "indexed": false,
          "internalType": "uint16",
          "name": "oldEmolument",
          "type": "uint16"
        },
        {
          "indexed": false,
          "internalType": "uint16",
          "name": "newEmolment",
          "type": "uint16"
        }
      ],
      "name": "SetEmolument",
      "type": "event"
    },
    {
      "anonymous": false,
      "inputs": [
        {
          "indexed": false,
          "internalType": "address",
          "name": "oldManager",
          "type": "address"
        },
        {
          "indexed": false,
          "internalType": "address",
          "name": "newManager",
          "type": "address"
        }
      ],
      "name": "SetManager",
      "type": "event"
    },
    {
      "anonymous": false,
      "inputs": [
        {
          "indexed": false,
          "internalType": "contract IArrakisV2Resolver",
          "name": "oldResolver",
          "type": "address"
        },
        {
          "indexed": false,
          "internalType": "contract IArrakisV2Resolver",
          "name": "newResolver",
          "type": "address"
        }
      ],
      "name": "SetResolver",
      "type": "event"
    },
    {
      "anonymous": false,
      "inputs": [
        {
          "indexed": false,
          "internalType": "address",
          "name": "oldTermTreasury",
          "type": "address"
        },
        {
          "indexed": false,
          "internalType": "address",
          "name": "newTermTreasury",
          "type": "address"
        }
      ],
      "name": "SetTermTreasury",
      "type": "event"
    },
    {
      "anonymous": false,
      "inputs": [
        {
          "indexed": false,
          "internalType": "address",
          "name": "creator",
          "type": "address"
        },
        {
          "indexed": false,
          "internalType": "address",
          "name": "vault",
          "type": "address"
        }
      ],
      "name": "SetupVault",
      "type": "event"
    },
    {
      "inputs": [
        {
          "internalType": "contract IArrakisV2",
          "name": "vault_",
          "type": "address"
        },
        {
          "internalType": "uint24[]",
          "name": "feeTiers_",
          "type": "uint24[]"
        }
      ],
      "name": "addPools",
      "outputs": [],
      "stateMutability": "nonpayable",
      "type": "function"
    },
    {
      "inputs": [
        {
          "internalType": "contract IArrakisV2",
          "name": "vault_",
          "type": "address"
        },
        {
          "internalType": "address",
          "name": "to_",
          "type": "address"
        },
        {
          "internalType": "address",
          "name": "newOwner_",
          "type": "address"
        },
        {
          "internalType": "address",
          "name": "newManager_",
          "type": "address"
        }
      ],
      "name": "closeTerm",
      "outputs": [],
      "stateMutability": "nonpayable",
      "type": "function"
    },
    {
      "inputs": [
        {
          "components": [
            {
              "internalType": "contract IArrakisV2",
              "name": "vault",
              "type": "address"
            },
            {
              "internalType": "uint256",
              "name": "amount0",
              "type": "uint256"
            },
            {
              "internalType": "uint256",
              "name": "amount1",
              "type": "uint256"
            },
            {
              "internalType": "address",
              "name": "to",
              "type": "address"
            }
          ],
          "internalType": "struct DecreaseBalance",
          "name": "decreaseBalance_",
          "type": "tuple"
        },
        {
          "internalType": "uint256",
          "name": "mintAmount_",
          "type": "uint256"
        }
      ],
      "name": "decreaseLiquidity",
      "outputs": [],
      "stateMutability": "nonpayable",
      "type": "function"
    },
    {
      "inputs": [
        {
          "internalType": "address",
          "name": "",
          "type": "address"
        }
      ],
      "name": "delegateByVaults",
      "outputs": [
        {
          "internalType": "address",
          "name": "",
          "type": "address"
        }
      ],
      "stateMutability": "view",
      "type": "function"
    },
    {
      "inputs": [],
      "name": "emolument",
      "outputs": [
        {
          "internalType": "uint16",
          "name": "",
          "type": "uint16"
        }
      ],
      "stateMutability": "view",
      "type": "function"
    },
    {
      "inputs": [
        {
          "components": [
            {
              "internalType": "contract IArrakisV2",
              "name": "vault",
              "type": "address"
            },
            {
              "internalType": "bool",
              "name": "projectTknIsTknZero",
              "type": "bool"
            },
            {
              "internalType": "uint256",
              "name": "amount0",
              "type": "uint256"
            },
            {
              "internalType": "uint256",
              "name": "amount1",
              "type": "uint256"
            }
          ],
          "internalType": "struct ExtendingTermData",
          "name": "extensionData_",
          "type": "tuple"
        },
        {
          "internalType": "uint256",
          "name": "mintAmount_",
          "type": "uint256"
        }
      ],
      "name": "extendingTerm",
      "outputs": [],
      "stateMutability": "nonpayable",
      "type": "function"
    },
    {
      "inputs": [
        {
          "components": [
            {
              "internalType": "contract IArrakisV2",
              "name": "vault",
              "type": "address"
            },
            {
              "internalType": "bool",
              "name": "projectTknIsTknZero",
              "type": "bool"
            },
            {
              "internalType": "uint256",
              "name": "amount0",
              "type": "uint256"
            },
            {
              "internalType": "uint256",
              "name": "amount1",
              "type": "uint256"
            }
          ],
          "internalType": "struct IncreaseBalance",
          "name": "increaseBalance_",
          "type": "tuple"
        },
        {
          "internalType": "uint256",
          "name": "mintAmount_",
          "type": "uint256"
        }
      ],
      "name": "increaseLiquidity",
      "outputs": [],
      "stateMutability": "nonpayable",
      "type": "function"
    },
    {
      "inputs": [
        {
          "internalType": "address",
          "name": "owner_",
          "type": "address"
        },
        {
          "internalType": "address",
          "name": "termTreasury_",
          "type": "address"
        },
        {
          "internalType": "uint16",
          "name": "emolument_",
          "type": "uint16"
        },
        {
          "internalType": "contract IArrakisV2Resolver",
          "name": "resolver_",
          "type": "address"
        }
      ],
      "name": "initialize",
      "outputs": [],
      "stateMutability": "nonpayable",
      "type": "function"
    },
    {
      "inputs": [],
      "name": "manager",
      "outputs": [
        {
          "internalType": "address",
          "name": "",
          "type": "address"
        }
      ],
      "stateMutability": "view",
      "type": "function"
    },
    {
      "inputs": [
        {
          "components": [
            {
              "internalType": "uint24[]",
              "name": "feeTiers",
              "type": "uint24[]"
            },
            {
              "internalType": "contract IERC20",
              "name": "token0",
              "type": "address"
            },
            {
              "internalType": "contract IERC20",
              "name": "token1",
              "type": "address"
            },
            {
              "internalType": "bool",
              "name": "projectTknIsTknZero",
              "type": "bool"
            },
            {
              "internalType": "address",
              "name": "owner",
              "type": "address"
            },
            {
              "internalType": "uint256",
              "name": "amount0",
              "type": "uint256"
            },
            {
              "internalType": "uint256",
              "name": "amount1",
              "type": "uint256"
            },
            {
              "internalType": "bytes",
              "name": "datas",
              "type": "bytes"
            },
            {
              "internalType": "string",
              "name": "strat",
              "type": "string"
            },
            {
              "internalType": "bool",
              "name": "isBeacon",
              "type": "bool"
            },
            {
              "internalType": "address",
              "name": "delegate",
              "type": "address"
            }
          ],
          "internalType": "struct SetupPayload",
          "name": "setup_",
          "type": "tuple"
        },
        {
          "internalType": "uint256",
          "name": "mintAmount_",
          "type": "uint256"
        }
      ],
      "name": "openTerm",
      "outputs": [
        {
          "internalType": "address",
          "name": "vault",
          "type": "address"
        }
      ],
      "stateMutability": "payable",
      "type": "function"
    },
    {
      "inputs": [],
      "name": "owner",
      "outputs": [
        {
          "internalType": "address",
          "name": "",
          "type": "address"
        }
      ],
      "stateMutability": "view",
      "type": "function"
    },
    {
      "inputs": [
        {
          "internalType": "contract IArrakisV2",
          "name": "vault_",
          "type": "address"
        },
        {
          "internalType": "address[]",
          "name": "pools_",
          "type": "address[]"
        }
      ],
      "name": "removePools",
      "outputs": [],
      "stateMutability": "nonpayable",
      "type": "function"
    },
    {
      "inputs": [],
      "name": "renounceOwnership",
      "outputs": [],
      "stateMutability": "nonpayable",
      "type": "function"
    },
    {
      "inputs": [],
      "name": "resolver",
      "outputs": [
        {
          "internalType": "contract IArrakisV2Resolver",
          "name": "",
          "type": "address"
        }
      ],
      "stateMutability": "view",
      "type": "function"
    },
    {
      "inputs": [
        {
          "internalType": "address",
          "name": "vault_",
          "type": "address"
        },
        {
          "internalType": "address",
          "name": "delegate_",
          "type": "address"
        }
      ],
      "name": "setDelegate",
      "outputs": [],
      "stateMutability": "nonpayable",
      "type": "function"
    },
    {
      "inputs": [
        {
          "internalType": "uint16",
          "name": "emolument_",
          "type": "uint16"
        }
      ],
      "name": "setEmolument",
      "outputs": [],
      "stateMutability": "nonpayable",
      "type": "function"
    },
    {
      "inputs": [
        {
          "internalType": "address",
          "name": "manager_",
          "type": "address"
        }
      ],
      "name": "setManager",
      "outputs": [],
      "stateMutability": "nonpayable",
      "type": "function"
    },
    {
      "inputs": [
        {
          "internalType": "contract IArrakisV2Resolver",
          "name": "resolver_",
          "type": "address"
        }
      ],
      "name": "setResolver",
      "outputs": [],
      "stateMutability": "nonpayable",
      "type": "function"
    },
    {
      "inputs": [
        {
          "internalType": "address",
          "name": "termTreasury_",
          "type": "address"
        }
      ],
      "name": "setTermTreasury",
      "outputs": [],
      "stateMutability": "nonpayable",
      "type": "function"
    },
    {
      "inputs": [
        {
          "internalType": "address",
          "name": "vault_",
          "type": "address"
        },
        {
          "internalType": "bytes",
          "name": "data_",
          "type": "bytes"
        }
      ],
      "name": "setVaultData",
      "outputs": [],
      "stateMutability": "nonpayable",
      "type": "function"
    },
    {
      "inputs": [
        {
          "internalType": "address",
          "name": "vault_",
          "type": "address"
        },
        {
          "internalType": "string",
          "name": "strat_",
          "type": "string"
        }
      ],
      "name": "setVaultStratByName",
      "outputs": [],
      "stateMutability": "nonpayable",
      "type": "function"
    },
    {
      "inputs": [],
      "name": "termTreasury",
      "outputs": [
        {
          "internalType": "address",
          "name": "",
          "type": "address"
        }
      ],
      "stateMutability": "view",
      "type": "function"
    },
    {
      "inputs": [
        {
          "internalType": "address",
          "name": "newOwner",
          "type": "address"
        }
      ],
      "name": "transferOwnership",
      "outputs": [],
      "stateMutability": "nonpayable",
      "type": "function"
    },
    {
      "inputs": [],
      "name": "v2factory",
      "outputs": [
        {
          "internalType": "contract IArrakisV2Factory",
          "name": "",
          "type": "address"
        }
      ],
      "stateMutability": "view",
      "type": "function"
    },
    {
      "inputs": [
        {
          "internalType": "address",
          "name": "",
          "type": "address"
        },
        {
          "internalType": "uint256",
          "name": "",
          "type": "uint256"
        }
      ],
      "name": "vaults",
      "outputs": [
        {
          "internalType": "address",
          "name": "",
          "type": "address"
        }
      ],
      "stateMutability": "view",
      "type": "function"
    },
    {
      "inputs": [
        {
          "internalType": "address",
          "name": "vault_",
          "type": "address"
        },
        {
          "internalType": "uint256",
          "name": "amount_",
          "type": "uint256"
        },
        {
          "internalType": "address payable",
          "name": "to_",
          "type": "address"
        }
      ],
      "name": "withdrawVaultBalance",
      "outputs": [],
      "stateMutability": "nonpayable",
      "type": "function"
    }
  ],
  "transactionHash": "0x59a416291422294800fb18e0ca0340066146c2095342db168ccb299908bd9c7c",
  "args": [
    "0xf5973723eb067F90276d9f9bE80F7C9De67d22af"
  ],
  "numDeployments": 1,
  "solcInputHash": "a0aa8ed47a0a9b8db93bdaa7580efcca",
  "bytecode": "0x60a06040523480156200001157600080fd5b506040516200526438038062005264833981016040819052620000349162000046565b6001600160a01b031660805262000078565b6000602082840312156200005957600080fd5b81516001600160a01b03811681146200007157600080fd5b9392505050565b6080516151c96200009b6000396000818161022c01526126b801526151c96000f3fe6080604052600436106101815760003560e01c80637bbfc69e116100d1578063b33d46dc1161008a578063ea6b186c11610064578063ea6b186c1461048a578063eaaa9299146104aa578063f2cb118a146104ca578063f2fde38b146104ea57600080fd5b8063b33d46dc1461042a578063bfd7e7521461044a578063d0ebdbe71461046a57600080fd5b80637bbfc69e1461037957806386de1467146103995780638da5cb5b146103b9578063ac484c55146103d7578063ae5e24c2146103ea578063b1ffa5821461040a57600080fd5b80633ce3b0d21161013e5780635c873849116101185780635c8738491461030457806368b6702e14610324578063715018a6146103445780637407e38c1461035957600080fd5b80633ce3b0d21461028e578063481c6a75146102c45780634e543b26146102e457600080fd5b806304f3bcec14610186578063233fc650146101c357806326c1a7b1146101e5578063330807a91461021a578063332d28ef1461024e5780633a91f42a1461026e575b600080fd5b34801561019257600080fd5b50609a546101a6906001600160a01b031681565b6040516001600160a01b0390911681526020015b60405180910390f35b3480156101cf57600080fd5b506101e36101de366004614509565b61050a565b005b3480156101f157600080fd5b5060995461020790600160a01b900461ffff1681565b60405161ffff90911681526020016101ba565b34801561022657600080fd5b506101a67f000000000000000000000000000000000000000000000000000000000000000081565b34801561025a57600080fd5b506101e3610269366004614509565b6110c9565b34801561027a57600080fd5b506101e361028936600461458a565b6118ad565b34801561029a57600080fd5b506101a66102a93660046145de565b609b602052600090815260409020546001600160a01b031681565b3480156102d057600080fd5b506099546101a6906001600160a01b031681565b3480156102f057600080fd5b506101e36102ff3660046145de565b611a44565b34801561031057600080fd5b506101e361031f3660046145fb565b611b2f565b34801561033057600080fd5b506101e361033f366004614634565b611bff565b34801561035057600080fd5b506101e36121a9565b34801561036557600080fd5b506101e361037436600461458a565b6121bd565b34801561038557600080fd5b506101a6610394366004614690565b612314565b3480156103a557600080fd5b506101e36103b43660046146bc565b61234c565b3480156103c557600080fd5b506033546001600160a01b03166101a6565b6101a66103e53660046146fe565b612525565b3480156103f657600080fd5b506101e361040536600461477e565b612d21565b34801561041657600080fd5b506101e36104253660046147dc565b612e4e565b34801561043657600080fd5b506101e361044536600461481b565b61300b565b34801561045657600080fd5b506101e36104653660046145de565b6130e4565b34801561047657600080fd5b506101e36104853660046145de565b6131c7565b34801561049657600080fd5b506098546101a6906001600160a01b031681565b3480156104b657600080fd5b506101e36104c536600461477e565b6132ab565b3480156104d657600080fd5b506101e36104e5366004614509565b6133d8565b3480156104f657600080fd5b506101e36105053660046145de565b613a24565b61051760208301836145de565b6001600160a01b0316630dfe16816040518163ffffffff1660e01b8152600401602060405180830381865afa158015610554573d6000803e3d6000fd5b505050506040513d601f19601f820116820180604052508101906105789190614836565b61058560208401846145de565b6001600160a01b031663d21220a76040518163ffffffff1660e01b8152600401602060405180830381865afa1580156105c2573d6000803e3d6000fd5b505050506040513d601f19601f820116820180604052508101906105e69190614836565b6040516370a0823160e01b81523060048201526000906001600160a01b038416906370a0823190602401602060405180830381865afa15801561062d573d6000803e3d6000fd5b505050506040513d601f19601f820116820180604052508101906106519190614853565b6040516370a0823160e01b81523060048201529091506000906001600160a01b038416906370a0823190602401602060405180830381865afa15801561069b573d6000803e3d6000fd5b505050506040513d601f19601f820116820180604052508101906106bf9190614853565b90506106ca85613a9d565b610772609b60006106de60208a018a6145de565b6001600160a01b039081168252602080830193909352604091820160009081205433825260978552908390208054845181870281018701909552808552919092169383018282801561075957602002820191906000526020600020905b81546001600160a01b0316815260019091019060200180831161073b575b5061076d9350505060208b0190508a6145de565b613aed565b61077f4262015180614882565b6099546001600160a01b03166390229af761079d60208a018a6145de565b6040516001600160e01b031960e084901b1681526001600160a01b039091166004820152602401600060405180830381865afa1580156107e1573d6000803e3d6000fd5b505050506040513d6000823e601f3d908101601f1916820160405261080991908101906149db565b608001511061085f5760405162461bcd60e51b815260206004820152601b60248201527f50414c4d5465726d733a207465726d73206973206163746976652e000000000060448201526064015b60405180910390fd5b60008061088561087260208a018a6145de565b609a5430906001600160a01b0316613b62565b9092509050610913333060408b01356108a160208d018d6145de565b6001600160a01b0316630dfe16816040518163ffffffff1660e01b8152600401602060405180830381865afa1580156108de573d6000803e3d6000fd5b505050506040513d601f19601f820116820180604052508101906109029190614836565b6001600160a01b0316929190613cd2565b610967333060608b013561092a60208d018d6145de565b6001600160a01b031663d21220a76040518163ffffffff1660e01b8152600401602060405180830381865afa1580156108de573d6000803e3d6000fd5b600061098383609960149054906101000a900461ffff16613d3d565b905060006109a183609960149054906101000a900461ffff16613d3d565b90506109b060208b018b6145de565b6001600160a01b0316630dfe16816040518163ffffffff1660e01b8152600401602060405180830381865afa1580156109ed573d6000803e3d6000fd5b505050506040513d601f19601f82011682018060405250810190610a119190614836565b6001600160a01b031663095ea7b3610a2c60208d018d6145de565b84878e60400135610a3d9190614882565b610a479190614a72565b6040518363ffffffff1660e01b8152600401610a64929190614a89565b6020604051808303816000875af1158015610a83573d6000803e3d6000fd5b505050506040513d601f19601f82011682018060405250810190610aa79190614ab0565b50610ab560208b018b6145de565b6001600160a01b031663d21220a76040518163ffffffff1660e01b8152600401602060405180830381865afa158015610af2573d6000803e3d6000fd5b505050506040513d601f19601f82011682018060405250810190610b169190614836565b6001600160a01b031663095ea7b3610b3160208d018d6145de565b83868e60600135610b429190614882565b610b4c9190614a72565b6040518363ffffffff1660e01b8152600401610b69929190614a89565b6020604051808303816000875af1158015610b88573d6000803e3d6000fd5b505050506040513d601f19601f82011682018060405250810190610bac9190614ab0565b508115610c4257609854610c42906001600160a01b031683610bd160208e018e6145de565b6001600160a01b0316630dfe16816040518163ffffffff1660e01b8152600401602060405180830381865afa158015610c0e573d6000803e3d6000fd5b505050506040513d601f19601f82011682018060405250810190610c329190614836565b6001600160a01b03169190613d61565b8015610ca357609854610ca3906001600160a01b031682610c6660208e018e6145de565b6001600160a01b031663d21220a76040518163ffffffff1660e01b8152600401602060405180830381865afa158015610c0e573d6000803e3d6000fd5b6040805180820190915260008082526020820152610cf68a84878e60400135610ccc9190614882565b610cd69190614a72565b84878f60600135610ce79190614882565b610cf19190614a72565b613d80565b602080840191909152908252610d0e908c018c6145de565b81516020830151604051633f7b613560e01b8152600481019290925260248201526001600160a01b039190911690633f7b613590604401600060405180830381600087803b158015610d5f57600080fd5b505af1158015610d73573d6000803e3d6000fd5b50610d879350505060208c0190508b6145de565b6040516394bf804d60e01b8152600481018b90523060248201526001600160a01b0391909116906394bf804d9060440160408051808303816000875af1158015610dd5573d6000803e3d6000fd5b505050506040513d601f19601f82011682018060405250810190610df99190614acd565b50506099546001600160a01b0316636f2cbdf0610e1960208d018d6145de565b6040516001600160e01b031960e084901b1681526001600160a01b039091166004820152602401600060405180830381600087803b158015610e5a57600080fd5b505af1158015610e6e573d6000803e3d6000fd5b507f46a238a7d74f7eb9e69d547116dd11a787993409bc96175c4038d1dd8509d3e29250339150610ea4905060208d018d6145de565b604080516001600160a01b03938416815292909116602083015281018490526060810183905260800160405180910390a150506040516370a0823160e01b8152306004820152600092508491506001600160a01b038716906370a08231906024015b602060405180830381865afa158015610f23573d6000803e3d6000fd5b505050506040513d601f19601f82011682018060405250810190610f479190614853565b610f519190614a72565b6040516370a0823160e01b815230600482015290915060009083906001600160a01b038716906370a0823190602401602060405180830381865afa158015610f9d573d6000803e3d6000fd5b505050506040513d601f19601f82011682018060405250810190610fc19190614853565b610fcb9190614a72565b905081156110465760405163a9059cbb60e01b81526001600160a01b0387169063a9059cbb906110019033908690600401614a89565b6020604051808303816000875af1158015611020573d6000803e3d6000fd5b505050506040513d601f19601f820116820180604052508101906110449190614ab0565b505b80156110bf5760405163a9059cbb60e01b81526001600160a01b0386169063a9059cbb9061107a9033908590600401614a89565b6020604051808303816000875af1158015611099573d6000803e3d6000fd5b505050506040513d601f19601f820116820180604052508101906110bd9190614ab0565b505b5050505050505050565b6110d660208301836145de565b6001600160a01b0316630dfe16816040518163ffffffff1660e01b8152600401602060405180830381865afa158015611113573d6000803e3d6000fd5b505050506040513d601f19601f820116820180604052508101906111379190614836565b61114460208401846145de565b6001600160a01b031663d21220a76040518163ffffffff1660e01b8152600401602060405180830381865afa158015611181573d6000803e3d6000fd5b505050506040513d601f19601f820116820180604052508101906111a59190614836565b6040516370a0823160e01b81523060048201526000906001600160a01b038416906370a0823190602401602060405180830381865afa1580156111ec573d6000803e3d6000fd5b505050506040513d601f19601f820116820180604052508101906112109190614853565b6040516370a0823160e01b81523060048201529091506000906001600160a01b038416906370a0823190602401602060405180830381865afa15801561125a573d6000803e3d6000fd5b505050506040513d601f19601f8201168201806040525081019061127e9190614853565b905061128985613a9d565b33600090815260976020908152604091829020805483518184028101840190945280845261130493928301828280156112eb57602002820191906000526020600020905b81546001600160a01b031681526001909101906020018083116112cd575b506112ff9350505060208a019050896145de565b613db5565b503060008061132c61131960208b018b6145de565b609a5485906001600160a01b0316613b62565b91509150818960200135106113925760405162461bcd60e51b815260206004820152602660248201527f50414c4d5465726d733a2073656e64206261636b20616d6f756e7430203e206160448201526506d6f756e74360d41b6064820152608401610856565b808960400135106113f45760405162461bcd60e51b815260206004820152602660248201527f50414c4d5465726d733a2073656e64206261636b20616d6f756e7431203e20616044820152656d6f756e743160d01b6064820152608401610856565b60006114148a60200135609960149054906101000a900461ffff16613d3d565b905060006114368b60400135609960149054906101000a900461ffff16613d3d565b9050600061144760208d018d6145de565b6001600160a01b0316630dfe16816040518163ffffffff1660e01b8152600401602060405180830381865afa158015611484573d6000803e3d6000fd5b505050506040513d601f19601f820116820180604052508101906114a89190614836565b905060006114b960208e018e6145de565b6001600160a01b031663d21220a76040518163ffffffff1660e01b8152600401602060405180830381865afa1580156114f6573d6000803e3d6000fd5b505050506040513d601f19601f8201168201806040525081019061151a9190614836565b9050831561153c5760985461153c906001600160a01b03848116911686613d61565b821561155c5760985461155c906001600160a01b03838116911685613d61565b6115938d606001602081019061157291906145de565b858f602001356115829190614a72565b6001600160a01b0385169190613d61565b6115ca8d60600160208101906115a991906145de565b848f604001356115b99190614a72565b6001600160a01b0384169190613d61565b816001600160a01b031663095ea7b38e60000160208101906115ec91906145de565b8f60200135896115fc9190614a72565b6040518363ffffffff1660e01b8152600401611619929190614a89565b6020604051808303816000875af1158015611638573d6000803e3d6000fd5b505050506040513d601f19601f8201168201806040525081019061165c9190614ab0565b50806001600160a01b031663095ea7b38e600001602081019061167f91906145de565b8f604001358861168f9190614a72565b6040518363ffffffff1660e01b81526004016116ac929190614a89565b6020604051808303816000875af11580156116cb573d6000803e3d6000fd5b505050506040513d601f19601f820116820180604052508101906116ef9190614ab0565b5050506000806117198c8e60200135886117099190614a72565b8f6040013588610cf19190614a72565b909250905061172b60208e018e6145de565b604051633f7b613560e01b815260048101849052602481018390526001600160a01b039190911690633f7b613590604401600060405180830381600087803b15801561177657600080fd5b505af115801561178a573d6000803e3d6000fd5b506117a09450505060208e0191508d90506145de565b6040516394bf804d60e01b8152600481018c90526001600160a01b03878116602483015291909116906394bf804d9060440160408051808303816000875af11580156117f0573d6000803e3d6000fd5b505050506040513d601f19601f820116820180604052508101906118149190614acd565b507fc00aed996acfb0673742e8911b6ff20f93754b815a7540b7e761d7429ffa08ab90503361184660208e018e6145de565b604080516001600160a01b03938416815292909116602083015281018490526060810183905260800160405180910390a150506040516370a0823160e01b8152306004820152600093508592506001600160a01b03881691506370a0823190602401610f06565b826001600160a01b0381166118d45760405162461bcd60e51b815260040161085690614af1565b6001600160a01b038085166000908152609b602090815260408083205433845260978352928190208054825181850281018501909352808352899561195995169383018282801561194e57602002820191906000526020600020905b81546001600160a01b03168152600190910190602001808311611930575b505050505083613aed565b60995460405163152f2bb760e01b81526001600160a01b039091169063152f2bb79061198d90889088908890600401614b51565b600060405180830381600087803b1580156119a757600080fd5b505af11580156119bb573d6000803e3d6000fd5b505050506001600160a01b038581166000908152609b60205260409020547f01e616d15b59874215258e3e3646672746d2fafa2a88ab82d89c49991bcdbbe99116611a065733611a22565b6001600160a01b038087166000908152609b6020526040902054165b828686604051611a359493929190614b7f565b60405180910390a15050505050565b611a4c613e11565b806001600160a01b038116611a735760405162461bcd60e51b815260040161085690614af1565b609a546001600160a01b03808416911603611ad05760405162461bcd60e51b815260206004820152601b60248201527f50414c4d5465726d733a20616c7265616479207265736f6c76657200000000006044820152606401610856565b609a80546001600160a01b031981166001600160a01b038581169182179093556040805193909216835260208301527f6cb59c795917577ec693948e42535bd42e4c7784893c9fff6d7b7102f64a1d7291015b60405180910390a15050565b3360009081526097602090815260409182902080548351818402810184019094528084528593611ba19390929190830182828015611b9657602002820191906000526020600020905b81546001600160a01b03168152600190910190602001808311611b78575b505050505082613db5565b50611bac8383613e6b565b604080513381526001600160a01b0380841660208301528416918101919091527f0bcba02da0cdd1a6aac8553dd2668cbc3dae93fab8859665ba2d470a2ba8f445906060015b60405180910390a1505050565b816001600160a01b038116611c265760405162461bcd60e51b815260040161085690614af1565b836001600160a01b038116611c4d5760405162461bcd60e51b815260040161085690614af1565b33600090815260976020908152604080832080548251818502810185019093528083528a9493611cbe93929190830182828015611cb357602002820191906000526020600020905b81546001600160a01b03168152600190910190602001808311611c95575b505050505083613db5565b33600090815260976020526040902080549192509082908110611ce357611ce3614bb6565b600091825260209091200180546001600160a01b0319169055805b33600090815260976020526040902054611d1a90600190614a72565b811015611dbf57336000908152609760205260409020611d3b826001614882565b81548110611d4b57611d4b614bb6565b60009182526020808320909101543383526097909152604090912080546001600160a01b039092169183908110611d8457611d84614bb6565b600091825260209091200180546001600160a01b0319166001600160a01b039290921691909117905580611db781614bcc565b915050611cfe565b50336000908152609760205260409020805480611dde57611dde614be5565b600082815260208120820160001990810180546001600160a01b0319169055909101909155609a548190611e1e908b9030906001600160a01b0316613b62565b915091506000611e3e83609960149054906101000a900461ffff16613d3d565b90506000611e5c83609960149054906101000a900461ffff16613d3d565b90508115611ebc57611ebc609860009054906101000a90046001600160a01b0316838e6001600160a01b0316630dfe16816040518163ffffffff1660e01b8152600401602060405180830381865afa158015610c0e573d6000803e3d6000fd5b8015611f1a57611f1a609860009054906101000a90046001600160a01b0316828e6001600160a01b031663d21220a76040518163ffffffff1660e01b8152600401602060405180830381865afa158015610c0e573d6000803e3d6000fd5b8315611f6c57611f6c8b611f2e8487614a72565b8e6001600160a01b0316630dfe16816040518163ffffffff1660e01b8152600401602060405180830381865afa158015610c0e573d6000803e3d6000fd5b8215611fbe57611fbe8b611f808386614a72565b8e6001600160a01b031663d21220a76040518163ffffffff1660e01b8152600401602060405180830381865afa158015610c0e573d6000803e3d6000fd5b60995460405163b7d3824360e01b81526001600160a01b0388811660048301528d811660248301529091169063b7d3824390604401600060405180830381600087803b15801561200d57600080fd5b505af1158015612021573d6000803e3d6000fd5b505060405163d0ebdbe760e01b81526001600160a01b038c811660048301528f16925063d0ebdbe79150602401600060405180830381600087803b15801561206857600080fd5b505af115801561207c573d6000803e3d6000fd5b5050604051630d6e663160e01b8152600060048201526001600160a01b038f169250630d6e66319150602401600060405180830381600087803b1580156120c257600080fd5b505af11580156120d6573d6000803e3d6000fd5b505060405163f2fde38b60e01b81526001600160a01b038d811660048301528f16925063f2fde38b9150602401600060405180830381600087803b15801561211d57600080fd5b505af1158015612131573d6000803e3d6000fd5b5050604080513381526001600160a01b038a81166020830152818301899052606082018890528f16608082015260a0810186905260c0810185905290517f0d52372e455cc3305a983c590d790ca4175987649a8e2959ed7dd506387961b993509081900360e0019150a1505050505050505050505050565b6121b1613e11565b6121bb6000613f44565b565b826001600160a01b0381166121e45760405162461bcd60e51b815260040161085690614af1565b6001600160a01b038085166000908152609b602090815260408083205433845260978352928190208054825181850281018501909352808352899561226795169383018282801561194e576020028201919060005260206000209081546001600160a01b0316815260019091019060200180831161193057505050505083613aed565b609954604051631d01f8e360e21b81526001600160a01b0390911690637407e38c9061229b90889088908890600401614b51565b600060405180830381600087803b1580156122b557600080fd5b505af11580156122c9573d6000803e3d6000fd5b505050506001600160a01b038581166000908152609b60205260409020547fdcd296d17559776406261383f6e29108f53a3ca0edf2041fa6a75335e59c18e69116611a065733611a22565b6097602052816000526040600020818154811061233057600080fd5b6000918252602090912001546001600160a01b03169150829050565b826001600160a01b0381166123735760405162461bcd60e51b815260040161085690614af1565b609954604051632988bb9f60e21b81526001600160a01b03808716600483015286921690600090829063a622ee7c90602401600060405180830381865afa1580156123c2573d6000803e3d6000fd5b505050506040513d6000823e601f3d908101601f191682016040526123ea9190810190614bfb565b505033600090815260976020908152604091829020805483518184028101840190945280845295965061246095929450925083018282801561245557602002820191906000526020600020905b81546001600160a01b03168152600190910190602001808311612437575b505050505084613db5565b506040516386de146760e01b81526001600160a01b0388811660048301526024820188905286811660448301528316906386de146790606401600060405180830381600087803b1580156124b357600080fd5b505af11580156124c7573d6000803e3d6000fd5b5050604080513381526001600160a01b0387811660208301528916818301526060810185905290517f9a06175b960d2874575c5001db984a61e4ee5d9a6db26e152a9de72d6a317d8e9350908190036080019150a150505050505050565b600061253760408401602085016145de565b61254760608501604086016145de565b6040516370a0823160e01b81523060048201526000906001600160a01b038416906370a0823190602401602060405180830381865afa15801561258e573d6000803e3d6000fd5b505050506040513d601f19601f820116820180604052508101906125b29190614853565b6040516370a0823160e01b81523060048201529091506000906001600160a01b038416906370a0823190602401602060405180830381865afa1580156125fc573d6000803e3d6000fd5b505050506040513d601f19601f820116820180604052508101906126209190614853565b905061262b86613a9d565b61264d61263e6080890160608a01614c5d565b8860a001358960c00135613f96565b6126756126606040890160208a016145de565b61267060608a0160408b016145de565b614005565b604080518082019091526000808252602082015261269c878960a001358a60c00135613d80565b602083015281526040805160e081019091526001600160a01b037f0000000000000000000000000000000000000000000000000000000000000000169063f391606e90806126ea8c80614c7a565b808060200260200160405190810160405280939291908181526020018383602002808284376000920191909152505050908252506020908101906127349060408e01908e016145de565b6001600160a01b0316815260200161275260608d0160408e016145de565b6001600160a01b03908116825230602080840191909152865160408401528601516060830152609954166080909101526127946101408c016101208d01614c5d565b6040518363ffffffff1660e01b81526004016127b1929190614cc3565b6020604051808303816000875af11580156127d0573d6000803e3d6000fd5b505050506040513d601f19601f820116820180604052508101906127f49190614836565b955085905061281261280c60a08a0160808b016145de565b87614074565b60006128266101608a016101408b016145de565b6001600160a01b03161461284f5761284f8661284a6101608b016101408c016145de565b613e6b565b6099546001600160a01b031663ded2df71348861286f60e08d018d614d9d565b61287d6101008f018f614d9d565b6040518763ffffffff1660e01b815260040161289d959493929190614de3565b6000604051808303818588803b1580156128b657600080fd5b505af11580156128ca573d6000803e3d6000fd5b50505050506128ec33308a60a001358b602001602081019061090291906145de565b612906333060c08b013561090260608d0160408e016145de565b6129166040890160208a016145de565b6001600160a01b031663095ea7b3878a60a001356040518363ffffffff1660e01b8152600401612947929190614a89565b6020604051808303816000875af1158015612966573d6000803e3d6000fd5b505050506040513d601f19601f8201168201806040525081019061298a9190614ab0565b5061299b6060890160408a016145de565b6001600160a01b031663095ea7b3878a60c001356040518363ffffffff1660e01b81526004016129cc929190614a89565b6020604051808303816000875af11580156129eb573d6000803e3d6000fd5b505050506040513d601f19601f82011682018060405250810190612a0f9190614ab0565b50604051630d6e663160e01b81523060048201526001600160a01b03821690630d6e663190602401600060405180830381600087803b158015612a5157600080fd5b505af1158015612a65573d6000803e3d6000fd5b50506040516394bf804d60e01b8152600481018a90523060248201526001600160a01b03841692506394bf804d915060440160408051808303816000875af1158015612ab5573d6000803e3d6000fd5b505050506040513d601f19601f82011682018060405250810190612ad99190614acd565b507fd78ce241ef5794ab1864a13f548169c9ffc03abda8ed1064065fa81c340c91799050612b0d60a08a0160808b016145de565b604080516001600160a01b03928316815291891660208301520160405180910390a1506040516370a0823160e01b815230600482015260009083906001600160a01b038716906370a0823190602401602060405180830381865afa158015612b79573d6000803e3d6000fd5b505050506040513d601f19601f82011682018060405250810190612b9d9190614853565b612ba79190614a72565b6040516370a0823160e01b815230600482015290915060009083906001600160a01b038716906370a0823190602401602060405180830381865afa158015612bf3573d6000803e3d6000fd5b505050506040513d601f19601f82011682018060405250810190612c179190614853565b612c219190614a72565b90508115612c9c5760405163a9059cbb60e01b81526001600160a01b0387169063a9059cbb90612c579033908690600401614a89565b6020604051808303816000875af1158015612c76573d6000803e3d6000fd5b505050506040513d601f19601f82011682018060405250810190612c9a9190614ab0565b505b8015612d155760405163a9059cbb60e01b81526001600160a01b0386169063a9059cbb90612cd09033908590600401614a89565b6020604051808303816000875af1158015612cef573d6000803e3d6000fd5b505050506040513d601f19601f82011682018060405250810190612d139190614ab0565b505b50505050505092915050565b826001600160a01b038116612d485760405162461bcd60e51b815260040161085690614af1565b3360009081526097602090815260409182902080548351818402810184019094528084528793612db89390929190830182828015611b96576020028201919060005260206000209081546001600160a01b03168152600190910190602001808311611b7857505050505082613db5565b506040516386ac1cb960e01b81526001600160a01b038616906386ac1cb990612de79087908790600401614e7d565b600060405180830381600087803b158015612e0157600080fd5b505af1158015612e15573d6000803e3d6000fd5b505050507f3c97f149136cfbb978755d7cac071dcf9e7bbf5fde8a030fa2d972d78644441c33828686604051611a359493929190614e91565b600054610100900460ff1615808015612e6e5750600054600160ff909116105b80612e885750303b158015612e88575060005460ff166001145b612eeb5760405162461bcd60e51b815260206004820152602e60248201527f496e697469616c697a61626c653a20636f6e747261637420697320616c72656160448201526d191e481a5b9a5d1a585b1a5e995960921b6064820152608401610856565b6000805460ff191660011790558015612f0e576000805461ff0019166101001790555b609954612710600160a01b90910461ffff1610612f6d5760405162461bcd60e51b815260206004820152601d60248201527f50414c4d5465726d733a20656d6f6c756d656e74203e3d20313030252e0000006044820152606401610856565b612f7685613f44565b609880546001600160a01b038087166001600160a01b0319928316179092556099805461ffff8716600160a01b0261ffff60a01b19909116179055609a8054928516929091169190911790558015613004576000805461ff0019169055604051600181527f7f26b83ff96e1f2b6a682f133852f6798a09c465da95921460cefb384740249890602001611a35565b5050505050565b613013613e11565b60995461ffff600160a01b9091048116908216106130855760405162461bcd60e51b815260206004820152602960248201527f50414c4d5465726d733a206e657720656d6f6c756d656e74203e3d206f6c6420604482015268195b5bdb1d5b595b9d60ba1b6064820152608401610856565b6099805461ffff838116600160a01b81810261ffff60a01b198516179094556040805194909304909116835260208301527f7179ea06c1633dd908ac95e2c4749f1063eadecbe01501941080e07bb96764db910160405180910390a150565b6130ec613e11565b806001600160a01b0381166131135760405162461bcd60e51b815260040161085690614af1565b6098546001600160a01b038084169116036131705760405162461bcd60e51b815260206004820181905260248201527f50414c4d5465726d733a20616c7265616479207465726d2074726561737572796044820152606401610856565b609880546001600160a01b031981166001600160a01b038581169182179093556040805193909216835260208301527fdaecbed9cdf338cbedbd120eefc62bec9856ad3657ea396258b681e6bc17bed59101611b23565b6131cf613e11565b806001600160a01b0381166131f65760405162461bcd60e51b815260040161085690614af1565b6099546001600160a01b03908116908316036132545760405162461bcd60e51b815260206004820152601a60248201527f50414c4d5465726d733a20616c7265616479206d616e616765720000000000006044820152606401610856565b609980546001600160a01b031981166001600160a01b038581169182179093556040805193909216835260208301527f8d235c6c97ff1b07a41b6b8ac6ea040a6a6b411b20a0f02f02946fa45590bcfc9101611b23565b826001600160a01b0381166132d25760405162461bcd60e51b815260040161085690614af1565b33600090815260976020908152604091829020805483518184028101840190945280845287936133429390929190830182828015611b96576020028201919060005260206000209081546001600160a01b03168152600190910190602001808311611b7857505050505082613db5565b5060405163012c590560e61b81526001600160a01b03861690634b164140906133719087908790600401614efc565b600060405180830381600087803b15801561338b57600080fd5b505af115801561339f573d6000803e3d6000fd5b505050507fa51d837555a436e00533e1177576e060e79c5cf3196bd2809db7ed4b6c77194733828686604051611a359493929190614f10565b6133e560208301836145de565b6001600160a01b0316630dfe16816040518163ffffffff1660e01b8152600401602060405180830381865afa158015613422573d6000803e3d6000fd5b505050506040513d601f19601f820116820180604052508101906134469190614836565b61345360208401846145de565b6001600160a01b031663d21220a76040518163ffffffff1660e01b8152600401602060405180830381865afa158015613490573d6000803e3d6000fd5b505050506040513d601f19601f820116820180604052508101906134b49190614836565b6040516370a0823160e01b81523060048201526000906001600160a01b038416906370a0823190602401602060405180830381865afa1580156134fb573d6000803e3d6000fd5b505050506040513d601f19601f8201168201806040525081019061351f9190614853565b6040516370a0823160e01b81523060048201529091506000906001600160a01b038416906370a0823190602401602060405180830381865afa158015613569573d6000803e3d6000fd5b505050506040513d601f19601f8201168201806040525081019061358d9190614853565b905061359885613a9d565b6135ba6135ab6040880160208901614c5d565b87604001358860600135613f96565b33600090815260976020908152604091829020805483518184028101840190945280845261362e93928301828280156112eb576020028201919060005260206000209081546001600160a01b031681526001909101906020018083116112cd57506112ff9350505060208a019050896145de565b5060008061364261087260208a018a6145de565b909250905061365e333060408b01356108a160208d018d6145de565b613675333060608b013561092a60208d018d6145de565b61368260208901896145de565b6001600160a01b0316630dfe16816040518163ffffffff1660e01b8152600401602060405180830381865afa1580156136bf573d6000803e3d6000fd5b505050506040513d601f19601f820116820180604052508101906136e39190614836565b6001600160a01b031663095ea7b36136fe60208b018b6145de565b61370c8560408d0135614882565b6040518363ffffffff1660e01b8152600401613729929190614a89565b6020604051808303816000875af1158015613748573d6000803e3d6000fd5b505050506040513d601f19601f8201168201806040525081019061376c9190614ab0565b5061377a60208901896145de565b6001600160a01b031663d21220a76040518163ffffffff1660e01b8152600401602060405180830381865afa1580156137b7573d6000803e3d6000fd5b505050506040513d601f19601f820116820180604052508101906137db9190614836565b6001600160a01b031663095ea7b36137f660208b018b6145de565b6138048460608d0135614882565b6040518363ffffffff1660e01b8152600401613821929190614a89565b6020604051808303816000875af1158015613840573d6000803e3d6000fd5b505050506040513d601f19601f820116820180604052508101906138649190614ab0565b5060408051808201909152600080825260208201526138998861388b8560408d0135614882565b610cf18560608e0135614882565b6020808401919091529082526138b1908a018a6145de565b81516020830151604051633f7b613560e01b8152600481019290925260248201526001600160a01b039190911690633f7b613590604401600060405180830381600087803b15801561390257600080fd5b505af1158015613916573d6000803e3d6000fd5b5061392a9350505060208a019050896145de565b6040516394bf804d60e01b8152600481018990523060248201526001600160a01b0391909116906394bf804d9060440160408051808303816000875af1158015613978573d6000803e3d6000fd5b505050506040513d601f19601f8201168201806040525081019061399c9190614acd565b507fd8604e87f6aa7aa2a3261108ed89a3ca0b8c8e08803677ccad6c16c9d48a7d039050336139ce60208b018b6145de565b604080516001600160a01b0393841681529290911660208301520160405180910390a150506040516370a0823160e01b815230600482015260009083906001600160a01b038716906370a0823190602401610f06565b613a2c613e11565b6001600160a01b038116613a915760405162461bcd60e51b815260206004820152602660248201527f4f776e61626c653a206e6577206f776e657220697320746865207a65726f206160448201526564647265737360d01b6064820152608401610856565b613a9a81613f44565b50565b60008111613a9a5760405162461bcd60e51b815260206004820152601b60248201527f50414c4d5465726d733a206d696e74416d6f756e74207a65726f2e00000000006044820152606401610856565b6001600160a01b03831615613b5257336001600160a01b03841614613b4d5760405162461bcd60e51b815260206004820152601660248201527550414c4d5465726d733a206e6f2064656c656761746560501b6044820152606401610856565b505050565b613b5c8282613db5565b50505050565b6040516370a0823160e01b81526001600160a01b03838116600483015260009182918291908716906370a0823190602401602060405180830381865afa158015613bb0573d6000803e3d6000fd5b505050506040513d601f19601f82011682018060405250810190613bd49190614853565b6040516330c3f3f760e21b8152600481018290526001600160a01b03888116602483015291925060009186169063c30fcfdc90604401600060405180830381865afa158015613c27573d6000803e3d6000fd5b505050506040513d6000823e601f3d908101601f19168201604052613c4f9190810190614f4f565b60405163f4effe4160e01b81529091506001600160a01b0388169063f4effe4190613c8290849086908b90600401615074565b60408051808303816000875af1158015613ca0573d6000803e3d6000fd5b505050506040513d601f19601f82011682018060405250810190613cc49190614acd565b909890975095505050505050565b6040516001600160a01b0380851660248301528316604482015260648101829052613b5c9085906323b872dd60e01b906084015b60408051601f198184030181529190526020810180516001600160e01b03166001600160e01b031990931692909217909152614189565b6000612710613d5061ffff841685615103565b613d5a9190615122565b9392505050565b613b4d8363a9059cbb60e01b8484604051602401613d06929190614a89565b600080613d9684670de0b6b3a76400008761425b565b9150613dab83670de0b6b3a76400008761425b565b9050935093915050565b600080613dc28484614308565b9250905080613e0a5760405162461bcd60e51b81526020600482015260146024820152732820a626aa32b936b99d103737ba1037bbb732b960611b6044820152606401610856565b5092915050565b6033546001600160a01b031633146121bb5760405162461bcd60e51b815260206004820181905260248201527f4f776e61626c653a2063616c6c6572206973206e6f7420746865206f776e65726044820152606401610856565b6001600160a01b038281166000908152609b6020526040902054818316911603613ed75760405162461bcd60e51b815260206004820152601b60248201527f50414c4d5465726d733a20616c72656164792064656c656761746500000000006044820152606401610856565b6001600160a01b038281166000818152609b602090815260409182902080546001600160a01b03191694861694851790558151338152908101929092528101919091527f1bdc0199979c7643aefd2462992328b03f70259b45fa89814e0d1008c105d06d90606001611b23565b603380546001600160a01b038381166001600160a01b0319831681179093556040519116919082907f8be0079c531659141344cd1fd0a4f28419497f9722a3daafe3b4186f6b6457e090600090a35050565b82613fa45760008111613fa9565b600082115b613b4d5760405162461bcd60e51b815260206004820152602760248201527f50414c4d5465726d733a206e6f2070726f6a65637420746f6b656e20616c6c6f60448201526631b0ba34b7b71760c91b6064820152608401610856565b806001600160a01b0316826001600160a01b0316106140705760405162461bcd60e51b815260206004820152602160248201527f50414c4d5465726d733a20746f6b656e73206f7264657220696e7665727465646044820152601760f91b6064820152608401610856565b5050565b6001600160a01b0382166000908152609760205260408120905b815481101561412057826001600160a01b03168282815481106140b3576140b3614bb6565b6000918252602090912001546001600160a01b03160361410e5760405162461bcd60e51b81526020600482015260166024820152751410531355195c9b5cce881d985d5b1d08195e1a5cdd60521b6044820152606401610856565b8061411881614bcc565b91505061408e565b508054600181018255600082815260209081902090910180546001600160a01b0319166001600160a01b03858116918217909255604080519287168352928201527f7f03ac7449144076e2d9d5a237c3ff0d0108e0a2ebdd5213c4b0de6f4d4f69539101611bf2565b60006141de826040518060400160405280602081526020017f5361666545524332303a206c6f772d6c6576656c2063616c6c206661696c6564815250856001600160a01b03166143709092919063ffffffff16565b805190915015613b4d57808060200190518101906141fc9190614ab0565b613b4d5760405162461bcd60e51b815260206004820152602a60248201527f5361666545524332303a204552433230206f7065726174696f6e20646964206e6044820152691bdd081cdd58d8d9595960b21b6064820152608401610856565b6000808060001985870985870292508281108382030391505080600003614294576000841161428957600080fd5b508290049050613d5a565b8084116142a057600080fd5b600084868809600260036001881981018916988990049182028318808302840302808302840302808302840302808302840302808302840302918202909203026000889003889004909101858311909403939093029303949094049190911702949350505050565b6000805b835181101561436257826001600160a01b031684828151811061433157614331614bb6565b60200260200101516001600160a01b0316036143505760019150614369565b8061435a81614bcc565b91505061430c565b5060009050805b9250929050565b606061437f8484600085614387565b949350505050565b6060824710156143e85760405162461bcd60e51b815260206004820152602660248201527f416464726573733a20696e73756666696369656e742062616c616e636520666f6044820152651c8818d85b1b60d21b6064820152608401610856565b6001600160a01b0385163b61443f5760405162461bcd60e51b815260206004820152601d60248201527f416464726573733a2063616c6c20746f206e6f6e2d636f6e74726163740000006044820152606401610856565b600080866001600160a01b0316858760405161445b9190615144565b60006040518083038185875af1925050503d8060008114614498576040519150601f19603f3d011682016040523d82523d6000602084013e61449d565b606091505b50915091506144ad8282866144b8565b979650505050505050565b606083156144c7575081613d5a565b8251156144d75782518084602001fd5b8160405162461bcd60e51b81526004016108569190615160565b60006080828403121561450357600080fd5b50919050565b60008060a0838503121561451c57600080fd5b61452684846144f1565b946080939093013593505050565b6001600160a01b0381168114613a9a57600080fd5b60008083601f84011261455b57600080fd5b5081356001600160401b0381111561457257600080fd5b60208301915083602082850101111561436957600080fd5b60008060006040848603121561459f57600080fd5b83356145aa81614534565b925060208401356001600160401b038111156145c557600080fd5b6145d186828701614549565b9497909650939450505050565b6000602082840312156145f057600080fd5b8135613d5a81614534565b6000806040838503121561460e57600080fd5b823561461981614534565b9150602083013561462981614534565b809150509250929050565b6000806000806080858703121561464a57600080fd5b843561465581614534565b9350602085013561466581614534565b9250604085013561467581614534565b9150606085013561468581614534565b939692955090935050565b600080604083850312156146a357600080fd5b82356146ae81614534565b946020939093013593505050565b6000806000606084860312156146d157600080fd5b83356146dc81614534565b92506020840135915060408401356146f381614534565b809150509250925092565b6000806040838503121561471157600080fd5b82356001600160401b0381111561472757600080fd5b830161016081860312156146ae57600080fd5b60008083601f84011261474c57600080fd5b5081356001600160401b0381111561476357600080fd5b6020830191508360208260051b850101111561436957600080fd5b60008060006040848603121561479357600080fd5b833561479e81614534565b925060208401356001600160401b038111156147b957600080fd5b6145d18682870161473a565b803561ffff811681146147d757600080fd5b919050565b600080600080608085870312156147f257600080fd5b84356147fd81614534565b9350602085013561480d81614534565b9250614675604086016147c5565b60006020828403121561482d57600080fd5b613d5a826147c5565b60006020828403121561484857600080fd5b8151613d5a81614534565b60006020828403121561486557600080fd5b5051919050565b634e487b7160e01b600052601160045260246000fd5b600082198211156148955761489561486c565b500190565b634e487b7160e01b600052604160045260246000fd5b60405160a081016001600160401b03811182821017156148d2576148d261489a565b60405290565b604080519081016001600160401b03811182821017156148d2576148d261489a565b604051606081016001600160401b03811182821017156148d2576148d261489a565b604051601f8201601f191681016001600160401b03811182821017156149445761494461489a565b604052919050565b60005b8381101561496757818101518382015260200161494f565b83811115613b5c5750506000910152565b600082601f83011261498957600080fd5b81516001600160401b038111156149a2576149a261489a565b6149b5601f8201601f191660200161491c565b8181528460208386010111156149ca57600080fd5b61437f82602083016020870161494c565b6000602082840312156149ed57600080fd5b81516001600160401b0380821115614a0457600080fd5b9083019060a08286031215614a1857600080fd5b614a206148b0565b8251815260208301516020820152604083015182811115614a4057600080fd5b614a4c87828601614978565b604083015250606083015160608201526080830151608082015280935050505092915050565b600082821015614a8457614a8461486c565b500390565b6001600160a01b03929092168252602082015260400190565b8015158114613a9a57600080fd5b600060208284031215614ac257600080fd5b8151613d5a81614aa2565b60008060408385031215614ae057600080fd5b505080516020909101519092909150565b60208082526017908201527f50414c4d5465726d733a2061646472657373205a65726f000000000000000000604082015260600190565b81835281816020850137506000828201602090810191909152601f909101601f19169091010190565b6001600160a01b0384168152604060208201819052600090614b769083018486614b28565b95945050505050565b6001600160a01b03858116825284166020820152606060408201819052600090614bac9083018486614b28565b9695505050505050565b634e487b7160e01b600052603260045260246000fd5b600060018201614bde57614bde61486c565b5060010190565b634e487b7160e01b600052603160045260246000fd5b600080600080600060a08688031215614c1357600080fd5b855194506020860151935060408601516001600160401b03811115614c3757600080fd5b614c4388828901614978565b606088015160809098015196999598509695949350505050565b600060208284031215614c6f57600080fd5b8135613d5a81614aa2565b6000808335601e19843603018112614c9157600080fd5b8301803591506001600160401b03821115614cab57600080fd5b6020019150600581901b360382131561436957600080fd5b6040815260006101208201845160e060408501528181518084526101408601915060209350838301925060005b81811015614d1157835162ffffff1683529284019291840191600101614cf0565b5050868301516001600160a01b0381166060870152915060408701516001600160a01b0381166080870152915060608701516001600160a01b03811660a08701529150608087015160c086015260a087015160e086015260c08701519150614d856101008601836001600160a01b03169052565b851515838601529250614d959050565b509392505050565b6000808335601e19843603018112614db457600080fd5b8301803591506001600160401b03821115614dce57600080fd5b60200191503681900382131561436957600080fd5b6001600160a01b0386168152606060208201819052600090614e089083018688614b28565b8281036040840152614e1b818587614b28565b98975050505050505050565b62ffffff81168114613a9a57600080fd5b8183526000602080850194508260005b85811015614e72578135614e5b81614e27565b62ffffff1687529582019590820190600101614e48565b509495945050505050565b60208152600061437f602083018486614e38565b6001600160a01b03858116825284166020820152606060408201819052600090614bac9083018486614e38565b8183526000602080850194508260005b85811015614e72578135614ee181614534565b6001600160a01b031687529582019590820190600101614ece565b60208152600061437f602083018486614ebe565b6001600160a01b03858116825284166020820152606060408201819052600090614bac9083018486614ebe565b8051600281900b81146147d757600080fd5b60006020808385031215614f6257600080fd5b82516001600160401b0380821115614f7957600080fd5b818501915085601f830112614f8d57600080fd5b815181811115614f9f57614f9f61489a565b614fad848260051b0161491c565b818152848101925060079190911b830184019087821115614fcd57600080fd5b928401925b818410156144ad578388036080811215614fec5760008081fd5b614ff46148d8565b85516001600160801b038116811461500c5760008081fd5b81526060601f1983018113156150225760008081fd5b61502a6148fa565b9250615037888801614f3d565b83526040615046818901614f3d565b848a0152908701519061505882614e27565b8301528087019190915283526080939093019291840191614fd2565b6060808252845182820181905260009190608090818501906020808a01865b838110156150e257815180516001600160801b031686528301518051600290810b8588015281850151900b604080880191909152015162ffffff16878601529385019390820190600101615093565b50508601889052506001600160a01b0386166040860152925061437f915050565b600081600019048311821515161561511d5761511d61486c565b500290565b60008261513f57634e487b7160e01b600052601260045260246000fd5b500490565b6000825161515681846020870161494c565b9190910192915050565b602081526000825180602084015261517f81604085016020870161494c565b601f01601f1916919091016040019291505056fea264697066735822122086543f141af5726bc8abfba400d988e499148e333a2e23dc89d8da18d045373964736f6c634300080d0033",
  "devdoc": {
    "kind": "dev",
    "methods": {
      "owner()": {
        "details": "Returns the address of the current owner."
      },
      "renounceOwnership()": {
        "details": "Leaves the contract without owner. It will not be possible to call `onlyOwner` functions anymore. Can only be called by the current owner. NOTE: Renouncing ownership will leave the contract without an owner, thereby removing any functionality that is only available to the owner."
      },
      "transferOwnership(address)": {
        "details": "Transfers ownership of the contract to a new account (`newOwner`). Can only be called by the current owner."
      }
    },
    "version": 1
  },
  "userdoc": {
    "kind": "user",
    "methods": {
      "openTerm((uint24[],address,address,bool,address,uint256,uint256,bytes,string,bool,address),uint256)": {
        "notice": "do all neccesary step to initialize market making."
      }
    },
    "version": 1
  },
  "storageLayout": {
    "storage": [
      {
        "astId": 315,
        "contract": "contracts/PALMTerms.sol:PALMTerms",
        "label": "_initialized",
        "offset": 0,
        "slot": "0",
        "type": "t_uint8"
      },
      {
        "astId": 318,
        "contract": "contracts/PALMTerms.sol:PALMTerms",
        "label": "_initializing",
        "offset": 1,
        "slot": "0",
        "type": "t_bool"
      },
      {
        "astId": 929,
        "contract": "contracts/PALMTerms.sol:PALMTerms",
        "label": "__gap",
        "offset": 0,
        "slot": "1",
        "type": "t_array(t_uint256)50_storage"
      },
      {
        "astId": 187,
        "contract": "contracts/PALMTerms.sol:PALMTerms",
        "label": "_owner",
        "offset": 0,
        "slot": "51",
        "type": "t_address"
      },
      {
        "astId": 307,
        "contract": "contracts/PALMTerms.sol:PALMTerms",
        "label": "__gap",
        "offset": 0,
        "slot": "52",
        "type": "t_array(t_uint256)49_storage"
      },
      {
        "astId": 600,
        "contract": "contracts/PALMTerms.sol:PALMTerms",
        "label": "_status",
        "offset": 0,
        "slot": "101",
        "type": "t_uint256"
      },
      {
        "astId": 644,
        "contract": "contracts/PALMTerms.sol:PALMTerms",
        "label": "__gap",
        "offset": 0,
        "slot": "102",
        "type": "t_array(t_uint256)49_storage"
      },
      {
        "astId": 8613,
        "contract": "contracts/PALMTerms.sol:PALMTerms",
        "label": "vaults",
        "offset": 0,
        "slot": "151",
        "type": "t_mapping(t_address,t_array(t_address)dyn_storage)"
      },
      {
        "astId": 8615,
        "contract": "contracts/PALMTerms.sol:PALMTerms",
        "label": "termTreasury",
        "offset": 0,
        "slot": "152",
        "type": "t_address"
      },
      {
        "astId": 8617,
        "contract": "contracts/PALMTerms.sol:PALMTerms",
        "label": "manager",
        "offset": 0,
        "slot": "153",
        "type": "t_address"
      },
      {
        "astId": 8619,
        "contract": "contracts/PALMTerms.sol:PALMTerms",
        "label": "emolument",
        "offset": 20,
        "slot": "153",
        "type": "t_uint16"
      },
      {
        "astId": 8622,
        "contract": "contracts/PALMTerms.sol:PALMTerms",
        "label": "resolver",
        "offset": 0,
        "slot": "154",
        "type": "t_contract(IArrakisV2Resolver)9871"
      },
      {
        "astId": 8626,
        "contract": "contracts/PALMTerms.sol:PALMTerms",
        "label": "delegateByVaults",
        "offset": 0,
        "slot": "155",
        "type": "t_mapping(t_address,t_address)"
      }
    ],
    "types": {
      "t_address": {
        "encoding": "inplace",
        "label": "address",
        "numberOfBytes": "20"
      },
      "t_array(t_address)dyn_storage": {
        "base": "t_address",
        "encoding": "dynamic_array",
        "label": "address[]",
        "numberOfBytes": "32"
      },
      "t_array(t_uint256)49_storage": {
        "base": "t_uint256",
        "encoding": "inplace",
        "label": "uint256[49]",
        "numberOfBytes": "1568"
      },
      "t_array(t_uint256)50_storage": {
        "base": "t_uint256",
        "encoding": "inplace",
        "label": "uint256[50]",
        "numberOfBytes": "1600"
      },
      "t_bool": {
        "encoding": "inplace",
        "label": "bool",
        "numberOfBytes": "1"
      },
      "t_contract(IArrakisV2Resolver)9871": {
        "encoding": "inplace",
        "label": "contract IArrakisV2Resolver",
        "numberOfBytes": "20"
      },
      "t_mapping(t_address,t_address)": {
        "encoding": "mapping",
        "key": "t_address",
        "label": "mapping(address => address)",
        "numberOfBytes": "32",
        "value": "t_address"
      },
      "t_mapping(t_address,t_array(t_address)dyn_storage)": {
        "encoding": "mapping",
        "key": "t_address",
        "label": "mapping(address => address[])",
        "numberOfBytes": "32",
        "value": "t_array(t_address)dyn_storage"
      },
      "t_uint16": {
        "encoding": "inplace",
        "label": "uint16",
        "numberOfBytes": "2"
      },
      "t_uint256": {
        "encoding": "inplace",
        "label": "uint256",
        "numberOfBytes": "32"
      },
      "t_uint8": {
        "encoding": "inplace",
        "label": "uint8",
        "numberOfBytes": "1"
      }
    }
  }
}