{
  "address": "0x9A32f83b2A2f742c64d2F2201df6d70b641949D0",
  "abi": [
    {
      "inputs": [
        {
          "internalType": "contract IArrakisV2Factory",
          "name": "v2factory_",
          "type": "address"
        }
      ],
      "stateMutability": "nonpayable",
      "type": "constructor"
    },
    {
      "anonymous": false,
      "inputs": [
        {
          "indexed": false,
          "internalType": "address",
          "name": "creator",
          "type": "address"
        },
        {
          "indexed": false,
          "internalType": "address",
          "name": "vault",
          "type": "address"
        }
      ],
      "name": "AddVault",
      "type": "event"
    },
    {
      "anonymous": false,
      "inputs": [
        {
          "indexed": false,
          "internalType": "address",
          "name": "creator",
          "type": "address"
        },
        {
          "indexed": false,
          "internalType": "address",
          "name": "vault",
          "type": "address"
        },
        {
          "indexed": false,
          "internalType": "uint256",
          "name": "amount0",
          "type": "uint256"
        },
        {
          "indexed": false,
          "internalType": "uint256",
          "name": "amount1",
          "type": "uint256"
        },
        {
          "indexed": false,
          "internalType": "address",
          "name": "to",
          "type": "address"
        }
      ],
      "name": "CloseTerm",
      "type": "event"
    },
    {
      "anonymous": false,
      "inputs": [
        {
          "indexed": false,
          "internalType": "address",
          "name": "creator",
          "type": "address"
        },
        {
          "indexed": false,
          "internalType": "address",
          "name": "vault",
          "type": "address"
        }
      ],
      "name": "DecreaseLiquidity",
      "type": "event"
    },
    {
      "anonymous": false,
      "inputs": [
        {
          "indexed": false,
          "internalType": "address",
          "name": "creator",
          "type": "address"
        },
        {
          "indexed": false,
          "internalType": "address",
          "name": "vault",
          "type": "address"
        },
        {
          "indexed": false,
          "internalType": "uint256",
          "name": "emolument",
          "type": "uint256"
        }
      ],
      "name": "ExtendingTerm",
      "type": "event"
    },
    {
      "anonymous": false,
      "inputs": [
        {
          "indexed": false,
          "internalType": "address",
          "name": "creator",
          "type": "address"
        },
        {
          "indexed": false,
          "internalType": "address",
          "name": "vault",
          "type": "address"
        },
        {
          "indexed": false,
          "internalType": "uint256",
          "name": "emolument",
          "type": "uint256"
        }
      ],
      "name": "IncreaseLiquidity",
      "type": "event"
    },
    {
      "anonymous": false,
      "inputs": [
        {
          "indexed": true,
          "internalType": "address",
          "name": "previousOwner",
          "type": "address"
        },
        {
          "indexed": true,
          "internalType": "address",
          "name": "newOwner",
          "type": "address"
        }
      ],
      "name": "OwnershipTransferred",
      "type": "event"
    },
    {
      "anonymous": false,
      "inputs": [
        {
          "indexed": false,
          "internalType": "address",
          "name": "creator",
          "type": "address"
        },
        {
          "indexed": false,
          "internalType": "address",
          "name": "vault",
          "type": "address"
        }
      ],
      "name": "RemoveVault",
      "type": "event"
    },
    {
      "anonymous": false,
      "inputs": [
        {
          "indexed": false,
          "internalType": "uint16",
          "name": "oldEmolument",
          "type": "uint16"
        },
        {
          "indexed": false,
          "internalType": "uint16",
          "name": "newEmolment",
          "type": "uint16"
        }
      ],
      "name": "SetEmolument",
      "type": "event"
    },
    {
      "anonymous": false,
      "inputs": [
        {
          "indexed": false,
          "internalType": "address",
          "name": "oldManager",
          "type": "address"
        },
        {
          "indexed": false,
          "internalType": "address",
          "name": "newManager",
          "type": "address"
        }
      ],
      "name": "SetManager",
      "type": "event"
    },
    {
      "anonymous": false,
      "inputs": [
        {
          "indexed": false,
          "internalType": "contract IArrakisV2Resolver",
          "name": "oldResolver",
          "type": "address"
        },
        {
          "indexed": false,
          "internalType": "contract IArrakisV2Resolver",
          "name": "newResolver",
          "type": "address"
        }
      ],
      "name": "SetResolver",
      "type": "event"
    },
    {
      "anonymous": false,
      "inputs": [
        {
          "indexed": false,
          "internalType": "address",
          "name": "oldTermTreasury",
          "type": "address"
        },
        {
          "indexed": false,
          "internalType": "address",
          "name": "newTermTreasury",
          "type": "address"
        }
      ],
      "name": "SetTermTreasury",
      "type": "event"
    },
    {
      "anonymous": false,
      "inputs": [
        {
          "indexed": false,
          "internalType": "address",
          "name": "creator",
          "type": "address"
        },
        {
          "indexed": false,
          "internalType": "address",
          "name": "vault",
          "type": "address"
        },
        {
          "indexed": false,
          "internalType": "uint256",
          "name": "emolument",
          "type": "uint256"
        }
      ],
      "name": "SetupVault",
      "type": "event"
    },
    {
      "inputs": [
        {
          "internalType": "contract IArrakisV2",
          "name": "vault_",
          "type": "address"
        },
        {
          "internalType": "uint24[]",
          "name": "feeTiers_",
          "type": "uint24[]"
        }
      ],
      "name": "addPools",
      "outputs": [],
      "stateMutability": "nonpayable",
      "type": "function"
    },
    {
      "inputs": [
        {
          "internalType": "contract IArrakisV2",
          "name": "vault_",
          "type": "address"
        },
        {
          "internalType": "address",
          "name": "to_",
          "type": "address"
        },
        {
          "internalType": "address",
          "name": "newOwner_",
          "type": "address"
        },
        {
          "internalType": "address",
          "name": "newManager_",
          "type": "address"
        }
      ],
      "name": "closeTerm",
      "outputs": [],
      "stateMutability": "nonpayable",
      "type": "function"
    },
    {
      "inputs": [
        {
          "components": [
            {
              "internalType": "contract IArrakisV2",
              "name": "vault",
              "type": "address"
            },
            {
              "internalType": "bool",
              "name": "projectTknIsTknZero",
              "type": "bool"
            },
            {
              "internalType": "uint256",
              "name": "amount0",
              "type": "uint256"
            },
            {
              "internalType": "uint256",
              "name": "amount1",
              "type": "uint256"
            },
            {
              "internalType": "address",
              "name": "to",
              "type": "address"
            }
          ],
          "internalType": "struct DecreaseBalance",
          "name": "decreaseBalance_",
          "type": "tuple"
        },
        {
          "internalType": "uint256",
          "name": "mintAmount_",
          "type": "uint256"
        }
      ],
      "name": "decreaseLiquidity",
      "outputs": [],
      "stateMutability": "nonpayable",
      "type": "function"
    },
    {
      "inputs": [],
      "name": "emolument",
      "outputs": [
        {
          "internalType": "uint16",
          "name": "",
          "type": "uint16"
        }
      ],
      "stateMutability": "view",
      "type": "function"
    },
    {
      "inputs": [
        {
          "components": [
            {
              "internalType": "contract IArrakisV2",
              "name": "vault",
              "type": "address"
            },
            {
              "internalType": "bool",
              "name": "projectTknIsTknZero",
              "type": "bool"
            },
            {
              "internalType": "uint256",
              "name": "amount0",
              "type": "uint256"
            },
            {
              "internalType": "uint256",
              "name": "amount1",
              "type": "uint256"
            }
          ],
          "internalType": "struct ExtendingTermData",
          "name": "extensionData_",
          "type": "tuple"
        },
        {
          "internalType": "uint256",
          "name": "mintAmount_",
          "type": "uint256"
        }
      ],
      "name": "extendingTerm",
      "outputs": [],
      "stateMutability": "nonpayable",
      "type": "function"
    },
    {
      "inputs": [
        {
          "components": [
            {
              "internalType": "contract IArrakisV2",
              "name": "vault",
              "type": "address"
            },
            {
              "internalType": "bool",
              "name": "projectTknIsTknZero",
              "type": "bool"
            },
            {
              "internalType": "uint256",
              "name": "amount0",
              "type": "uint256"
            },
            {
              "internalType": "uint256",
              "name": "amount1",
              "type": "uint256"
            }
          ],
          "internalType": "struct IncreaseBalance",
          "name": "increaseBalance_",
          "type": "tuple"
        },
        {
          "internalType": "uint256",
          "name": "mintAmount_",
          "type": "uint256"
        }
      ],
      "name": "increaseLiquidity",
      "outputs": [],
      "stateMutability": "nonpayable",
      "type": "function"
    },
    {
      "inputs": [
        {
          "internalType": "address",
          "name": "owner_",
          "type": "address"
        },
        {
          "internalType": "address",
          "name": "termTreasury_",
          "type": "address"
        },
        {
          "internalType": "uint16",
          "name": "emolument_",
          "type": "uint16"
        },
        {
          "internalType": "contract IArrakisV2Resolver",
          "name": "resolver_",
          "type": "address"
        }
      ],
      "name": "initialize",
      "outputs": [],
      "stateMutability": "nonpayable",
      "type": "function"
    },
    {
      "inputs": [],
      "name": "manager",
      "outputs": [
        {
          "internalType": "address",
          "name": "",
          "type": "address"
        }
      ],
      "stateMutability": "view",
      "type": "function"
    },
    {
      "inputs": [
        {
          "components": [
            {
              "internalType": "uint24[]",
              "name": "feeTiers",
              "type": "uint24[]"
            },
            {
              "internalType": "contract IERC20",
              "name": "token0",
              "type": "address"
            },
            {
              "internalType": "contract IERC20",
              "name": "token1",
              "type": "address"
            },
            {
              "internalType": "bool",
              "name": "projectTknIsTknZero",
              "type": "bool"
            },
            {
              "internalType": "address",
              "name": "owner",
              "type": "address"
            },
            {
              "internalType": "int24",
              "name": "maxTwapDeviation",
              "type": "int24"
            },
            {
              "internalType": "uint24",
              "name": "twapDuration",
              "type": "uint24"
            },
            {
              "internalType": "uint24",
              "name": "maxSlippage",
              "type": "uint24"
            },
            {
              "internalType": "uint256",
              "name": "amount0",
              "type": "uint256"
            },
            {
              "internalType": "uint256",
              "name": "amount1",
              "type": "uint256"
            },
            {
              "internalType": "bytes",
              "name": "datas",
              "type": "bytes"
            },
            {
              "internalType": "string",
              "name": "strat",
              "type": "string"
            }
          ],
          "internalType": "struct SetupPayload",
          "name": "setup_",
          "type": "tuple"
        },
        {
          "internalType": "uint256",
          "name": "mintAmount_",
          "type": "uint256"
        }
      ],
      "name": "openTerm",
      "outputs": [
        {
          "internalType": "address",
          "name": "vault",
          "type": "address"
        }
      ],
      "stateMutability": "nonpayable",
      "type": "function"
    },
    {
      "inputs": [],
      "name": "owner",
      "outputs": [
        {
          "internalType": "address",
          "name": "",
          "type": "address"
        }
      ],
      "stateMutability": "view",
      "type": "function"
    },
    {
      "inputs": [
        {
          "internalType": "contract IArrakisV2",
          "name": "vault_",
          "type": "address"
        },
        {
          "internalType": "address[]",
          "name": "pools_",
          "type": "address[]"
        }
      ],
      "name": "removePools",
      "outputs": [],
      "stateMutability": "nonpayable",
      "type": "function"
    },
    {
      "inputs": [],
      "name": "renounceOwnership",
      "outputs": [],
      "stateMutability": "nonpayable",
      "type": "function"
    },
    {
      "inputs": [],
      "name": "resolver",
      "outputs": [
        {
          "internalType": "contract IArrakisV2Resolver",
          "name": "",
          "type": "address"
        }
      ],
      "stateMutability": "view",
      "type": "function"
    },
    {
      "inputs": [
        {
          "internalType": "uint16",
          "name": "emolument_",
          "type": "uint16"
        }
      ],
      "name": "setEmolument",
      "outputs": [],
      "stateMutability": "nonpayable",
      "type": "function"
    },
    {
      "inputs": [
        {
          "internalType": "address",
          "name": "manager_",
          "type": "address"
        }
      ],
      "name": "setManager",
      "outputs": [],
      "stateMutability": "nonpayable",
      "type": "function"
    },
    {
      "inputs": [
        {
          "internalType": "contract IArrakisV2",
          "name": "vault_",
          "type": "address"
        },
        {
          "internalType": "uint24",
          "name": "maxSlippage_",
          "type": "uint24"
        }
      ],
      "name": "setMaxSlippage",
      "outputs": [],
      "stateMutability": "nonpayable",
      "type": "function"
    },
    {
      "inputs": [
        {
          "internalType": "contract IArrakisV2",
          "name": "vault_",
          "type": "address"
        },
        {
          "internalType": "int24",
          "name": "maxTwapDeviation_",
          "type": "int24"
        }
      ],
      "name": "setMaxTwapDeviation",
      "outputs": [],
      "stateMutability": "nonpayable",
      "type": "function"
    },
    {
      "inputs": [
        {
          "internalType": "contract IArrakisV2Resolver",
          "name": "resolver_",
          "type": "address"
        }
      ],
      "name": "setResolver",
      "outputs": [],
      "stateMutability": "nonpayable",
      "type": "function"
    },
    {
      "inputs": [
        {
          "internalType": "address",
          "name": "termTreasury_",
          "type": "address"
        }
      ],
      "name": "setTermTreasury",
      "outputs": [],
      "stateMutability": "nonpayable",
      "type": "function"
    },
    {
      "inputs": [
        {
          "internalType": "contract IArrakisV2",
          "name": "vault_",
          "type": "address"
        },
        {
          "internalType": "uint24",
          "name": "twapDuration_",
          "type": "uint24"
        }
      ],
      "name": "setTwapDuration",
      "outputs": [],
      "stateMutability": "nonpayable",
      "type": "function"
    },
    {
      "inputs": [
        {
          "internalType": "address",
          "name": "vault_",
          "type": "address"
        },
        {
          "internalType": "bytes",
          "name": "data_",
          "type": "bytes"
        }
      ],
      "name": "setVaultData",
      "outputs": [],
      "stateMutability": "nonpayable",
      "type": "function"
    },
    {
      "inputs": [
        {
          "internalType": "address",
          "name": "vault_",
          "type": "address"
        },
        {
          "internalType": "string",
          "name": "strat_",
          "type": "string"
        }
      ],
      "name": "setVaultStratByName",
      "outputs": [],
      "stateMutability": "nonpayable",
      "type": "function"
    },
    {
      "inputs": [],
      "name": "termTreasury",
      "outputs": [
        {
          "internalType": "address",
          "name": "",
          "type": "address"
        }
      ],
      "stateMutability": "view",
      "type": "function"
    },
    {
      "inputs": [
        {
          "internalType": "address",
          "name": "newOwner",
          "type": "address"
        }
      ],
      "name": "transferOwnership",
      "outputs": [],
      "stateMutability": "nonpayable",
      "type": "function"
    },
    {
      "inputs": [],
      "name": "v2factory",
      "outputs": [
        {
          "internalType": "contract IArrakisV2Factory",
          "name": "",
          "type": "address"
        }
      ],
      "stateMutability": "view",
      "type": "function"
    },
    {
      "inputs": [
        {
          "internalType": "address",
          "name": "",
          "type": "address"
        },
        {
          "internalType": "uint256",
          "name": "",
          "type": "uint256"
        }
      ],
      "name": "vaults",
      "outputs": [
        {
          "internalType": "address",
          "name": "",
          "type": "address"
        }
      ],
      "stateMutability": "view",
      "type": "function"
    },
    {
      "inputs": [
        {
          "internalType": "address",
          "name": "vault_",
          "type": "address"
        },
        {
          "internalType": "uint256",
          "name": "amount_",
          "type": "uint256"
        },
        {
          "internalType": "address payable",
          "name": "to_",
          "type": "address"
        }
      ],
      "name": "withdrawVaultBalance",
      "outputs": [],
      "stateMutability": "nonpayable",
      "type": "function"
    }
  ],
  "transactionHash": "0x67ecfa8bb4b6a03af6eaeb8663c9886905577d37dd2b36d9a71265c6c6e477fd",
  "args": [
    "0xFBF23A8ADc3998aF469DADdD9E5BA79b196352ba"
  ],
  "solcInputHash": "61443898e3f18195f88d2c02d62c3e45",
  "bytecode": "0x60a06040523480156200001157600080fd5b50604051620053a8380380620053a8833981016040819052620000349162000046565b6001600160a01b031660805262000078565b6000602082840312156200005957600080fd5b81516001600160a01b03811681146200007157600080fd5b9392505050565b60805161530d6200009b600039600081816102200152611859015261530d6000f3fe608060405234801561001057600080fd5b50600436106101a95760003560e01c80637407e38c116100f9578063bd324d3211610097578063ea6b186c11610071578063ea6b186c1461039e578063eaaa9299146103b1578063f2cb118a146103c4578063f2fde38b146103d757600080fd5b8063bd324d3214610365578063bfd7e75214610378578063d0ebdbe71461038b57600080fd5b80638da5cb5b116100d35780638da5cb5b1461031b578063ae5e24c21461032c578063b1ffa5821461033f578063b33d46dc1461035257600080fd5b80637407e38c146102e25780637bbfc69e146102f557806386de14671461030857600080fd5b80634e543b261161016657806357dc1d6a1161014057806357dc1d6a146102a157806368b6702e146102b45780636f22cf97146102c7578063715018a6146102da57600080fd5b80634e543b261461026857806351a6deba1461027b57806356ee72be1461028e57600080fd5b806304f3bcec146101ae578063233fc650146101de57806326c1a7b1146101f3578063330807a91461021b5780633a91f42a14610242578063481c6a7514610255575b600080fd5b6036546101c1906001600160a01b031681565b6040516001600160a01b0390911681526020015b60405180910390f35b6101f16101ec366004614684565b6103ea565b005b60355461020890600160a01b900461ffff1681565b60405161ffff90911681526020016101d5565b6101c17f000000000000000000000000000000000000000000000000000000000000000081565b6101f1610250366004614705565b611289565b6035546101c1906001600160a01b031681565b6101f1610276366004614759565b611380565b6101f1610289366004614785565b61149c565b6101f161029c3660046147cf565b611594565b6101c16102af3660046147fd565b611658565b6101f16102c2366004614847565b611fd4565b6101f16102d53660046148a3565b6122fe565b6101f1612b35565b6101f16102f0366004614705565b612bb8565b6101c16103033660046148d4565b612c7f565b6101f16103163660046148f2565b612cb7565b6000546001600160a01b03166101c1565b6101f161033a366004614978565b612d8b565b6101f161034d3660046149d6565b612e4c565b6101f1610360366004614a15565b612f0b565b6101f16103733660046147cf565b613011565b6101f1610386366004614759565b6130d5565b6101f1610399366004614759565b6131e9565b6034546101c1906001600160a01b031681565b6101f16103bf366004614978565b6132f7565b6101f16103d2366004614684565b6133b8565b6101f16103e5366004614759565b613d22565b6103f76020830183614759565b6001600160a01b0316630dfe16816040518163ffffffff1660e01b8152600401602060405180830381865afa158015610434573d6000803e3d6000fd5b505050506040513d601f19601f820116820180604052508101906104589190614a30565b6104656020840184614759565b6001600160a01b031663d21220a76040518163ffffffff1660e01b8152600401602060405180830381865afa1580156104a2573d6000803e3d6000fd5b505050506040513d601f19601f820116820180604052508101906104c69190614a30565b6040516370a0823160e01b81523060048201526000906001600160a01b038416906370a0823190602401602060405180830381865afa15801561050d573d6000803e3d6000fd5b505050506040513d601f19601f820116820180604052508101906105319190614a4d565b6040516370a0823160e01b81523060048201529091506000906001600160a01b038416906370a0823190602401602060405180830381865afa15801561057b573d6000803e3d6000fd5b505050506040513d601f19601f8201168201806040525081019061059f9190614a4d565b90506105aa85613e1b565b6105cc6105bd6040880160208901614a74565b87604001358860600135613e6e565b336000908152603360209081526040918290208054835181840281018401909452808452610647939283018282801561062e57602002820191906000526020600020905b81546001600160a01b03168152600190910190602001808311610610575b506106429350505060208a01905089614759565b613ede565b5060355442906001600160a01b03166390229af761066860208a018a614759565b6040516001600160e01b031960e084901b1681526001600160a01b039091166004820152602401600060405180830381865afa1580156106ac573d6000803e3d6000fd5b505050506040513d6000823e601f3d908101601f191682016040526106d49190810190614b6f565b608001511061072a5760405162461bcd60e51b815260206004820152601760248201527f5465726d733a207465726d73206973206163746976652e00000000000000000060448201526064015b60405180910390fd5b60008061075061073d60208a018a614759565b60365430906001600160a01b0316613f36565b90925090506107de333060408b013561076c60208d018d614759565b6001600160a01b0316630dfe16816040518163ffffffff1660e01b8152600401602060405180830381865afa1580156107a9573d6000803e3d6000fd5b505050506040513d601f19601f820116820180604052508101906107cd9190614a30565b6001600160a01b03169291906140a6565b610832333060608b01356107f560208d018d614759565b6001600160a01b031663d21220a76040518163ffffffff1660e01b8152600401602060405180830381865afa1580156107a9573d6000803e3d6000fd5b6000808061084660408c0160208d01614a74565b15610b3d5761086f61085c8660408e0135614c6c565b603554600160a01b900461ffff16614117565b925061087e60208c018c614759565b6001600160a01b0316630dfe16816040518163ffffffff1660e01b8152600401602060405180830381865afa1580156108bb573d6000803e3d6000fd5b505050506040513d601f19601f820116820180604052508101906108df9190614a30565b6001600160a01b031663095ea7b36108fa60208e018e614759565b87868f6040013561090b9190614c84565b6109159190614c6c565b6040518363ffffffff1660e01b8152600401610932929190614c9b565b6020604051808303816000875af1158015610951573d6000803e3d6000fd5b505050506040513d601f19601f820116820180604052508101906109759190614cb4565b50603454610a05906001600160a01b03168461099460208f018f614759565b6001600160a01b0316630dfe16816040518163ffffffff1660e01b8152600401602060405180830381865afa1580156109d1573d6000803e3d6000fd5b505050506040513d601f19601f820116820180604052508101906109f59190614a30565b6001600160a01b0316919061413b565b610a1260208c018c614759565b6001600160a01b031663d21220a76040518163ffffffff1660e01b8152600401602060405180830381865afa158015610a4f573d6000803e3d6000fd5b505050506040513d601f19601f82011682018060405250810190610a739190614a30565b6001600160a01b031663095ea7b3610a8e60208e018e614759565b868e60600135610a9e9190614c6c565b6040518363ffffffff1660e01b8152600401610abb929190614c9b565b6020604051808303816000875af1158015610ada573d6000803e3d6000fd5b505050506040513d601f19601f82011682018060405250810190610afe9190614cb4565b50610b338a86858e60400135610b149190614c84565b610b1e9190614c6c565b868e60600135610b2e9190614c6c565b61415a565b9092509050610ddd565b610b4e61085c8560608e0135614c6c565b9250610b5d60208c018c614759565b6001600160a01b0316630dfe16816040518163ffffffff1660e01b8152600401602060405180830381865afa158015610b9a573d6000803e3d6000fd5b505050506040513d601f19601f82011682018060405250810190610bbe9190614a30565b6001600160a01b031663095ea7b3610bd960208e018e614759565b878e60400135610be99190614c6c565b6040518363ffffffff1660e01b8152600401610c06929190614c9b565b6020604051808303816000875af1158015610c25573d6000803e3d6000fd5b505050506040513d601f19601f82011682018060405250810190610c499190614cb4565b50603454610ca5906001600160a01b031684610c6860208f018f614759565b6001600160a01b031663d21220a76040518163ffffffff1660e01b8152600401602060405180830381865afa1580156109d1573d6000803e3d6000fd5b610cb260208c018c614759565b6001600160a01b031663d21220a76040518163ffffffff1660e01b8152600401602060405180830381865afa158015610cef573d6000803e3d6000fd5b505050506040513d601f19601f82011682018060405250810190610d139190614a30565b6001600160a01b031663095ea7b3610d2e60208e018e614759565b86868f60600135610d3f9190614c84565b610d499190614c6c565b6040518363ffffffff1660e01b8152600401610d66929190614c9b565b6020604051808303816000875af1158015610d85573d6000803e3d6000fd5b505050506040513d601f19601f82011682018060405250810190610da99190614cb4565b50610dd78a610dbc8760408f0135614c6c565b86868f60600135610dcd9190614c84565b610b2e9190614c6c565b90925090505b610dea60208c018c614759565b604051633f7b613560e01b815260048101849052602481018390526001600160a01b039190911690633f7b613590604401600060405180830381600087803b158015610e3557600080fd5b505af1158015610e49573d6000803e3d6000fd5b50506035546001600160a01b03169150635c1c3fe19050610e6d60208e018e614759565b6040516001600160e01b031960e084901b1681526001600160a01b039091166004820152602401600060405180830381600087803b158015610eae57600080fd5b505af1158015610ec2573d6000803e3d6000fd5b50610ed49250505060208c018c614759565b6040516394bf804d60e01b8152600481018c90523060248201526001600160a01b0391909116906394bf804d9060440160408051808303816000875af1158015610f22573d6000803e3d6000fd5b505050506040513d601f19601f82011682018060405250810190610f469190614cd1565b50506035546001600160a01b0316635c1c3fe1610f6660208e018e614759565b6040516001600160e01b031960e084901b1681526001600160a01b039091166004820152602401600060405180830381600087803b158015610fa757600080fd5b505af1158015610fbb573d6000803e3d6000fd5b50506035546001600160a01b03169150636f2cbdf09050610fdf60208e018e614759565b6040516001600160e01b031960e084901b1681526001600160a01b039091166004820152602401600060405180830381600087803b15801561102057600080fd5b505af1158015611034573d6000803e3d6000fd5b507fc6c23c4bbbc3cb7b831379a165ad09a48801176ff5e9a73213986a3db573d1f3925033915061106a905060208e018e614759565b604080516001600160a01b039384168152929091166020830152810185905260600160405180910390a150506040516370a0823160e01b8152306004820152600093508592506001600160a01b03881691506370a08231906024015b602060405180830381865afa1580156110e3573d6000803e3d6000fd5b505050506040513d601f19601f820116820180604052508101906111079190614a4d565b6111119190614c84565b6040516370a0823160e01b815230600482015290915060009083906001600160a01b038716906370a0823190602401602060405180830381865afa15801561115d573d6000803e3d6000fd5b505050506040513d601f19601f820116820180604052508101906111819190614a4d565b61118b9190614c84565b905081156112065760405163a9059cbb60e01b81526001600160a01b0387169063a9059cbb906111c19033908690600401614c9b565b6020604051808303816000875af11580156111e0573d6000803e3d6000fd5b505050506040513d601f19601f820116820180604052508101906112049190614cb4565b505b801561127f5760405163a9059cbb60e01b81526001600160a01b0386169063a9059cbb9061123a9033908590600401614c9b565b6020604051808303816000875af1158015611259573d6000803e3d6000fd5b505050506040513d601f19601f8201168201806040525081019061127d9190614cb4565b505b5050505050505050565b826001600160a01b0381166112b05760405162461bcd60e51b815260040161072190614cf5565b33600090815260336020908152604091829020805483518184028101840190945280845261131d939283018282801561131257602002820191906000526020600020905b81546001600160a01b031681526001909101906020018083116112f4575b505050505085613ede565b5060355460405163152f2bb760e01b81526001600160a01b039091169063152f2bb79061135290879087908790600401614d4b565b600060405180830381600087803b15801561136c57600080fd5b505af115801561127f573d6000803e3d6000fd5b336113936000546001600160a01b031690565b6001600160a01b0316146113b95760405162461bcd60e51b815260040161072190614d79565b806001600160a01b0381166113e05760405162461bcd60e51b815260040161072190614cf5565b6036546001600160a01b0380841691160361143d5760405162461bcd60e51b815260206004820152601760248201527f5465726d733a20616c7265616479207265736f6c7665720000000000000000006044820152606401610721565b603680546001600160a01b031981166001600160a01b038581169182179093556040805193909216835260208301527f6cb59c795917577ec693948e42535bd42e4c7784893c9fff6d7b7102f64a1d7291015b60405180910390a15050565b816001600160a01b0381166114c35760405162461bcd60e51b815260040161072190614cf5565b336000908152603360209081526040918290208054835181840281018401909452808452611530939283018282801561152557602002820191906000526020600020905b81546001600160a01b03168152600190910190602001808311611507575b505050505084613ede565b50604051631e5ff9ff60e11b8152600283900b60048201526001600160a01b03841690633cbff3fe906024015b600060405180830381600087803b15801561157757600080fd5b505af115801561158b573d6000803e3d6000fd5b50505050505050565b816001600160a01b0381166115bb5760405162461bcd60e51b815260040161072190614cf5565b3360009081526033602090815260409182902080548351818402810184019094528084526116269392830182828015611525576020028201919060005260206000209081546001600160a01b0316815260019091019060200180831161150757505050505084613ede565b5060405163138e02ad60e21b815262ffffff831660048201526001600160a01b03841690634e380ab49060240161155d565b600061166a6040840160208501614759565b61167a6060850160408601614759565b6040516370a0823160e01b81523060048201526000906001600160a01b038416906370a0823190602401602060405180830381865afa1580156116c1573d6000803e3d6000fd5b505050506040513d601f19601f820116820180604052508101906116e59190614a4d565b6040516370a0823160e01b81523060048201529091506000906001600160a01b038416906370a0823190602401602060405180830381865afa15801561172f573d6000803e3d6000fd5b505050506040513d601f19601f820116820180604052508101906117539190614a4d565b905061175e86613e1b565b6117826117716080890160608a01614a74565b886101000135896101200135613e6e565b6117aa6117956040890160208a01614759565b6117a560608a0160408b01614759565b61418f565b3060006117e96117c060808b0160608c01614a74565b6117cf5789610120013561085c565b89610100013560355461ffff600160a01b90910416614117565b90506000806118538a61180260808e0160608f01614a74565b611811578c6101000135611820565b611820856101008f0135614c84565b8d60600160208101906118339190614a74565b61184857858e6101200135610b2e9190614c84565b8d610120013561415a565b915091507f00000000000000000000000000000000000000000000000000000000000000006001600160a01b031663a7565ea16040518061014001604052808e80600001906118a29190614dae565b80806020026020016040519081016040528093929190818152602001838360200280828437600081840152601f19601f8201169050808301925050505050505081526020018e60200160208101906118fa9190614759565b6001600160a01b031681526020018e604001602081019061191b9190614759565b6001600160a01b03168152602001876001600160a01b03168152602001858152602001848152602001603560009054906101000a90046001600160a01b03166001600160a01b031681526020018e60a001602081019061197b9190614df7565b60020b81526020018e60c00160208101906119969190614e14565b62ffffff1681526020018e60e00160208101906119b39190614e14565b62ffffff168152506040518263ffffffff1660e01b81526004016119d79190614e71565b6020604051808303816000875af11580156119f6573d6000803e3d6000fd5b505050506040513d601f19601f82011682018060405250810190611a1a9190614a30565b9850889150611a3a9050611a3460a08c0160808d01614759565b896141f4565b6035546001600160a01b031663ded2df7189611a5a6101408e018e614f49565b8e806101600190611a6b9190614f49565b6040518663ffffffff1660e01b8152600401611a8b959493929190614f8f565b600060405180830381600087803b158015611aa557600080fd5b505af1158015611ab9573d6000803e3d6000fd5b50505050611adb33848c61010001358d60200160208101906107cd9190614759565b611af933848c61012001358d60400160208101906107cd9190614759565b611b0960408b0160208c01614759565b6001600160a01b031663095ea7b389611b2860808e0160608f01614a74565b611b37578c6101000135611b46565b611b46856101008f0135614c84565b6040518363ffffffff1660e01b8152600401611b63929190614c9b565b6020604051808303816000875af1158015611b82573d6000803e3d6000fd5b505050506040513d601f19601f82011682018060405250810190611ba69190614cb4565b50611bb760808b0160608c01614a74565b611be157603454611bdc906001600160a01b0316836109f560608e0160408f01614759565b611c02565b603454611c02906001600160a01b0316836109f560408e0160208f01614759565b611c1260608b0160408c01614759565b6001600160a01b031663095ea7b389611c3160808e0160608f01614a74565b611c4957611c44856101208f0135614c84565b611c50565b8c61012001355b6040518363ffffffff1660e01b8152600401611c6d929190614c9b565b6020604051808303816000875af1158015611c8c573d6000803e3d6000fd5b505050506040513d601f19601f82011682018060405250810190611cb09190614cb4565b506040516394bf804d60e01b8152600481018a90526001600160a01b0384811660248301528216906394bf804d9060440160408051808303816000875af1158015611cff573d6000803e3d6000fd5b505050506040513d601f19601f82011682018060405250810190611d239190614cd1565b5050603554604051635c1c3fe160e01b81526001600160a01b038a8116600483015290911690635c1c3fe190602401600060405180830381600087803b158015611d6c57600080fd5b505af1158015611d80573d6000803e3d6000fd5b507fd30f500bb012dbc7bda64ed7db981183e1b9f921242b72ff61894165aa3bff449250611db791505060a08c0160808d01614759565b604080516001600160a01b039283168152918b166020830152810184905260600160405180910390a150506040516370a0823160e01b81523060048201526000915083906001600160a01b038716906370a0823190602401602060405180830381865afa158015611e2c573d6000803e3d6000fd5b505050506040513d601f19601f82011682018060405250810190611e509190614a4d565b611e5a9190614c84565b6040516370a0823160e01b815230600482015290915060009083906001600160a01b038716906370a0823190602401602060405180830381865afa158015611ea6573d6000803e3d6000fd5b505050506040513d601f19601f82011682018060405250810190611eca9190614a4d565b611ed49190614c84565b90508115611f4f5760405163a9059cbb60e01b81526001600160a01b0387169063a9059cbb90611f0a9033908690600401614c9b565b6020604051808303816000875af1158015611f29573d6000803e3d6000fd5b505050506040513d601f19601f82011682018060405250810190611f4d9190614cb4565b505b8015611fc85760405163a9059cbb60e01b81526001600160a01b0386169063a9059cbb90611f839033908590600401614c9b565b6020604051808303816000875af1158015611fa2573d6000803e3d6000fd5b505050506040513d601f19601f82011682018060405250810190611fc69190614cb4565b505b50505050505092915050565b816001600160a01b038116611ffb5760405162461bcd60e51b815260040161072190614cf5565b836001600160a01b0381166120225760405162461bcd60e51b815260040161072190614cf5565b336000908152603360209081526040808320805482518185028101850190935280835261208d9383018282801561208257602002820191906000526020600020905b81546001600160a01b03168152600190910190602001808311612064575b505050505088613ede565b33600090815260336020526040902080549192508891839081106120b3576120b3614fd3565b6000918252602082200180546001600160a01b031916905560365481906120e6908b9030906001600160a01b0316613f36565b909250905081156121345761213489838c6001600160a01b0316630dfe16816040518163ffffffff1660e01b8152600401602060405180830381865afa1580156109d1573d6000803e3d6000fd5b801561217d5761217d89828c6001600160a01b031663d21220a76040518163ffffffff1660e01b8152600401602060405180830381865afa1580156109d1573d6000803e3d6000fd5b60355460405163b7d3824360e01b81526001600160a01b038c811660048301528b811660248301529091169063b7d3824390604401600060405180830381600087803b1580156121cc57600080fd5b505af11580156121e0573d6000803e3d6000fd5b505060405163d0ebdbe760e01b81526001600160a01b038a811660048301528d16925063d0ebdbe79150602401600060405180830381600087803b15801561222757600080fd5b505af115801561223b573d6000803e3d6000fd5b505060405163f2fde38b60e01b81526001600160a01b038b811660048301528d16925063f2fde38b9150602401600060405180830381600087803b15801561228257600080fd5b505af1158015612296573d6000803e3d6000fd5b5050604080513381526001600160a01b038781166020830152818301879052606082018690528d16608082015290517f1995b488d04e8e916b5fe7712a74ded2a2f1a1c34bbc77ec3aa4aebeadce1fc793509081900360a0019150a150505050505050505050565b61230b6020830183614759565b6001600160a01b0316630dfe16816040518163ffffffff1660e01b8152600401602060405180830381865afa158015612348573d6000803e3d6000fd5b505050506040513d601f19601f8201168201806040525081019061236c9190614a30565b6123796020840184614759565b6001600160a01b031663d21220a76040518163ffffffff1660e01b8152600401602060405180830381865afa1580156123b6573d6000803e3d6000fd5b505050506040513d601f19601f820116820180604052508101906123da9190614a30565b6040516370a0823160e01b81523060048201526000906001600160a01b038416906370a0823190602401602060405180830381865afa158015612421573d6000803e3d6000fd5b505050506040513d601f19601f820116820180604052508101906124459190614a4d565b6040516370a0823160e01b81523060048201529091506000906001600160a01b038416906370a0823190602401602060405180830381865afa15801561248f573d6000803e3d6000fd5b505050506040513d601f19601f820116820180604052508101906124b39190614a4d565b90506124be85613e1b565b336000908152603360209081526040918290208054835181840281018401909452808452612532939283018282801561062e576020028201919060005260206000209081546001600160a01b0316815260019091019060200180831161061057506106429350505060208a01905089614759565b503060008061255a61254760208b018b614759565b60365485906001600160a01b0316613f36565b91509150818960400135106125bc5760405162461bcd60e51b815260206004820152602260248201527f5465726d733a2073656e64206261636b20616d6f756e7430203e20616d6f756e604482015261074360f41b6064820152608401610721565b8089606001351061261a5760405162461bcd60e51b815260206004820152602260248201527f5465726d733a2073656e64206261636b20616d6f756e7431203e20616d6f756e604482015261743160f01b6064820152608401610721565b600061262960208b018b614759565b6001600160a01b0316630dfe16816040518163ffffffff1660e01b8152600401602060405180830381865afa158015612666573d6000803e3d6000fd5b505050506040513d601f19601f8201168201806040525081019061268a9190614a30565b9050600061269b60208c018c614759565b6001600160a01b031663d21220a76040518163ffffffff1660e01b8152600401602060405180830381865afa1580156126d8573d6000803e3d6000fd5b505050506040513d601f19601f820116820180604052508101906126fc9190614a30565b905061272661271160a08d0160808e01614759565b6001600160a01b0384169060408e013561413b565b61274e61273960a08d0160808e01614759565b6001600160a01b0383169060608e013561413b565b6001600160a01b03821663095ea7b361276a60208e018e614759565b61277860408f013588614c84565b6040518363ffffffff1660e01b8152600401612795929190614c9b565b6020604051808303816000875af11580156127b4573d6000803e3d6000fd5b505050506040513d601f19601f820116820180604052508101906127d89190614cb4565b506001600160a01b03811663095ea7b36127f560208e018e614759565b61280360608f013587614c84565b6040518363ffffffff1660e01b8152600401612820929190614c9b565b6020604051808303816000875af115801561283f573d6000803e3d6000fd5b505050506040513d601f19601f820116820180604052508101906128639190614cb4565b5060008061288b8c8e604001358861287b9190614c84565b8f6060013588610b2e9190614c84565b909250905061289d60208e018e614759565b604051633f7b613560e01b815260048101849052602481018390526001600160a01b039190911690633f7b613590604401600060405180830381600087803b1580156128e857600080fd5b505af11580156128fc573d6000803e3d6000fd5b50505050603560009054906101000a90046001600160a01b03166001600160a01b0316635c1c3fe18e60000160208101906129379190614759565b6040516001600160e01b031960e084901b1681526001600160a01b039091166004820152602401600060405180830381600087803b15801561297857600080fd5b505af115801561298c573d6000803e3d6000fd5b5061299e9250505060208e018e614759565b6040516394bf804d60e01b8152600481018e90526001600160a01b03898116602483015291909116906394bf804d9060440160408051808303816000875af11580156129ee573d6000803e3d6000fd5b505050506040513d601f19601f82011682018060405250810190612a129190614cd1565b5050603560009054906101000a90046001600160a01b03166001600160a01b0316635c1c3fe18e6000016020810190612a4b9190614759565b6040516001600160e01b031960e084901b1681526001600160a01b039091166004820152602401600060405180830381600087803b158015612a8c57600080fd5b505af1158015612aa0573d6000803e3d6000fd5b505050507fd948940eaf1c92930816150587987430bba23719ae75eb2a086f411240e912c1338e6000016020810190612ad99190614759565b604080516001600160a01b0393841681529290911660208301520160405180910390a150506040516370a0823160e01b8152306004820152600095508794506001600160a01b038a1693506370a08231925060240190506110c6565b33612b486000546001600160a01b031690565b6001600160a01b031614612b6e5760405162461bcd60e51b815260040161072190614d79565b600080546040516001600160a01b03909116907f8be0079c531659141344cd1fd0a4f28419497f9722a3daafe3b4186f6b6457e0908390a3600080546001600160a01b0319169055565b826001600160a01b038116612bdf5760405162461bcd60e51b815260040161072190614cf5565b336000908152603360209081526040918290208054835181840281018401909452808452612c4a9392830182828015611312576020028201919060005260206000209081546001600160a01b031681526001909101906020018083116112f457505050505085613ede565b50603554604051631d01f8e360e21b81526001600160a01b0390911690637407e38c9061135290879087908790600401614d4b565b60336020528160005260406000208181548110612c9b57600080fd5b6000918252602090912001546001600160a01b03169150829050565b826001600160a01b038116612cde5760405162461bcd60e51b815260040161072190614cf5565b336000908152603360209081526040918290208054835181840281018401909452808452612d499392830182828015611312576020028201919060005260206000209081546001600160a01b031681526001909101906020018083116112f457505050505085613ede565b506035546040516386de146760e01b81526001600160a01b038681166004830152602482018690528481166044830152909116906386de146790606401611352565b826001600160a01b038116612db25760405162461bcd60e51b815260040161072190614cf5565b336000908152603360209081526040918290208054835181840281018401909452808452612e1d9392830182828015611312576020028201919060005260206000209081546001600160a01b031681526001909101906020018083116112f457505050505085613ede565b506040516386ac1cb960e01b81526001600160a01b038516906386ac1cb9906113529086908690600401614fe9565b603554612710600160a01b90910461ffff1610612eab5760405162461bcd60e51b815260206004820152601960248201527f5465726d733a20656d6f6c756d656e74203e3d20313030252e000000000000006044820152606401610721565b600080546001600160a01b039586166001600160a01b03199182161790915560348054948616948216949094179093556035805461ffff909316600160a01b0261ffff60a01b199093169290921790915560368054919093169116179055565b33612f1e6000546001600160a01b031690565b6001600160a01b031614612f445760405162461bcd60e51b815260040161072190614d79565b60355461ffff600160a01b909104811690821610612fb25760405162461bcd60e51b815260206004820152602560248201527f5465726d733a206e657720656d6f6c756d656e74203e3d206f6c6420656d6f6c6044820152641d5b595b9d60da1b6064820152608401610721565b6035805461ffff838116600160a01b81810261ffff60a01b198516179094556040805194909304909116835260208301527f7179ea06c1633dd908ac95e2c4749f1063eadecbe01501941080e07bb96764db910160405180910390a150565b816001600160a01b0381166130385760405162461bcd60e51b815260040161072190614cf5565b3360009081526033602090815260409182902080548351818402810184019094528084526130a39392830182828015611525576020028201919060005260206000209081546001600160a01b0316815260019091019060200180831161150757505050505084613ede565b50604051633926ab5f60e01b815262ffffff831660048201526001600160a01b03841690633926ab5f9060240161155d565b336130e86000546001600160a01b031690565b6001600160a01b03161461310e5760405162461bcd60e51b815260040161072190614d79565b806001600160a01b0381166131355760405162461bcd60e51b815260040161072190614cf5565b6034546001600160a01b038084169116036131925760405162461bcd60e51b815260206004820152601c60248201527f5465726d733a20616c7265616479207465726d207472656173757279000000006044820152606401610721565b603480546001600160a01b031981166001600160a01b038581169182179093556040805193909216835260208301527fdaecbed9cdf338cbedbd120eefc62bec9856ad3657ea396258b681e6bc17bed59101611490565b336131fc6000546001600160a01b031690565b6001600160a01b0316146132225760405162461bcd60e51b815260040161072190614d79565b806001600160a01b0381166132495760405162461bcd60e51b815260040161072190614cf5565b6035546001600160a01b03908116908316036132a05760405162461bcd60e51b81526020600482015260166024820152752a32b936b99d1030b63932b0b23c9036b0b730b3b2b960511b6044820152606401610721565b603580546001600160a01b031981166001600160a01b038581169182179093556040805193909216835260208301527f8d235c6c97ff1b07a41b6b8ac6ea040a6a6b411b20a0f02f02946fa45590bcfc9101611490565b826001600160a01b03811661331e5760405162461bcd60e51b815260040161072190614cf5565b3360009081526033602090815260409182902080548351818402810184019094528084526133899392830182828015611312576020028201919060005260206000209081546001600160a01b031681526001909101906020018083116112f457505050505085613ede565b5060405163012c590560e61b81526001600160a01b03851690634b164140906113529086908690600401615033565b6133c56020830183614759565b6001600160a01b0316630dfe16816040518163ffffffff1660e01b8152600401602060405180830381865afa158015613402573d6000803e3d6000fd5b505050506040513d601f19601f820116820180604052508101906134269190614a30565b6134336020840184614759565b6001600160a01b031663d21220a76040518163ffffffff1660e01b8152600401602060405180830381865afa158015613470573d6000803e3d6000fd5b505050506040513d601f19601f820116820180604052508101906134949190614a30565b6040516370a0823160e01b81523060048201526000906001600160a01b038416906370a0823190602401602060405180830381865afa1580156134db573d6000803e3d6000fd5b505050506040513d601f19601f820116820180604052508101906134ff9190614a4d565b6040516370a0823160e01b81523060048201529091506000906001600160a01b038416906370a0823190602401602060405180830381865afa158015613549573d6000803e3d6000fd5b505050506040513d601f19601f8201168201806040525081019061356d9190614a4d565b905061357885613e1b565b61358b6105bd6040880160208901614a74565b3360009081526033602090815260409182902080548351818402810184019094528084526135ff939283018282801561062e576020028201919060005260206000209081546001600160a01b0316815260019091019060200180831161061057506106429350505060208a01905089614759565b5060008061361361073d60208a018a614759565b909250905061362f333060408b013561076c60208d018d614759565b613646333060608b01356107f560208d018d614759565b6000808061365a60408c0160208d01614a74565b156138ba5760355461367c9060408d013590600160a01b900461ffff16614117565b925061368b60208c018c614759565b6001600160a01b0316630dfe16816040518163ffffffff1660e01b8152600401602060405180830381865afa1580156136c8573d6000803e3d6000fd5b505050506040513d601f19601f820116820180604052508101906136ec9190614a30565b6001600160a01b031663095ea7b361370760208e018e614759565b87868f604001356137189190614c84565b6137229190614c6c565b6040518363ffffffff1660e01b815260040161373f929190614c9b565b6020604051808303816000875af115801561375e573d6000803e3d6000fd5b505050506040513d601f19601f820116820180604052508101906137829190614cb4565b506034546137a1906001600160a01b03168461099460208f018f614759565b6137ae60208c018c614759565b6001600160a01b031663d21220a76040518163ffffffff1660e01b8152600401602060405180830381865afa1580156137eb573d6000803e3d6000fd5b505050506040513d601f19601f8201168201806040525081019061380f9190614a30565b6001600160a01b031663095ea7b361382a60208e018e614759565b868e6060013561383a9190614c6c565b6040518363ffffffff1660e01b8152600401613857929190614c9b565b6020604051808303816000875af1158015613876573d6000803e3d6000fd5b505050506040513d601f19601f8201168201806040525081019061389a9190614cb4565b506138b08a86858e60400135610b149190614c84565b9092509050613b0e565b6035546138d79060608d013590600160a01b900461ffff16614117565b92506138e660208c018c614759565b6001600160a01b0316630dfe16816040518163ffffffff1660e01b8152600401602060405180830381865afa158015613923573d6000803e3d6000fd5b505050506040513d601f19601f820116820180604052508101906139479190614a30565b6001600160a01b031663095ea7b361396260208e018e614759565b878e604001356139729190614c6c565b6040518363ffffffff1660e01b815260040161398f929190614c9b565b6020604051808303816000875af11580156139ae573d6000803e3d6000fd5b505050506040513d601f19601f820116820180604052508101906139d29190614cb4565b506034546139f1906001600160a01b031684610c6860208f018f614759565b6139fe60208c018c614759565b6001600160a01b031663d21220a76040518163ffffffff1660e01b8152600401602060405180830381865afa158015613a3b573d6000803e3d6000fd5b505050506040513d601f19601f82011682018060405250810190613a5f9190614a30565b6001600160a01b031663095ea7b3613a7a60208e018e614759565b86868f60600135613a8b9190614c84565b613a959190614c6c565b6040518363ffffffff1660e01b8152600401613ab2929190614c9b565b6020604051808303816000875af1158015613ad1573d6000803e3d6000fd5b505050506040513d601f19601f82011682018060405250810190613af59190614cb4565b50613b088a610dbc8760408f0135614c6c565b90925090505b613b1b60208c018c614759565b604051633f7b613560e01b815260048101849052602481018390526001600160a01b039190911690633f7b613590604401600060405180830381600087803b158015613b6657600080fd5b505af1158015613b7a573d6000803e3d6000fd5b50506035546001600160a01b03169150635c1c3fe19050613b9e60208e018e614759565b6040516001600160e01b031960e084901b1681526001600160a01b039091166004820152602401600060405180830381600087803b158015613bdf57600080fd5b505af1158015613bf3573d6000803e3d6000fd5b50613c059250505060208c018c614759565b6040516394bf804d60e01b8152600481018c90523060248201526001600160a01b0391909116906394bf804d9060440160408051808303816000875af1158015613c53573d6000803e3d6000fd5b505050506040513d601f19601f82011682018060405250810190613c779190614cd1565b50506035546001600160a01b0316635c1c3fe1613c9760208e018e614759565b6040516001600160e01b031960e084901b1681526001600160a01b039091166004820152602401600060405180830381600087803b158015613cd857600080fd5b505af1158015613cec573d6000803e3d6000fd5b507f1a16fdf8daa6a93a078bec0d3138fddeb826aac77e804b68d7b9d9ea6b3a8d8e925033915061106a905060208e018e614759565b33613d356000546001600160a01b031690565b6001600160a01b031614613d5b5760405162461bcd60e51b815260040161072190614d79565b6001600160a01b038116613dc05760405162461bcd60e51b815260206004820152602660248201527f4f776e61626c653a206e6577206f776e657220697320746865207a65726f206160448201526564647265737360d01b6064820152608401610721565b600080546040516001600160a01b03808516939216917f8be0079c531659141344cd1fd0a4f28419497f9722a3daafe3b4186f6b6457e091a3600080546001600160a01b0319166001600160a01b0392909216919091179055565b60008111613e6b5760405162461bcd60e51b815260206004820152601760248201527f5465726d733a206d696e74416d6f756e74207a65726f2e0000000000000000006044820152606401610721565b50565b82613e7c5760008111613e81565b600082115b613ed95760405162461bcd60e51b815260206004820152602360248201527f5465726d733a206e6f2070726f6a65637420746f6b656e20616c6c6f6361746960448201526237b71760e91b6064820152608401610721565b505050565b600080613eeb848461430d565b9250905080613f2f5760405162461bcd60e51b815260206004820152601060248201526f2a32b936b99d103737ba1037bbb732b960811b6044820152606401610721565b5092915050565b6040516370a0823160e01b81526001600160a01b03838116600483015260009182918291908716906370a0823190602401602060405180830381865afa158015613f84573d6000803e3d6000fd5b505050506040513d601f19601f82011682018060405250810190613fa89190614a4d565b6040516330c3f3f760e21b8152600481018290526001600160a01b03888116602483015291925060009186169063c30fcfdc90604401600060405180830381865afa158015613ffb573d6000803e3d6000fd5b505050506040513d6000823e601f3d908101601f191682016040526140239190810190615076565b60405163f4effe4160e01b81529091506001600160a01b0388169063f4effe419061405690849086908b9060040161519f565b60408051808303816000875af1158015614074573d6000803e3d6000fd5b505050506040513d601f19601f820116820180604052508101906140989190614cd1565b909890975095505050505050565b6040516001600160a01b03808516602483015283166044820152606481018290526141119085906323b872dd60e01b906084015b60408051601f198184030181529190526020810180516001600160e01b03166001600160e01b031990931692909217909152614375565b50505050565b600061271061412a61ffff84168561522e565b614134919061524d565b9392505050565b613ed98363a9059cbb60e01b84846040516024016140da929190614c9b565b60008061417084670de0b6b3a764000087614447565b915061418583670de0b6b3a764000087614447565b9050935093915050565b806001600160a01b0316826001600160a01b0316106141f05760405162461bcd60e51b815260206004820152601d60248201527f5465726d733a20746f6b656e73206f7264657220696e7665727465642e0000006044820152606401610721565b5050565b6001600160a01b0382166000908152603360205260408120905b815481101561429c57826001600160a01b031682828154811061423357614233614fd3565b6000918252602090912001546001600160a01b03160361428a5760405162461bcd60e51b815260206004820152601260248201527115195c9b5cce881d985d5b1d08195e1a5cdd60721b6044820152606401610721565b806142948161526f565b91505061420e565b508054600181018255600082815260209081902090910180546001600160a01b0319166001600160a01b03858116918217909255604080519287168352928201527f7f03ac7449144076e2d9d5a237c3ff0d0108e0a2ebdd5213c4b0de6f4d4f6953910160405180910390a1505050565b6000805b835181101561436757826001600160a01b031684828151811061433657614336614fd3565b60200260200101516001600160a01b031603614355576001915061436e565b8061435f8161526f565b915050614311565b5060009050805b9250929050565b60006143ca826040518060400160405280602081526020017f5361666545524332303a206c6f772d6c6576656c2063616c6c206661696c6564815250856001600160a01b03166144f49092919063ffffffff16565b805190915015613ed957808060200190518101906143e89190614cb4565b613ed95760405162461bcd60e51b815260206004820152602a60248201527f5361666545524332303a204552433230206f7065726174696f6e20646964206e6044820152691bdd081cdd58d8d9595960b21b6064820152608401610721565b6000808060001985870985870292508281108382030391505080600003614480576000841161447557600080fd5b508290049050614134565b80841161448c57600080fd5b600084868809600260036001881981018916988990049182028318808302840302808302840302808302840302808302840302808302840302918202909203026000889003889004909101858311909403939093029303949094049190911702949350505050565b6060614503848460008561450b565b949350505050565b60608247101561456c5760405162461bcd60e51b815260206004820152602660248201527f416464726573733a20696e73756666696369656e742062616c616e636520666f6044820152651c8818d85b1b60d21b6064820152608401610721565b843b6145ba5760405162461bcd60e51b815260206004820152601d60248201527f416464726573733a2063616c6c20746f206e6f6e2d636f6e74726163740000006044820152606401610721565b600080866001600160a01b031685876040516145d69190615288565b60006040518083038185875af1925050503d8060008114614613576040519150601f19603f3d011682016040523d82523d6000602084013e614618565b606091505b5091509150614628828286614633565b979650505050505050565b60608315614642575081614134565b8251156146525782518084602001fd5b8160405162461bcd60e51b815260040161072191906152a4565b60006080828403121561467e57600080fd5b50919050565b60008060a0838503121561469757600080fd5b6146a1848461466c565b946080939093013593505050565b6001600160a01b0381168114613e6b57600080fd5b60008083601f8401126146d657600080fd5b5081356001600160401b038111156146ed57600080fd5b60208301915083602082850101111561436e57600080fd5b60008060006040848603121561471a57600080fd5b8335614725816146af565b925060208401356001600160401b0381111561474057600080fd5b61474c868287016146c4565b9497909650939450505050565b60006020828403121561476b57600080fd5b8135614134816146af565b8060020b8114613e6b57600080fd5b6000806040838503121561479857600080fd5b82356147a3816146af565b915060208301356147b381614776565b809150509250929050565b62ffffff81168114613e6b57600080fd5b600080604083850312156147e257600080fd5b82356147ed816146af565b915060208301356147b3816147be565b6000806040838503121561481057600080fd5b82356001600160401b0381111561482657600080fd5b8301610180818603121561483957600080fd5b946020939093013593505050565b6000806000806080858703121561485d57600080fd5b8435614868816146af565b93506020850135614878816146af565b92506040850135614888816146af565b91506060850135614898816146af565b939692955090935050565b60008082840360c08112156148b757600080fd5b60a08112156148c557600080fd5b50919360a08501359350915050565b600080604083850312156148e757600080fd5b8235614839816146af565b60008060006060848603121561490757600080fd5b8335614912816146af565b9250602084013591506040840135614929816146af565b809150509250925092565b60008083601f84011261494657600080fd5b5081356001600160401b0381111561495d57600080fd5b6020830191508360208260051b850101111561436e57600080fd5b60008060006040848603121561498d57600080fd5b8335614998816146af565b925060208401356001600160401b038111156149b357600080fd5b61474c86828701614934565b803561ffff811681146149d157600080fd5b919050565b600080600080608085870312156149ec57600080fd5b84356149f7816146af565b93506020850135614a07816146af565b9250614888604086016149bf565b600060208284031215614a2757600080fd5b614134826149bf565b600060208284031215614a4257600080fd5b8151614134816146af565b600060208284031215614a5f57600080fd5b5051919050565b8015158114613e6b57600080fd5b600060208284031215614a8657600080fd5b813561413481614a66565b634e487b7160e01b600052604160045260246000fd5b60405160a081016001600160401b0381118282101715614ac957614ac9614a91565b60405290565b604080519081016001600160401b0381118282101715614ac957614ac9614a91565b604051606081016001600160401b0381118282101715614ac957614ac9614a91565b604051601f8201601f191681016001600160401b0381118282101715614b3b57614b3b614a91565b604052919050565b60005b83811015614b5e578181015183820152602001614b46565b838111156141115750506000910152565b60006020808385031215614b8257600080fd5b82516001600160401b0380821115614b9957600080fd5b9084019060a08287031215614bad57600080fd5b614bb5614aa7565b825181528383015184820152604083015182811115614bd357600080fd5b8301601f81018813614be457600080fd5b805183811115614bf657614bf6614a91565b614c08601f8201601f19168701614b13565b93508084528886828401011115614c1e57600080fd5b614c2d81878601888501614b43565b505081604082015260608301516060820152608083015160808201528094505050505092915050565b634e487b7160e01b600052601160045260246000fd5b60008219821115614c7f57614c7f614c56565b500190565b600082821015614c9657614c96614c56565b500390565b6001600160a01b03929092168252602082015260400190565b600060208284031215614cc657600080fd5b815161413481614a66565b60008060408385031215614ce457600080fd5b505080516020909101519092909150565b6020808252601390820152725465726d733a2061646472657373205a65726f60681b604082015260600190565b81835281816020850137506000828201602090810191909152601f909101601f19169091010190565b6001600160a01b0384168152604060208201819052600090614d709083018486614d22565b95945050505050565b6020808252818101527f4f776e61626c653a2063616c6c6572206973206e6f7420746865206f776e6572604082015260600190565b6000808335601e19843603018112614dc557600080fd5b8301803591506001600160401b03821115614ddf57600080fd5b6020019150600581901b360382131561436e57600080fd5b600060208284031215614e0957600080fd5b813561413481614776565b600060208284031215614e2657600080fd5b8135614134816147be565b600081518084526020808501945080840160005b83811015614e6657815162ffffff1687529582019590820190600101614e45565b509495945050505050565b6020815260008251610140806020850152614e90610160850183614e31565b91506020850151614eac60408601826001600160a01b03169052565b5060408501516001600160a01b03811660608601525060608501516001600160a01b038116608086015250608085015160a085015260a085015160c085015260c0850151614f0560e08601826001600160a01b03169052565b5060e0850151610100614f1c8187018360020b9052565b8601519050610120614f348682018362ffffff169052565b9095015162ffffff1693019290925250919050565b6000808335601e19843603018112614f6057600080fd5b8301803591506001600160401b03821115614f7a57600080fd5b60200191503681900382131561436e57600080fd5b6001600160a01b0386168152606060208201819052600090614fb49083018688614d22565b8281036040840152614fc7818587614d22565b98975050505050505050565b634e487b7160e01b600052603260045260246000fd5b60208082528181018390526000908460408401835b86811015615028578235615011816147be565b62ffffff1682529183019190830190600101614ffe565b509695505050505050565b60208082528181018390526000908460408401835b8681101561502857823561505b816146af565b6001600160a01b031682529183019190830190600101615048565b6000602080838503121561508957600080fd5b82516001600160401b03808211156150a057600080fd5b818501915085601f8301126150b457600080fd5b8151818111156150c6576150c6614a91565b6150d4848260051b01614b13565b818152848101925060079190911b8301840190878211156150f457600080fd5b928401925b818410156146285783880360808112156151135760008081fd5b61511b614acf565b85516001600160801b03811681146151335760008081fd5b81526060601f1983018113156151495760008081fd5b615151614af1565b92508787015161516081614776565b835260408781015161517181614776565b848a01529087015190615183826147be565b83015280870191909152835260809390930192918401916150f9565b6060808252845182820181905260009190608090818501906020808a01865b8381101561520d57815180516001600160801b031686528301518051600290810b8588015281850151900b604080880191909152015162ffffff168786015293850193908201906001016151be565b50508601889052506001600160a01b03861660408601529250614503915050565b600081600019048311821515161561524857615248614c56565b500290565b60008261526a57634e487b7160e01b600052601260045260246000fd5b500490565b60006001820161528157615281614c56565b5060010190565b6000825161529a818460208701614b43565b9190910192915050565b60208152600082518060208401526152c3816040850160208701614b43565b601f01601f1916919091016040019291505056fea26469706673582212205c8305933746fcfd5664b20ee3f8be5093d529114c8ccdc795114f4d8c553eda64736f6c634300080d0033",
  "devdoc": {
    "kind": "dev",
    "methods": {
      "owner()": {
        "details": "Returns the address of the current owner."
      },
      "renounceOwnership()": {
        "details": "Leaves the contract without owner. It will not be possible to call `onlyOwner` functions anymore. Can only be called by the current owner. NOTE: Renouncing ownership will leave the contract without an owner, thereby removing any functionality that is only available to the owner."
      },
      "transferOwnership(address)": {
        "details": "Transfers ownership of the contract to a new account (`newOwner`). Can only be called by the current owner."
      }
    },
    "version": 1
  },
  "userdoc": {
    "kind": "user",
    "methods": {
      "openTerm((uint24[],address,address,bool,address,int24,uint24,uint24,uint256,uint256,bytes,string),uint256)": {
        "notice": "do all neccesary step to initialize market making."
      }
    },
    "version": 1
  },
  "storageLayout": {
    "storage": [
      {
        "astId": 5746,
        "contract": "contracts/Terms.sol:Terms",
        "label": "_owner",
        "offset": 0,
        "slot": "0",
        "type": "t_address"
      },
      {
        "astId": 6,
        "contract": "contracts/Terms.sol:Terms",
        "label": "_initialized",
        "offset": 20,
        "slot": "0",
        "type": "t_bool"
      },
      {
        "astId": 9,
        "contract": "contracts/Terms.sol:Terms",
        "label": "_initializing",
        "offset": 21,
        "slot": "0",
        "type": "t_bool"
      },
      {
        "astId": 200,
        "contract": "contracts/Terms.sol:Terms",
        "label": "_status",
        "offset": 0,
        "slot": "1",
        "type": "t_uint256"
      },
      {
        "astId": 243,
        "contract": "contracts/Terms.sol:Terms",
        "label": "__gap",
        "offset": 0,
        "slot": "2",
        "type": "t_array(t_uint256)49_storage"
      },
      {
        "astId": 5873,
        "contract": "contracts/Terms.sol:Terms",
        "label": "vaults",
        "offset": 0,
        "slot": "51",
        "type": "t_mapping(t_address,t_array(t_address)dyn_storage)"
      },
      {
        "astId": 5875,
        "contract": "contracts/Terms.sol:Terms",
        "label": "termTreasury",
        "offset": 0,
        "slot": "52",
        "type": "t_address"
      },
      {
        "astId": 5877,
        "contract": "contracts/Terms.sol:Terms",
        "label": "manager",
        "offset": 0,
        "slot": "53",
        "type": "t_address"
      },
      {
        "astId": 5879,
        "contract": "contracts/Terms.sol:Terms",
        "label": "emolument",
        "offset": 20,
        "slot": "53",
        "type": "t_uint16"
      },
      {
        "astId": 5882,
        "contract": "contracts/Terms.sol:Terms",
        "label": "resolver",
        "offset": 0,
        "slot": "54",
        "type": "t_contract(IArrakisV2Resolver)7100"
      }
    ],
    "types": {
      "t_address": {
        "encoding": "inplace",
        "label": "address",
        "numberOfBytes": "20"
      },
      "t_array(t_address)dyn_storage": {
        "base": "t_address",
        "encoding": "dynamic_array",
        "label": "address[]",
        "numberOfBytes": "32"
      },
      "t_array(t_uint256)49_storage": {
        "base": "t_uint256",
        "encoding": "inplace",
        "label": "uint256[49]",
        "numberOfBytes": "1568"
      },
      "t_bool": {
        "encoding": "inplace",
        "label": "bool",
        "numberOfBytes": "1"
      },
      "t_contract(IArrakisV2Resolver)7100": {
        "encoding": "inplace",
        "label": "contract IArrakisV2Resolver",
        "numberOfBytes": "20"
      },
      "t_mapping(t_address,t_array(t_address)dyn_storage)": {
        "encoding": "mapping",
        "key": "t_address",
        "label": "mapping(address => address[])",
        "numberOfBytes": "32",
        "value": "t_array(t_address)dyn_storage"
      },
      "t_uint16": {
        "encoding": "inplace",
        "label": "uint16",
        "numberOfBytes": "2"
      },
      "t_uint256": {
        "encoding": "inplace",
        "label": "uint256",
        "numberOfBytes": "32"
      }
    }
  }
}