{
  "address": "0x1184D984CCA071070FaA4aEcc9Bb6D27Af6bBa42",
  "abi": [
    {
      "inputs": [
        {
          "internalType": "contract IArrakisV2Factory",
          "name": "v2factory_",
          "type": "address"
        }
      ],
      "stateMutability": "nonpayable",
      "type": "constructor"
    },
    {
      "anonymous": false,
      "inputs": [
        {
          "indexed": false,
          "internalType": "address",
          "name": "creator",
          "type": "address"
        },
        {
          "indexed": false,
          "internalType": "address",
          "name": "vault",
          "type": "address"
        }
      ],
      "name": "AddVault",
      "type": "event"
    },
    {
      "anonymous": false,
      "inputs": [
        {
          "indexed": false,
          "internalType": "address",
          "name": "creator",
          "type": "address"
        },
        {
          "indexed": false,
          "internalType": "address",
          "name": "vault",
          "type": "address"
        },
        {
          "indexed": false,
          "internalType": "uint256",
          "name": "amount0",
          "type": "uint256"
        },
        {
          "indexed": false,
          "internalType": "uint256",
          "name": "amount1",
          "type": "uint256"
        },
        {
          "indexed": false,
          "internalType": "address",
          "name": "to",
          "type": "address"
        }
      ],
      "name": "CloseTerm",
      "type": "event"
    },
    {
      "anonymous": false,
      "inputs": [
        {
          "indexed": false,
          "internalType": "address",
          "name": "creator",
          "type": "address"
        },
        {
          "indexed": false,
          "internalType": "address",
          "name": "vault",
          "type": "address"
        }
      ],
      "name": "DecreaseLiquidity",
      "type": "event"
    },
    {
      "anonymous": false,
      "inputs": [
        {
          "indexed": false,
          "internalType": "address",
          "name": "creator",
          "type": "address"
        },
        {
          "indexed": false,
          "internalType": "address",
          "name": "vault",
          "type": "address"
        },
        {
          "indexed": false,
          "internalType": "uint256",
          "name": "emolument0",
          "type": "uint256"
        },
        {
          "indexed": false,
          "internalType": "uint256",
          "name": "emolument1",
          "type": "uint256"
        }
      ],
      "name": "ExtendingTerm",
      "type": "event"
    },
    {
      "anonymous": false,
      "inputs": [
        {
          "indexed": false,
          "internalType": "address",
          "name": "creator",
          "type": "address"
        },
        {
          "indexed": false,
          "internalType": "address",
          "name": "vault",
          "type": "address"
        },
        {
          "indexed": false,
          "internalType": "uint256",
          "name": "emolument0",
          "type": "uint256"
        },
        {
          "indexed": false,
          "internalType": "uint256",
          "name": "emolument1",
          "type": "uint256"
        }
      ],
      "name": "IncreaseLiquidity",
      "type": "event"
    },
    {
      "anonymous": false,
      "inputs": [
        {
          "indexed": false,
          "internalType": "uint8",
          "name": "version",
          "type": "uint8"
        }
      ],
      "name": "Initialized",
      "type": "event"
    },
    {
      "anonymous": false,
      "inputs": [
        {
          "indexed": true,
          "internalType": "address",
          "name": "previousOwner",
          "type": "address"
        },
        {
          "indexed": true,
          "internalType": "address",
          "name": "newOwner",
          "type": "address"
        }
      ],
      "name": "OwnershipTransferred",
      "type": "event"
    },
    {
      "anonymous": false,
      "inputs": [
        {
          "indexed": false,
          "internalType": "address",
          "name": "creator",
          "type": "address"
        },
        {
          "indexed": false,
          "internalType": "address",
          "name": "vault",
          "type": "address"
        }
      ],
      "name": "RemoveVault",
      "type": "event"
    },
    {
      "anonymous": false,
      "inputs": [
        {
          "indexed": false,
          "internalType": "uint16",
          "name": "oldEmolument",
          "type": "uint16"
        },
        {
          "indexed": false,
          "internalType": "uint16",
          "name": "newEmolment",
          "type": "uint16"
        }
      ],
      "name": "SetEmolument",
      "type": "event"
    },
    {
      "anonymous": false,
      "inputs": [
        {
          "indexed": false,
          "internalType": "address",
          "name": "oldManager",
          "type": "address"
        },
        {
          "indexed": false,
          "internalType": "address",
          "name": "newManager",
          "type": "address"
        }
      ],
      "name": "SetManager",
      "type": "event"
    },
    {
      "anonymous": false,
      "inputs": [
        {
          "indexed": false,
          "internalType": "contract IArrakisV2Resolver",
          "name": "oldResolver",
          "type": "address"
        },
        {
          "indexed": false,
          "internalType": "contract IArrakisV2Resolver",
          "name": "newResolver",
          "type": "address"
        }
      ],
      "name": "SetResolver",
      "type": "event"
    },
    {
      "anonymous": false,
      "inputs": [
        {
          "indexed": false,
          "internalType": "address",
          "name": "oldTermTreasury",
          "type": "address"
        },
        {
          "indexed": false,
          "internalType": "address",
          "name": "newTermTreasury",
          "type": "address"
        }
      ],
      "name": "SetTermTreasury",
      "type": "event"
    },
    {
      "anonymous": false,
      "inputs": [
        {
          "indexed": false,
          "internalType": "address",
          "name": "creator",
          "type": "address"
        },
        {
          "indexed": false,
          "internalType": "address",
          "name": "vault",
          "type": "address"
        },
        {
          "indexed": false,
          "internalType": "uint256",
          "name": "emolument0",
          "type": "uint256"
        },
        {
          "indexed": false,
          "internalType": "uint256",
          "name": "emolument1",
          "type": "uint256"
        }
      ],
      "name": "SetupVault",
      "type": "event"
    },
    {
      "inputs": [
        {
          "internalType": "contract IArrakisV2",
          "name": "vault_",
          "type": "address"
        },
        {
          "internalType": "uint24[]",
          "name": "feeTiers_",
          "type": "uint24[]"
        }
      ],
      "name": "addPools",
      "outputs": [],
      "stateMutability": "nonpayable",
      "type": "function"
    },
    {
      "inputs": [
        {
          "internalType": "contract IArrakisV2",
          "name": "vault_",
          "type": "address"
        },
        {
          "internalType": "address",
          "name": "to_",
          "type": "address"
        },
        {
          "internalType": "address",
          "name": "newOwner_",
          "type": "address"
        },
        {
          "internalType": "address",
          "name": "newManager_",
          "type": "address"
        }
      ],
      "name": "closeTerm",
      "outputs": [],
      "stateMutability": "nonpayable",
      "type": "function"
    },
    {
      "inputs": [
        {
          "components": [
            {
              "internalType": "contract IArrakisV2",
              "name": "vault",
              "type": "address"
            },
            {
              "internalType": "uint256",
              "name": "amount0",
              "type": "uint256"
            },
            {
              "internalType": "uint256",
              "name": "amount1",
              "type": "uint256"
            },
            {
              "internalType": "address",
              "name": "to",
              "type": "address"
            }
          ],
          "internalType": "struct DecreaseBalance",
          "name": "decreaseBalance_",
          "type": "tuple"
        },
        {
          "internalType": "uint256",
          "name": "mintAmount_",
          "type": "uint256"
        }
      ],
      "name": "decreaseLiquidity",
      "outputs": [],
      "stateMutability": "nonpayable",
      "type": "function"
    },
    {
      "inputs": [],
      "name": "emolument",
      "outputs": [
        {
          "internalType": "uint16",
          "name": "",
          "type": "uint16"
        }
      ],
      "stateMutability": "view",
      "type": "function"
    },
    {
      "inputs": [
        {
          "components": [
            {
              "internalType": "contract IArrakisV2",
              "name": "vault",
              "type": "address"
            },
            {
              "internalType": "bool",
              "name": "projectTknIsTknZero",
              "type": "bool"
            },
            {
              "internalType": "uint256",
              "name": "amount0",
              "type": "uint256"
            },
            {
              "internalType": "uint256",
              "name": "amount1",
              "type": "uint256"
            }
          ],
          "internalType": "struct ExtendingTermData",
          "name": "extensionData_",
          "type": "tuple"
        },
        {
          "internalType": "uint256",
          "name": "mintAmount_",
          "type": "uint256"
        }
      ],
      "name": "extendingTerm",
      "outputs": [],
      "stateMutability": "nonpayable",
      "type": "function"
    },
    {
      "inputs": [
        {
          "components": [
            {
              "internalType": "contract IArrakisV2",
              "name": "vault",
              "type": "address"
            },
            {
              "internalType": "bool",
              "name": "projectTknIsTknZero",
              "type": "bool"
            },
            {
              "internalType": "uint256",
              "name": "amount0",
              "type": "uint256"
            },
            {
              "internalType": "uint256",
              "name": "amount1",
              "type": "uint256"
            }
          ],
          "internalType": "struct IncreaseBalance",
          "name": "increaseBalance_",
          "type": "tuple"
        },
        {
          "internalType": "uint256",
          "name": "mintAmount_",
          "type": "uint256"
        }
      ],
      "name": "increaseLiquidity",
      "outputs": [],
      "stateMutability": "nonpayable",
      "type": "function"
    },
    {
      "inputs": [
        {
          "internalType": "address",
          "name": "owner_",
          "type": "address"
        },
        {
          "internalType": "address",
          "name": "termTreasury_",
          "type": "address"
        },
        {
          "internalType": "uint16",
          "name": "emolument_",
          "type": "uint16"
        },
        {
          "internalType": "contract IArrakisV2Resolver",
          "name": "resolver_",
          "type": "address"
        }
      ],
      "name": "initialize",
      "outputs": [],
      "stateMutability": "nonpayable",
      "type": "function"
    },
    {
      "inputs": [],
      "name": "manager",
      "outputs": [
        {
          "internalType": "address",
          "name": "",
          "type": "address"
        }
      ],
      "stateMutability": "view",
      "type": "function"
    },
    {
      "inputs": [
        {
          "components": [
            {
              "internalType": "uint24[]",
              "name": "feeTiers",
              "type": "uint24[]"
            },
            {
              "internalType": "contract IERC20",
              "name": "token0",
              "type": "address"
            },
            {
              "internalType": "contract IERC20",
              "name": "token1",
              "type": "address"
            },
            {
              "internalType": "bool",
              "name": "projectTknIsTknZero",
              "type": "bool"
            },
            {
              "internalType": "address",
              "name": "owner",
              "type": "address"
            },
            {
              "internalType": "int24",
              "name": "maxTwapDeviation",
              "type": "int24"
            },
            {
              "internalType": "uint24",
              "name": "twapDuration",
              "type": "uint24"
            },
            {
              "internalType": "uint24",
              "name": "maxSlippage",
              "type": "uint24"
            },
            {
              "internalType": "uint256",
              "name": "amount0",
              "type": "uint256"
            },
            {
              "internalType": "uint256",
              "name": "amount1",
              "type": "uint256"
            },
            {
              "internalType": "bytes",
              "name": "datas",
              "type": "bytes"
            },
            {
              "internalType": "string",
              "name": "strat",
              "type": "string"
            },
            {
              "internalType": "bool",
              "name": "isBeacon",
              "type": "bool"
            }
          ],
          "internalType": "struct SetupPayload",
          "name": "setup_",
          "type": "tuple"
        },
        {
          "internalType": "uint256",
          "name": "mintAmount_",
          "type": "uint256"
        }
      ],
      "name": "openTerm",
      "outputs": [
        {
          "internalType": "address",
          "name": "vault",
          "type": "address"
        }
      ],
      "stateMutability": "payable",
      "type": "function"
    },
    {
      "inputs": [],
      "name": "owner",
      "outputs": [
        {
          "internalType": "address",
          "name": "",
          "type": "address"
        }
      ],
      "stateMutability": "view",
      "type": "function"
    },
    {
      "inputs": [
        {
          "internalType": "contract IArrakisV2",
          "name": "vault_",
          "type": "address"
        },
        {
          "internalType": "address[]",
          "name": "pools_",
          "type": "address[]"
        }
      ],
      "name": "removePools",
      "outputs": [],
      "stateMutability": "nonpayable",
      "type": "function"
    },
    {
      "inputs": [],
      "name": "renounceOwnership",
      "outputs": [],
      "stateMutability": "nonpayable",
      "type": "function"
    },
    {
      "inputs": [],
      "name": "resolver",
      "outputs": [
        {
          "internalType": "contract IArrakisV2Resolver",
          "name": "",
          "type": "address"
        }
      ],
      "stateMutability": "view",
      "type": "function"
    },
    {
      "inputs": [
        {
          "internalType": "uint16",
          "name": "emolument_",
          "type": "uint16"
        }
      ],
      "name": "setEmolument",
      "outputs": [],
      "stateMutability": "nonpayable",
      "type": "function"
    },
    {
      "inputs": [
        {
          "internalType": "address",
          "name": "manager_",
          "type": "address"
        }
      ],
      "name": "setManager",
      "outputs": [],
      "stateMutability": "nonpayable",
      "type": "function"
    },
    {
      "inputs": [
        {
          "internalType": "contract IArrakisV2",
          "name": "vault_",
          "type": "address"
        },
        {
          "internalType": "uint24",
          "name": "maxSlippage_",
          "type": "uint24"
        }
      ],
      "name": "setMaxSlippage",
      "outputs": [],
      "stateMutability": "nonpayable",
      "type": "function"
    },
    {
      "inputs": [
        {
          "internalType": "contract IArrakisV2",
          "name": "vault_",
          "type": "address"
        },
        {
          "internalType": "int24",
          "name": "maxTwapDeviation_",
          "type": "int24"
        }
      ],
      "name": "setMaxTwapDeviation",
      "outputs": [],
      "stateMutability": "nonpayable",
      "type": "function"
    },
    {
      "inputs": [
        {
          "internalType": "contract IArrakisV2Resolver",
          "name": "resolver_",
          "type": "address"
        }
      ],
      "name": "setResolver",
      "outputs": [],
      "stateMutability": "nonpayable",
      "type": "function"
    },
    {
      "inputs": [
        {
          "internalType": "address",
          "name": "termTreasury_",
          "type": "address"
        }
      ],
      "name": "setTermTreasury",
      "outputs": [],
      "stateMutability": "nonpayable",
      "type": "function"
    },
    {
      "inputs": [
        {
          "internalType": "contract IArrakisV2",
          "name": "vault_",
          "type": "address"
        },
        {
          "internalType": "uint24",
          "name": "twapDuration_",
          "type": "uint24"
        }
      ],
      "name": "setTwapDuration",
      "outputs": [],
      "stateMutability": "nonpayable",
      "type": "function"
    },
    {
      "inputs": [
        {
          "internalType": "address",
          "name": "vault_",
          "type": "address"
        },
        {
          "internalType": "bytes",
          "name": "data_",
          "type": "bytes"
        }
      ],
      "name": "setVaultData",
      "outputs": [],
      "stateMutability": "nonpayable",
      "type": "function"
    },
    {
      "inputs": [
        {
          "internalType": "address",
          "name": "vault_",
          "type": "address"
        },
        {
          "internalType": "string",
          "name": "strat_",
          "type": "string"
        }
      ],
      "name": "setVaultStratByName",
      "outputs": [],
      "stateMutability": "nonpayable",
      "type": "function"
    },
    {
      "inputs": [],
      "name": "termTreasury",
      "outputs": [
        {
          "internalType": "address",
          "name": "",
          "type": "address"
        }
      ],
      "stateMutability": "view",
      "type": "function"
    },
    {
      "inputs": [
        {
          "internalType": "address",
          "name": "newOwner",
          "type": "address"
        }
      ],
      "name": "transferOwnership",
      "outputs": [],
      "stateMutability": "nonpayable",
      "type": "function"
    },
    {
      "inputs": [],
      "name": "v2factory",
      "outputs": [
        {
          "internalType": "contract IArrakisV2Factory",
          "name": "",
          "type": "address"
        }
      ],
      "stateMutability": "view",
      "type": "function"
    },
    {
      "inputs": [
        {
          "internalType": "address",
          "name": "",
          "type": "address"
        },
        {
          "internalType": "uint256",
          "name": "",
          "type": "uint256"
        }
      ],
      "name": "vaults",
      "outputs": [
        {
          "internalType": "address",
          "name": "",
          "type": "address"
        }
      ],
      "stateMutability": "view",
      "type": "function"
    },
    {
      "inputs": [
        {
          "internalType": "address",
          "name": "vault_",
          "type": "address"
        },
        {
          "internalType": "uint256",
          "name": "amount_",
          "type": "uint256"
        },
        {
          "internalType": "address payable",
          "name": "to_",
          "type": "address"
        }
      ],
      "name": "withdrawVaultBalance",
      "outputs": [],
      "stateMutability": "nonpayable",
      "type": "function"
    }
  ],
  "transactionHash": "0x82753a5846655d1902955b39727fad944f4bf07fa13958588fea583ce97f2412",
  "args": [
    "0x6369D9fE00701E27607B9A58719f4bd02c9b3FBA"
  ],
  "numDeployments": 2,
  "solcInputHash": "dffa1c08387fdf17e95426168d60441c",
  "bytecode": "0x60a06040523480156200001157600080fd5b506040516200515438038062005154833981016040819052620000349162000046565b6001600160a01b031660805262000078565b6000602082840312156200005957600080fd5b81516001600160a01b03811681146200007157600080fd5b9392505050565b6080516150b96200009b600039600081816102470152611cee01526150b96000f3fe60806040526004361061019c5760003560e01c80637407e38c116100ec578063bd324d321161008a578063ea6b186c11610064578063ea6b186c146104af578063eaaa9299146104cf578063f2cb118a146104ef578063f2fde38b1461050f57600080fd5b8063bd324d321461044f578063bfd7e7521461046f578063d0ebdbe71461048f57600080fd5b80638da5cb5b116100c65780638da5cb5b146103d1578063ae5e24c2146103ef578063b1ffa5821461040f578063b33d46dc1461042f57600080fd5b80637407e38c146103715780637bbfc69e1461039157806386de1467146103b157600080fd5b8063481c6a751161015957806351a6deba1161013357806351a6deba146102fc57806356ee72be1461031c57806368b6702e1461033c578063715018a61461035c57600080fd5b8063481c6a75146102a95780634c279440146102c95780634e543b26146102dc57600080fd5b806304f3bcec146101a1578063233fc650146101de57806326c1a7b114610200578063330807a914610235578063332d28ef146102695780633a91f42a14610289575b600080fd5b3480156101ad57600080fd5b50609a546101c1906001600160a01b031681565b6040516001600160a01b0390911681526020015b60405180910390f35b3480156101ea57600080fd5b506101fe6101f936600461447c565b61052f565b005b34801561020c57600080fd5b5060995461022290600160a01b900461ffff1681565b60405161ffff90911681526020016101d5565b34801561024157600080fd5b506101c17f000000000000000000000000000000000000000000000000000000000000000081565b34801561027557600080fd5b506101fe61028436600461447c565b6111cc565b34801561029557600080fd5b506101fe6102a43660046144fd565b611a03565b3480156102b557600080fd5b506099546101c1906001600160a01b031681565b6101c16102d7366004614551565b611afa565b3480156102e857600080fd5b506101fe6102f736600461459b565b612418565b34801561030857600080fd5b506101fe6103173660046145c7565b612503565b34801561032857600080fd5b506101fe610337366004614611565b6125fb565b34801561034857600080fd5b506101fe61035736600461463f565b6126bf565b34801561036857600080fd5b506101fe612af1565b34801561037d57600080fd5b506101fe61038c3660046144fd565b612b05565b34801561039d57600080fd5b506101c16103ac36600461469b565b612bcc565b3480156103bd57600080fd5b506101fe6103cc3660046146b9565b612c04565b3480156103dd57600080fd5b506033546001600160a01b03166101c1565b3480156103fb57600080fd5b506101fe61040a36600461473f565b612cd8565b34801561041b57600080fd5b506101fe61042a36600461479d565b612d99565b34801561043b57600080fd5b506101fe61044a3660046147dc565b612f5a565b34801561045b57600080fd5b506101fe61046a366004614611565b61302f565b34801561047b57600080fd5b506101fe61048a36600461459b565b6130f3565b34801561049b57600080fd5b506101fe6104aa36600461459b565b6131d6565b3480156104bb57600080fd5b506098546101c1906001600160a01b031681565b3480156104db57600080fd5b506101fe6104ea36600461473f565b6132b3565b3480156104fb57600080fd5b506101fe61050a36600461447c565b613374565b34801561051b57600080fd5b506101fe61052a36600461459b565b613ae8565b61053c602083018361459b565b6001600160a01b0316630dfe16816040518163ffffffff1660e01b8152600401602060405180830381865afa158015610579573d6000803e3d6000fd5b505050506040513d601f19601f8201168201806040525081019061059d91906147f7565b6105aa602084018461459b565b6001600160a01b031663d21220a76040518163ffffffff1660e01b8152600401602060405180830381865afa1580156105e7573d6000803e3d6000fd5b505050506040513d601f19601f8201168201806040525081019061060b91906147f7565b6040516370a0823160e01b81523060048201526000906001600160a01b038416906370a0823190602401602060405180830381865afa158015610652573d6000803e3d6000fd5b505050506040513d601f19601f820116820180604052508101906106769190614814565b6040516370a0823160e01b81523060048201529091506000906001600160a01b038416906370a0823190602401602060405180830381865afa1580156106c0573d6000803e3d6000fd5b505050506040513d601f19601f820116820180604052508101906106e49190614814565b90506106ef85613b61565b610711610702604088016020890161483b565b87604001358860600135613bb1565b33600090815260976020908152604091829020805483518184028101840190945280845261078c939283018282801561077357602002820191906000526020600020905b81546001600160a01b03168152600190910190602001808311610755575b506107879350505060208a0190508961459b565b613c21565b5060995442906001600160a01b03166390229af76107ad60208a018a61459b565b6040516001600160e01b031960e084901b1681526001600160a01b039091166004820152602401600060405180830381865afa1580156107f1573d6000803e3d6000fd5b505050506040513d6000823e601f3d908101601f191682016040526108199190810190614936565b608001511061086f5760405162461bcd60e51b815260206004820152601760248201527f5465726d733a207465726d73206973206163746976652e00000000000000000060448201526064015b60405180910390fd5b60008061089561088260208a018a61459b565b609a5430906001600160a01b0316613c79565b9092509050610923333060408b01356108b160208d018d61459b565b6001600160a01b0316630dfe16816040518163ffffffff1660e01b8152600401602060405180830381865afa1580156108ee573d6000803e3d6000fd5b505050506040513d601f19601f8201168201806040525081019061091291906147f7565b6001600160a01b0316929190613de9565b610977333060608b013561093a60208d018d61459b565b6001600160a01b031663d21220a76040518163ffffffff1660e01b8152600401602060405180830381865afa1580156108ee573d6000803e3d6000fd5b600061099d61098a8460408c0135614a33565b609954600160a01b900461ffff16613e5a565b905060006109b261098a8460608d0135614a33565b90506109c160208b018b61459b565b6001600160a01b0316630dfe16816040518163ffffffff1660e01b8152600401602060405180830381865afa1580156109fe573d6000803e3d6000fd5b505050506040513d601f19601f82011682018060405250810190610a2291906147f7565b6001600160a01b031663095ea7b3610a3d60208d018d61459b565b86858e60400135610a4e9190614a4b565b610a589190614a33565b6040518363ffffffff1660e01b8152600401610a75929190614a62565b6020604051808303816000875af1158015610a94573d6000803e3d6000fd5b505050506040513d601f19601f82011682018060405250810190610ab89190614a7b565b50610ac660208b018b61459b565b6001600160a01b031663d21220a76040518163ffffffff1660e01b8152600401602060405180830381865afa158015610b03573d6000803e3d6000fd5b505050506040513d601f19601f82011682018060405250810190610b2791906147f7565b6001600160a01b031663095ea7b3610b4260208d018d61459b565b85848e60600135610b539190614a4b565b610b5d9190614a33565b6040518363ffffffff1660e01b8152600401610b7a929190614a62565b6020604051808303816000875af1158015610b99573d6000803e3d6000fd5b505050506040513d601f19601f82011682018060405250810190610bbd9190614a7b565b508115610c5357609854610c53906001600160a01b031683610be260208e018e61459b565b6001600160a01b0316630dfe16816040518163ffffffff1660e01b8152600401602060405180830381865afa158015610c1f573d6000803e3d6000fd5b505050506040513d601f19601f82011682018060405250810190610c4391906147f7565b6001600160a01b03169190613e7e565b8015610cb457609854610cb4906001600160a01b031682610c7760208e018e61459b565b6001600160a01b031663d21220a76040518163ffffffff1660e01b8152600401602060405180830381865afa158015610c1f573d6000803e3d6000fd5b6040805180820190915260008082526020820152610d078a86858e60400135610cdd9190614a4b565b610ce79190614a33565b86858f60600135610cf89190614a4b565b610d029190614a33565b613e9d565b602080840191909152908252610d1f908c018c61459b565b81516020830151604051633f7b613560e01b8152600481019290925260248201526001600160a01b039190911690633f7b613590604401600060405180830381600087803b158015610d7057600080fd5b505af1158015610d84573d6000803e3d6000fd5b50506099546001600160a01b03169250635c1c3fe19150610daa905060208d018d61459b565b6040516001600160e01b031960e084901b1681526001600160a01b039091166004820152602401600060405180830381600087803b158015610deb57600080fd5b505af1158015610dff573d6000803e3d6000fd5b50610e119250505060208b018b61459b565b6040516394bf804d60e01b8152600481018b90523060248201526001600160a01b0391909116906394bf804d9060440160408051808303816000875af1158015610e5f573d6000803e3d6000fd5b505050506040513d601f19601f82011682018060405250810190610e839190614a98565b50506099546001600160a01b0316635c1c3fe1610ea360208d018d61459b565b6040516001600160e01b031960e084901b1681526001600160a01b039091166004820152602401600060405180830381600087803b158015610ee457600080fd5b505af1158015610ef8573d6000803e3d6000fd5b50506099546001600160a01b03169150636f2cbdf09050610f1c60208d018d61459b565b6040516001600160e01b031960e084901b1681526001600160a01b039091166004820152602401600060405180830381600087803b158015610f5d57600080fd5b505af1158015610f71573d6000803e3d6000fd5b507f46a238a7d74f7eb9e69d547116dd11a787993409bc96175c4038d1dd8509d3e29250339150610fa7905060208d018d61459b565b604080516001600160a01b03938416815292909116602083015281018490526060810183905260800160405180910390a150506040516370a0823160e01b8152306004820152600092508491506001600160a01b038716906370a08231906024015b602060405180830381865afa158015611026573d6000803e3d6000fd5b505050506040513d601f19601f8201168201806040525081019061104a9190614814565b6110549190614a4b565b6040516370a0823160e01b815230600482015290915060009083906001600160a01b038716906370a0823190602401602060405180830381865afa1580156110a0573d6000803e3d6000fd5b505050506040513d601f19601f820116820180604052508101906110c49190614814565b6110ce9190614a4b565b905081156111495760405163a9059cbb60e01b81526001600160a01b0387169063a9059cbb906111049033908690600401614a62565b6020604051808303816000875af1158015611123573d6000803e3d6000fd5b505050506040513d601f19601f820116820180604052508101906111479190614a7b565b505b80156111c25760405163a9059cbb60e01b81526001600160a01b0386169063a9059cbb9061117d9033908590600401614a62565b6020604051808303816000875af115801561119c573d6000803e3d6000fd5b505050506040513d601f19601f820116820180604052508101906111c09190614a7b565b505b5050505050505050565b6111d9602083018361459b565b6001600160a01b0316630dfe16816040518163ffffffff1660e01b8152600401602060405180830381865afa158015611216573d6000803e3d6000fd5b505050506040513d601f19601f8201168201806040525081019061123a91906147f7565b611247602084018461459b565b6001600160a01b031663d21220a76040518163ffffffff1660e01b8152600401602060405180830381865afa158015611284573d6000803e3d6000fd5b505050506040513d601f19601f820116820180604052508101906112a891906147f7565b6040516370a0823160e01b81523060048201526000906001600160a01b038416906370a0823190602401602060405180830381865afa1580156112ef573d6000803e3d6000fd5b505050506040513d601f19601f820116820180604052508101906113139190614814565b6040516370a0823160e01b81523060048201529091506000906001600160a01b038416906370a0823190602401602060405180830381865afa15801561135d573d6000803e3d6000fd5b505050506040513d601f19601f820116820180604052508101906113819190614814565b905061138c85613b61565b3360009081526097602090815260409182902080548351818402810184019094528084526114009392830182828015610773576020028201919060005260206000209081546001600160a01b0316815260019091019060200180831161075557506107879350505060208a0190508961459b565b503060008061142861141560208b018b61459b565b609a5485906001600160a01b0316613c79565b915091508189602001351061148a5760405162461bcd60e51b815260206004820152602260248201527f5465726d733a2073656e64206261636b20616d6f756e7430203e20616d6f756e604482015261074360f41b6064820152608401610866565b808960400135106114e85760405162461bcd60e51b815260206004820152602260248201527f5465726d733a2073656e64206261636b20616d6f756e7431203e20616d6f756e604482015261743160f01b6064820152608401610866565b60006114f760208b018b61459b565b6001600160a01b0316630dfe16816040518163ffffffff1660e01b8152600401602060405180830381865afa158015611534573d6000803e3d6000fd5b505050506040513d601f19601f8201168201806040525081019061155891906147f7565b9050600061156960208c018c61459b565b6001600160a01b031663d21220a76040518163ffffffff1660e01b8152600401602060405180830381865afa1580156115a6573d6000803e3d6000fd5b505050506040513d601f19601f820116820180604052508101906115ca91906147f7565b90506115f46115df60808d0160608e0161459b565b6001600160a01b0384169060208e0135613e7e565b61161c61160760808d0160608e0161459b565b6001600160a01b0383169060408e0135613e7e565b6001600160a01b03821663095ea7b361163860208e018e61459b565b61164660208f013588614a4b565b6040518363ffffffff1660e01b8152600401611663929190614a62565b6020604051808303816000875af1158015611682573d6000803e3d6000fd5b505050506040513d601f19601f820116820180604052508101906116a69190614a7b565b506001600160a01b03811663095ea7b36116c360208e018e61459b565b6116d160408f013587614a4b565b6040518363ffffffff1660e01b81526004016116ee929190614a62565b6020604051808303816000875af115801561170d573d6000803e3d6000fd5b505050506040513d601f19601f820116820180604052508101906117319190614a7b565b506000806117598c8e60200135886117499190614a4b565b8f6040013588610d029190614a4b565b909250905061176b60208e018e61459b565b604051633f7b613560e01b815260048101849052602481018390526001600160a01b039190911690633f7b613590604401600060405180830381600087803b1580156117b657600080fd5b505af11580156117ca573d6000803e3d6000fd5b50505050609960009054906101000a90046001600160a01b03166001600160a01b0316635c1c3fe18e6000016020810190611805919061459b565b6040516001600160e01b031960e084901b1681526001600160a01b039091166004820152602401600060405180830381600087803b15801561184657600080fd5b505af115801561185a573d6000803e3d6000fd5b5061186c9250505060208e018e61459b565b6040516394bf804d60e01b8152600481018e90526001600160a01b03898116602483015291909116906394bf804d9060440160408051808303816000875af11580156118bc573d6000803e3d6000fd5b505050506040513d601f19601f820116820180604052508101906118e09190614a98565b5050609960009054906101000a90046001600160a01b03166001600160a01b0316635c1c3fe18e6000016020810190611919919061459b565b6040516001600160e01b031960e084901b1681526001600160a01b039091166004820152602401600060405180830381600087803b15801561195a57600080fd5b505af115801561196e573d6000803e3d6000fd5b505050507fd948940eaf1c92930816150587987430bba23719ae75eb2a086f411240e912c1338e60000160208101906119a7919061459b565b604080516001600160a01b0393841681529290911660208301520160405180910390a150506040516370a0823160e01b8152306004820152600095508794506001600160a01b038a1693506370a0823192506024019050611009565b826001600160a01b038116611a2a5760405162461bcd60e51b815260040161086690614abc565b336000908152609760209081526040918290208054835181840281018401909452808452611a979392830182828015611a8c57602002820191906000526020600020905b81546001600160a01b03168152600190910190602001808311611a6e575b505050505085613c21565b5060995460405163152f2bb760e01b81526001600160a01b039091169063152f2bb790611acc90879087908790600401614b12565b600060405180830381600087803b158015611ae657600080fd5b505af11580156111c2573d6000803e3d6000fd5b6000611b0c604084016020850161459b565b611b1c606085016040860161459b565b6040516370a0823160e01b81523060048201526000906001600160a01b038416906370a0823190602401602060405180830381865afa158015611b63573d6000803e3d6000fd5b505050506040513d601f19601f82011682018060405250810190611b879190614814565b6040516370a0823160e01b81523060048201529091506000906001600160a01b038416906370a0823190602401602060405180830381865afa158015611bd1573d6000803e3d6000fd5b505050506040513d601f19601f82011682018060405250810190611bf59190614814565b9050611c0086613b61565b611c24611c136080890160608a0161483b565b886101000135896101200135613bb1565b611c4c611c376040890160208a0161459b565b611c4760608a0160408b0161459b565b613ed2565b6000611c6d886101000135609960149054906101000a900461ffff16613e5a565b90506000611c90896101200135609960149054906101000a900461ffff16613e5a565b9050611caf604051806040016040528060008152602001600081525090565b611cd189611cc2856101008e0135614a4b565b610d02856101208f0135614a4b565b602083015281526040805161014081019091526001600160a01b037f000000000000000000000000000000000000000000000000000000000000000016906364f954de9080611d208e80614b40565b80806020026020016040519081016040528093929190818152602001838360200280828437600081840152601f19601f8201169050808301925050505050505081526020018d6020016020810190611d78919061459b565b6001600160a01b031681526020018d6040016020810190611d99919061459b565b6001600160a01b03168152602001306001600160a01b031681526020018460000151815260200184602001518152602001609960009054906101000a90046001600160a01b03166001600160a01b031681526020018d60a0016020810190611e019190614b89565b60020b81526020018d60c0016020810190611e1c9190614ba6565b62ffffff1681526020018d60e0016020810190611e399190614ba6565b62ffffff169052611e526101a08e016101808f0161483b565b6040518363ffffffff1660e01b8152600401611e6f929190614c03565b6020604051808303816000875af1158015611e8e573d6000803e3d6000fd5b505050506040513d601f19601f82011682018060405250810190611eb291906147f7565b9750879050611ed0611eca60a08c0160808d0161459b565b89613f37565b6099546001600160a01b031663ded2df71348a611ef16101408f018f614cdf565b8f806101600190611f029190614cdf565b6040518763ffffffff1660e01b8152600401611f22959493929190614d25565b6000604051808303818588803b158015611f3b57600080fd5b505af1158015611f4f573d6000803e3d6000fd5b5050505050611f7233308c61010001358d6020016020810190610912919061459b565b611f9033308c61012001358d6040016020810190610912919061459b565b611fa060408b0160208c0161459b565b6001600160a01b031663095ea7b389611fbe866101008f0135614a4b565b6040518363ffffffff1660e01b8152600401611fdb929190614a62565b6020604051808303816000875af1158015611ffa573d6000803e3d6000fd5b505050506040513d601f19601f8201168201806040525081019061201e9190614a7b565b5061202f60608b0160408c0161459b565b6001600160a01b031663095ea7b38961204d856101208f0135614a4b565b6040518363ffffffff1660e01b815260040161206a929190614a62565b6020604051808303816000875af1158015612089573d6000803e3d6000fd5b505050506040513d601f19601f820116820180604052508101906120ad9190614a7b565b506098546120cf906001600160a01b031684610c4360408e0160208f0161459b565b6098546120f0906001600160a01b031683610c4360608e0160408f0161459b565b6040516394bf804d60e01b8152600481018a90523060248201526001600160a01b038216906394bf804d9060440160408051808303816000875af115801561213c573d6000803e3d6000fd5b505050506040513d601f19601f820116820180604052508101906121609190614a98565b5050609954604051635c1c3fe160e01b81526001600160a01b038a8116600483015290911690635c1c3fe190602401600060405180830381600087803b1580156121a957600080fd5b505af11580156121bd573d6000803e3d6000fd5b507fdb52d940d0b2d12bc54f059283cfc95ab559bf93c4798af17268d65513b46a4192506121f491505060a08c0160808d0161459b565b604080516001600160a01b039283168152918b16602083015281018590526060810184905260800160405180910390a150506040516370a0823160e01b81523060048201526000915083906001600160a01b038716906370a0823190602401602060405180830381865afa158015612270573d6000803e3d6000fd5b505050506040513d601f19601f820116820180604052508101906122949190614814565b61229e9190614a4b565b6040516370a0823160e01b815230600482015290915060009083906001600160a01b038716906370a0823190602401602060405180830381865afa1580156122ea573d6000803e3d6000fd5b505050506040513d601f19601f8201168201806040525081019061230e9190614814565b6123189190614a4b565b905081156123935760405163a9059cbb60e01b81526001600160a01b0387169063a9059cbb9061234e9033908690600401614a62565b6020604051808303816000875af115801561236d573d6000803e3d6000fd5b505050506040513d601f19601f820116820180604052508101906123919190614a7b565b505b801561240c5760405163a9059cbb60e01b81526001600160a01b0386169063a9059cbb906123c79033908590600401614a62565b6020604051808303816000875af11580156123e6573d6000803e3d6000fd5b505050506040513d601f19601f8201168201806040525081019061240a9190614a7b565b505b50505050505092915050565b612420614050565b806001600160a01b0381166124475760405162461bcd60e51b815260040161086690614abc565b609a546001600160a01b038084169116036124a45760405162461bcd60e51b815260206004820152601760248201527f5465726d733a20616c7265616479207265736f6c7665720000000000000000006044820152606401610866565b609a80546001600160a01b031981166001600160a01b038581169182179093556040805193909216835260208301527f6cb59c795917577ec693948e42535bd42e4c7784893c9fff6d7b7102f64a1d7291015b60405180910390a15050565b816001600160a01b03811661252a5760405162461bcd60e51b815260040161086690614abc565b336000908152609760209081526040918290208054835181840281018401909452808452612597939283018282801561258c57602002820191906000526020600020905b81546001600160a01b0316815260019091019060200180831161256e575b505050505084613c21565b50604051631e5ff9ff60e11b8152600283900b60048201526001600160a01b03841690633cbff3fe906024015b600060405180830381600087803b1580156125de57600080fd5b505af11580156125f2573d6000803e3d6000fd5b50505050505050565b816001600160a01b0381166126225760405162461bcd60e51b815260040161086690614abc565b33600090815260976020908152604091829020805483518184028101840190945280845261268d939283018282801561258c576020028201919060005260206000209081546001600160a01b0316815260019091019060200180831161256e57505050505084613c21565b5060405163138e02ad60e21b815262ffffff831660048201526001600160a01b03841690634e380ab4906024016125c4565b816001600160a01b0381166126e65760405162461bcd60e51b815260040161086690614abc565b836001600160a01b03811661270d5760405162461bcd60e51b815260040161086690614abc565b33600090815260976020908152604080832080548251818502810185019093528083526127789383018282801561276d57602002820191906000526020600020905b81546001600160a01b0316815260019091019060200180831161274f575b505050505088613c21565b336000908152609760205260409020805491925088918390811061279e5761279e614d69565b600091825260209091200180546001600160a01b0319169055815b336000908152609760205260409020546127d590600190614a4b565b81101561287a573360009081526097602052604090206127f6826001614a33565b8154811061280657612806614d69565b60009182526020808320909101543383526097909152604090912080546001600160a01b03909216918390811061283f5761283f614d69565b600091825260209091200180546001600160a01b0319166001600160a01b03929092169190911790558061287281614d7f565b9150506127b9565b5033600090815260976020526040902080548061289957612899614d98565b600082815260208120820160001990810180546001600160a01b0319169055909101909155609a5481906128d9908b9030906001600160a01b0316613c79565b909250905081156129275761292789838c6001600160a01b0316630dfe16816040518163ffffffff1660e01b8152600401602060405180830381865afa158015610c1f573d6000803e3d6000fd5b80156129705761297089828c6001600160a01b031663d21220a76040518163ffffffff1660e01b8152600401602060405180830381865afa158015610c1f573d6000803e3d6000fd5b60995460405163b7d3824360e01b81526001600160a01b038c811660048301528b811660248301529091169063b7d3824390604401600060405180830381600087803b1580156129bf57600080fd5b505af11580156129d3573d6000803e3d6000fd5b505060405163d0ebdbe760e01b81526001600160a01b038a811660048301528d16925063d0ebdbe79150602401600060405180830381600087803b158015612a1a57600080fd5b505af1158015612a2e573d6000803e3d6000fd5b505060405163f2fde38b60e01b81526001600160a01b038b811660048301528d16925063f2fde38b9150602401600060405180830381600087803b158015612a7557600080fd5b505af1158015612a89573d6000803e3d6000fd5b5050604080513381526001600160a01b038781166020830152818301879052606082018690528d16608082015290517f1995b488d04e8e916b5fe7712a74ded2a2f1a1c34bbc77ec3aa4aebeadce1fc793509081900360a0019150a150505050505050505050565b612af9614050565b612b0360006140aa565b565b826001600160a01b038116612b2c5760405162461bcd60e51b815260040161086690614abc565b336000908152609760209081526040918290208054835181840281018401909452808452612b979392830182828015611a8c576020028201919060005260206000209081546001600160a01b03168152600190910190602001808311611a6e57505050505085613c21565b50609954604051631d01f8e360e21b81526001600160a01b0390911690637407e38c90611acc90879087908790600401614b12565b60976020528160005260406000208181548110612be857600080fd5b6000918252602090912001546001600160a01b03169150829050565b826001600160a01b038116612c2b5760405162461bcd60e51b815260040161086690614abc565b336000908152609760209081526040918290208054835181840281018401909452808452612c969392830182828015611a8c576020028201919060005260206000209081546001600160a01b03168152600190910190602001808311611a6e57505050505085613c21565b506099546040516386de146760e01b81526001600160a01b038681166004830152602482018690528481166044830152909116906386de146790606401611acc565b826001600160a01b038116612cff5760405162461bcd60e51b815260040161086690614abc565b336000908152609760209081526040918290208054835181840281018401909452808452612d6a9392830182828015611a8c576020028201919060005260206000209081546001600160a01b03168152600190910190602001808311611a6e57505050505085613c21565b506040516386ac1cb960e01b81526001600160a01b038516906386ac1cb990611acc9086908690600401614dae565b600054610100900460ff1615808015612db95750600054600160ff909116105b80612dd35750303b158015612dd3575060005460ff166001145b612e365760405162461bcd60e51b815260206004820152602e60248201527f496e697469616c697a61626c653a20636f6e747261637420697320616c72656160448201526d191e481a5b9a5d1a585b1a5e995960921b6064820152608401610866565b6000805460ff191660011790558015612e59576000805461ff0019166101001790555b609954612710600160a01b90910461ffff1610612eb85760405162461bcd60e51b815260206004820152601960248201527f5465726d733a20656d6f6c756d656e74203e3d20313030252e000000000000006044820152606401610866565b612ec1856140aa565b609880546001600160a01b038087166001600160a01b0319928316179092556099805461ffff8716600160a01b0261ffff60a01b19909116179055609a8054928516929091169190911790558015612f53576000805461ff0019169055604051600181527f7f26b83ff96e1f2b6a682f133852f6798a09c465da95921460cefb38474024989060200160405180910390a15b5050505050565b612f62614050565b60995461ffff600160a01b909104811690821610612fd05760405162461bcd60e51b815260206004820152602560248201527f5465726d733a206e657720656d6f6c756d656e74203e3d206f6c6420656d6f6c6044820152641d5b595b9d60da1b6064820152608401610866565b6099805461ffff838116600160a01b81810261ffff60a01b198516179094556040805194909304909116835260208301527f7179ea06c1633dd908ac95e2c4749f1063eadecbe01501941080e07bb96764db910160405180910390a150565b816001600160a01b0381166130565760405162461bcd60e51b815260040161086690614abc565b3360009081526097602090815260409182902080548351818402810184019094528084526130c1939283018282801561258c576020028201919060005260206000209081546001600160a01b0316815260019091019060200180831161256e57505050505084613c21565b50604051633926ab5f60e01b815262ffffff831660048201526001600160a01b03841690633926ab5f906024016125c4565b6130fb614050565b806001600160a01b0381166131225760405162461bcd60e51b815260040161086690614abc565b6098546001600160a01b0380841691160361317f5760405162461bcd60e51b815260206004820152601c60248201527f5465726d733a20616c7265616479207465726d207472656173757279000000006044820152606401610866565b609880546001600160a01b031981166001600160a01b038581169182179093556040805193909216835260208301527fdaecbed9cdf338cbedbd120eefc62bec9856ad3657ea396258b681e6bc17bed591016124f7565b6131de614050565b806001600160a01b0381166132055760405162461bcd60e51b815260040161086690614abc565b6099546001600160a01b039081169083160361325c5760405162461bcd60e51b81526020600482015260166024820152752a32b936b99d1030b63932b0b23c9036b0b730b3b2b960511b6044820152606401610866565b609980546001600160a01b031981166001600160a01b038581169182179093556040805193909216835260208301527f8d235c6c97ff1b07a41b6b8ac6ea040a6a6b411b20a0f02f02946fa45590bcfc91016124f7565b826001600160a01b0381166132da5760405162461bcd60e51b815260040161086690614abc565b3360009081526097602090815260409182902080548351818402810184019094528084526133459392830182828015611a8c576020028201919060005260206000209081546001600160a01b03168152600190910190602001808311611a6e57505050505085613c21565b5060405163012c590560e61b81526001600160a01b03851690634b16414090611acc9086908690600401614df8565b613381602083018361459b565b6001600160a01b0316630dfe16816040518163ffffffff1660e01b8152600401602060405180830381865afa1580156133be573d6000803e3d6000fd5b505050506040513d601f19601f820116820180604052508101906133e291906147f7565b6133ef602084018461459b565b6001600160a01b031663d21220a76040518163ffffffff1660e01b8152600401602060405180830381865afa15801561342c573d6000803e3d6000fd5b505050506040513d601f19601f8201168201806040525081019061345091906147f7565b6040516370a0823160e01b81523060048201526000906001600160a01b038416906370a0823190602401602060405180830381865afa158015613497573d6000803e3d6000fd5b505050506040513d601f19601f820116820180604052508101906134bb9190614814565b6040516370a0823160e01b81523060048201529091506000906001600160a01b038416906370a0823190602401602060405180830381865afa158015613505573d6000803e3d6000fd5b505050506040513d601f19601f820116820180604052508101906135299190614814565b905061353485613b61565b613547610702604088016020890161483b565b3360009081526097602090815260409182902080548351818402810184019094528084526135bb9392830182828015610773576020028201919060005260206000209081546001600160a01b0316815260019091019060200180831161075557506107879350505060208a0190508961459b565b506000806135cf61088260208a018a61459b565b90925090506135eb333060408b01356108b160208d018d61459b565b613602333060608b013561093a60208d018d61459b565b60006136228960400135609960149054906101000a900461ffff16613e5a565b905060006136448a60600135609960149054906101000a900461ffff16613e5a565b9050811561366a5760985461366a906001600160a01b031683610be260208e018e61459b565b801561368e5760985461368e906001600160a01b031682610c7760208e018e61459b565b61369b60208b018b61459b565b6001600160a01b0316630dfe16816040518163ffffffff1660e01b8152600401602060405180830381865afa1580156136d8573d6000803e3d6000fd5b505050506040513d601f19601f820116820180604052508101906136fc91906147f7565b6001600160a01b031663095ea7b361371760208d018d61459b565b86858e604001356137289190614a4b565b6137329190614a33565b6040518363ffffffff1660e01b815260040161374f929190614a62565b6020604051808303816000875af115801561376e573d6000803e3d6000fd5b505050506040513d601f19601f820116820180604052508101906137929190614a7b565b506137a060208b018b61459b565b6001600160a01b031663d21220a76040518163ffffffff1660e01b8152600401602060405180830381865afa1580156137dd573d6000803e3d6000fd5b505050506040513d601f19601f8201168201806040525081019061380191906147f7565b6001600160a01b031663095ea7b361381c60208d018d61459b565b85848e6060013561382d9190614a4b565b6138379190614a33565b6040518363ffffffff1660e01b8152600401613854929190614a62565b6020604051808303816000875af1158015613873573d6000803e3d6000fd5b505050506040513d601f19601f820116820180604052508101906138979190614a7b565b5060408051808201909152600080825260208201526138c18a86858e60400135610cdd9190614a4b565b6020808401919091529082526138d9908c018c61459b565b81516020830151604051633f7b613560e01b8152600481019290925260248201526001600160a01b039190911690633f7b613590604401600060405180830381600087803b15801561392a57600080fd5b505af115801561393e573d6000803e3d6000fd5b50506099546001600160a01b03169250635c1c3fe19150613964905060208d018d61459b565b6040516001600160e01b031960e084901b1681526001600160a01b039091166004820152602401600060405180830381600087803b1580156139a557600080fd5b505af11580156139b9573d6000803e3d6000fd5b506139cb9250505060208b018b61459b565b6040516394bf804d60e01b8152600481018b90523060248201526001600160a01b0391909116906394bf804d9060440160408051808303816000875af1158015613a19573d6000803e3d6000fd5b505050506040513d601f19601f82011682018060405250810190613a3d9190614a98565b50506099546001600160a01b0316635c1c3fe1613a5d60208d018d61459b565b6040516001600160e01b031960e084901b1681526001600160a01b039091166004820152602401600060405180830381600087803b158015613a9e57600080fd5b505af1158015613ab2573d6000803e3d6000fd5b507f1538f24a28b86b1e06984d7524bfbf54fcb19c38c43e79a99a239662aeee5e5e9250339150610fa7905060208d018d61459b565b613af0614050565b6001600160a01b038116613b555760405162461bcd60e51b815260206004820152602660248201527f4f776e61626c653a206e6577206f776e657220697320746865207a65726f206160448201526564647265737360d01b6064820152608401610866565b613b5e816140aa565b50565b60008111613b5e5760405162461bcd60e51b815260206004820152601760248201527f5465726d733a206d696e74416d6f756e74207a65726f2e0000000000000000006044820152606401610866565b82613bbf5760008111613bc4565b600082115b613c1c5760405162461bcd60e51b815260206004820152602360248201527f5465726d733a206e6f2070726f6a65637420746f6b656e20616c6c6f6361746960448201526237b71760e91b6064820152608401610866565b505050565b600080613c2e84846140fc565b9250905080613c725760405162461bcd60e51b815260206004820152601060248201526f2a32b936b99d103737ba1037bbb732b960811b6044820152606401610866565b5092915050565b6040516370a0823160e01b81526001600160a01b03838116600483015260009182918291908716906370a0823190602401602060405180830381865afa158015613cc7573d6000803e3d6000fd5b505050506040513d601f19601f82011682018060405250810190613ceb9190614814565b6040516330c3f3f760e21b8152600481018290526001600160a01b03888116602483015291925060009186169063c30fcfdc90604401600060405180830381865afa158015613d3e573d6000803e3d6000fd5b505050506040513d6000823e601f3d908101601f19168201604052613d669190810190614e3b565b60405163f4effe4160e01b81529091506001600160a01b0388169063f4effe4190613d9990849086908b90600401614f64565b60408051808303816000875af1158015613db7573d6000803e3d6000fd5b505050506040513d601f19601f82011682018060405250810190613ddb9190614a98565b909890975095505050505050565b6040516001600160a01b0380851660248301528316604482015260648101829052613e549085906323b872dd60e01b906084015b60408051601f198184030181529190526020810180516001600160e01b03166001600160e01b031990931692909217909152614164565b50505050565b6000612710613e6d61ffff841685614ff3565b613e779190615012565b9392505050565b613c1c8363a9059cbb60e01b8484604051602401613e1d929190614a62565b600080613eb384670de0b6b3a764000087614236565b9150613ec883670de0b6b3a764000087614236565b9050935093915050565b806001600160a01b0316826001600160a01b031610613f335760405162461bcd60e51b815260206004820152601d60248201527f5465726d733a20746f6b656e73206f7264657220696e7665727465642e0000006044820152606401610866565b5050565b6001600160a01b0382166000908152609760205260408120905b8154811015613fdf57826001600160a01b0316828281548110613f7657613f76614d69565b6000918252602090912001546001600160a01b031603613fcd5760405162461bcd60e51b815260206004820152601260248201527115195c9b5cce881d985d5b1d08195e1a5cdd60721b6044820152606401610866565b80613fd781614d7f565b915050613f51565b508054600181018255600082815260209081902090910180546001600160a01b0319166001600160a01b03858116918217909255604080519287168352928201527f7f03ac7449144076e2d9d5a237c3ff0d0108e0a2ebdd5213c4b0de6f4d4f6953910160405180910390a1505050565b6033546001600160a01b03163314612b035760405162461bcd60e51b815260206004820181905260248201527f4f776e61626c653a2063616c6c6572206973206e6f7420746865206f776e65726044820152606401610866565b603380546001600160a01b038381166001600160a01b0319831681179093556040519116919082907f8be0079c531659141344cd1fd0a4f28419497f9722a3daafe3b4186f6b6457e090600090a35050565b6000805b835181101561415657826001600160a01b031684828151811061412557614125614d69565b60200260200101516001600160a01b031603614144576001915061415d565b8061414e81614d7f565b915050614100565b5060009050805b9250929050565b60006141b9826040518060400160405280602081526020017f5361666545524332303a206c6f772d6c6576656c2063616c6c206661696c6564815250856001600160a01b03166142e39092919063ffffffff16565b805190915015613c1c57808060200190518101906141d79190614a7b565b613c1c5760405162461bcd60e51b815260206004820152602a60248201527f5361666545524332303a204552433230206f7065726174696f6e20646964206e6044820152691bdd081cdd58d8d9595960b21b6064820152608401610866565b600080806000198587098587029250828110838203039150508060000361426f576000841161426457600080fd5b508290049050613e77565b80841161427b57600080fd5b600084868809600260036001881981018916988990049182028318808302840302808302840302808302840302808302840302808302840302918202909203026000889003889004909101858311909403939093029303949094049190911702949350505050565b60606142f284846000856142fa565b949350505050565b60608247101561435b5760405162461bcd60e51b815260206004820152602660248201527f416464726573733a20696e73756666696369656e742062616c616e636520666f6044820152651c8818d85b1b60d21b6064820152608401610866565b6001600160a01b0385163b6143b25760405162461bcd60e51b815260206004820152601d60248201527f416464726573733a2063616c6c20746f206e6f6e2d636f6e74726163740000006044820152606401610866565b600080866001600160a01b031685876040516143ce9190615034565b60006040518083038185875af1925050503d806000811461440b576040519150601f19603f3d011682016040523d82523d6000602084013e614410565b606091505b509150915061442082828661442b565b979650505050505050565b6060831561443a575081613e77565b82511561444a5782518084602001fd5b8160405162461bcd60e51b81526004016108669190615050565b60006080828403121561447657600080fd5b50919050565b60008060a0838503121561448f57600080fd5b6144998484614464565b946080939093013593505050565b6001600160a01b0381168114613b5e57600080fd5b60008083601f8401126144ce57600080fd5b5081356001600160401b038111156144e557600080fd5b60208301915083602082850101111561415d57600080fd5b60008060006040848603121561451257600080fd5b833561451d816144a7565b925060208401356001600160401b0381111561453857600080fd5b614544868287016144bc565b9497909650939450505050565b6000806040838503121561456457600080fd5b82356001600160401b0381111561457a57600080fd5b83016101a0818603121561458d57600080fd5b946020939093013593505050565b6000602082840312156145ad57600080fd5b8135613e77816144a7565b8060020b8114613b5e57600080fd5b600080604083850312156145da57600080fd5b82356145e5816144a7565b915060208301356145f5816145b8565b809150509250929050565b62ffffff81168114613b5e57600080fd5b6000806040838503121561462457600080fd5b823561462f816144a7565b915060208301356145f581614600565b6000806000806080858703121561465557600080fd5b8435614660816144a7565b93506020850135614670816144a7565b92506040850135614680816144a7565b91506060850135614690816144a7565b939692955090935050565b600080604083850312156146ae57600080fd5b823561458d816144a7565b6000806000606084860312156146ce57600080fd5b83356146d9816144a7565b92506020840135915060408401356146f0816144a7565b809150509250925092565b60008083601f84011261470d57600080fd5b5081356001600160401b0381111561472457600080fd5b6020830191508360208260051b850101111561415d57600080fd5b60008060006040848603121561475457600080fd5b833561475f816144a7565b925060208401356001600160401b0381111561477a57600080fd5b614544868287016146fb565b803561ffff8116811461479857600080fd5b919050565b600080600080608085870312156147b357600080fd5b84356147be816144a7565b935060208501356147ce816144a7565b925061468060408601614786565b6000602082840312156147ee57600080fd5b613e7782614786565b60006020828403121561480957600080fd5b8151613e77816144a7565b60006020828403121561482657600080fd5b5051919050565b8015158114613b5e57600080fd5b60006020828403121561484d57600080fd5b8135613e778161482d565b634e487b7160e01b600052604160045260246000fd5b60405160a081016001600160401b038111828210171561489057614890614858565b60405290565b604080519081016001600160401b038111828210171561489057614890614858565b604051606081016001600160401b038111828210171561489057614890614858565b604051601f8201601f191681016001600160401b038111828210171561490257614902614858565b604052919050565b60005b8381101561492557818101518382015260200161490d565b83811115613e545750506000910152565b6000602080838503121561494957600080fd5b82516001600160401b038082111561496057600080fd5b9084019060a0828703121561497457600080fd5b61497c61486e565b82518152838301518482015260408301518281111561499a57600080fd5b8301601f810188136149ab57600080fd5b8051838111156149bd576149bd614858565b6149cf601f8201601f191687016148da565b935080845288868284010111156149e557600080fd5b6149f48187860188850161490a565b505081604082015260608301516060820152608083015160808201528094505050505092915050565b634e487b7160e01b600052601160045260246000fd5b60008219821115614a4657614a46614a1d565b500190565b600082821015614a5d57614a5d614a1d565b500390565b6001600160a01b03929092168252602082015260400190565b600060208284031215614a8d57600080fd5b8151613e778161482d565b60008060408385031215614aab57600080fd5b505080516020909101519092909150565b6020808252601390820152725465726d733a2061646472657373205a65726f60681b604082015260600190565b81835281816020850137506000828201602090810191909152601f909101601f19169091010190565b6001600160a01b0384168152604060208201819052600090614b379083018486614ae9565b95945050505050565b6000808335601e19843603018112614b5757600080fd5b8301803591506001600160401b03821115614b7157600080fd5b6020019150600581901b360382131561415d57600080fd5b600060208284031215614b9b57600080fd5b8135613e77816145b8565b600060208284031215614bb857600080fd5b8135613e7781614600565b600081518084526020808501945080840160005b83811015614bf857815162ffffff1687529582019590820190600101614bd7565b509495945050505050565b6040815260008351610140806040850152614c22610180850183614bc3565b91506020860151614c3e60608601826001600160a01b03169052565b5060408601516001600160a01b03811660808601525060608601516001600160a01b03811660a086015250608086015160c085015260a086015160e085015260c0860151610100614c99818701836001600160a01b03169052565b60e08801519150610120614cb18188018460020b9052565b9088015162ffffff908116938701939093528701519091166101608501525083151560208401529050613e77565b6000808335601e19843603018112614cf657600080fd5b8301803591506001600160401b03821115614d1057600080fd5b60200191503681900382131561415d57600080fd5b6001600160a01b0386168152606060208201819052600090614d4a9083018688614ae9565b8281036040840152614d5d818587614ae9565b98975050505050505050565b634e487b7160e01b600052603260045260246000fd5b600060018201614d9157614d91614a1d565b5060010190565b634e487b7160e01b600052603160045260246000fd5b60208082528181018390526000908460408401835b86811015614ded578235614dd681614600565b62ffffff1682529183019190830190600101614dc3565b509695505050505050565b60208082528181018390526000908460408401835b86811015614ded578235614e20816144a7565b6001600160a01b031682529183019190830190600101614e0d565b60006020808385031215614e4e57600080fd5b82516001600160401b0380821115614e6557600080fd5b818501915085601f830112614e7957600080fd5b815181811115614e8b57614e8b614858565b614e99848260051b016148da565b818152848101925060079190911b830184019087821115614eb957600080fd5b928401925b81841015614420578388036080811215614ed85760008081fd5b614ee0614896565b85516001600160801b0381168114614ef85760008081fd5b81526060601f198301811315614f0e5760008081fd5b614f166148b8565b925087870151614f25816145b8565b8352604087810151614f36816145b8565b848a01529087015190614f4882614600565b8301528087019190915283526080939093019291840191614ebe565b6060808252845182820181905260009190608090818501906020808a01865b83811015614fd257815180516001600160801b031686528301518051600290810b8588015281850151900b604080880191909152015162ffffff16878601529385019390820190600101614f83565b50508601889052506001600160a01b038616604086015292506142f2915050565b600081600019048311821515161561500d5761500d614a1d565b500290565b60008261502f57634e487b7160e01b600052601260045260246000fd5b500490565b6000825161504681846020870161490a565b9190910192915050565b602081526000825180602084015261506f81604085016020870161490a565b601f01601f1916919091016040019291505056fea2646970667358221220e6e52319306c92cc05a6f5e3a55e27eac9adb6266d66995b8f005279ffb3531464736f6c634300080d0033",
  "devdoc": {
    "kind": "dev",
    "methods": {
      "owner()": {
        "details": "Returns the address of the current owner."
      },
      "renounceOwnership()": {
        "details": "Leaves the contract without owner. It will not be possible to call `onlyOwner` functions anymore. Can only be called by the current owner. NOTE: Renouncing ownership will leave the contract without an owner, thereby removing any functionality that is only available to the owner."
      },
      "transferOwnership(address)": {
        "details": "Transfers ownership of the contract to a new account (`newOwner`). Can only be called by the current owner."
      }
    },
    "version": 1
  },
  "userdoc": {
    "kind": "user",
    "methods": {
      "openTerm((uint24[],address,address,bool,address,int24,uint24,uint24,uint256,uint256,bytes,string,bool),uint256)": {
        "notice": "do all neccesary step to initialize market making."
      }
    },
    "version": 1
  },
  "storageLayout": {
    "storage": [
      {
        "astId": 315,
        "contract": "contracts/Terms.sol:Terms",
        "label": "_initialized",
        "offset": 0,
        "slot": "0",
        "type": "t_uint8"
      },
      {
        "astId": 318,
        "contract": "contracts/Terms.sol:Terms",
        "label": "_initializing",
        "offset": 1,
        "slot": "0",
        "type": "t_bool"
      },
      {
        "astId": 929,
        "contract": "contracts/Terms.sol:Terms",
        "label": "__gap",
        "offset": 0,
        "slot": "1",
        "type": "t_array(t_uint256)50_storage"
      },
      {
        "astId": 187,
        "contract": "contracts/Terms.sol:Terms",
        "label": "_owner",
        "offset": 0,
        "slot": "51",
        "type": "t_address"
      },
      {
        "astId": 307,
        "contract": "contracts/Terms.sol:Terms",
        "label": "__gap",
        "offset": 0,
        "slot": "52",
        "type": "t_array(t_uint256)49_storage"
      },
      {
        "astId": 600,
        "contract": "contracts/Terms.sol:Terms",
        "label": "_status",
        "offset": 0,
        "slot": "101",
        "type": "t_uint256"
      },
      {
        "astId": 644,
        "contract": "contracts/Terms.sol:Terms",
        "label": "__gap",
        "offset": 0,
        "slot": "102",
        "type": "t_array(t_uint256)49_storage"
      },
      {
        "astId": 7153,
        "contract": "contracts/Terms.sol:Terms",
        "label": "vaults",
        "offset": 0,
        "slot": "151",
        "type": "t_mapping(t_address,t_array(t_address)dyn_storage)"
      },
      {
        "astId": 7155,
        "contract": "contracts/Terms.sol:Terms",
        "label": "termTreasury",
        "offset": 0,
        "slot": "152",
        "type": "t_address"
      },
      {
        "astId": 7157,
        "contract": "contracts/Terms.sol:Terms",
        "label": "manager",
        "offset": 0,
        "slot": "153",
        "type": "t_address"
      },
      {
        "astId": 7159,
        "contract": "contracts/Terms.sol:Terms",
        "label": "emolument",
        "offset": 20,
        "slot": "153",
        "type": "t_uint16"
      },
      {
        "astId": 7162,
        "contract": "contracts/Terms.sol:Terms",
        "label": "resolver",
        "offset": 0,
        "slot": "154",
        "type": "t_contract(IArrakisV2Resolver)8390"
      }
    ],
    "types": {
      "t_address": {
        "encoding": "inplace",
        "label": "address",
        "numberOfBytes": "20"
      },
      "t_array(t_address)dyn_storage": {
        "base": "t_address",
        "encoding": "dynamic_array",
        "label": "address[]",
        "numberOfBytes": "32"
      },
      "t_array(t_uint256)49_storage": {
        "base": "t_uint256",
        "encoding": "inplace",
        "label": "uint256[49]",
        "numberOfBytes": "1568"
      },
      "t_array(t_uint256)50_storage": {
        "base": "t_uint256",
        "encoding": "inplace",
        "label": "uint256[50]",
        "numberOfBytes": "1600"
      },
      "t_bool": {
        "encoding": "inplace",
        "label": "bool",
        "numberOfBytes": "1"
      },
      "t_contract(IArrakisV2Resolver)8390": {
        "encoding": "inplace",
        "label": "contract IArrakisV2Resolver",
        "numberOfBytes": "20"
      },
      "t_mapping(t_address,t_array(t_address)dyn_storage)": {
        "encoding": "mapping",
        "key": "t_address",
        "label": "mapping(address => address[])",
        "numberOfBytes": "32",
        "value": "t_array(t_address)dyn_storage"
      },
      "t_uint16": {
        "encoding": "inplace",
        "label": "uint16",
        "numberOfBytes": "2"
      },
      "t_uint256": {
        "encoding": "inplace",
        "label": "uint256",
        "numberOfBytes": "32"
      },
      "t_uint8": {
        "encoding": "inplace",
        "label": "uint8",
        "numberOfBytes": "1"
      }
    }
  }
}