{
  "address": "0x2C2514b9425ad3bF231cEbA06474cd84Fffba47c",
  "abi": [
    {
      "inputs": [
        {
          "internalType": "contract IArrakisV2Factory",
          "name": "v2factory_",
          "type": "address"
        }
      ],
      "stateMutability": "nonpayable",
      "type": "constructor"
    },
    {
      "anonymous": false,
      "inputs": [
        {
          "indexed": false,
          "internalType": "address",
          "name": "creator",
          "type": "address"
        },
        {
          "indexed": false,
          "internalType": "address",
          "name": "vault",
          "type": "address"
        }
      ],
      "name": "AddVault",
      "type": "event"
    },
    {
      "anonymous": false,
      "inputs": [
        {
          "indexed": false,
          "internalType": "address",
          "name": "creator",
          "type": "address"
        },
        {
          "indexed": false,
          "internalType": "address",
          "name": "vault",
          "type": "address"
        },
        {
          "indexed": false,
          "internalType": "uint256",
          "name": "amount0",
          "type": "uint256"
        },
        {
          "indexed": false,
          "internalType": "uint256",
          "name": "amount1",
          "type": "uint256"
        },
        {
          "indexed": false,
          "internalType": "address",
          "name": "to",
          "type": "address"
        },
        {
          "indexed": false,
          "internalType": "uint256",
          "name": "emolument0",
          "type": "uint256"
        },
        {
          "indexed": false,
          "internalType": "uint256",
          "name": "emolument1",
          "type": "uint256"
        }
      ],
      "name": "CloseTerm",
      "type": "event"
    },
    {
      "anonymous": false,
      "inputs": [
        {
          "indexed": false,
          "internalType": "address",
          "name": "creator",
          "type": "address"
        },
        {
          "indexed": false,
          "internalType": "address",
          "name": "vault",
          "type": "address"
        },
        {
          "indexed": false,
          "internalType": "uint256",
          "name": "emolument0",
          "type": "uint256"
        },
        {
          "indexed": false,
          "internalType": "uint256",
          "name": "emolument1",
          "type": "uint256"
        }
      ],
      "name": "DecreaseLiquidity",
      "type": "event"
    },
    {
      "anonymous": false,
      "inputs": [
        {
          "indexed": false,
          "internalType": "address",
          "name": "creator",
          "type": "address"
        },
        {
          "indexed": false,
          "internalType": "address",
          "name": "vault",
          "type": "address"
        },
        {
          "indexed": false,
          "internalType": "address",
          "name": "delegate",
          "type": "address"
        }
      ],
      "name": "DelegateVault",
      "type": "event"
    },
    {
      "anonymous": false,
      "inputs": [
        {
          "indexed": false,
          "internalType": "address",
          "name": "creator",
          "type": "address"
        },
        {
          "indexed": false,
          "internalType": "address",
          "name": "vault",
          "type": "address"
        },
        {
          "indexed": false,
          "internalType": "uint256",
          "name": "emolument0",
          "type": "uint256"
        },
        {
          "indexed": false,
          "internalType": "uint256",
          "name": "emolument1",
          "type": "uint256"
        }
      ],
      "name": "ExtendingTerm",
      "type": "event"
    },
    {
      "anonymous": false,
      "inputs": [
        {
          "indexed": false,
          "internalType": "address",
          "name": "creator",
          "type": "address"
        },
        {
          "indexed": false,
          "internalType": "address",
          "name": "vault",
          "type": "address"
        }
      ],
      "name": "IncreaseLiquidity",
      "type": "event"
    },
    {
      "anonymous": false,
      "inputs": [
        {
          "indexed": false,
          "internalType": "uint8",
          "name": "version",
          "type": "uint8"
        }
      ],
      "name": "Initialized",
      "type": "event"
    },
    {
      "anonymous": false,
      "inputs": [
        {
          "indexed": false,
          "internalType": "address",
          "name": "creator",
          "type": "address"
        },
        {
          "indexed": false,
          "internalType": "address",
          "name": "vault",
          "type": "address"
        },
        {
          "indexed": false,
          "internalType": "uint24[]",
          "name": "feeTiers",
          "type": "uint24[]"
        }
      ],
      "name": "LogAddPools",
      "type": "event"
    },
    {
      "anonymous": false,
      "inputs": [
        {
          "indexed": false,
          "internalType": "address",
          "name": "creator",
          "type": "address"
        },
        {
          "indexed": false,
          "internalType": "address",
          "name": "vault",
          "type": "address"
        },
        {
          "indexed": false,
          "internalType": "address[]",
          "name": "pools",
          "type": "address[]"
        }
      ],
      "name": "LogRemovePools",
      "type": "event"
    },
    {
      "anonymous": false,
      "inputs": [
        {
          "indexed": false,
          "internalType": "address",
          "name": "creator",
          "type": "address"
        },
        {
          "indexed": false,
          "internalType": "address",
          "name": "vault",
          "type": "address"
        },
        {
          "indexed": false,
          "internalType": "address",
          "name": "delegate",
          "type": "address"
        }
      ],
      "name": "LogSetDelegate",
      "type": "event"
    },
    {
      "anonymous": false,
      "inputs": [
        {
          "indexed": false,
          "internalType": "address",
          "name": "creator",
          "type": "address"
        },
        {
          "indexed": false,
          "internalType": "address",
          "name": "vault",
          "type": "address"
        },
        {
          "indexed": false,
          "internalType": "uint24",
          "name": "maxSlippage",
          "type": "uint24"
        }
      ],
      "name": "LogSetMaxSlippage",
      "type": "event"
    },
    {
      "anonymous": false,
      "inputs": [
        {
          "indexed": false,
          "internalType": "address",
          "name": "creator",
          "type": "address"
        },
        {
          "indexed": false,
          "internalType": "address",
          "name": "vault",
          "type": "address"
        },
        {
          "indexed": false,
          "internalType": "int24",
          "name": "maxTwapDeviation",
          "type": "int24"
        }
      ],
      "name": "LogSetMaxTwapDeviation",
      "type": "event"
    },
    {
      "anonymous": false,
      "inputs": [
        {
          "indexed": false,
          "internalType": "address",
          "name": "creator",
          "type": "address"
        },
        {
          "indexed": false,
          "internalType": "address",
          "name": "vault",
          "type": "address"
        },
        {
          "indexed": false,
          "internalType": "uint24",
          "name": "twapDuration",
          "type": "uint24"
        }
      ],
      "name": "LogSetTwapDuration",
      "type": "event"
    },
    {
      "anonymous": false,
      "inputs": [
        {
          "indexed": false,
          "internalType": "address",
          "name": "creatorOrDelegate",
          "type": "address"
        },
        {
          "indexed": false,
          "internalType": "address",
          "name": "vault",
          "type": "address"
        },
        {
          "indexed": false,
          "internalType": "bytes",
          "name": "data",
          "type": "bytes"
        }
      ],
      "name": "LogSetVaultData",
      "type": "event"
    },
    {
      "anonymous": false,
      "inputs": [
        {
          "indexed": false,
          "internalType": "address",
          "name": "creatorOrDelegate",
          "type": "address"
        },
        {
          "indexed": false,
          "internalType": "address",
          "name": "vault",
          "type": "address"
        },
        {
          "indexed": false,
          "internalType": "string",
          "name": "strat",
          "type": "string"
        }
      ],
      "name": "LogSetVaultStratByName",
      "type": "event"
    },
    {
      "anonymous": false,
      "inputs": [
        {
          "indexed": false,
          "internalType": "address",
          "name": "creator",
          "type": "address"
        },
        {
          "indexed": false,
          "internalType": "address",
          "name": "vault",
          "type": "address"
        },
        {
          "indexed": false,
          "internalType": "address",
          "name": "to",
          "type": "address"
        },
        {
          "indexed": false,
          "internalType": "uint256",
          "name": "sentBack",
          "type": "uint256"
        }
      ],
      "name": "LogWithdrawVaultBalance",
      "type": "event"
    },
    {
      "anonymous": false,
      "inputs": [
        {
          "indexed": true,
          "internalType": "address",
          "name": "previousOwner",
          "type": "address"
        },
        {
          "indexed": true,
          "internalType": "address",
          "name": "newOwner",
          "type": "address"
        }
      ],
      "name": "OwnershipTransferred",
      "type": "event"
    },
    {
      "anonymous": false,
      "inputs": [
        {
          "indexed": false,
          "internalType": "address",
          "name": "creator",
          "type": "address"
        },
        {
          "indexed": false,
          "internalType": "address",
          "name": "vault",
          "type": "address"
        }
      ],
      "name": "RemoveVault",
      "type": "event"
    },
    {
      "anonymous": false,
      "inputs": [
        {
          "indexed": false,
          "internalType": "uint16",
          "name": "oldEmolument",
          "type": "uint16"
        },
        {
          "indexed": false,
          "internalType": "uint16",
          "name": "newEmolment",
          "type": "uint16"
        }
      ],
      "name": "SetEmolument",
      "type": "event"
    },
    {
      "anonymous": false,
      "inputs": [
        {
          "indexed": false,
          "internalType": "address",
          "name": "oldManager",
          "type": "address"
        },
        {
          "indexed": false,
          "internalType": "address",
          "name": "newManager",
          "type": "address"
        }
      ],
      "name": "SetManager",
      "type": "event"
    },
    {
      "anonymous": false,
      "inputs": [
        {
          "indexed": false,
          "internalType": "contract IArrakisV2Resolver",
          "name": "oldResolver",
          "type": "address"
        },
        {
          "indexed": false,
          "internalType": "contract IArrakisV2Resolver",
          "name": "newResolver",
          "type": "address"
        }
      ],
      "name": "SetResolver",
      "type": "event"
    },
    {
      "anonymous": false,
      "inputs": [
        {
          "indexed": false,
          "internalType": "address",
          "name": "oldTermTreasury",
          "type": "address"
        },
        {
          "indexed": false,
          "internalType": "address",
          "name": "newTermTreasury",
          "type": "address"
        }
      ],
      "name": "SetTermTreasury",
      "type": "event"
    },
    {
      "anonymous": false,
      "inputs": [
        {
          "indexed": false,
          "internalType": "address",
          "name": "creator",
          "type": "address"
        },
        {
          "indexed": false,
          "internalType": "address",
          "name": "vault",
          "type": "address"
        }
      ],
      "name": "SetupVault",
      "type": "event"
    },
    {
      "inputs": [
        {
          "internalType": "contract IArrakisV2",
          "name": "vault_",
          "type": "address"
        },
        {
          "internalType": "uint24[]",
          "name": "feeTiers_",
          "type": "uint24[]"
        }
      ],
      "name": "addPools",
      "outputs": [],
      "stateMutability": "nonpayable",
      "type": "function"
    },
    {
      "inputs": [
        {
          "internalType": "contract IArrakisV2",
          "name": "vault_",
          "type": "address"
        },
        {
          "internalType": "address",
          "name": "to_",
          "type": "address"
        },
        {
          "internalType": "address",
          "name": "newOwner_",
          "type": "address"
        },
        {
          "internalType": "address",
          "name": "newManager_",
          "type": "address"
        }
      ],
      "name": "closeTerm",
      "outputs": [],
      "stateMutability": "nonpayable",
      "type": "function"
    },
    {
      "inputs": [
        {
          "components": [
            {
              "internalType": "contract IArrakisV2",
              "name": "vault",
              "type": "address"
            },
            {
              "internalType": "uint256",
              "name": "amount0",
              "type": "uint256"
            },
            {
              "internalType": "uint256",
              "name": "amount1",
              "type": "uint256"
            },
            {
              "internalType": "address",
              "name": "to",
              "type": "address"
            }
          ],
          "internalType": "struct DecreaseBalance",
          "name": "decreaseBalance_",
          "type": "tuple"
        },
        {
          "internalType": "uint256",
          "name": "mintAmount_",
          "type": "uint256"
        }
      ],
      "name": "decreaseLiquidity",
      "outputs": [],
      "stateMutability": "nonpayable",
      "type": "function"
    },
    {
      "inputs": [
        {
          "internalType": "address",
          "name": "",
          "type": "address"
        }
      ],
      "name": "delegateByVaults",
      "outputs": [
        {
          "internalType": "address",
          "name": "",
          "type": "address"
        }
      ],
      "stateMutability": "view",
      "type": "function"
    },
    {
      "inputs": [],
      "name": "emolument",
      "outputs": [
        {
          "internalType": "uint16",
          "name": "",
          "type": "uint16"
        }
      ],
      "stateMutability": "view",
      "type": "function"
    },
    {
      "inputs": [
        {
          "components": [
            {
              "internalType": "contract IArrakisV2",
              "name": "vault",
              "type": "address"
            },
            {
              "internalType": "bool",
              "name": "projectTknIsTknZero",
              "type": "bool"
            },
            {
              "internalType": "uint256",
              "name": "amount0",
              "type": "uint256"
            },
            {
              "internalType": "uint256",
              "name": "amount1",
              "type": "uint256"
            }
          ],
          "internalType": "struct ExtendingTermData",
          "name": "extensionData_",
          "type": "tuple"
        },
        {
          "internalType": "uint256",
          "name": "mintAmount_",
          "type": "uint256"
        }
      ],
      "name": "extendingTerm",
      "outputs": [],
      "stateMutability": "nonpayable",
      "type": "function"
    },
    {
      "inputs": [
        {
          "components": [
            {
              "internalType": "contract IArrakisV2",
              "name": "vault",
              "type": "address"
            },
            {
              "internalType": "bool",
              "name": "projectTknIsTknZero",
              "type": "bool"
            },
            {
              "internalType": "uint256",
              "name": "amount0",
              "type": "uint256"
            },
            {
              "internalType": "uint256",
              "name": "amount1",
              "type": "uint256"
            }
          ],
          "internalType": "struct IncreaseBalance",
          "name": "increaseBalance_",
          "type": "tuple"
        },
        {
          "internalType": "uint256",
          "name": "mintAmount_",
          "type": "uint256"
        }
      ],
      "name": "increaseLiquidity",
      "outputs": [],
      "stateMutability": "nonpayable",
      "type": "function"
    },
    {
      "inputs": [
        {
          "internalType": "address",
          "name": "owner_",
          "type": "address"
        },
        {
          "internalType": "address",
          "name": "termTreasury_",
          "type": "address"
        },
        {
          "internalType": "uint16",
          "name": "emolument_",
          "type": "uint16"
        },
        {
          "internalType": "contract IArrakisV2Resolver",
          "name": "resolver_",
          "type": "address"
        }
      ],
      "name": "initialize",
      "outputs": [],
      "stateMutability": "nonpayable",
      "type": "function"
    },
    {
      "inputs": [],
      "name": "manager",
      "outputs": [
        {
          "internalType": "address",
          "name": "",
          "type": "address"
        }
      ],
      "stateMutability": "view",
      "type": "function"
    },
    {
      "inputs": [
        {
          "components": [
            {
              "internalType": "uint24[]",
              "name": "feeTiers",
              "type": "uint24[]"
            },
            {
              "internalType": "contract IERC20",
              "name": "token0",
              "type": "address"
            },
            {
              "internalType": "contract IERC20",
              "name": "token1",
              "type": "address"
            },
            {
              "internalType": "bool",
              "name": "projectTknIsTknZero",
              "type": "bool"
            },
            {
              "internalType": "address",
              "name": "owner",
              "type": "address"
            },
            {
              "internalType": "int24",
              "name": "maxTwapDeviation",
              "type": "int24"
            },
            {
              "internalType": "uint24",
              "name": "twapDuration",
              "type": "uint24"
            },
            {
              "internalType": "uint24",
              "name": "maxSlippage",
              "type": "uint24"
            },
            {
              "internalType": "uint256",
              "name": "amount0",
              "type": "uint256"
            },
            {
              "internalType": "uint256",
              "name": "amount1",
              "type": "uint256"
            },
            {
              "internalType": "bytes",
              "name": "datas",
              "type": "bytes"
            },
            {
              "internalType": "string",
              "name": "strat",
              "type": "string"
            },
            {
              "internalType": "bool",
              "name": "isBeacon",
              "type": "bool"
            },
            {
              "internalType": "address",
              "name": "delegate",
              "type": "address"
            }
          ],
          "internalType": "struct SetupPayload",
          "name": "setup_",
          "type": "tuple"
        },
        {
          "internalType": "uint256",
          "name": "mintAmount_",
          "type": "uint256"
        }
      ],
      "name": "openTerm",
      "outputs": [
        {
          "internalType": "address",
          "name": "vault",
          "type": "address"
        }
      ],
      "stateMutability": "payable",
      "type": "function"
    },
    {
      "inputs": [],
      "name": "owner",
      "outputs": [
        {
          "internalType": "address",
          "name": "",
          "type": "address"
        }
      ],
      "stateMutability": "view",
      "type": "function"
    },
    {
      "inputs": [
        {
          "internalType": "contract IArrakisV2",
          "name": "vault_",
          "type": "address"
        },
        {
          "internalType": "address[]",
          "name": "pools_",
          "type": "address[]"
        }
      ],
      "name": "removePools",
      "outputs": [],
      "stateMutability": "nonpayable",
      "type": "function"
    },
    {
      "inputs": [],
      "name": "renounceOwnership",
      "outputs": [],
      "stateMutability": "nonpayable",
      "type": "function"
    },
    {
      "inputs": [],
      "name": "resolver",
      "outputs": [
        {
          "internalType": "contract IArrakisV2Resolver",
          "name": "",
          "type": "address"
        }
      ],
      "stateMutability": "view",
      "type": "function"
    },
    {
      "inputs": [
        {
          "internalType": "address",
          "name": "vault_",
          "type": "address"
        },
        {
          "internalType": "address",
          "name": "delegate_",
          "type": "address"
        }
      ],
      "name": "setDelegate",
      "outputs": [],
      "stateMutability": "nonpayable",
      "type": "function"
    },
    {
      "inputs": [
        {
          "internalType": "uint16",
          "name": "emolument_",
          "type": "uint16"
        }
      ],
      "name": "setEmolument",
      "outputs": [],
      "stateMutability": "nonpayable",
      "type": "function"
    },
    {
      "inputs": [
        {
          "internalType": "address",
          "name": "manager_",
          "type": "address"
        }
      ],
      "name": "setManager",
      "outputs": [],
      "stateMutability": "nonpayable",
      "type": "function"
    },
    {
      "inputs": [
        {
          "internalType": "contract IArrakisV2",
          "name": "vault_",
          "type": "address"
        },
        {
          "internalType": "uint24",
          "name": "maxSlippage_",
          "type": "uint24"
        }
      ],
      "name": "setMaxSlippage",
      "outputs": [],
      "stateMutability": "nonpayable",
      "type": "function"
    },
    {
      "inputs": [
        {
          "internalType": "contract IArrakisV2",
          "name": "vault_",
          "type": "address"
        },
        {
          "internalType": "int24",
          "name": "maxTwapDeviation_",
          "type": "int24"
        }
      ],
      "name": "setMaxTwapDeviation",
      "outputs": [],
      "stateMutability": "nonpayable",
      "type": "function"
    },
    {
      "inputs": [
        {
          "internalType": "contract IArrakisV2Resolver",
          "name": "resolver_",
          "type": "address"
        }
      ],
      "name": "setResolver",
      "outputs": [],
      "stateMutability": "nonpayable",
      "type": "function"
    },
    {
      "inputs": [
        {
          "internalType": "address",
          "name": "termTreasury_",
          "type": "address"
        }
      ],
      "name": "setTermTreasury",
      "outputs": [],
      "stateMutability": "nonpayable",
      "type": "function"
    },
    {
      "inputs": [
        {
          "internalType": "contract IArrakisV2",
          "name": "vault_",
          "type": "address"
        },
        {
          "internalType": "uint24",
          "name": "twapDuration_",
          "type": "uint24"
        }
      ],
      "name": "setTwapDuration",
      "outputs": [],
      "stateMutability": "nonpayable",
      "type": "function"
    },
    {
      "inputs": [
        {
          "internalType": "address",
          "name": "vault_",
          "type": "address"
        },
        {
          "internalType": "bytes",
          "name": "data_",
          "type": "bytes"
        }
      ],
      "name": "setVaultData",
      "outputs": [],
      "stateMutability": "nonpayable",
      "type": "function"
    },
    {
      "inputs": [
        {
          "internalType": "address",
          "name": "vault_",
          "type": "address"
        },
        {
          "internalType": "string",
          "name": "strat_",
          "type": "string"
        }
      ],
      "name": "setVaultStratByName",
      "outputs": [],
      "stateMutability": "nonpayable",
      "type": "function"
    },
    {
      "inputs": [],
      "name": "termTreasury",
      "outputs": [
        {
          "internalType": "address",
          "name": "",
          "type": "address"
        }
      ],
      "stateMutability": "view",
      "type": "function"
    },
    {
      "inputs": [
        {
          "internalType": "address",
          "name": "newOwner",
          "type": "address"
        }
      ],
      "name": "transferOwnership",
      "outputs": [],
      "stateMutability": "nonpayable",
      "type": "function"
    },
    {
      "inputs": [],
      "name": "v2factory",
      "outputs": [
        {
          "internalType": "contract IArrakisV2Factory",
          "name": "",
          "type": "address"
        }
      ],
      "stateMutability": "view",
      "type": "function"
    },
    {
      "inputs": [
        {
          "internalType": "address",
          "name": "",
          "type": "address"
        },
        {
          "internalType": "uint256",
          "name": "",
          "type": "uint256"
        }
      ],
      "name": "vaults",
      "outputs": [
        {
          "internalType": "address",
          "name": "",
          "type": "address"
        }
      ],
      "stateMutability": "view",
      "type": "function"
    },
    {
      "inputs": [
        {
          "internalType": "address",
          "name": "vault_",
          "type": "address"
        },
        {
          "internalType": "uint256",
          "name": "amount_",
          "type": "uint256"
        },
        {
          "internalType": "address payable",
          "name": "to_",
          "type": "address"
        }
      ],
      "name": "withdrawVaultBalance",
      "outputs": [],
      "stateMutability": "nonpayable",
      "type": "function"
    }
  ],
  "transactionHash": "0x900868fe1ee56019174ddedaff9ca414194301724c3c868fcb547fd782132b92",
  "args": [
    "0x6369D9fE00701E27607B9A58719f4bd02c9b3FBA"
  ],
  "numDeployments": 2,
  "solcInputHash": "300996097b0f12e0bf16e0aefbfbfe17",
  "bytecode": "0x60a06040523480156200001157600080fd5b5060405162005a4638038062005a46833981016040819052620000349162000046565b6001600160a01b031660805262000078565b6000602082840312156200005957600080fd5b81516001600160a01b03811681146200007157600080fd5b9392505050565b6080516159ab6200009b60003960008181610280015261074301526159ab6000f3fe6080604052600436106101c25760003560e01c8063715018a6116100f7578063b33d46dc11610095578063ea6b186c11610064578063ea6b186c1461052b578063eaaa92991461054b578063f2cb118a1461056b578063f2fde38b1461058b57600080fd5b8063b33d46dc146104ab578063bd324d32146104cb578063bfd7e752146104eb578063d0ebdbe71461050b57600080fd5b806386de1467116100d157806386de14671461042d5780638da5cb5b1461044d578063ae5e24c21461046b578063b1ffa5821461048b57600080fd5b8063715018a6146103d85780637407e38c146103ed5780637bbfc69e1461040d57600080fd5b80633ce3b0d21161016457806351a6deba1161013e57806351a6deba1461035857806356ee72be146103785780635c8738491461039857806368b6702e146103b857600080fd5b80633ce3b0d2146102e2578063481c6a75146103185780634e543b261461033857600080fd5b806326c1a7b1116101a057806326c1a7b114610239578063330807a91461026e578063332d28ef146102a25780633a91f42a146102c257600080fd5b806304f3bcec146101c757806320213b4f14610204578063233fc65014610217575b600080fd5b3480156101d357600080fd5b50609a546101e7906001600160a01b031681565b6040516001600160a01b0390911681526020015b60405180910390f35b6101e7610212366004614c0f565b6105ab565b34801561022357600080fd5b50610237610232366004614c71565b610e18565b005b34801561024557600080fd5b5060995461025b90600160a01b900461ffff1681565b60405161ffff90911681526020016101fb565b34801561027a57600080fd5b506101e77f000000000000000000000000000000000000000000000000000000000000000081565b3480156102ae57600080fd5b506102376102bd366004614c71565b611ab8565b3480156102ce57600080fd5b506102376102dd366004614cf2565b612385565b3480156102ee57600080fd5b506101e76102fd366004614d46565b609b602052600090815260409020546001600160a01b031681565b34801561032457600080fd5b506099546101e7906001600160a01b031681565b34801561034457600080fd5b50610237610353366004614d46565b61251c565b34801561036457600080fd5b50610237610373366004614d72565b612607565b34801561038457600080fd5b50610237610393366004614dbc565b612755565b3480156103a457600080fd5b506102376103b3366004614dea565b612899565b3480156103c457600080fd5b506102376103d3366004614e18565b612967565b3480156103e457600080fd5b50610237612eb2565b3480156103f957600080fd5b50610237610408366004614cf2565b612ec6565b34801561041957600080fd5b506101e7610428366004614e74565b61301d565b34801561043957600080fd5b50610237610448366004614e92565b613055565b34801561045957600080fd5b506033546001600160a01b03166101e7565b34801561047757600080fd5b50610237610486366004614f18565b61322e565b34801561049757600080fd5b506102376104a6366004614f76565b61335b565b3480156104b757600080fd5b506102376104c6366004614fb5565b613518565b3480156104d757600080fd5b506102376104e6366004614dbc565b6135ed565b3480156104f757600080fd5b50610237610506366004614d46565b613731565b34801561051757600080fd5b50610237610526366004614d46565b613814565b34801561053757600080fd5b506098546101e7906001600160a01b031681565b34801561055757600080fd5b50610237610566366004614f18565b6138f1565b34801561057757600080fd5b50610237610586366004614c71565b613a1e565b34801561059757600080fd5b506102376105a6366004614d46565b61415c565b60006105bd6040840160208501614d46565b6105cd6060850160408601614d46565b6040516370a0823160e01b81523060048201526000906001600160a01b038416906370a0823190602401602060405180830381865afa158015610614573d6000803e3d6000fd5b505050506040513d601f19601f820116820180604052508101906106389190614fd0565b6040516370a0823160e01b81523060048201529091506000906001600160a01b038416906370a0823190602401602060405180830381865afa158015610682573d6000803e3d6000fd5b505050506040513d601f19601f820116820180604052508101906106a69190614fd0565b90506106b1866141d5565b6106d56106c46080890160608a01614ff7565b886101000135896101200135614225565b6106fd6106e86040890160208a01614d46565b6106f860608a0160408b01614d46565b614295565b6040805180820190915260008082526020820152610726878961010001358a61012001356142fa565b602083015281526040805161014081019091526001600160a01b037f000000000000000000000000000000000000000000000000000000000000000016906364f954de90806107758c80615014565b808060200260200160405190810160405280939291908181526020018383602002808284376000920191909152505050908252506020908101906107bf9060408e01908e01614d46565b6001600160a01b031681526020016107dd60608d0160408e01614d46565b6001600160a01b0390811682523060208084019190915286516040840152860151606083015260995416608082015260a0908101906108229060c08e01908e0161505d565b60020b815260200161083a60e08d0160c08e0161507a565b62ffffff1681526020016108556101008d0160e08e0161507a565b62ffffff16905261086e6101a08c016101808d01614ff7565b6040518363ffffffff1660e01b815260040161088b9291906150d7565b6020604051808303816000875af11580156108aa573d6000803e3d6000fd5b505050506040513d601f19601f820116820180604052508101906108ce91906151b3565b95508590506108ec6108e660a08a0160808b01614d46565b8761432f565b60006109006101c08a016101a08b01614d46565b6001600160a01b03161461092957610929866109246101c08b016101a08c01614d46565b614440565b6099546001600160a01b031663ded2df71348861094a6101408d018d6151d0565b6109586101608f018f6151d0565b6040518763ffffffff1660e01b815260040161097895949392919061523f565b6000604051808303818588803b15801561099157600080fd5b505af11580156109a5573d6000803e3d6000fd5b50505050506109d933308a61010001358b60200160208101906109c89190614d46565b6001600160a01b0316929190614519565b6109f433306101208b01356109c860608d0160408e01614d46565b610a046040890160208a01614d46565b6001600160a01b031663095ea7b3878a61010001356040518363ffffffff1660e01b8152600401610a36929190615283565b6020604051808303816000875af1158015610a55573d6000803e3d6000fd5b505050506040513d601f19601f82011682018060405250810190610a79919061529c565b50610a8a6060890160408a01614d46565b6001600160a01b031663095ea7b3878a61012001356040518363ffffffff1660e01b8152600401610abc929190615283565b6020604051808303816000875af1158015610adb573d6000803e3d6000fd5b505050506040513d601f19601f82011682018060405250810190610aff919061529c565b506040516394bf804d60e01b8152600481018890523060248201526001600160a01b038216906394bf804d9060440160408051808303816000875af1158015610b4c573d6000803e3d6000fd5b505050506040513d601f19601f82011682018060405250810190610b7091906152b9565b5050609954604051635c1c3fe160e01b81526001600160a01b03888116600483015290911690635c1c3fe190602401600060405180830381600087803b158015610bb957600080fd5b505af1158015610bcd573d6000803e3d6000fd5b507fd78ce241ef5794ab1864a13f548169c9ffc03abda8ed1064065fa81c340c91799250610c0491505060a08a0160808b01614d46565b604080516001600160a01b03928316815291891660208301520160405180910390a1506040516370a0823160e01b815230600482015260009083906001600160a01b038716906370a0823190602401602060405180830381865afa158015610c70573d6000803e3d6000fd5b505050506040513d601f19601f82011682018060405250810190610c949190614fd0565b610c9e91906152f3565b6040516370a0823160e01b815230600482015290915060009083906001600160a01b038716906370a0823190602401602060405180830381865afa158015610cea573d6000803e3d6000fd5b505050506040513d601f19601f82011682018060405250810190610d0e9190614fd0565b610d1891906152f3565b90508115610d935760405163a9059cbb60e01b81526001600160a01b0387169063a9059cbb90610d4e9033908690600401615283565b6020604051808303816000875af1158015610d6d573d6000803e3d6000fd5b505050506040513d601f19601f82011682018060405250810190610d91919061529c565b505b8015610e0c5760405163a9059cbb60e01b81526001600160a01b0386169063a9059cbb90610dc79033908590600401615283565b6020604051808303816000875af1158015610de6573d6000803e3d6000fd5b505050506040513d601f19601f82011682018060405250810190610e0a919061529c565b505b50505050505092915050565b610e256020830183614d46565b6001600160a01b0316630dfe16816040518163ffffffff1660e01b8152600401602060405180830381865afa158015610e62573d6000803e3d6000fd5b505050506040513d601f19601f82011682018060405250810190610e8691906151b3565b610e936020840184614d46565b6001600160a01b031663d21220a76040518163ffffffff1660e01b8152600401602060405180830381865afa158015610ed0573d6000803e3d6000fd5b505050506040513d601f19601f82011682018060405250810190610ef491906151b3565b6040516370a0823160e01b81523060048201526000906001600160a01b038416906370a0823190602401602060405180830381865afa158015610f3b573d6000803e3d6000fd5b505050506040513d601f19601f82011682018060405250810190610f5f9190614fd0565b6040516370a0823160e01b81523060048201529091506000906001600160a01b038416906370a0823190602401602060405180830381865afa158015610fa9573d6000803e3d6000fd5b505050506040513d601f19601f82011682018060405250810190610fcd9190614fd0565b9050610fd8856141d5565b611080609b6000610fec60208a018a614d46565b6001600160a01b039081168252602080830193909352604091820160009081205433825260978552908390208054845181870281018701909552808552919092169383018282801561106757602002820191906000526020600020905b81546001600160a01b03168152600190910190602001808311611049575b5061107b9350505060208b0190508a614d46565b61458a565b61108d426201518061530a565b6099546001600160a01b03166390229af76110ab60208a018a614d46565b6040516001600160e01b031960e084901b1681526001600160a01b039091166004820152602401600060405180830381865afa1580156110ef573d6000803e3d6000fd5b505050506040513d6000823e601f3d908101601f191682016040526111179190810190615463565b608001511061116d5760405162461bcd60e51b815260206004820152601760248201527f5465726d733a207465726d73206973206163746976652e00000000000000000060448201526064015b60405180910390fd5b60008061119361118060208a018a614d46565b609a5430906001600160a01b03166145f0565b9092509050611210333060408b01356111af60208d018d614d46565b6001600160a01b0316630dfe16816040518163ffffffff1660e01b8152600401602060405180830381865afa1580156111ec573d6000803e3d6000fd5b505050506040513d601f19601f820116820180604052508101906109c891906151b3565b611264333060608b013561122760208d018d614d46565b6001600160a01b031663d21220a76040518163ffffffff1660e01b8152600401602060405180830381865afa1580156111ec573d6000803e3d6000fd5b600061128083609960149054906101000a900461ffff16614760565b9050600061129e83609960149054906101000a900461ffff16614760565b90506112ad60208b018b614d46565b6001600160a01b0316630dfe16816040518163ffffffff1660e01b8152600401602060405180830381865afa1580156112ea573d6000803e3d6000fd5b505050506040513d601f19601f8201168201806040525081019061130e91906151b3565b6001600160a01b031663095ea7b361132960208d018d614d46565b84878e6040013561133a919061530a565b61134491906152f3565b6040518363ffffffff1660e01b8152600401611361929190615283565b6020604051808303816000875af1158015611380573d6000803e3d6000fd5b505050506040513d601f19601f820116820180604052508101906113a4919061529c565b506113b260208b018b614d46565b6001600160a01b031663d21220a76040518163ffffffff1660e01b8152600401602060405180830381865afa1580156113ef573d6000803e3d6000fd5b505050506040513d601f19601f8201168201806040525081019061141391906151b3565b6001600160a01b031663095ea7b361142e60208d018d614d46565b83868e6060013561143f919061530a565b61144991906152f3565b6040518363ffffffff1660e01b8152600401611466929190615283565b6020604051808303816000875af1158015611485573d6000803e3d6000fd5b505050506040513d601f19601f820116820180604052508101906114a9919061529c565b50811561153f5760985461153f906001600160a01b0316836114ce60208e018e614d46565b6001600160a01b0316630dfe16816040518163ffffffff1660e01b8152600401602060405180830381865afa15801561150b573d6000803e3d6000fd5b505050506040513d601f19601f8201168201806040525081019061152f91906151b3565b6001600160a01b03169190614784565b80156115a0576098546115a0906001600160a01b03168261156360208e018e614d46565b6001600160a01b031663d21220a76040518163ffffffff1660e01b8152600401602060405180830381865afa15801561150b573d6000803e3d6000fd5b60408051808201909152600080825260208201526115f38a84878e604001356115c9919061530a565b6115d391906152f3565b84878f606001356115e4919061530a565b6115ee91906152f3565b6142fa565b60208084019190915290825261160b908c018c614d46565b81516020830151604051633f7b613560e01b8152600481019290925260248201526001600160a01b039190911690633f7b613590604401600060405180830381600087803b15801561165c57600080fd5b505af1158015611670573d6000803e3d6000fd5b50506099546001600160a01b03169250635c1c3fe19150611696905060208d018d614d46565b6040516001600160e01b031960e084901b1681526001600160a01b039091166004820152602401600060405180830381600087803b1580156116d757600080fd5b505af11580156116eb573d6000803e3d6000fd5b506116fd9250505060208b018b614d46565b6040516394bf804d60e01b8152600481018b90523060248201526001600160a01b0391909116906394bf804d9060440160408051808303816000875af115801561174b573d6000803e3d6000fd5b505050506040513d601f19601f8201168201806040525081019061176f91906152b9565b50506099546001600160a01b0316635c1c3fe161178f60208d018d614d46565b6040516001600160e01b031960e084901b1681526001600160a01b039091166004820152602401600060405180830381600087803b1580156117d057600080fd5b505af11580156117e4573d6000803e3d6000fd5b50506099546001600160a01b03169150636f2cbdf0905061180860208d018d614d46565b6040516001600160e01b031960e084901b1681526001600160a01b039091166004820152602401600060405180830381600087803b15801561184957600080fd5b505af115801561185d573d6000803e3d6000fd5b507f46a238a7d74f7eb9e69d547116dd11a787993409bc96175c4038d1dd8509d3e29250339150611893905060208d018d614d46565b604080516001600160a01b03938416815292909116602083015281018490526060810183905260800160405180910390a150506040516370a0823160e01b8152306004820152600092508491506001600160a01b038716906370a08231906024015b602060405180830381865afa158015611912573d6000803e3d6000fd5b505050506040513d601f19601f820116820180604052508101906119369190614fd0565b61194091906152f3565b6040516370a0823160e01b815230600482015290915060009083906001600160a01b038716906370a0823190602401602060405180830381865afa15801561198c573d6000803e3d6000fd5b505050506040513d601f19601f820116820180604052508101906119b09190614fd0565b6119ba91906152f3565b90508115611a355760405163a9059cbb60e01b81526001600160a01b0387169063a9059cbb906119f09033908690600401615283565b6020604051808303816000875af1158015611a0f573d6000803e3d6000fd5b505050506040513d601f19601f82011682018060405250810190611a33919061529c565b505b8015611aae5760405163a9059cbb60e01b81526001600160a01b0386169063a9059cbb90611a699033908590600401615283565b6020604051808303816000875af1158015611a88573d6000803e3d6000fd5b505050506040513d601f19601f82011682018060405250810190611aac919061529c565b505b5050505050505050565b611ac56020830183614d46565b6001600160a01b0316630dfe16816040518163ffffffff1660e01b8152600401602060405180830381865afa158015611b02573d6000803e3d6000fd5b505050506040513d601f19601f82011682018060405250810190611b2691906151b3565b611b336020840184614d46565b6001600160a01b031663d21220a76040518163ffffffff1660e01b8152600401602060405180830381865afa158015611b70573d6000803e3d6000fd5b505050506040513d601f19601f82011682018060405250810190611b9491906151b3565b6040516370a0823160e01b81523060048201526000906001600160a01b038416906370a0823190602401602060405180830381865afa158015611bdb573d6000803e3d6000fd5b505050506040513d601f19601f82011682018060405250810190611bff9190614fd0565b6040516370a0823160e01b81523060048201529091506000906001600160a01b038416906370a0823190602401602060405180830381865afa158015611c49573d6000803e3d6000fd5b505050506040513d601f19601f82011682018060405250810190611c6d9190614fd0565b9050611c78856141d5565b336000908152609760209081526040918290208054835181840281018401909452808452611cf39392830182828015611cda57602002820191906000526020600020905b81546001600160a01b03168152600190910190602001808311611cbc575b50611cee9350505060208a01905089614d46565b6147a3565b5030600080611d1b611d0860208b018b614d46565b609a5485906001600160a01b03166145f0565b9150915081896020013510611d7d5760405162461bcd60e51b815260206004820152602260248201527f5465726d733a2073656e64206261636b20616d6f756e7430203e20616d6f756e604482015261074360f41b6064820152608401611164565b80896040013510611ddb5760405162461bcd60e51b815260206004820152602260248201527f5465726d733a2073656e64206261636b20616d6f756e7431203e20616d6f756e604482015261743160f01b6064820152608401611164565b6000611dfb8a60200135609960149054906101000a900461ffff16614760565b90506000611e1d8b60400135609960149054906101000a900461ffff16614760565b90506000611e2e60208d018d614d46565b6001600160a01b0316630dfe16816040518163ffffffff1660e01b8152600401602060405180830381865afa158015611e6b573d6000803e3d6000fd5b505050506040513d601f19601f82011682018060405250810190611e8f91906151b3565b90506000611ea060208e018e614d46565b6001600160a01b031663d21220a76040518163ffffffff1660e01b8152600401602060405180830381865afa158015611edd573d6000803e3d6000fd5b505050506040513d601f19601f82011682018060405250810190611f0191906151b3565b90508315611f2357609854611f23906001600160a01b03848116911686614784565b8215611f4357609854611f43906001600160a01b03838116911685614784565b611f7a8d6060016020810190611f599190614d46565b858f60200135611f6991906152f3565b6001600160a01b0385169190614784565b611fb18d6060016020810190611f909190614d46565b848f60400135611fa091906152f3565b6001600160a01b0384169190614784565b816001600160a01b031663095ea7b38e6000016020810190611fd39190614d46565b8f6020013589611fe391906152f3565b6040518363ffffffff1660e01b8152600401612000929190615283565b6020604051808303816000875af115801561201f573d6000803e3d6000fd5b505050506040513d601f19601f82011682018060405250810190612043919061529c565b50806001600160a01b031663095ea7b38e60000160208101906120669190614d46565b8f604001358861207691906152f3565b6040518363ffffffff1660e01b8152600401612093929190615283565b6020604051808303816000875af11580156120b2573d6000803e3d6000fd5b505050506040513d601f19601f820116820180604052508101906120d6919061529c565b5050506000806121008c8e60200135886120f091906152f3565b8f60400135886115ee91906152f3565b909250905061211260208e018e614d46565b604051633f7b613560e01b815260048101849052602481018390526001600160a01b039190911690633f7b613590604401600060405180830381600087803b15801561215d57600080fd5b505af1158015612171573d6000803e3d6000fd5b50506099546001600160a01b03169350635c1c3fe1925061219891505060208e018e614d46565b6040516001600160e01b031960e084901b1681526001600160a01b039091166004820152602401600060405180830381600087803b1580156121d957600080fd5b505af11580156121ed573d6000803e3d6000fd5b506121ff9250505060208c018c614d46565b6040516394bf804d60e01b8152600481018c90526001600160a01b03878116602483015291909116906394bf804d9060440160408051808303816000875af115801561224f573d6000803e3d6000fd5b505050506040513d601f19601f8201168201806040525081019061227391906152b9565b50506099546001600160a01b0316635c1c3fe161229360208e018e614d46565b6040516001600160e01b031960e084901b1681526001600160a01b039091166004820152602401600060405180830381600087803b1580156122d457600080fd5b505af11580156122e8573d6000803e3d6000fd5b507fc00aed996acfb0673742e8911b6ff20f93754b815a7540b7e761d7429ffa08ab925033915061231e905060208e018e614d46565b604080516001600160a01b03938416815292909116602083015281018490526060810183905260800160405180910390a150506040516370a0823160e01b8152306004820152600093508592506001600160a01b03881691506370a08231906024016118f5565b826001600160a01b0381166123ac5760405162461bcd60e51b8152600401611164906154fa565b6001600160a01b038085166000908152609b602090815260408083205433845260978352928190208054825181850281018501909352808352899561243195169383018282801561242657602002820191906000526020600020905b81546001600160a01b03168152600190910190602001808311612408575b50505050508361458a565b60995460405163152f2bb760e01b81526001600160a01b039091169063152f2bb79061246590889088908890600401615527565b600060405180830381600087803b15801561247f57600080fd5b505af1158015612493573d6000803e3d6000fd5b505050506001600160a01b038581166000908152609b60205260409020547f01e616d15b59874215258e3e3646672746d2fafa2a88ab82d89c49991bcdbbe991166124de57336124fa565b6001600160a01b038087166000908152609b6020526040902054165b82868660405161250d9493929190615555565b60405180910390a15050505050565b6125246147fb565b806001600160a01b03811661254b5760405162461bcd60e51b8152600401611164906154fa565b609a546001600160a01b038084169116036125a85760405162461bcd60e51b815260206004820152601760248201527f5465726d733a20616c7265616479207265736f6c7665720000000000000000006044820152606401611164565b609a80546001600160a01b031981166001600160a01b038581169182179093556040805193909216835260208301527f6cb59c795917577ec693948e42535bd42e4c7784893c9fff6d7b7102f64a1d7291015b60405180910390a15050565b816001600160a01b03811661262e5760405162461bcd60e51b8152600401611164906154fa565b33600090815260976020908152604091829020805483518184028101840190945280845286936126a0939092919083018282801561269557602002820191906000526020600020905b81546001600160a01b03168152600190910190602001808311612677575b5050505050826147a3565b50604051631e5ff9ff60e11b8152600284900b60048201526001600160a01b03851690633cbff3fe90602401600060405180830381600087803b1580156126e657600080fd5b505af11580156126fa573d6000803e3d6000fd5b5050604080513381526001600160a01b0385166020820152600287900b918101919091527f33401f3daa7480645671613aaa2ab2dc94af1156ca5874902d01dde78f606020925060600190505b60405180910390a150505050565b816001600160a01b03811661277c5760405162461bcd60e51b8152600401611164906154fa565b33600090815260976020908152604091829020805483518184028101840190945280845286936127ec9390929190830182828015612695576020028201919060005260206000209081546001600160a01b03168152600190910190602001808311612677575050505050826147a3565b5060405163138e02ad60e21b815262ffffff841660048201526001600160a01b03851690634e380ab490602401600060405180830381600087803b15801561283357600080fd5b505af1158015612847573d6000803e3d6000fd5b5050604080513381526001600160a01b038516602082015262ffffff8716918101919091527fa9acafb7eb96368090c336c0d32c92cc4d8ae7f270ee1045c8466dd61b6522a392506060019050612747565b33600090815260976020908152604091829020805483518184028101840190945280845285936129099390929190830182828015612695576020028201919060005260206000209081546001600160a01b03168152600190910190602001808311612677575050505050826147a3565b506129148383614440565b604080513381526001600160a01b0380841660208301528416918101919091527f0bcba02da0cdd1a6aac8553dd2668cbc3dae93fab8859665ba2d470a2ba8f445906060015b60405180910390a1505050565b816001600160a01b03811661298e5760405162461bcd60e51b8152600401611164906154fa565b836001600160a01b0381166129b55760405162461bcd60e51b8152600401611164906154fa565b3360009081526097602090815260408083208054825181850281018501909352808352612a2093830182828015612a1557602002820191906000526020600020905b81546001600160a01b031681526001909101906020018083116129f7575b5050505050886147a3565b3360009081526097602052604090208054919250889183908110612a4657612a4661558c565b600091825260209091200180546001600160a01b0319169055815b33600090815260976020526040902054612a7d906001906152f3565b811015612b2257336000908152609760205260409020612a9e82600161530a565b81548110612aae57612aae61558c565b60009182526020808320909101543383526097909152604090912080546001600160a01b039092169183908110612ae757612ae761558c565b600091825260209091200180546001600160a01b0319166001600160a01b039290921691909117905580612b1a816155a2565b915050612a61565b50336000908152609760205260409020805480612b4157612b416155bb565b600082815260208120820160001990810180546001600160a01b0319169055909101909155609a548190612b81908b9030906001600160a01b03166145f0565b915091506000612ba183609960149054906101000a900461ffff16614760565b90506000612bbf83609960149054906101000a900461ffff16614760565b90508115612c1f57612c1f609860009054906101000a90046001600160a01b0316838e6001600160a01b0316630dfe16816040518163ffffffff1660e01b8152600401602060405180830381865afa15801561150b573d6000803e3d6000fd5b8015612c7d57612c7d609860009054906101000a90046001600160a01b0316828e6001600160a01b031663d21220a76040518163ffffffff1660e01b8152600401602060405180830381865afa15801561150b573d6000803e3d6000fd5b8315612ccf57612ccf8b612c9184876152f3565b8e6001600160a01b0316630dfe16816040518163ffffffff1660e01b8152600401602060405180830381865afa15801561150b573d6000803e3d6000fd5b8215612d2157612d218b612ce383866152f3565b8e6001600160a01b031663d21220a76040518163ffffffff1660e01b8152600401602060405180830381865afa15801561150b573d6000803e3d6000fd5b60995460405163b7d3824360e01b81526001600160a01b038e811660048301528d811660248301529091169063b7d3824390604401600060405180830381600087803b158015612d7057600080fd5b505af1158015612d84573d6000803e3d6000fd5b505060405163d0ebdbe760e01b81526001600160a01b038c811660048301528f16925063d0ebdbe79150602401600060405180830381600087803b158015612dcb57600080fd5b505af1158015612ddf573d6000803e3d6000fd5b505060405163f2fde38b60e01b81526001600160a01b038d811660048301528f16925063f2fde38b9150602401600060405180830381600087803b158015612e2657600080fd5b505af1158015612e3a573d6000803e3d6000fd5b5050604080513381526001600160a01b038981166020830152818301899052606082018890528f16608082015260a0810186905260c0810185905290517f0d52372e455cc3305a983c590d790ca4175987649a8e2959ed7dd506387961b993509081900360e0019150a1505050505050505050505050565b612eba6147fb565b612ec46000614855565b565b826001600160a01b038116612eed5760405162461bcd60e51b8152600401611164906154fa565b6001600160a01b038085166000908152609b6020908152604080832054338452609783529281902080548251818502810185019093528083528995612f70951693830182828015612426576020028201919060005260206000209081546001600160a01b031681526001909101906020018083116124085750505050508361458a565b609954604051631d01f8e360e21b81526001600160a01b0390911690637407e38c90612fa490889088908890600401615527565b600060405180830381600087803b158015612fbe57600080fd5b505af1158015612fd2573d6000803e3d6000fd5b505050506001600160a01b038581166000908152609b60205260409020547fdcd296d17559776406261383f6e29108f53a3ca0edf2041fa6a75335e59c18e691166124de57336124fa565b6097602052816000526040600020818154811061303957600080fd5b6000918252602090912001546001600160a01b03169150829050565b826001600160a01b03811661307c5760405162461bcd60e51b8152600401611164906154fa565b609954604051632988bb9f60e21b81526001600160a01b03808716600483015286921690600090829063a622ee7c90602401600060405180830381865afa1580156130cb573d6000803e3d6000fd5b505050506040513d6000823e601f3d908101601f191682016040526130f391908101906155d1565b505033600090815260976020908152604091829020805483518184028101840190945280845295965061316995929450925083018282801561315e57602002820191906000526020600020905b81546001600160a01b03168152600190910190602001808311613140575b5050505050846147a3565b506040516386de146760e01b81526001600160a01b0388811660048301526024820188905286811660448301528316906386de146790606401600060405180830381600087803b1580156131bc57600080fd5b505af11580156131d0573d6000803e3d6000fd5b5050604080513381526001600160a01b0387811660208301528916818301526060810185905290517f9a06175b960d2874575c5001db984a61e4ee5d9a6db26e152a9de72d6a317d8e9350908190036080019150a150505050505050565b826001600160a01b0381166132555760405162461bcd60e51b8152600401611164906154fa565b33600090815260976020908152604091829020805483518184028101840190945280845287936132c59390929190830182828015612695576020028201919060005260206000209081546001600160a01b03168152600190910190602001808311612677575050505050826147a3565b506040516386ac1cb960e01b81526001600160a01b038616906386ac1cb9906132f4908790879060040161566d565b600060405180830381600087803b15801561330e57600080fd5b505af1158015613322573d6000803e3d6000fd5b505050507f3c97f149136cfbb978755d7cac071dcf9e7bbf5fde8a030fa2d972d78644441c3382868660405161250d9493929190615681565b600054610100900460ff161580801561337b5750600054600160ff909116105b806133955750303b158015613395575060005460ff166001145b6133f85760405162461bcd60e51b815260206004820152602e60248201527f496e697469616c697a61626c653a20636f6e747261637420697320616c72656160448201526d191e481a5b9a5d1a585b1a5e995960921b6064820152608401611164565b6000805460ff19166001179055801561341b576000805461ff0019166101001790555b609954612710600160a01b90910461ffff161061347a5760405162461bcd60e51b815260206004820152601960248201527f5465726d733a20656d6f6c756d656e74203e3d20313030252e000000000000006044820152606401611164565b61348385614855565b609880546001600160a01b038087166001600160a01b0319928316179092556099805461ffff8716600160a01b0261ffff60a01b19909116179055609a8054928516929091169190911790558015613511576000805461ff0019169055604051600181527f7f26b83ff96e1f2b6a682f133852f6798a09c465da95921460cefb38474024989060200161250d565b5050505050565b6135206147fb565b60995461ffff600160a01b90910481169082161061358e5760405162461bcd60e51b815260206004820152602560248201527f5465726d733a206e657720656d6f6c756d656e74203e3d206f6c6420656d6f6c6044820152641d5b595b9d60da1b6064820152608401611164565b6099805461ffff838116600160a01b81810261ffff60a01b198516179094556040805194909304909116835260208301527f7179ea06c1633dd908ac95e2c4749f1063eadecbe01501941080e07bb96764db910160405180910390a150565b816001600160a01b0381166136145760405162461bcd60e51b8152600401611164906154fa565b33600090815260976020908152604091829020805483518184028101840190945280845286936136849390929190830182828015612695576020028201919060005260206000209081546001600160a01b03168152600190910190602001808311612677575050505050826147a3565b50604051633926ab5f60e01b815262ffffff841660048201526001600160a01b03851690633926ab5f90602401600060405180830381600087803b1580156136cb57600080fd5b505af11580156136df573d6000803e3d6000fd5b5050604080513381526001600160a01b038516602082015262ffffff8716918101919091527f0b2781c97709df2752a8c7b7c5544218561de854f35708fd55bcd4dc752e5bab92506060019050612747565b6137396147fb565b806001600160a01b0381166137605760405162461bcd60e51b8152600401611164906154fa565b6098546001600160a01b038084169116036137bd5760405162461bcd60e51b815260206004820152601c60248201527f5465726d733a20616c7265616479207465726d207472656173757279000000006044820152606401611164565b609880546001600160a01b031981166001600160a01b038581169182179093556040805193909216835260208301527fdaecbed9cdf338cbedbd120eefc62bec9856ad3657ea396258b681e6bc17bed591016125fb565b61381c6147fb565b806001600160a01b0381166138435760405162461bcd60e51b8152600401611164906154fa565b6099546001600160a01b039081169083160361389a5760405162461bcd60e51b81526020600482015260166024820152752a32b936b99d1030b63932b0b23c9036b0b730b3b2b960511b6044820152606401611164565b609980546001600160a01b031981166001600160a01b038581169182179093556040805193909216835260208301527f8d235c6c97ff1b07a41b6b8ac6ea040a6a6b411b20a0f02f02946fa45590bcfc91016125fb565b826001600160a01b0381166139185760405162461bcd60e51b8152600401611164906154fa565b33600090815260976020908152604091829020805483518184028101840190945280845287936139889390929190830182828015612695576020028201919060005260206000209081546001600160a01b03168152600190910190602001808311612677575050505050826147a3565b5060405163012c590560e61b81526001600160a01b03861690634b164140906139b790879087906004016156ec565b600060405180830381600087803b1580156139d157600080fd5b505af11580156139e5573d6000803e3d6000fd5b505050507fa51d837555a436e00533e1177576e060e79c5cf3196bd2809db7ed4b6c7719473382868660405161250d9493929190615700565b613a2b6020830183614d46565b6001600160a01b0316630dfe16816040518163ffffffff1660e01b8152600401602060405180830381865afa158015613a68573d6000803e3d6000fd5b505050506040513d601f19601f82011682018060405250810190613a8c91906151b3565b613a996020840184614d46565b6001600160a01b031663d21220a76040518163ffffffff1660e01b8152600401602060405180830381865afa158015613ad6573d6000803e3d6000fd5b505050506040513d601f19601f82011682018060405250810190613afa91906151b3565b6040516370a0823160e01b81523060048201526000906001600160a01b038416906370a0823190602401602060405180830381865afa158015613b41573d6000803e3d6000fd5b505050506040513d601f19601f82011682018060405250810190613b659190614fd0565b6040516370a0823160e01b81523060048201529091506000906001600160a01b038416906370a0823190602401602060405180830381865afa158015613baf573d6000803e3d6000fd5b505050506040513d601f19601f82011682018060405250810190613bd39190614fd0565b9050613bde856141d5565b613c00613bf16040880160208901614ff7565b87604001358860600135614225565b336000908152609760209081526040918290208054835181840281018401909452808452613c749392830182828015611cda576020028201919060005260206000209081546001600160a01b03168152600190910190602001808311611cbc5750611cee9350505060208a01905089614d46565b50600080613c8861118060208a018a614d46565b9092509050613ca4333060408b01356111af60208d018d614d46565b613cbb333060608b013561122760208d018d614d46565b613cc86020890189614d46565b6001600160a01b0316630dfe16816040518163ffffffff1660e01b8152600401602060405180830381865afa158015613d05573d6000803e3d6000fd5b505050506040513d601f19601f82011682018060405250810190613d2991906151b3565b6001600160a01b031663095ea7b3613d4460208b018b614d46565b613d528560408d013561530a565b6040518363ffffffff1660e01b8152600401613d6f929190615283565b6020604051808303816000875af1158015613d8e573d6000803e3d6000fd5b505050506040513d601f19601f82011682018060405250810190613db2919061529c565b50613dc06020890189614d46565b6001600160a01b031663d21220a76040518163ffffffff1660e01b8152600401602060405180830381865afa158015613dfd573d6000803e3d6000fd5b505050506040513d601f19601f82011682018060405250810190613e2191906151b3565b6001600160a01b031663095ea7b3613e3c60208b018b614d46565b613e4a8460608d013561530a565b6040518363ffffffff1660e01b8152600401613e67929190615283565b6020604051808303816000875af1158015613e86573d6000803e3d6000fd5b505050506040513d601f19601f82011682018060405250810190613eaa919061529c565b506040805180820190915260008082526020820152613edf88613ed18560408d013561530a565b6115ee8560608e013561530a565b602080840191909152908252613ef7908a018a614d46565b81516020830151604051633f7b613560e01b8152600481019290925260248201526001600160a01b039190911690633f7b613590604401600060405180830381600087803b158015613f4857600080fd5b505af1158015613f5c573d6000803e3d6000fd5b50506099546001600160a01b03169250635c1c3fe19150613f82905060208b018b614d46565b6040516001600160e01b031960e084901b1681526001600160a01b039091166004820152602401600060405180830381600087803b158015613fc357600080fd5b505af1158015613fd7573d6000803e3d6000fd5b50613fe9925050506020890189614d46565b6040516394bf804d60e01b8152600481018990523060248201526001600160a01b0391909116906394bf804d9060440160408051808303816000875af1158015614037573d6000803e3d6000fd5b505050506040513d601f19601f8201168201806040525081019061405b91906152b9565b50506099546001600160a01b0316635c1c3fe161407b60208b018b614d46565b6040516001600160e01b031960e084901b1681526001600160a01b039091166004820152602401600060405180830381600087803b1580156140bc57600080fd5b505af11580156140d0573d6000803e3d6000fd5b507fd8604e87f6aa7aa2a3261108ed89a3ca0b8c8e08803677ccad6c16c9d48a7d039250339150614106905060208b018b614d46565b604080516001600160a01b0393841681529290911660208301520160405180910390a150506040516370a0823160e01b815230600482015260009083906001600160a01b038716906370a08231906024016118f5565b6141646147fb565b6001600160a01b0381166141c95760405162461bcd60e51b815260206004820152602660248201527f4f776e61626c653a206e6577206f776e657220697320746865207a65726f206160448201526564647265737360d01b6064820152608401611164565b6141d281614855565b50565b600081116141d25760405162461bcd60e51b815260206004820152601760248201527f5465726d733a206d696e74416d6f756e74207a65726f2e0000000000000000006044820152606401611164565b826142335760008111614238565b600082115b6142905760405162461bcd60e51b815260206004820152602360248201527f5465726d733a206e6f2070726f6a65637420746f6b656e20616c6c6f6361746960448201526237b71760e91b6064820152608401611164565b505050565b806001600160a01b0316826001600160a01b0316106142f65760405162461bcd60e51b815260206004820152601d60248201527f5465726d733a20746f6b656e73206f7264657220696e7665727465642e0000006044820152606401611164565b5050565b60008061431084670de0b6b3a7640000876148a7565b915061432583670de0b6b3a7640000876148a7565b9050935093915050565b6001600160a01b0382166000908152609760205260408120905b81548110156143d757826001600160a01b031682828154811061436e5761436e61558c565b6000918252602090912001546001600160a01b0316036143c55760405162461bcd60e51b815260206004820152601260248201527115195c9b5cce881d985d5b1d08195e1a5cdd60721b6044820152606401611164565b806143cf816155a2565b915050614349565b508054600181018255600082815260209081902090910180546001600160a01b0319166001600160a01b03858116918217909255604080519287168352928201527f7f03ac7449144076e2d9d5a237c3ff0d0108e0a2ebdd5213c4b0de6f4d4f6953910161295a565b6001600160a01b038281166000908152609b60205260409020548183169116036144ac5760405162461bcd60e51b815260206004820152601760248201527f5465726d733a20616c72656164792064656c65676174650000000000000000006044820152606401611164565b6001600160a01b038281166000818152609b602090815260409182902080546001600160a01b03191694861694851790558151338152908101929092528101919091527f1bdc0199979c7643aefd2462992328b03f70259b45fa89814e0d1008c105d06d906060016125fb565b6040516001600160a01b03808516602483015283166044820152606481018290526145849085906323b872dd60e01b906084015b60408051601f198184030181529190526020810180516001600160e01b03166001600160e01b031990931692909217909152614954565b50505050565b6001600160a01b038316156145e657336001600160a01b038416146142905760405162461bcd60e51b81526020600482015260126024820152715465726d733a206e6f2064656c656761746560701b6044820152606401611164565b61458482826147a3565b6040516370a0823160e01b81526001600160a01b03838116600483015260009182918291908716906370a0823190602401602060405180830381865afa15801561463e573d6000803e3d6000fd5b505050506040513d601f19601f820116820180604052508101906146629190614fd0565b6040516330c3f3f760e21b8152600481018290526001600160a01b03888116602483015291925060009186169063c30fcfdc90604401600060405180830381865afa1580156146b5573d6000803e3d6000fd5b505050506040513d6000823e601f3d908101601f191682016040526146dd919081019061572d565b60405163f4effe4160e01b81529091506001600160a01b0388169063f4effe419061471090849086908b90600401615856565b60408051808303816000875af115801561472e573d6000803e3d6000fd5b505050506040513d601f19601f8201168201806040525081019061475291906152b9565b909890975095505050505050565b600061271061477361ffff8416856158e5565b61477d9190615904565b9392505050565b6142908363a9059cbb60e01b848460405160240161454d929190615283565b6000806147b08484614a26565b92509050806147f45760405162461bcd60e51b815260206004820152601060248201526f2a32b936b99d103737ba1037bbb732b960811b6044820152606401611164565b5092915050565b6033546001600160a01b03163314612ec45760405162461bcd60e51b815260206004820181905260248201527f4f776e61626c653a2063616c6c6572206973206e6f7420746865206f776e65726044820152606401611164565b603380546001600160a01b038381166001600160a01b0319831681179093556040519116919082907f8be0079c531659141344cd1fd0a4f28419497f9722a3daafe3b4186f6b6457e090600090a35050565b60008080600019858709858702925082811083820303915050806000036148e057600084116148d557600080fd5b50829004905061477d565b8084116148ec57600080fd5b600084868809600260036001881981018916988990049182028318808302840302808302840302808302840302808302840302808302840302918202909203026000889003889004909101858311909403939093029303949094049190911702949350505050565b60006149a9826040518060400160405280602081526020017f5361666545524332303a206c6f772d6c6576656c2063616c6c206661696c6564815250856001600160a01b0316614a8e9092919063ffffffff16565b80519091501561429057808060200190518101906149c7919061529c565b6142905760405162461bcd60e51b815260206004820152602a60248201527f5361666545524332303a204552433230206f7065726174696f6e20646964206e6044820152691bdd081cdd58d8d9595960b21b6064820152608401611164565b6000805b8351811015614a8057826001600160a01b0316848281518110614a4f57614a4f61558c565b60200260200101516001600160a01b031603614a6e5760019150614a87565b80614a78816155a2565b915050614a2a565b5060009050805b9250929050565b6060614a9d8484600085614aa5565b949350505050565b606082471015614b065760405162461bcd60e51b815260206004820152602660248201527f416464726573733a20696e73756666696369656e742062616c616e636520666f6044820152651c8818d85b1b60d21b6064820152608401611164565b6001600160a01b0385163b614b5d5760405162461bcd60e51b815260206004820152601d60248201527f416464726573733a2063616c6c20746f206e6f6e2d636f6e74726163740000006044820152606401611164565b600080866001600160a01b03168587604051614b799190615926565b60006040518083038185875af1925050503d8060008114614bb6576040519150601f19603f3d011682016040523d82523d6000602084013e614bbb565b606091505b5091509150614bcb828286614bd6565b979650505050505050565b60608315614be557508161477d565b825115614bf55782518084602001fd5b8160405162461bcd60e51b81526004016111649190615942565b60008060408385031215614c2257600080fd5b82356001600160401b03811115614c3857600080fd5b83016101c08186031215614c4b57600080fd5b946020939093013593505050565b600060808284031215614c6b57600080fd5b50919050565b60008060a08385031215614c8457600080fd5b614c8e8484614c59565b946080939093013593505050565b6001600160a01b03811681146141d257600080fd5b60008083601f840112614cc357600080fd5b5081356001600160401b03811115614cda57600080fd5b602083019150836020828501011115614a8757600080fd5b600080600060408486031215614d0757600080fd5b8335614d1281614c9c565b925060208401356001600160401b03811115614d2d57600080fd5b614d3986828701614cb1565b9497909650939450505050565b600060208284031215614d5857600080fd5b813561477d81614c9c565b8060020b81146141d257600080fd5b60008060408385031215614d8557600080fd5b8235614d9081614c9c565b91506020830135614da081614d63565b809150509250929050565b62ffffff811681146141d257600080fd5b60008060408385031215614dcf57600080fd5b8235614dda81614c9c565b91506020830135614da081614dab565b60008060408385031215614dfd57600080fd5b8235614e0881614c9c565b91506020830135614da081614c9c565b60008060008060808587031215614e2e57600080fd5b8435614e3981614c9c565b93506020850135614e4981614c9c565b92506040850135614e5981614c9c565b91506060850135614e6981614c9c565b939692955090935050565b60008060408385031215614e8757600080fd5b8235614c4b81614c9c565b600080600060608486031215614ea757600080fd5b8335614eb281614c9c565b9250602084013591506040840135614ec981614c9c565b809150509250925092565b60008083601f840112614ee657600080fd5b5081356001600160401b03811115614efd57600080fd5b6020830191508360208260051b8501011115614a8757600080fd5b600080600060408486031215614f2d57600080fd5b8335614f3881614c9c565b925060208401356001600160401b03811115614f5357600080fd5b614d3986828701614ed4565b803561ffff81168114614f7157600080fd5b919050565b60008060008060808587031215614f8c57600080fd5b8435614f9781614c9c565b93506020850135614fa781614c9c565b9250614e5960408601614f5f565b600060208284031215614fc757600080fd5b61477d82614f5f565b600060208284031215614fe257600080fd5b5051919050565b80151581146141d257600080fd5b60006020828403121561500957600080fd5b813561477d81614fe9565b6000808335601e1984360301811261502b57600080fd5b8301803591506001600160401b0382111561504557600080fd5b6020019150600581901b3603821315614a8757600080fd5b60006020828403121561506f57600080fd5b813561477d81614d63565b60006020828403121561508c57600080fd5b813561477d81614dab565b600081518084526020808501945080840160005b838110156150cc57815162ffffff16875295820195908201906001016150ab565b509495945050505050565b60408152600083516101408060408501526150f6610180850183615097565b9150602086015161511260608601826001600160a01b03169052565b5060408601516001600160a01b03811660808601525060608601516001600160a01b03811660a086015250608086015160c085015260a086015160e085015260c086015161010061516d818701836001600160a01b03169052565b60e088015191506101206151858188018460020b9052565b9088015162ffffff90811693870193909352870151909116610160850152508315156020840152905061477d565b6000602082840312156151c557600080fd5b815161477d81614c9c565b6000808335601e198436030181126151e757600080fd5b8301803591506001600160401b0382111561520157600080fd5b602001915036819003821315614a8757600080fd5b81835281816020850137506000828201602090810191909152601f909101601f19169091010190565b6001600160a01b03861681526060602082018190526000906152649083018688615216565b8281036040840152615277818587615216565b98975050505050505050565b6001600160a01b03929092168252602082015260400190565b6000602082840312156152ae57600080fd5b815161477d81614fe9565b600080604083850312156152cc57600080fd5b505080516020909101519092909150565b634e487b7160e01b600052601160045260246000fd5b600082821015615305576153056152dd565b500390565b6000821982111561531d5761531d6152dd565b500190565b634e487b7160e01b600052604160045260246000fd5b60405160a081016001600160401b038111828210171561535a5761535a615322565b60405290565b604080519081016001600160401b038111828210171561535a5761535a615322565b604051606081016001600160401b038111828210171561535a5761535a615322565b604051601f8201601f191681016001600160401b03811182821017156153cc576153cc615322565b604052919050565b60005b838110156153ef5781810151838201526020016153d7565b838111156145845750506000910152565b600082601f83011261541157600080fd5b81516001600160401b0381111561542a5761542a615322565b61543d601f8201601f19166020016153a4565b81815284602083860101111561545257600080fd5b614a9d8260208301602087016153d4565b60006020828403121561547557600080fd5b81516001600160401b038082111561548c57600080fd5b9083019060a082860312156154a057600080fd5b6154a8615338565b82518152602083015160208201526040830151828111156154c857600080fd5b6154d487828601615400565b604083015250606083015160608201526080830151608082015280935050505092915050565b6020808252601390820152725465726d733a2061646472657373205a65726f60681b604082015260600190565b6001600160a01b038416815260406020820181905260009061554c9083018486615216565b95945050505050565b6001600160a01b038581168252841660208201526060604082018190526000906155829083018486615216565b9695505050505050565b634e487b7160e01b600052603260045260246000fd5b6000600182016155b4576155b46152dd565b5060010190565b634e487b7160e01b600052603160045260246000fd5b600080600080600060a086880312156155e957600080fd5b855194506020860151935060408601516001600160401b0381111561560d57600080fd5b61561988828901615400565b606088015160809098015196999598509695949350505050565b8183526000602080850194508260005b858110156150cc57813561565681614dab565b62ffffff1687529582019590820190600101615643565b602081526000614a9d602083018486615633565b6001600160a01b038581168252841660208201526060604082018190526000906155829083018486615633565b8183526000602080850194508260005b858110156150cc5781356156d181614c9c565b6001600160a01b0316875295820195908201906001016156be565b602081526000614a9d6020830184866156ae565b6001600160a01b0385811682528416602082015260606040820181905260009061558290830184866156ae565b6000602080838503121561574057600080fd5b82516001600160401b038082111561575757600080fd5b818501915085601f83011261576b57600080fd5b81518181111561577d5761577d615322565b61578b848260051b016153a4565b818152848101925060079190911b8301840190878211156157ab57600080fd5b928401925b81841015614bcb5783880360808112156157ca5760008081fd5b6157d2615360565b85516001600160801b03811681146157ea5760008081fd5b81526060601f1983018113156158005760008081fd5b615808615382565b92508787015161581781614d63565b835260408781015161582881614d63565b848a0152908701519061583a82614dab565b83015280870191909152835260809390930192918401916157b0565b6060808252845182820181905260009190608090818501906020808a01865b838110156158c457815180516001600160801b031686528301518051600290810b8588015281850151900b604080880191909152015162ffffff16878601529385019390820190600101615875565b50508601889052506001600160a01b03861660408601529250614a9d915050565b60008160001904831182151516156158ff576158ff6152dd565b500290565b60008261592157634e487b7160e01b600052601260045260246000fd5b500490565b600082516159388184602087016153d4565b9190910192915050565b60208152600082518060208401526159618160408501602087016153d4565b601f01601f1916919091016040019291505056fea2646970667358221220c06654a395f9d10003742c4f187e0cba029abe2fb06e400e66c13b43de1e2efc64736f6c634300080d0033",
  "devdoc": {
    "kind": "dev",
    "methods": {
      "owner()": {
        "details": "Returns the address of the current owner."
      },
      "renounceOwnership()": {
        "details": "Leaves the contract without owner. It will not be possible to call `onlyOwner` functions anymore. Can only be called by the current owner. NOTE: Renouncing ownership will leave the contract without an owner, thereby removing any functionality that is only available to the owner."
      },
      "transferOwnership(address)": {
        "details": "Transfers ownership of the contract to a new account (`newOwner`). Can only be called by the current owner."
      }
    },
    "version": 1
  },
  "userdoc": {
    "kind": "user",
    "methods": {
      "openTerm((uint24[],address,address,bool,address,int24,uint24,uint24,uint256,uint256,bytes,string,bool,address),uint256)": {
        "notice": "do all neccesary step to initialize market making."
      }
    },
    "version": 1
  },
  "storageLayout": {
    "storage": [
      {
        "astId": 315,
        "contract": "contracts/Terms.sol:Terms",
        "label": "_initialized",
        "offset": 0,
        "slot": "0",
        "type": "t_uint8"
      },
      {
        "astId": 318,
        "contract": "contracts/Terms.sol:Terms",
        "label": "_initializing",
        "offset": 1,
        "slot": "0",
        "type": "t_bool"
      },
      {
        "astId": 929,
        "contract": "contracts/Terms.sol:Terms",
        "label": "__gap",
        "offset": 0,
        "slot": "1",
        "type": "t_array(t_uint256)50_storage"
      },
      {
        "astId": 187,
        "contract": "contracts/Terms.sol:Terms",
        "label": "_owner",
        "offset": 0,
        "slot": "51",
        "type": "t_address"
      },
      {
        "astId": 307,
        "contract": "contracts/Terms.sol:Terms",
        "label": "__gap",
        "offset": 0,
        "slot": "52",
        "type": "t_array(t_uint256)49_storage"
      },
      {
        "astId": 600,
        "contract": "contracts/Terms.sol:Terms",
        "label": "_status",
        "offset": 0,
        "slot": "101",
        "type": "t_uint256"
      },
      {
        "astId": 644,
        "contract": "contracts/Terms.sol:Terms",
        "label": "__gap",
        "offset": 0,
        "slot": "102",
        "type": "t_array(t_uint256)49_storage"
      },
      {
        "astId": 7165,
        "contract": "contracts/Terms.sol:Terms",
        "label": "vaults",
        "offset": 0,
        "slot": "151",
        "type": "t_mapping(t_address,t_array(t_address)dyn_storage)"
      },
      {
        "astId": 7167,
        "contract": "contracts/Terms.sol:Terms",
        "label": "termTreasury",
        "offset": 0,
        "slot": "152",
        "type": "t_address"
      },
      {
        "astId": 7169,
        "contract": "contracts/Terms.sol:Terms",
        "label": "manager",
        "offset": 0,
        "slot": "153",
        "type": "t_address"
      },
      {
        "astId": 7171,
        "contract": "contracts/Terms.sol:Terms",
        "label": "emolument",
        "offset": 20,
        "slot": "153",
        "type": "t_uint16"
      },
      {
        "astId": 7174,
        "contract": "contracts/Terms.sol:Terms",
        "label": "resolver",
        "offset": 0,
        "slot": "154",
        "type": "t_contract(IArrakisV2Resolver)8636"
      },
      {
        "astId": 7178,
        "contract": "contracts/Terms.sol:Terms",
        "label": "delegateByVaults",
        "offset": 0,
        "slot": "155",
        "type": "t_mapping(t_address,t_address)"
      }
    ],
    "types": {
      "t_address": {
        "encoding": "inplace",
        "label": "address",
        "numberOfBytes": "20"
      },
      "t_array(t_address)dyn_storage": {
        "base": "t_address",
        "encoding": "dynamic_array",
        "label": "address[]",
        "numberOfBytes": "32"
      },
      "t_array(t_uint256)49_storage": {
        "base": "t_uint256",
        "encoding": "inplace",
        "label": "uint256[49]",
        "numberOfBytes": "1568"
      },
      "t_array(t_uint256)50_storage": {
        "base": "t_uint256",
        "encoding": "inplace",
        "label": "uint256[50]",
        "numberOfBytes": "1600"
      },
      "t_bool": {
        "encoding": "inplace",
        "label": "bool",
        "numberOfBytes": "1"
      },
      "t_contract(IArrakisV2Resolver)8636": {
        "encoding": "inplace",
        "label": "contract IArrakisV2Resolver",
        "numberOfBytes": "20"
      },
      "t_mapping(t_address,t_address)": {
        "encoding": "mapping",
        "key": "t_address",
        "label": "mapping(address => address)",
        "numberOfBytes": "32",
        "value": "t_address"
      },
      "t_mapping(t_address,t_array(t_address)dyn_storage)": {
        "encoding": "mapping",
        "key": "t_address",
        "label": "mapping(address => address[])",
        "numberOfBytes": "32",
        "value": "t_array(t_address)dyn_storage"
      },
      "t_uint16": {
        "encoding": "inplace",
        "label": "uint16",
        "numberOfBytes": "2"
      },
      "t_uint256": {
        "encoding": "inplace",
        "label": "uint256",
        "numberOfBytes": "32"
      },
      "t_uint8": {
        "encoding": "inplace",
        "label": "uint8",
        "numberOfBytes": "1"
      }
    }
  }
}