{
  "address": "0xC164893891d312876C8B0A59811DB096f8a740Cc",
  "abi": [
    {
      "inputs": [
        {
          "internalType": "contract IArrakisV2Factory",
          "name": "v2factory_",
          "type": "address"
        }
      ],
      "stateMutability": "nonpayable",
      "type": "constructor"
    },
    {
      "anonymous": false,
      "inputs": [
        {
          "indexed": false,
          "internalType": "address",
          "name": "creator",
          "type": "address"
        },
        {
          "indexed": false,
          "internalType": "address",
          "name": "vault",
          "type": "address"
        }
      ],
      "name": "AddVault",
      "type": "event"
    },
    {
      "anonymous": false,
      "inputs": [
        {
          "indexed": false,
          "internalType": "address",
          "name": "creator",
          "type": "address"
        },
        {
          "indexed": false,
          "internalType": "address",
          "name": "vault",
          "type": "address"
        },
        {
          "indexed": false,
          "internalType": "uint256",
          "name": "amount0",
          "type": "uint256"
        },
        {
          "indexed": false,
          "internalType": "uint256",
          "name": "amount1",
          "type": "uint256"
        },
        {
          "indexed": false,
          "internalType": "address",
          "name": "to",
          "type": "address"
        },
        {
          "indexed": false,
          "internalType": "uint256",
          "name": "emolument0",
          "type": "uint256"
        },
        {
          "indexed": false,
          "internalType": "uint256",
          "name": "emolument1",
          "type": "uint256"
        }
      ],
      "name": "CloseTerm",
      "type": "event"
    },
    {
      "anonymous": false,
      "inputs": [
        {
          "indexed": false,
          "internalType": "address",
          "name": "creator",
          "type": "address"
        },
        {
          "indexed": false,
          "internalType": "address",
          "name": "vault",
          "type": "address"
        },
        {
          "indexed": false,
          "internalType": "address",
          "name": "delegate",
          "type": "address"
        }
      ],
      "name": "DelegateVault",
      "type": "event"
    },
    {
      "anonymous": false,
      "inputs": [
        {
          "indexed": false,
          "internalType": "address",
          "name": "creator",
          "type": "address"
        },
        {
          "indexed": false,
          "internalType": "address",
          "name": "vault",
          "type": "address"
        }
      ],
      "name": "IncreaseLiquidity",
      "type": "event"
    },
    {
      "anonymous": false,
      "inputs": [
        {
          "indexed": false,
          "internalType": "uint8",
          "name": "version",
          "type": "uint8"
        }
      ],
      "name": "Initialized",
      "type": "event"
    },
    {
      "anonymous": false,
      "inputs": [
        {
          "indexed": false,
          "internalType": "address",
          "name": "creator",
          "type": "address"
        },
        {
          "indexed": false,
          "internalType": "address",
          "name": "vault",
          "type": "address"
        },
        {
          "indexed": false,
          "internalType": "uint24[]",
          "name": "feeTiers",
          "type": "uint24[]"
        }
      ],
      "name": "LogAddPools",
      "type": "event"
    },
    {
      "anonymous": false,
      "inputs": [
        {
          "indexed": false,
          "internalType": "address",
          "name": "creator",
          "type": "address"
        },
        {
          "indexed": false,
          "internalType": "address",
          "name": "vault",
          "type": "address"
        },
        {
          "indexed": false,
          "internalType": "address[]",
          "name": "routers",
          "type": "address[]"
        }
      ],
      "name": "LogBlacklistRouters",
      "type": "event"
    },
    {
      "anonymous": false,
      "inputs": [
        {
          "indexed": false,
          "internalType": "address",
          "name": "creator",
          "type": "address"
        },
        {
          "indexed": false,
          "internalType": "address",
          "name": "vault",
          "type": "address"
        },
        {
          "indexed": false,
          "internalType": "address[]",
          "name": "pools",
          "type": "address[]"
        }
      ],
      "name": "LogRemovePools",
      "type": "event"
    },
    {
      "anonymous": false,
      "inputs": [
        {
          "indexed": false,
          "internalType": "address",
          "name": "creator",
          "type": "address"
        },
        {
          "indexed": false,
          "internalType": "address",
          "name": "vault",
          "type": "address"
        },
        {
          "indexed": false,
          "internalType": "address",
          "name": "delegate",
          "type": "address"
        }
      ],
      "name": "LogSetDelegate",
      "type": "event"
    },
    {
      "anonymous": false,
      "inputs": [
        {
          "indexed": false,
          "internalType": "address",
          "name": "creatorOrDelegate",
          "type": "address"
        },
        {
          "indexed": false,
          "internalType": "address",
          "name": "vault",
          "type": "address"
        },
        {
          "indexed": false,
          "internalType": "bytes",
          "name": "data",
          "type": "bytes"
        }
      ],
      "name": "LogSetVaultData",
      "type": "event"
    },
    {
      "anonymous": false,
      "inputs": [
        {
          "indexed": false,
          "internalType": "address",
          "name": "creatorOrDelegate",
          "type": "address"
        },
        {
          "indexed": false,
          "internalType": "address",
          "name": "vault",
          "type": "address"
        },
        {
          "indexed": false,
          "internalType": "string",
          "name": "strat",
          "type": "string"
        }
      ],
      "name": "LogSetVaultStratByName",
      "type": "event"
    },
    {
      "anonymous": false,
      "inputs": [
        {
          "indexed": false,
          "internalType": "address",
          "name": "creator",
          "type": "address"
        },
        {
          "indexed": false,
          "internalType": "address",
          "name": "vault",
          "type": "address"
        },
        {
          "indexed": false,
          "internalType": "address[]",
          "name": "routers",
          "type": "address[]"
        }
      ],
      "name": "LogWhitelistRouters",
      "type": "event"
    },
    {
      "anonymous": false,
      "inputs": [
        {
          "indexed": false,
          "internalType": "address",
          "name": "creator",
          "type": "address"
        },
        {
          "indexed": false,
          "internalType": "address",
          "name": "vault",
          "type": "address"
        },
        {
          "indexed": false,
          "internalType": "address",
          "name": "to",
          "type": "address"
        },
        {
          "indexed": false,
          "internalType": "uint256",
          "name": "sentBack",
          "type": "uint256"
        }
      ],
      "name": "LogWithdrawVaultBalance",
      "type": "event"
    },
    {
      "anonymous": false,
      "inputs": [
        {
          "indexed": true,
          "internalType": "address",
          "name": "previousOwner",
          "type": "address"
        },
        {
          "indexed": true,
          "internalType": "address",
          "name": "newOwner",
          "type": "address"
        }
      ],
      "name": "OwnershipTransferred",
      "type": "event"
    },
    {
      "anonymous": false,
      "inputs": [
        {
          "indexed": false,
          "internalType": "address",
          "name": "vault",
          "type": "address"
        },
        {
          "indexed": false,
          "internalType": "uint256",
          "name": "emolument0",
          "type": "uint256"
        },
        {
          "indexed": false,
          "internalType": "uint256",
          "name": "emolument1",
          "type": "uint256"
        }
      ],
      "name": "RenewTerm",
      "type": "event"
    },
    {
      "anonymous": false,
      "inputs": [
        {
          "indexed": false,
          "internalType": "uint16",
          "name": "oldEmolument",
          "type": "uint16"
        },
        {
          "indexed": false,
          "internalType": "uint16",
          "name": "newEmolment",
          "type": "uint16"
        }
      ],
      "name": "SetEmolument",
      "type": "event"
    },
    {
      "anonymous": false,
      "inputs": [
        {
          "indexed": false,
          "internalType": "address",
          "name": "oldManager",
          "type": "address"
        },
        {
          "indexed": false,
          "internalType": "address",
          "name": "newManager",
          "type": "address"
        }
      ],
      "name": "SetManager",
      "type": "event"
    },
    {
      "anonymous": false,
      "inputs": [
        {
          "indexed": false,
          "internalType": "contract IArrakisV2Resolver",
          "name": "oldResolver",
          "type": "address"
        },
        {
          "indexed": false,
          "internalType": "contract IArrakisV2Resolver",
          "name": "newResolver",
          "type": "address"
        }
      ],
      "name": "SetResolver",
      "type": "event"
    },
    {
      "anonymous": false,
      "inputs": [
        {
          "indexed": false,
          "internalType": "address",
          "name": "oldTermTreasury",
          "type": "address"
        },
        {
          "indexed": false,
          "internalType": "address",
          "name": "newTermTreasury",
          "type": "address"
        }
      ],
      "name": "SetTermTreasury",
      "type": "event"
    },
    {
      "anonymous": false,
      "inputs": [
        {
          "indexed": false,
          "internalType": "address",
          "name": "creator",
          "type": "address"
        },
        {
          "indexed": false,
          "internalType": "address",
          "name": "vault",
          "type": "address"
        }
      ],
      "name": "SetupVault",
      "type": "event"
    },
    {
      "inputs": [
        {
          "internalType": "contract IArrakisV2",
          "name": "vault_",
          "type": "address"
        },
        {
          "internalType": "uint24[]",
          "name": "feeTiers_",
          "type": "uint24[]"
        }
      ],
      "name": "addPools",
      "outputs": [],
      "stateMutability": "nonpayable",
      "type": "function"
    },
    {
      "inputs": [
        {
          "internalType": "contract IArrakisV2",
          "name": "vault_",
          "type": "address"
        },
        {
          "internalType": "address[]",
          "name": "routers_",
          "type": "address[]"
        }
      ],
      "name": "blacklistRouters",
      "outputs": [],
      "stateMutability": "nonpayable",
      "type": "function"
    },
    {
      "inputs": [
        {
          "internalType": "contract IArrakisV2",
          "name": "vault_",
          "type": "address"
        },
        {
          "internalType": "address",
          "name": "to_",
          "type": "address"
        },
        {
          "internalType": "address",
          "name": "newOwner_",
          "type": "address"
        },
        {
          "internalType": "address",
          "name": "newManager_",
          "type": "address"
        }
      ],
      "name": "closeTerm",
      "outputs": [],
      "stateMutability": "nonpayable",
      "type": "function"
    },
    {
      "inputs": [
        {
          "internalType": "address",
          "name": "",
          "type": "address"
        }
      ],
      "name": "delegateByVaults",
      "outputs": [
        {
          "internalType": "address",
          "name": "",
          "type": "address"
        }
      ],
      "stateMutability": "view",
      "type": "function"
    },
    {
      "inputs": [],
      "name": "emolument",
      "outputs": [
        {
          "internalType": "uint16",
          "name": "",
          "type": "uint16"
        }
      ],
      "stateMutability": "view",
      "type": "function"
    },
    {
      "inputs": [
        {
          "components": [
            {
              "internalType": "contract IArrakisV2",
              "name": "vault",
              "type": "address"
            },
            {
              "internalType": "uint256",
              "name": "amount0",
              "type": "uint256"
            },
            {
              "internalType": "uint256",
              "name": "amount1",
              "type": "uint256"
            }
          ],
          "internalType": "struct IncreaseBalance",
          "name": "increaseBalance_",
          "type": "tuple"
        }
      ],
      "name": "increaseLiquidity",
      "outputs": [],
      "stateMutability": "nonpayable",
      "type": "function"
    },
    {
      "inputs": [
        {
          "internalType": "address",
          "name": "owner_",
          "type": "address"
        },
        {
          "internalType": "address",
          "name": "termTreasury_",
          "type": "address"
        },
        {
          "internalType": "uint16",
          "name": "emolument_",
          "type": "uint16"
        },
        {
          "internalType": "contract IArrakisV2Resolver",
          "name": "resolver_",
          "type": "address"
        }
      ],
      "name": "initialize",
      "outputs": [],
      "stateMutability": "nonpayable",
      "type": "function"
    },
    {
      "inputs": [],
      "name": "manager",
      "outputs": [
        {
          "internalType": "address",
          "name": "",
          "type": "address"
        }
      ],
      "stateMutability": "view",
      "type": "function"
    },
    {
      "inputs": [
        {
          "components": [
            {
              "internalType": "uint24[]",
              "name": "feeTiers",
              "type": "uint24[]"
            },
            {
              "internalType": "contract IERC20",
              "name": "token0",
              "type": "address"
            },
            {
              "internalType": "contract IERC20",
              "name": "token1",
              "type": "address"
            },
            {
              "internalType": "address",
              "name": "owner",
              "type": "address"
            },
            {
              "internalType": "uint256",
              "name": "amount0",
              "type": "uint256"
            },
            {
              "internalType": "uint256",
              "name": "amount1",
              "type": "uint256"
            },
            {
              "internalType": "bytes",
              "name": "datas",
              "type": "bytes"
            },
            {
              "internalType": "string",
              "name": "strat",
              "type": "string"
            },
            {
              "internalType": "bool",
              "name": "isBeacon",
              "type": "bool"
            },
            {
              "internalType": "address",
              "name": "delegate",
              "type": "address"
            },
            {
              "internalType": "address[]",
              "name": "routers",
              "type": "address[]"
            }
          ],
          "internalType": "struct SetupPayload",
          "name": "setup_",
          "type": "tuple"
        }
      ],
      "name": "openTerm",
      "outputs": [
        {
          "internalType": "address",
          "name": "vault",
          "type": "address"
        }
      ],
      "stateMutability": "payable",
      "type": "function"
    },
    {
      "inputs": [],
      "name": "owner",
      "outputs": [
        {
          "internalType": "address",
          "name": "",
          "type": "address"
        }
      ],
      "stateMutability": "view",
      "type": "function"
    },
    {
      "inputs": [
        {
          "internalType": "contract IArrakisV2",
          "name": "vault_",
          "type": "address"
        },
        {
          "internalType": "address[]",
          "name": "pools_",
          "type": "address[]"
        }
      ],
      "name": "removePools",
      "outputs": [],
      "stateMutability": "nonpayable",
      "type": "function"
    },
    {
      "inputs": [
        {
          "internalType": "contract IArrakisV2",
          "name": "vault_",
          "type": "address"
        }
      ],
      "name": "renewTerm",
      "outputs": [],
      "stateMutability": "nonpayable",
      "type": "function"
    },
    {
      "inputs": [],
      "name": "renounceOwnership",
      "outputs": [],
      "stateMutability": "nonpayable",
      "type": "function"
    },
    {
      "inputs": [],
      "name": "resolver",
      "outputs": [
        {
          "internalType": "contract IArrakisV2Resolver",
          "name": "",
          "type": "address"
        }
      ],
      "stateMutability": "view",
      "type": "function"
    },
    {
      "inputs": [
        {
          "internalType": "address",
          "name": "vault_",
          "type": "address"
        },
        {
          "internalType": "address",
          "name": "delegate_",
          "type": "address"
        }
      ],
      "name": "setDelegate",
      "outputs": [],
      "stateMutability": "nonpayable",
      "type": "function"
    },
    {
      "inputs": [
        {
          "internalType": "uint16",
          "name": "emolument_",
          "type": "uint16"
        }
      ],
      "name": "setEmolument",
      "outputs": [],
      "stateMutability": "nonpayable",
      "type": "function"
    },
    {
      "inputs": [
        {
          "internalType": "address",
          "name": "manager_",
          "type": "address"
        }
      ],
      "name": "setManager",
      "outputs": [],
      "stateMutability": "nonpayable",
      "type": "function"
    },
    {
      "inputs": [
        {
          "internalType": "contract IArrakisV2Resolver",
          "name": "resolver_",
          "type": "address"
        }
      ],
      "name": "setResolver",
      "outputs": [],
      "stateMutability": "nonpayable",
      "type": "function"
    },
    {
      "inputs": [
        {
          "internalType": "address",
          "name": "termTreasury_",
          "type": "address"
        }
      ],
      "name": "setTermTreasury",
      "outputs": [],
      "stateMutability": "nonpayable",
      "type": "function"
    },
    {
      "inputs": [
        {
          "internalType": "address",
          "name": "vault_",
          "type": "address"
        },
        {
          "internalType": "bytes",
          "name": "data_",
          "type": "bytes"
        }
      ],
      "name": "setVaultData",
      "outputs": [],
      "stateMutability": "nonpayable",
      "type": "function"
    },
    {
      "inputs": [
        {
          "internalType": "address",
          "name": "vault_",
          "type": "address"
        },
        {
          "internalType": "string",
          "name": "strat_",
          "type": "string"
        }
      ],
      "name": "setVaultStratByName",
      "outputs": [],
      "stateMutability": "nonpayable",
      "type": "function"
    },
    {
      "inputs": [],
      "name": "termTreasury",
      "outputs": [
        {
          "internalType": "address",
          "name": "",
          "type": "address"
        }
      ],
      "stateMutability": "view",
      "type": "function"
    },
    {
      "inputs": [
        {
          "internalType": "address",
          "name": "newOwner",
          "type": "address"
        }
      ],
      "name": "transferOwnership",
      "outputs": [],
      "stateMutability": "nonpayable",
      "type": "function"
    },
    {
      "inputs": [],
      "name": "v2factory",
      "outputs": [
        {
          "internalType": "contract IArrakisV2Factory",
          "name": "",
          "type": "address"
        }
      ],
      "stateMutability": "view",
      "type": "function"
    },
    {
      "inputs": [
        {
          "internalType": "address",
          "name": "creator_",
          "type": "address"
        },
        {
          "internalType": "uint256",
          "name": "index",
          "type": "uint256"
        }
      ],
      "name": "vaults",
      "outputs": [
        {
          "internalType": "address",
          "name": "",
          "type": "address"
        }
      ],
      "stateMutability": "view",
      "type": "function"
    },
    {
      "inputs": [
        {
          "internalType": "contract IArrakisV2",
          "name": "vault_",
          "type": "address"
        },
        {
          "internalType": "address[]",
          "name": "routers_",
          "type": "address[]"
        }
      ],
      "name": "whitelistRouters",
      "outputs": [],
      "stateMutability": "nonpayable",
      "type": "function"
    },
    {
      "inputs": [
        {
          "internalType": "address",
          "name": "vault_",
          "type": "address"
        },
        {
          "internalType": "uint256",
          "name": "amount_",
          "type": "uint256"
        },
        {
          "internalType": "address payable",
          "name": "to_",
          "type": "address"
        }
      ],
      "name": "withdrawVaultBalance",
      "outputs": [],
      "stateMutability": "nonpayable",
      "type": "function"
    }
  ],
  "transactionHash": "0xa6a30618c78428c3c451295b0a592a713c97bb4dbd374340a015baa4364733bb",
  "args": [
    "0x7C43C9dbAe45da63F7CACce3fc5a6D14D963481B"
  ],
  "numDeployments": 1,
  "solcInputHash": "0ece9e25a1aef5618522cd84fa2bc2fd",
  "bytecode": "0x60a06040523480156200001157600080fd5b50604051620050ee380380620050ee833981016040819052620000349162000046565b6001600160a01b031660805262000078565b6000602082840312156200005957600080fd5b81516001600160a01b03811681146200007157600080fd5b9392505050565b6080516150536200009b600039600081816102a20152611def01526150536000f3fe6080604052600436106101ac5760003560e01c80637407e38c116100ec578063b33d46dc1161008a578063d0ebdbe711610064578063d0ebdbe714610527578063ea6b186c14610547578063eaaa929914610574578063f2fde38b1461059457600080fd5b8063b33d46dc146104c7578063bfd7e752146104e7578063c28d46471461050757600080fd5b806386de1467116100c657806386de14671461043c5780638da5cb5b1461045c578063ae5e24c214610487578063b1ffa582146104a757600080fd5b80637407e38c146103e95780637bbfc69e146104095780638434a83e1461042957600080fd5b80633a91f42a116101595780634e543b26116101335780634e543b26146103745780635c8738491461039457806368b6702e146103b4578063715018a6146103d457600080fd5b80633a91f42a146102e45780633ce3b0d214610304578063481c6a751461034757600080fd5b806326c1a7b11161018a57806326c1a7b11461024a578063330807a91461029057806334e5eea6146102c457600080fd5b806304f3bcec146101b157806319549dc61461020857806319e050d01461022a575b600080fd5b3480156101bd57600080fd5b50609a546101de9073ffffffffffffffffffffffffffffffffffffffff1681565b60405173ffffffffffffffffffffffffffffffffffffffff90911681526020015b60405180910390f35b34801561021457600080fd5b506102286102233660046144a8565b6105b4565b005b34801561023657600080fd5b506102286102453660046144fd565b610782565b34801561025657600080fd5b5060995461027d9074010000000000000000000000000000000000000000900461ffff1681565b60405161ffff90911681526020016101ff565b34801561029c57600080fd5b506101de7f000000000000000000000000000000000000000000000000000000000000000081565b3480156102d057600080fd5b506102286102df36600461451a565b610adf565b3480156102f057600080fd5b506102286102ff366004614574565b610cfc565b34801561031057600080fd5b506101de61031f3660046144fd565b609b6020526000908152604090205473ffffffffffffffffffffffffffffffffffffffff1681565b34801561035357600080fd5b506099546101de9073ffffffffffffffffffffffffffffffffffffffff1681565b34801561038057600080fd5b5061022861038f3660046144fd565b610fb3565b3480156103a057600080fd5b506102286103af3660046145bc565b611139565b3480156103c057600080fd5b506102286103cf3660046145f5565b61121f565b3480156103e057600080fd5b5061022861189d565b3480156103f557600080fd5b50610228610404366004614574565b6118b1565b34801561041557600080fd5b506101de610424366004614651565b611b42565b6101de61043736600461467d565b611c11565b34801561044857600080fd5b506102286104573660046146b9565b61249e565b34801561046857600080fd5b5060335473ffffffffffffffffffffffffffffffffffffffff166101de565b34801561049357600080fd5b506102286104a23660046144a8565b612692565b3480156104b357600080fd5b506102286104c2366004614712565b61284c565b3480156104d357600080fd5b506102286104e2366004614751565b612d10565b3480156104f357600080fd5b506102286105023660046144fd565b612e53565b34801561051357600080fd5b506102286105223660046144a8565b612fd9565b34801561053357600080fd5b506102286105423660046144fd565b613193565b34801561055357600080fd5b506098546101de9073ffffffffffffffffffffffffffffffffffffffff1681565b34801561058057600080fd5b5061022861058f3660046144a8565b61331a565b3480156105a057600080fd5b506102286105af3660046144fd565b6134d4565b8273ffffffffffffffffffffffffffffffffffffffff8116610637576040517f08c379a000000000000000000000000000000000000000000000000000000000815260206004820152601760248201527f50414c4d5465726d733a2061646472657373205a65726f00000000000000000060448201526064015b60405180910390fd5b3360009081526097602052604090208490610652908261358b565b6106b8576040517f08c379a000000000000000000000000000000000000000000000000000000000815260206004820152601460248201527f50414c4d5465726d733a206e6f74206f776e6572000000000000000000000000604482015260640161062e565b6040517fa5ff1dc700000000000000000000000000000000000000000000000000000000815273ffffffffffffffffffffffffffffffffffffffff86169063a5ff1dc79061070c90879087906004016147c2565b600060405180830381600087803b15801561072657600080fd5b505af115801561073a573d6000803e3d6000fd5b505050507fa5217cdb9444a5f916bdf40d5cd8f7cb42d2a5f877ea5945648259eae1a3e0d73386868660405161077394939291906147d6565b60405180910390a15050505050565b6099546040517f90229af700000000000000000000000000000000000000000000000000000000815273ffffffffffffffffffffffffffffffffffffffff838116600483015290911690429082906390229af790602401600060405180830381865afa1580156107f6573d6000803e3d6000fd5b505050506040513d6000823e601f3d9081017fffffffffffffffffffffffffffffffffffffffffffffffffffffffffffffffe016820160405261083c91908101906148ed565b60800151106108a7576040517f08c379a000000000000000000000000000000000000000000000000000000000815260206004820152601a60248201527f50414c4d5465726d733a207465726d206e6f7420656e6465642e000000000000604482015260640161062e565b6040517f19e050d000000000000000000000000000000000000000000000000000000000815273ffffffffffffffffffffffffffffffffffffffff83811660048301528216906319e050d090602401600060405180830381600087803b15801561091057600080fd5b505af1158015610924573d6000803e3d6000fd5b50506040517f70a082310000000000000000000000000000000000000000000000000000000081523060048201526000925073ffffffffffffffffffffffffffffffffffffffff851691506370a0823190602401602060405180830381865afa158015610995573d6000803e3d6000fd5b505050506040513d601f19601f820116820180604052508101906109b991906149f3565b905060006109d782609960149054906101000a900461ffff166135ba565b6098546040517ffcd3533c0000000000000000000000000000000000000000000000000000000081526004810183905273ffffffffffffffffffffffffffffffffffffffff9182166024820152919250600091829187169063fcd3533c9060440160408051808303816000875af1158015610a56573d6000803e3d6000fd5b505050506040513d601f19601f82011682018060405250810190610a7a9190614a0c565b6040805173ffffffffffffffffffffffffffffffffffffffff8a1681526020810184905290810182905291935091507f59e2f591f61aa724c8984e092e32f4f83dcd07cbf01b88c0c79e8dd0adde8206906060015b60405180910390a1505050505050565b610aec60208201826144fd565b336000908152609760205260409020610b05908261358b565b610b6b576040517f08c379a000000000000000000000000000000000000000000000000000000000815260206004820152601460248201527f50414c4d5465726d733a206e6f74206f776e6572000000000000000000000000604482015260640161062e565b610b7d826020013583604001356135d7565b610c2b33610b8e60208501856144fd565b60208501803590610b9f90876144fd565b73ffffffffffffffffffffffffffffffffffffffff16630dfe16816040518163ffffffff1660e01b8152600401602060405180830381865afa158015610be9573d6000803e3d6000fd5b505050506040513d601f19601f82011682018060405250810190610c0d9190614a30565b73ffffffffffffffffffffffffffffffffffffffff16929190613676565b610c9833610c3c60208501856144fd565b6040850135610c4e60208701876144fd565b73ffffffffffffffffffffffffffffffffffffffff1663d21220a76040518163ffffffff1660e01b8152600401602060405180830381865afa158015610be9573d6000803e3d6000fd5b7fd8604e87f6aa7aa2a3261108ed89a3ca0b8c8e08803677ccad6c16c9d48a7d0333610cc760208501856144fd565b6040805173ffffffffffffffffffffffffffffffffffffffff9384168152929091166020830152015b60405180910390a15050565b8273ffffffffffffffffffffffffffffffffffffffff8116610d7a576040517f08c379a000000000000000000000000000000000000000000000000000000000815260206004820152601760248201527f50414c4d5465726d733a2061646472657373205a65726f000000000000000000604482015260640161062e565b73ffffffffffffffffffffffffffffffffffffffff8085166000908152609b60205260409020548591168015610e2e573373ffffffffffffffffffffffffffffffffffffffff821614610e29576040517f08c379a000000000000000000000000000000000000000000000000000000000815260206004820152601660248201527f50414c4d5465726d733a206e6f2064656c656761746500000000000000000000604482015260640161062e565b610ead565b336000908152609760205260409020610e47908361358b565b610ead576040517f08c379a000000000000000000000000000000000000000000000000000000000815260206004820152601460248201527f50414c4d5465726d733a206e6f74206f776e6572000000000000000000000000604482015260640161062e565b6099546040517f3a91f42a00000000000000000000000000000000000000000000000000000000815273ffffffffffffffffffffffffffffffffffffffff90911690633a91f42a90610f0790899089908990600401614a96565b600060405180830381600087803b158015610f2157600080fd5b505af1158015610f35573d6000803e3d6000fd5b5050505073ffffffffffffffffffffffffffffffffffffffff8681166000908152609b6020526040902054167f01e616d15b59874215258e3e3646672746d2fafa2a88ab82d89c49991bcdbbe981610f8d5733610f8f565b815b888888604051610fa29493929190614acf565b60405180910390a150505050505050565b610fbb613758565b8073ffffffffffffffffffffffffffffffffffffffff8116611039576040517f08c379a000000000000000000000000000000000000000000000000000000000815260206004820152601760248201527f50414c4d5465726d733a2061646472657373205a65726f000000000000000000604482015260640161062e565b609a5473ffffffffffffffffffffffffffffffffffffffff8084169116036110bd576040517f08c379a000000000000000000000000000000000000000000000000000000000815260206004820152601b60248201527f50414c4d5465726d733a20616c7265616479207265736f6c7665720000000000604482015260640161062e565b609a80547fffffffffffffffffffffffff0000000000000000000000000000000000000000811673ffffffffffffffffffffffffffffffffffffffff8581169182179093556040805193909216835260208301527f6cb59c795917577ec693948e42535bd42e4c7784893c9fff6d7b7102f64a1d729101610cf0565b3360009081526097602052604090208290611154908261358b565b6111ba576040517f08c379a000000000000000000000000000000000000000000000000000000000815260206004820152601460248201527f50414c4d5465726d733a206e6f74206f776e6572000000000000000000000000604482015260640161062e565b6111c483836137d9565b6040805133815273ffffffffffffffffffffffffffffffffffffffff858116602083015284168183015290517f0bcba02da0cdd1a6aac8553dd2668cbc3dae93fab8859665ba2d470a2ba8f4459181900360600190a1505050565b8173ffffffffffffffffffffffffffffffffffffffff811661129d576040517f08c379a000000000000000000000000000000000000000000000000000000000815260206004820152601760248201527f50414c4d5465726d733a2061646472657373205a65726f000000000000000000604482015260640161062e565b8373ffffffffffffffffffffffffffffffffffffffff811661131b576040517f08c379a000000000000000000000000000000000000000000000000000000000815260206004820152601760248201527f50414c4d5465726d733a2061646472657373205a65726f000000000000000000604482015260640161062e565b3360009081526097602052604090208690611336908261358b565b61139c576040517f08c379a000000000000000000000000000000000000000000000000000000000815260206004820152601460248201527f50414c4d5465726d733a206e6f74206f776e6572000000000000000000000000604482015260640161062e565b3360009081526097602052604090206113b590886138fe565b506000806113c38930613920565b509150915060006113e483609960149054906101000a900461ffff166135ba565b9050600061140283609960149054906101000a900461ffff166135ba565b905081156114bd576114bd609860009054906101000a900473ffffffffffffffffffffffffffffffffffffffff16838d73ffffffffffffffffffffffffffffffffffffffff16630dfe16816040518163ffffffff1660e01b8152600401602060405180830381865afa15801561147c573d6000803e3d6000fd5b505050506040513d601f19601f820116820180604052508101906114a09190614a30565b73ffffffffffffffffffffffffffffffffffffffff169190613a61565b801561153557611535609860009054906101000a900473ffffffffffffffffffffffffffffffffffffffff16828d73ffffffffffffffffffffffffffffffffffffffff1663d21220a76040518163ffffffff1660e01b8152600401602060405180830381865afa15801561147c573d6000803e3d6000fd5b8315611594576115948a6115498487614b38565b8d73ffffffffffffffffffffffffffffffffffffffff16630dfe16816040518163ffffffff1660e01b8152600401602060405180830381865afa15801561147c573d6000803e3d6000fd5b82156115f3576115f38a6115a88386614b38565b8d73ffffffffffffffffffffffffffffffffffffffff1663d21220a76040518163ffffffff1660e01b8152600401602060405180830381865afa15801561147c573d6000803e3d6000fd5b6099546040517fb7d3824300000000000000000000000000000000000000000000000000000000815273ffffffffffffffffffffffffffffffffffffffff8d811660048301528c811660248301529091169063b7d3824390604401600060405180830381600087803b15801561166857600080fd5b505af115801561167c573d6000803e3d6000fd5b50506040517fd0ebdbe700000000000000000000000000000000000000000000000000000000815273ffffffffffffffffffffffffffffffffffffffff8b811660048301528e16925063d0ebdbe79150602401600060405180830381600087803b1580156116e957600080fd5b505af11580156116fd573d6000803e3d6000fd5b50506040517f0d6e66310000000000000000000000000000000000000000000000000000000081526000600482015273ffffffffffffffffffffffffffffffffffffffff8e169250630d6e66319150602401600060405180830381600087803b15801561176957600080fd5b505af115801561177d573d6000803e3d6000fd5b50506040517ff2fde38b00000000000000000000000000000000000000000000000000000000815273ffffffffffffffffffffffffffffffffffffffff8c811660048301528e16925063f2fde38b9150602401600060405180830381600087803b1580156117ea57600080fd5b505af11580156117fe573d6000803e3d6000fd5b505050507f0d52372e455cc3305a983c590d790ca4175987649a8e2959ed7dd506387961b9338c86868e8787604051611888979695949392919073ffffffffffffffffffffffffffffffffffffffff9788168152958716602087015260408601949094526060850192909252909316608083015260a082019290925260c081019190915260e00190565b60405180910390a15050505050505050505050565b6118a5613758565b6118af6000613abc565b565b8273ffffffffffffffffffffffffffffffffffffffff811661192f576040517f08c379a000000000000000000000000000000000000000000000000000000000815260206004820152601760248201527f50414c4d5465726d733a2061646472657373205a65726f000000000000000000604482015260640161062e565b73ffffffffffffffffffffffffffffffffffffffff8085166000908152609b602052604090205485911680156119e3573373ffffffffffffffffffffffffffffffffffffffff8216146119de576040517f08c379a000000000000000000000000000000000000000000000000000000000815260206004820152601660248201527f50414c4d5465726d733a206e6f2064656c656761746500000000000000000000604482015260640161062e565b611a62565b3360009081526097602052604090206119fc908361358b565b611a62576040517f08c379a000000000000000000000000000000000000000000000000000000000815260206004820152601460248201527f50414c4d5465726d733a206e6f74206f776e6572000000000000000000000000604482015260640161062e565b6099546040517f7407e38c00000000000000000000000000000000000000000000000000000000815273ffffffffffffffffffffffffffffffffffffffff90911690637407e38c90611abc90899089908990600401614a96565b600060405180830381600087803b158015611ad657600080fd5b505af1158015611aea573d6000803e3d6000fd5b5050505073ffffffffffffffffffffffffffffffffffffffff8681166000908152609b6020526040902054167fdcd296d17559776406261383f6e29108f53a3ca0edf2041fa6a75335e59c18e681610f8d5733610f8f565b73ffffffffffffffffffffffffffffffffffffffff821660009081526097602052604081208290611b7290613b33565b11611bd9576040517f08c379a000000000000000000000000000000000000000000000000000000000815260206004820152601860248201527f50414c4d5465726d733a206f7574206f6620626f6e64732e0000000000000000604482015260640161062e565b73ffffffffffffffffffffffffffffffffffffffff83166000908152609760205260409020611c089083613b3d565b90505b92915050565b6000611c2360408301602084016144fd565b611c3360608401604085016144fd565b6040517f70a0823100000000000000000000000000000000000000000000000000000000815230600482015260009073ffffffffffffffffffffffffffffffffffffffff8416906370a0823190602401602060405180830381865afa158015611ca0573d6000803e3d6000fd5b505050506040513d601f19601f82011682018060405250810190611cc491906149f3565b6040517f70a0823100000000000000000000000000000000000000000000000000000000815230600482015290915060009073ffffffffffffffffffffffffffffffffffffffff8416906370a0823190602401602060405180830381865afa158015611d34573d6000803e3d6000fd5b505050506040513d601f19601f82011682018060405250810190611d5891906149f3565b9050611d6c86608001358760a001356135d7565b611d94611d7f60408801602089016144fd565b611d8f6060890160408a016144fd565b613b49565b6040805180820190915260008082526020820152670de0b6b3a764000090611dc58289608001358a60a00135613c04565b6020830152815260408051610100810190915273ffffffffffffffffffffffffffffffffffffffff7f00000000000000000000000000000000000000000000000000000000000000001690637c0f7e7b9080611e218c80614b4f565b80806020026020016040519081016040528093929190818152602001838360200280828437600092019190915250505090825250602090810190611e6b9060408e01908e016144fd565b73ffffffffffffffffffffffffffffffffffffffff168152602001611e9660608d0160408e016144fd565b73ffffffffffffffffffffffffffffffffffffffff90811682523060208084019190915286516040840152860151606083015260995416608082015260a001611ee36101408d018d614b4f565b808060200260200160405190810160405280939291908181526020018383602002808284376000920191909152505050915250611f286101208c016101008d01614bc5565b6040518363ffffffff1660e01b8152600401611f45929190614c28565b6020604051808303816000875af1158015611f64573d6000803e3d6000fd5b505050506040513d601f19601f82011682018060405250810190611f889190614a30565b9650869050611fa6611fa060808a0160608b016144fd565b88613c39565b6000611fba6101408a016101208b016144fd565b73ffffffffffffffffffffffffffffffffffffffff1614611ff057611ff087611feb6101408b016101208c016144fd565b6137d9565b6040517f0d6e663100000000000000000000000000000000000000000000000000000000815230600482015273ffffffffffffffffffffffffffffffffffffffff821690630d6e663190602401600060405180830381600087803b15801561205757600080fd5b505af115801561206b573d6000803e3d6000fd5b50506099546040517f81a6c3f300000000000000000000000000000000000000000000000000000000815273ffffffffffffffffffffffffffffffffffffffff8b8116600483015290911692508291506381a6c3f390602401600060405180830381600087803b1580156120de57600080fd5b505af11580156120f2573d6000803e3d6000fd5b50505073ffffffffffffffffffffffffffffffffffffffff8216905063ded2df71348a61212260c08e018e614d70565b8e8060e001906121329190614d70565b6040518763ffffffff1660e01b8152600401612152959493929190614dd5565b6000604051808303818588803b15801561216b57600080fd5b505af115801561217f573d6000803e3d6000fd5b50505050506121a133308b608001358c6020016020810190610c0d91906144fd565b6121bb333060a08c0135610c0d60608e0160408f016144fd565b6121f18860808b01356121d460408d0160208e016144fd565b73ffffffffffffffffffffffffffffffffffffffff169190613d4c565b61220a8860a08b01356121d460608d0160408e016144fd565b6040517f94bf804d0000000000000000000000000000000000000000000000000000000081526004810184905230602482015273ffffffffffffffffffffffffffffffffffffffff8316906394bf804d9060440160408051808303816000875af115801561227c573d6000803e3d6000fd5b505050506040513d601f19601f820116820180604052508101906122a09190614a0c565b507fd78ce241ef5794ab1864a13f548169c9ffc03abda8ed1064065fa81c340c917990506122d460808b0160608c016144fd565b6040805173ffffffffffffffffffffffffffffffffffffffff9283168152918b1660208301520160405180910390a150506040517f70a0823100000000000000000000000000000000000000000000000000000000815230600482015260009150839073ffffffffffffffffffffffffffffffffffffffff8716906370a0823190602401602060405180830381865afa158015612375573d6000803e3d6000fd5b505050506040513d601f19601f8201168201806040525081019061239991906149f3565b6123a39190614b38565b6040517f70a08231000000000000000000000000000000000000000000000000000000008152306004820152909150600090839073ffffffffffffffffffffffffffffffffffffffff8716906370a0823190602401602060405180830381865afa158015612415573d6000803e3d6000fd5b505050506040513d601f19601f8201168201806040525081019061243991906149f3565b6124439190614b38565b9050811561246c5761246c73ffffffffffffffffffffffffffffffffffffffff87163384613a61565b80156124935761249373ffffffffffffffffffffffffffffffffffffffff86163383613a61565b505050505050919050565b8273ffffffffffffffffffffffffffffffffffffffff811661251c576040517f08c379a000000000000000000000000000000000000000000000000000000000815260206004820152601760248201527f50414c4d5465726d733a2061646472657373205a65726f000000000000000000604482015260640161062e565b3360009081526097602052604090208490612537908261358b565b61259d576040517f08c379a000000000000000000000000000000000000000000000000000000000815260206004820152601460248201527f50414c4d5465726d733a206e6f74206f776e6572000000000000000000000000604482015260640161062e565b6099546040517f86de146700000000000000000000000000000000000000000000000000000000815273ffffffffffffffffffffffffffffffffffffffff87811660048301526024820187905285811660448301529091169081906386de146790606401600060405180830381600087803b15801561261b57600080fd5b505af115801561262f573d6000803e3d6000fd5b50506040805133815273ffffffffffffffffffffffffffffffffffffffff808b166020830152881691810191909152606081018890527f9a06175b960d2874575c5001db984a61e4ee5d9a6db26e152a9de72d6a317d8e92506080019050610acf565b8273ffffffffffffffffffffffffffffffffffffffff8116612710576040517f08c379a000000000000000000000000000000000000000000000000000000000815260206004820152601760248201527f50414c4d5465726d733a2061646472657373205a65726f000000000000000000604482015260640161062e565b336000908152609760205260409020849061272b908261358b565b612791576040517f08c379a000000000000000000000000000000000000000000000000000000000815260206004820152601460248201527f50414c4d5465726d733a206e6f74206f776e6572000000000000000000000000604482015260640161062e565b6040517f86ac1cb900000000000000000000000000000000000000000000000000000000815273ffffffffffffffffffffffffffffffffffffffff8616906386ac1cb9906127e59087908790600401614e6f565b600060405180830381600087803b1580156127ff57600080fd5b505af1158015612813573d6000803e3d6000fd5b505050507f3c97f149136cfbb978755d7cac071dcf9e7bbf5fde8a030fa2d972d78644441c338686866040516107739493929190614e83565b600054610100900460ff161580801561286c5750600054600160ff909116105b806128865750303b158015612886575060005460ff166001145b612912576040517f08c379a000000000000000000000000000000000000000000000000000000000815260206004820152602e60248201527f496e697469616c697a61626c653a20636f6e747261637420697320616c72656160448201527f647920696e697469616c697a6564000000000000000000000000000000000000606482015260840161062e565b600080547fffffffffffffffffffffffffffffffffffffffffffffffffffffffffffffff00166001179055801561297057600080547fffffffffffffffffffffffffffffffffffffffffffffffffffffffffffff00ff166101001790555b6099546127107401000000000000000000000000000000000000000090910461ffff16106129fa576040517f08c379a000000000000000000000000000000000000000000000000000000000815260206004820152601d60248201527f50414c4d5465726d733a20656d6f6c756d656e74203e3d20313030252e000000604482015260640161062e565b73ffffffffffffffffffffffffffffffffffffffff8516612a9d576040517f08c379a000000000000000000000000000000000000000000000000000000000815260206004820152602160248201527f50414c4d5465726d733a206f776e65722069732061646472657373207a65726f60448201527f2e00000000000000000000000000000000000000000000000000000000000000606482015260840161062e565b73ffffffffffffffffffffffffffffffffffffffff8416612b40576040517f08c379a000000000000000000000000000000000000000000000000000000000815260206004820152602960248201527f50414c4d5465726d733a207465726d207472656173757279206973206164647260448201527f657373207a65726f2e0000000000000000000000000000000000000000000000606482015260840161062e565b612b4985613abc565b6098805473ffffffffffffffffffffffffffffffffffffffff8681167fffffffffffffffffffffffff000000000000000000000000000000000000000092831681179093556099805461ffff881674010000000000000000000000000000000000000000027fffffffffffffffffffff0000ffffffffffffffffffffffffffffffffffffffff909116179055609a805491861691909216179055604080516000815260208101929092527fdaecbed9cdf338cbedbd120eefc62bec9856ad3657ea396258b681e6bc17bed5910160405180910390a1604080516000815261ffff851660208201527f7179ea06c1633dd908ac95e2c4749f1063eadecbe01501941080e07bb96764db910160405180910390a1604080516000815273ffffffffffffffffffffffffffffffffffffffff841660208201527f6cb59c795917577ec693948e42535bd42e4c7784893c9fff6d7b7102f64a1d72910160405180910390a18015612d0957600080547fffffffffffffffffffffffffffffffffffffffffffffffffffffffffffff00ff169055604051600181527f7f26b83ff96e1f2b6a682f133852f6798a09c465da95921460cefb384740249890602001610773565b5050505050565b612d18613758565b60995461ffff74010000000000000000000000000000000000000000909104811690821610612dc9576040517f08c379a000000000000000000000000000000000000000000000000000000000815260206004820152602960248201527f50414c4d5465726d733a206e657720656d6f6c756d656e74203e3d206f6c642060448201527f656d6f6c756d656e740000000000000000000000000000000000000000000000606482015260840161062e565b6099805461ffff838116740100000000000000000000000000000000000000008181027fffffffffffffffffffff0000ffffffffffffffffffffffffffffffffffffffff8516179094556040805194909304909116835260208301527f7179ea06c1633dd908ac95e2c4749f1063eadecbe01501941080e07bb96764db910160405180910390a150565b612e5b613758565b8073ffffffffffffffffffffffffffffffffffffffff8116612ed9576040517f08c379a000000000000000000000000000000000000000000000000000000000815260206004820152601760248201527f50414c4d5465726d733a2061646472657373205a65726f000000000000000000604482015260640161062e565b60985473ffffffffffffffffffffffffffffffffffffffff808416911603612f5d576040517f08c379a000000000000000000000000000000000000000000000000000000000815260206004820181905260248201527f50414c4d5465726d733a20616c7265616479207465726d207472656173757279604482015260640161062e565b609880547fffffffffffffffffffffffff0000000000000000000000000000000000000000811673ffffffffffffffffffffffffffffffffffffffff8581169182179093556040805193909216835260208301527fdaecbed9cdf338cbedbd120eefc62bec9856ad3657ea396258b681e6bc17bed59101610cf0565b8273ffffffffffffffffffffffffffffffffffffffff8116613057576040517f08c379a000000000000000000000000000000000000000000000000000000000815260206004820152601760248201527f50414c4d5465726d733a2061646472657373205a65726f000000000000000000604482015260640161062e565b3360009081526097602052604090208490613072908261358b565b6130d8576040517f08c379a000000000000000000000000000000000000000000000000000000000815260206004820152601460248201527f50414c4d5465726d733a206e6f74206f776e6572000000000000000000000000604482015260640161062e565b6040517f92e49dfd00000000000000000000000000000000000000000000000000000000815273ffffffffffffffffffffffffffffffffffffffff8616906392e49dfd9061312c90879087906004016147c2565b600060405180830381600087803b15801561314657600080fd5b505af115801561315a573d6000803e3d6000fd5b505050507f56c591ad091ad6159d554662a44cdfbd66dcf88173aa8809686c226e560c79483386868660405161077394939291906147d6565b61319b613758565b8073ffffffffffffffffffffffffffffffffffffffff8116613219576040517f08c379a000000000000000000000000000000000000000000000000000000000815260206004820152601760248201527f50414c4d5465726d733a2061646472657373205a65726f000000000000000000604482015260640161062e565b60995473ffffffffffffffffffffffffffffffffffffffff9081169083160361329e576040517f08c379a000000000000000000000000000000000000000000000000000000000815260206004820152601a60248201527f50414c4d5465726d733a20616c7265616479206d616e61676572000000000000604482015260640161062e565b609980547fffffffffffffffffffffffff0000000000000000000000000000000000000000811673ffffffffffffffffffffffffffffffffffffffff8581169182179093556040805193909216835260208301527f8d235c6c97ff1b07a41b6b8ac6ea040a6a6b411b20a0f02f02946fa45590bcfc9101610cf0565b8273ffffffffffffffffffffffffffffffffffffffff8116613398576040517f08c379a000000000000000000000000000000000000000000000000000000000815260206004820152601760248201527f50414c4d5465726d733a2061646472657373205a65726f000000000000000000604482015260640161062e565b33600090815260976020526040902084906133b3908261358b565b613419576040517f08c379a000000000000000000000000000000000000000000000000000000000815260206004820152601460248201527f50414c4d5465726d733a206e6f74206f776e6572000000000000000000000000604482015260640161062e565b6040517f4b16414000000000000000000000000000000000000000000000000000000000815273ffffffffffffffffffffffffffffffffffffffff861690634b1641409061346d90879087906004016147c2565b600060405180830381600087803b15801561348757600080fd5b505af115801561349b573d6000803e3d6000fd5b505050507fa51d837555a436e00533e1177576e060e79c5cf3196bd2809db7ed4b6c7719473386868660405161077394939291906147d6565b6134dc613758565b73ffffffffffffffffffffffffffffffffffffffff811661357f576040517f08c379a000000000000000000000000000000000000000000000000000000000815260206004820152602660248201527f4f776e61626c653a206e6577206f776e657220697320746865207a65726f206160448201527f6464726573730000000000000000000000000000000000000000000000000000606482015260840161062e565b61358881613abc565b50565b73ffffffffffffffffffffffffffffffffffffffff811660009081526001830160205260408120541515611c08565b60006127106135cd61ffff841685614ebd565b611c089190614efa565b60008211806135e65750600081115b613672576040517f08c379a000000000000000000000000000000000000000000000000000000000815260206004820152602160248201527f50414c4d5465726d733a206e6f20746f6b656e7320616c6c6f636174696f6e7360448201527f2e00000000000000000000000000000000000000000000000000000000000000606482015260840161062e565b5050565b60405173ffffffffffffffffffffffffffffffffffffffff808516602483015283166044820152606481018290526137529085907f23b872dd00000000000000000000000000000000000000000000000000000000906084015b604080517fffffffffffffffffffffffffffffffffffffffffffffffffffffffffffffffe08184030181529190526020810180517bffffffffffffffffffffffffffffffffffffffffffffffffffffffff167fffffffff0000000000000000000000000000000000000000000000000000000090931692909217909152613ece565b50505050565b60335473ffffffffffffffffffffffffffffffffffffffff1633146118af576040517f08c379a000000000000000000000000000000000000000000000000000000000815260206004820181905260248201527f4f776e61626c653a2063616c6c6572206973206e6f7420746865206f776e6572604482015260640161062e565b73ffffffffffffffffffffffffffffffffffffffff8281166000908152609b602052604090205481831691160361386c576040517f08c379a000000000000000000000000000000000000000000000000000000000815260206004820152601b60248201527f50414c4d5465726d733a20616c72656164792064656c65676174650000000000604482015260640161062e565b73ffffffffffffffffffffffffffffffffffffffff8281166000818152609b602090815260409182902080547fffffffffffffffffffffffff00000000000000000000000000000000000000001694861694851790558151338152908101929092528101919091527f1bdc0199979c7643aefd2462992328b03f70259b45fa89814e0d1008c105d06d90606001610cf0565b6000611c088373ffffffffffffffffffffffffffffffffffffffff8416613fda565b6040517f70a0823100000000000000000000000000000000000000000000000000000000815273ffffffffffffffffffffffffffffffffffffffff828116600483015260009182918291908616906370a0823190602401602060405180830381865afa158015613994573d6000803e3d6000fd5b505050506040513d601f19601f820116820180604052508101906139b891906149f3565b6040517ffcd3533c0000000000000000000000000000000000000000000000000000000081526004810182905273ffffffffffffffffffffffffffffffffffffffff86811660248301529192509086169063fcd3533c9060440160408051808303816000875af1158015613a30573d6000803e3d6000fd5b505050506040513d601f19601f82011682018060405250810190613a549190614a0c565b9096909550909350915050565b60405173ffffffffffffffffffffffffffffffffffffffff8316602482015260448101829052613ab79084907fa9059cbb00000000000000000000000000000000000000000000000000000000906064016136d0565b505050565b6033805473ffffffffffffffffffffffffffffffffffffffff8381167fffffffffffffffffffffffff0000000000000000000000000000000000000000831681179093556040519116919082907f8be0079c531659141344cd1fd0a4f28419497f9722a3daafe3b4186f6b6457e090600090a35050565b6000611c0b825490565b6000611c0883836140cd565b8073ffffffffffffffffffffffffffffffffffffffff168273ffffffffffffffffffffffffffffffffffffffff1610613672576040517f08c379a000000000000000000000000000000000000000000000000000000000815260206004820152602160248201527f50414c4d5465726d733a20746f6b656e73206f7264657220696e76657274656460448201527f2e00000000000000000000000000000000000000000000000000000000000000606482015260840161062e565b600080613c1a84670de0b6b3a7640000876140f7565b9150613c2f83670de0b6b3a7640000876140f7565b9050935093915050565b73ffffffffffffffffffffffffffffffffffffffff82166000908152609760205260409020613c68908261358b565b15613ccf576040517f08c379a000000000000000000000000000000000000000000000000000000000815260206004820152601660248201527f50414c4d5465726d733a207661756c7420657869737400000000000000000000604482015260640161062e565b73ffffffffffffffffffffffffffffffffffffffff82166000908152609760205260409020613cfe90826141c9565b506040805173ffffffffffffffffffffffffffffffffffffffff8085168252831660208201527f7f03ac7449144076e2d9d5a237c3ff0d0108e0a2ebdd5213c4b0de6f4d4f69539101610cf0565b801580613dec57506040517fdd62ed3e00000000000000000000000000000000000000000000000000000000815230600482015273ffffffffffffffffffffffffffffffffffffffff838116602483015284169063dd62ed3e90604401602060405180830381865afa158015613dc6573d6000803e3d6000fd5b505050506040513d601f19601f82011682018060405250810190613dea91906149f3565b155b613e78576040517f08c379a000000000000000000000000000000000000000000000000000000000815260206004820152603660248201527f5361666545524332303a20617070726f76652066726f6d206e6f6e2d7a65726f60448201527f20746f206e6f6e2d7a65726f20616c6c6f77616e636500000000000000000000606482015260840161062e565b60405173ffffffffffffffffffffffffffffffffffffffff8316602482015260448101829052613ab79084907f095ea7b300000000000000000000000000000000000000000000000000000000906064016136d0565b6000613f30826040518060400160405280602081526020017f5361666545524332303a206c6f772d6c6576656c2063616c6c206661696c65648152508573ffffffffffffffffffffffffffffffffffffffff166141eb9092919063ffffffff16565b805190915015613ab75780806020019051810190613f4e9190614f35565b613ab7576040517f08c379a000000000000000000000000000000000000000000000000000000000815260206004820152602a60248201527f5361666545524332303a204552433230206f7065726174696f6e20646964206e60448201527f6f74207375636365656400000000000000000000000000000000000000000000606482015260840161062e565b600081815260018301602052604081205480156140c3576000613ffe600183614b38565b855490915060009061401290600190614b38565b905081811461407757600086600001828154811061403257614032614f52565b906000526020600020015490508087600001848154811061405557614055614f52565b6000918252602080832090910192909255918252600188019052604090208390555b855486908061408857614088614f81565b600190038181906000526020600020016000905590558560010160008681526020019081526020016000206000905560019350505050611c0b565b6000915050611c0b565b60008260000182815481106140e4576140e4614f52565b9060005260206000200154905092915050565b600080807fffffffffffffffffffffffffffffffffffffffffffffffffffffffffffffffff8587098587029250828110838203039150508060000361414e576000841161414357600080fd5b5082900490506141c2565b80841161415a57600080fd5b600084868809851960019081018716968790049682860381900495909211909303600082900391909104909201919091029190911760038402600290811880860282030280860282030280860282030280860282030280860282030280860290910302029150505b9392505050565b6000611c088373ffffffffffffffffffffffffffffffffffffffff8416614202565b60606141fa8484600085614251565b949350505050565b600081815260018301602052604081205461424957508154600181810184556000848152602080822090930184905584548482528286019093526040902091909155611c0b565b506000611c0b565b6060824710156142e3576040517f08c379a000000000000000000000000000000000000000000000000000000000815260206004820152602660248201527f416464726573733a20696e73756666696369656e742062616c616e636520666f60448201527f722063616c6c0000000000000000000000000000000000000000000000000000606482015260840161062e565b73ffffffffffffffffffffffffffffffffffffffff85163b614361576040517f08c379a000000000000000000000000000000000000000000000000000000000815260206004820152601d60248201527f416464726573733a2063616c6c20746f206e6f6e2d636f6e7472616374000000604482015260640161062e565b6000808673ffffffffffffffffffffffffffffffffffffffff16858760405161438a9190614fb0565b60006040518083038185875af1925050503d80600081146143c7576040519150601f19603f3d011682016040523d82523d6000602084013e6143cc565b606091505b50915091506143dc8282866143e7565b979650505050505050565b606083156143f65750816141c2565b8251156144065782518084602001fd5b816040517f08c379a000000000000000000000000000000000000000000000000000000000815260040161062e9190614fcc565b73ffffffffffffffffffffffffffffffffffffffff8116811461358857600080fd5b60008083601f84011261446e57600080fd5b50813567ffffffffffffffff81111561448657600080fd5b6020830191508360208260051b85010111156144a157600080fd5b9250929050565b6000806000604084860312156144bd57600080fd5b83356144c88161443a565b9250602084013567ffffffffffffffff8111156144e457600080fd5b6144f08682870161445c565b9497909650939450505050565b60006020828403121561450f57600080fd5b81356141c28161443a565b60006060828403121561452c57600080fd5b50919050565b60008083601f84011261454457600080fd5b50813567ffffffffffffffff81111561455c57600080fd5b6020830191508360208285010111156144a157600080fd5b60008060006040848603121561458957600080fd5b83356145948161443a565b9250602084013567ffffffffffffffff8111156145b057600080fd5b6144f086828701614532565b600080604083850312156145cf57600080fd5b82356145da8161443a565b915060208301356145ea8161443a565b809150509250929050565b6000806000806080858703121561460b57600080fd5b84356146168161443a565b935060208501356146268161443a565b925060408501356146368161443a565b915060608501356146468161443a565b939692955090935050565b6000806040838503121561466457600080fd5b823561466f8161443a565b946020939093013593505050565b60006020828403121561468f57600080fd5b813567ffffffffffffffff8111156146a657600080fd5b820161016081850312156141c257600080fd5b6000806000606084860312156146ce57600080fd5b83356146d98161443a565b92506020840135915060408401356146f08161443a565b809150509250925092565b803561ffff8116811461470d57600080fd5b919050565b6000806000806080858703121561472857600080fd5b84356147338161443a565b935060208501356147438161443a565b9250614636604086016146fb565b60006020828403121561476357600080fd5b611c08826146fb565b8183526000602080850194508260005b858110156147b757813561478f8161443a565b73ffffffffffffffffffffffffffffffffffffffff168752958201959082019060010161477c565b509495945050505050565b6020815260006141fa60208301848661476c565b600073ffffffffffffffffffffffffffffffffffffffff80871683528086166020840152506060604083015261481060608301848661476c565b9695505050505050565b7f4e487b7100000000000000000000000000000000000000000000000000000000600052604160045260246000fd5b60405160a0810167ffffffffffffffff8111828210171561486c5761486c61481a565b60405290565b604051601f82017fffffffffffffffffffffffffffffffffffffffffffffffffffffffffffffffe016810167ffffffffffffffff811182821017156148b9576148b961481a565b604052919050565b60005b838110156148dc5781810151838201526020016148c4565b838111156137525750506000910152565b6000602080838503121561490057600080fd5b825167ffffffffffffffff8082111561491857600080fd5b9084019060a0828703121561492c57600080fd5b614934614849565b82518152838301518482015260408301518281111561495257600080fd5b8301601f8101881361496357600080fd5b8051838111156149755761497561481a565b6149a5867fffffffffffffffffffffffffffffffffffffffffffffffffffffffffffffffe0601f84011601614872565b935080845288868284010111156149bb57600080fd5b6149ca818786018885016148c1565b505081604082015260608301516060820152608083015160808201528094505050505092915050565b600060208284031215614a0557600080fd5b5051919050565b60008060408385031215614a1f57600080fd5b505080516020909101519092909150565b600060208284031215614a4257600080fd5b81516141c28161443a565b8183528181602085013750600060208284010152600060207fffffffffffffffffffffffffffffffffffffffffffffffffffffffffffffffe0601f840116840101905092915050565b73ffffffffffffffffffffffffffffffffffffffff84168152604060208201526000614ac6604083018486614a4d565b95945050505050565b600073ffffffffffffffffffffffffffffffffffffffff808716835280861660208401525060606040830152614810606083018486614a4d565b7f4e487b7100000000000000000000000000000000000000000000000000000000600052601160045260246000fd5b600082821015614b4a57614b4a614b09565b500390565b60008083357fffffffffffffffffffffffffffffffffffffffffffffffffffffffffffffffe1843603018112614b8457600080fd5b83018035915067ffffffffffffffff821115614b9f57600080fd5b6020019150600581901b36038213156144a157600080fd5b801515811461358857600080fd5b600060208284031215614bd757600080fd5b81356141c281614bb7565b600081518084526020808501945080840160005b838110156147b757815173ffffffffffffffffffffffffffffffffffffffff1687529582019590820190600101614bf6565b6040808252835161010091830182905280516101408401819052600092602092830191610160860190855b81811015614c7457845162ffffff1683529385019391850191600101614c53565b50508784015173ffffffffffffffffffffffffffffffffffffffff811660608801529250604088015173ffffffffffffffffffffffffffffffffffffffff811660808801529250606088015173ffffffffffffffffffffffffffffffffffffffff811660a08801529250608088015160c087015260a088015160e087015260c08801519250614d1a8287018473ffffffffffffffffffffffffffffffffffffffff169052565b60e088015192507fffffffffffffffffffffffffffffffffffffffffffffffffffffffffffffffc086820301610120870152614d568184614be2565b9450505050614d688184018515159052565b509392505050565b60008083357fffffffffffffffffffffffffffffffffffffffffffffffffffffffffffffffe1843603018112614da557600080fd5b83018035915067ffffffffffffffff821115614dc057600080fd5b6020019150368190038213156144a157600080fd5b73ffffffffffffffffffffffffffffffffffffffff86168152606060208201526000614e05606083018688614a4d565b8281036040840152614e18818587614a4d565b98975050505050505050565b818352600060208085019450826000805b86811015614e6357823562ffffff8116808214614e50578384fd5b8952509683019691830191600101614e35565b50959695505050505050565b6020815260006141fa602083018486614e24565b600073ffffffffffffffffffffffffffffffffffffffff808716835280861660208401525060606040830152614810606083018486614e24565b6000817fffffffffffffffffffffffffffffffffffffffffffffffffffffffffffffffff0483118215151615614ef557614ef5614b09565b500290565b600082614f30577f4e487b7100000000000000000000000000000000000000000000000000000000600052601260045260246000fd5b500490565b600060208284031215614f4757600080fd5b81516141c281614bb7565b7f4e487b7100000000000000000000000000000000000000000000000000000000600052603260045260246000fd5b7f4e487b7100000000000000000000000000000000000000000000000000000000600052603160045260246000fd5b60008251614fc28184602087016148c1565b9190910192915050565b6020815260008251806020840152614feb8160408501602087016148c1565b601f017fffffffffffffffffffffffffffffffffffffffffffffffffffffffffffffffe016919091016040019291505056fea2646970667358221220b86ad143ff8a8fc6a45456efda64e2b3ff761759fe69b88f6db521e5f8619aa664736f6c634300080d0033",
  "devdoc": {
    "kind": "dev",
    "methods": {
      "addPools(address,uint24[])": {
        "details": "only callable by owner of the vault",
        "params": {
          "feeTiers_": "feeTiers to add",
          "vault_": "Arrakis V2 vault"
        }
      },
      "blacklistRouters(address,address[])": {
        "details": "only callable by owner of the vault",
        "params": {
          "routers_": "routers to blacklist",
          "vault_": "Arrakis V2 vault"
        }
      },
      "closeTerm(address,address,address,address)": {
        "details": "only vault owner can call it. Client will pay emoluments.",
        "params": {
          "newManager_": "new manager of the Arrakis V2 vault.",
          "newOwner_": "new owner of the Arrakis V2 vault.",
          "to_": "address that will receive fund.",
          "vault_": "Arrakis V2 vault"
        }
      },
      "increaseLiquidity((address,uint256,uint256))": {
        "details": "only vault owner can call it.",
        "params": {
          "increaseBalance_": "contain all data to increase vault allocations."
        }
      },
      "openTerm((uint24[],address,address,address,uint256,uint256,bytes,string,bool,address,address[]))": {
        "params": {
          "setup_": "contains all data to create ArrakisV2 vault, creates a term btw client and PALM automated management."
        },
        "returns": {
          "vault": "created Arrakis V2 vault address"
        }
      },
      "owner()": {
        "details": "Returns the address of the current owner."
      },
      "removePools(address,address[])": {
        "details": "only callable by owner of the vault",
        "params": {
          "pools_": "pools to remove",
          "vault_": "Arrakis V2 vault"
        }
      },
      "renewTerm(address)": {
        "details": "only vault owner can call it.",
        "params": {
          "vault_": "Arrakis V2 vault"
        }
      },
      "renounceOwnership()": {
        "details": "Leaves the contract without owner. It will not be possible to call `onlyOwner` functions anymore. Can only be called by the current owner. NOTE: Renouncing ownership will leave the contract without an owner, thereby removing any functionality that is only available to the owner."
      },
      "setDelegate(address,address)": {
        "details": "only callable by owner of vault",
        "params": {
          "delegate_": "delegated strategy setter of Arrakis V2 vault",
          "vault_": "Arrakis V2 vault"
        }
      },
      "setEmolument(uint16)": {
        "details": "only callable by owner",
        "params": {
          "emolument_": "new emolument"
        }
      },
      "setManager(address)": {
        "details": "only callable by owner",
        "params": {
          "manager_": "new manager"
        }
      },
      "setResolver(address)": {
        "details": "only callable by owner",
        "params": {
          "resolver_": "new resolver"
        }
      },
      "setTermTreasury(address)": {
        "details": "only callable by owner",
        "params": {
          "termTreasury_": "address of fess receiver"
        }
      },
      "setVaultData(address,bytes)": {
        "details": "only callable by delegate of the vault by default or otherwise owner",
        "params": {
          "data_": "metadata to use during market making",
          "vault_": "Arrakis V2 vault"
        }
      },
      "setVaultStratByName(address,string)": {
        "details": "only callable by delegate of the vault by default or otherwise owner",
        "params": {
          "strat_": "strategy to apply during market making",
          "vault_": "Arrakis V2 vault"
        }
      },
      "transferOwnership(address)": {
        "details": "Transfers ownership of the contract to a new account (`newOwner`). Can only be called by the current owner."
      },
      "vaults(address,uint256)": {
        "params": {
          "creator_": "creator of Arrakis V2 vault",
          "index": "index on the list of vaults"
        },
        "returns": {
          "_0": "address of the Arrakis Vault V2"
        }
      },
      "whitelistRouters(address,address[])": {
        "details": "only callable by owner of the vault",
        "params": {
          "routers_": "routers to whitelist",
          "vault_": "Arrakis V2 vault"
        }
      },
      "withdrawVaultBalance(address,uint256,address)": {
        "details": "only callable by owner of vault",
        "params": {
          "amount_": "amount of balance that receiver will get back",
          "to_": "address of the receiver of balance",
          "vault_": "Arrakis V2 vault"
        }
      }
    },
    "title": "Portfolio automated liquidity management",
    "version": 1
  },
  "userdoc": {
    "kind": "user",
    "methods": {
      "addPools(address,uint24[])": {
        "notice": "for adding new Pools on Arrakis V2 vault"
      },
      "blacklistRouters(address,address[])": {
        "notice": "for blacklist routers on Arrakis V2 vault"
      },
      "closeTerm(address,address,address,address)": {
        "notice": "closes term btw PALM and client."
      },
      "increaseLiquidity((address,uint256,uint256))": {
        "notice": "increases tokens allocation on client ArrakisV2 PALM vault."
      },
      "openTerm((uint24[],address,address,address,uint256,uint256,bytes,string,bool,address,address[]))": {
        "notice": "does neccesary step to initialize PALM market making."
      },
      "removePools(address,address[])": {
        "notice": "for removing Pools on Arrakis V2 vault"
      },
      "renewTerm(address)": {
        "notice": "renews term btw PALMManager and client on ArrakisV2 PALM vault"
      },
      "setDelegate(address,address)": {
        "notice": "set delegate for managing strategy of Arrakis V2 vault"
      },
      "setEmolument(uint16)": {
        "notice": "sets emolument percentage"
      },
      "setManager(address)": {
        "notice": "sets manager_ address"
      },
      "setResolver(address)": {
        "notice": "sets resolver address"
      },
      "setTermTreasury(address)": {
        "notice": "sets term treasury"
      },
      "setVaultData(address,bytes)": {
        "notice": "set Arrakis V2 vault meta data"
      },
      "setVaultStratByName(address,string)": {
        "notice": "set Arrakis V2 vault strategy"
      },
      "vaults(address,uint256)": {
        "notice": "get vault of creator"
      },
      "whitelistRouters(address,address[])": {
        "notice": "for whitelisting routers on Arrakis V2 vault"
      },
      "withdrawVaultBalance(address,uint256,address)": {
        "notice": "for withdrawing vault balance"
      }
    },
    "notice": "Smart contract creating market making terms btw client and Arrakis Finance",
    "version": 1
  },
  "storageLayout": {
    "storage": [
      {
        "astId": 854,
        "contract": "contracts/PALMTerms.sol:PALMTerms",
        "label": "_initialized",
        "offset": 0,
        "slot": "0",
        "type": "t_uint8"
      },
      {
        "astId": 857,
        "contract": "contracts/PALMTerms.sol:PALMTerms",
        "label": "_initializing",
        "offset": 1,
        "slot": "0",
        "type": "t_bool"
      },
      {
        "astId": 1468,
        "contract": "contracts/PALMTerms.sol:PALMTerms",
        "label": "__gap",
        "offset": 0,
        "slot": "1",
        "type": "t_array(t_uint256)50_storage"
      },
      {
        "astId": 726,
        "contract": "contracts/PALMTerms.sol:PALMTerms",
        "label": "_owner",
        "offset": 0,
        "slot": "51",
        "type": "t_address"
      },
      {
        "astId": 846,
        "contract": "contracts/PALMTerms.sol:PALMTerms",
        "label": "__gap",
        "offset": 0,
        "slot": "52",
        "type": "t_array(t_uint256)49_storage"
      },
      {
        "astId": 1139,
        "contract": "contracts/PALMTerms.sol:PALMTerms",
        "label": "_status",
        "offset": 0,
        "slot": "101",
        "type": "t_uint256"
      },
      {
        "astId": 1183,
        "contract": "contracts/PALMTerms.sol:PALMTerms",
        "label": "__gap",
        "offset": 0,
        "slot": "102",
        "type": "t_array(t_uint256)49_storage"
      },
      {
        "astId": 6766,
        "contract": "contracts/PALMTerms.sol:PALMTerms",
        "label": "_vaults",
        "offset": 0,
        "slot": "151",
        "type": "t_mapping(t_address,t_struct(AddressSet)3988_storage)"
      },
      {
        "astId": 6771,
        "contract": "contracts/PALMTerms.sol:PALMTerms",
        "label": "termTreasury",
        "offset": 0,
        "slot": "152",
        "type": "t_address"
      },
      {
        "astId": 6773,
        "contract": "contracts/PALMTerms.sol:PALMTerms",
        "label": "manager",
        "offset": 0,
        "slot": "153",
        "type": "t_address"
      },
      {
        "astId": 6775,
        "contract": "contracts/PALMTerms.sol:PALMTerms",
        "label": "emolument",
        "offset": 20,
        "slot": "153",
        "type": "t_uint16"
      },
      {
        "astId": 6779,
        "contract": "contracts/PALMTerms.sol:PALMTerms",
        "label": "resolver",
        "offset": 0,
        "slot": "154",
        "type": "t_contract(IArrakisV2Resolver)368"
      },
      {
        "astId": 6783,
        "contract": "contracts/PALMTerms.sol:PALMTerms",
        "label": "delegateByVaults",
        "offset": 0,
        "slot": "155",
        "type": "t_mapping(t_address,t_address)"
      }
    ],
    "types": {
      "t_address": {
        "encoding": "inplace",
        "label": "address",
        "numberOfBytes": "20"
      },
      "t_array(t_bytes32)dyn_storage": {
        "base": "t_bytes32",
        "encoding": "dynamic_array",
        "label": "bytes32[]",
        "numberOfBytes": "32"
      },
      "t_array(t_uint256)49_storage": {
        "base": "t_uint256",
        "encoding": "inplace",
        "label": "uint256[49]",
        "numberOfBytes": "1568"
      },
      "t_array(t_uint256)50_storage": {
        "base": "t_uint256",
        "encoding": "inplace",
        "label": "uint256[50]",
        "numberOfBytes": "1600"
      },
      "t_bool": {
        "encoding": "inplace",
        "label": "bool",
        "numberOfBytes": "1"
      },
      "t_bytes32": {
        "encoding": "inplace",
        "label": "bytes32",
        "numberOfBytes": "32"
      },
      "t_contract(IArrakisV2Resolver)368": {
        "encoding": "inplace",
        "label": "contract IArrakisV2Resolver",
        "numberOfBytes": "20"
      },
      "t_mapping(t_address,t_address)": {
        "encoding": "mapping",
        "key": "t_address",
        "label": "mapping(address => address)",
        "numberOfBytes": "32",
        "value": "t_address"
      },
      "t_mapping(t_address,t_struct(AddressSet)3988_storage)": {
        "encoding": "mapping",
        "key": "t_address",
        "label": "mapping(address => struct EnumerableSet.AddressSet)",
        "numberOfBytes": "32",
        "value": "t_struct(AddressSet)3988_storage"
      },
      "t_mapping(t_bytes32,t_uint256)": {
        "encoding": "mapping",
        "key": "t_bytes32",
        "label": "mapping(bytes32 => uint256)",
        "numberOfBytes": "32",
        "value": "t_uint256"
      },
      "t_struct(AddressSet)3988_storage": {
        "encoding": "inplace",
        "label": "struct EnumerableSet.AddressSet",
        "members": [
          {
            "astId": 3987,
            "contract": "contracts/PALMTerms.sol:PALMTerms",
            "label": "_inner",
            "offset": 0,
            "slot": "0",
            "type": "t_struct(Set)3687_storage"
          }
        ],
        "numberOfBytes": "64"
      },
      "t_struct(Set)3687_storage": {
        "encoding": "inplace",
        "label": "struct EnumerableSet.Set",
        "members": [
          {
            "astId": 3682,
            "contract": "contracts/PALMTerms.sol:PALMTerms",
            "label": "_values",
            "offset": 0,
            "slot": "0",
            "type": "t_array(t_bytes32)dyn_storage"
          },
          {
            "astId": 3686,
            "contract": "contracts/PALMTerms.sol:PALMTerms",
            "label": "_indexes",
            "offset": 0,
            "slot": "1",
            "type": "t_mapping(t_bytes32,t_uint256)"
          }
        ],
        "numberOfBytes": "64"
      },
      "t_uint16": {
        "encoding": "inplace",
        "label": "uint16",
        "numberOfBytes": "2"
      },
      "t_uint256": {
        "encoding": "inplace",
        "label": "uint256",
        "numberOfBytes": "32"
      },
      "t_uint8": {
        "encoding": "inplace",
        "label": "uint8",
        "numberOfBytes": "1"
      }
    }
  }
}