{
  "address": "0x6f5eB5dfF1e6A17354b4Bb35541473F6Cb48c0c9",
  "abi": [
    {
      "inputs": [
        {
          "internalType": "uint16",
          "name": "managerFeeBPS_",
          "type": "uint16"
        },
        {
          "internalType": "address",
          "name": "terms_",
          "type": "address"
        },
        {
          "internalType": "uint256",
          "name": "termDuration_",
          "type": "uint256"
        }
      ],
      "stateMutability": "nonpayable",
      "type": "constructor"
    },
    {
      "anonymous": false,
      "inputs": [
        {
          "indexed": false,
          "internalType": "address[]",
          "name": "operators",
          "type": "address[]"
        }
      ],
      "name": "AddOperators",
      "type": "event"
    },
    {
      "anonymous": false,
      "inputs": [
        {
          "indexed": true,
          "internalType": "address",
          "name": "vault",
          "type": "address"
        },
        {
          "indexed": false,
          "internalType": "bytes",
          "name": "datas",
          "type": "bytes"
        },
        {
          "indexed": false,
          "internalType": "string",
          "name": "strat",
          "type": "string"
        }
      ],
      "name": "AddVault",
      "type": "event"
    },
    {
      "anonymous": false,
      "inputs": [
        {
          "indexed": false,
          "internalType": "uint8",
          "name": "version",
          "type": "uint8"
        }
      ],
      "name": "Initialized",
      "type": "event"
    },
    {
      "anonymous": false,
      "inputs": [
        {
          "indexed": true,
          "internalType": "address",
          "name": "previousOwner",
          "type": "address"
        },
        {
          "indexed": true,
          "internalType": "address",
          "name": "newOwner",
          "type": "address"
        }
      ],
      "name": "OwnershipTransferred",
      "type": "event"
    },
    {
      "anonymous": false,
      "inputs": [
        {
          "indexed": false,
          "internalType": "address",
          "name": "account",
          "type": "address"
        }
      ],
      "name": "Paused",
      "type": "event"
    },
    {
      "anonymous": false,
      "inputs": [
        {
          "indexed": true,
          "internalType": "address",
          "name": "vault",
          "type": "address"
        },
        {
          "indexed": false,
          "internalType": "uint256",
          "name": "newBalance",
          "type": "uint256"
        }
      ],
      "name": "RebalanceVault",
      "type": "event"
    },
    {
      "anonymous": false,
      "inputs": [
        {
          "indexed": false,
          "internalType": "address[]",
          "name": "operators",
          "type": "address[]"
        }
      ],
      "name": "RemoveOperators",
      "type": "event"
    },
    {
      "anonymous": false,
      "inputs": [
        {
          "indexed": true,
          "internalType": "address",
          "name": "vault",
          "type": "address"
        },
        {
          "indexed": false,
          "internalType": "uint256",
          "name": "sendBack",
          "type": "uint256"
        }
      ],
      "name": "RemoveVault",
      "type": "event"
    },
    {
      "anonymous": false,
      "inputs": [
        {
          "indexed": false,
          "internalType": "address",
          "name": "gelatoFeeCollector",
          "type": "address"
        }
      ],
      "name": "SetGelatoFeeCollector",
      "type": "event"
    },
    {
      "anonymous": false,
      "inputs": [
        {
          "indexed": true,
          "internalType": "address",
          "name": "vault",
          "type": "address"
        },
        {
          "indexed": false,
          "internalType": "uint256",
          "name": "oldtermEnd",
          "type": "uint256"
        },
        {
          "indexed": false,
          "internalType": "uint256",
          "name": "newtermEnd",
          "type": "uint256"
        }
      ],
      "name": "SetTermEnd",
      "type": "event"
    },
    {
      "anonymous": false,
      "inputs": [
        {
          "indexed": true,
          "internalType": "address",
          "name": "vault",
          "type": "address"
        },
        {
          "indexed": false,
          "internalType": "bytes",
          "name": "data",
          "type": "bytes"
        }
      ],
      "name": "SetVaultData",
      "type": "event"
    },
    {
      "anonymous": false,
      "inputs": [
        {
          "indexed": true,
          "internalType": "address",
          "name": "vault",
          "type": "address"
        },
        {
          "indexed": false,
          "internalType": "bytes32",
          "name": "strat",
          "type": "bytes32"
        }
      ],
      "name": "SetVaultStrat",
      "type": "event"
    },
    {
      "anonymous": false,
      "inputs": [
        {
          "indexed": false,
          "internalType": "address",
          "name": "account",
          "type": "address"
        }
      ],
      "name": "Unpaused",
      "type": "event"
    },
    {
      "anonymous": false,
      "inputs": [
        {
          "indexed": true,
          "internalType": "address",
          "name": "vault",
          "type": "address"
        },
        {
          "indexed": false,
          "internalType": "uint256",
          "name": "newBalance",
          "type": "uint256"
        }
      ],
      "name": "UpdateVaultBalance",
      "type": "event"
    },
    {
      "anonymous": false,
      "inputs": [
        {
          "indexed": false,
          "internalType": "string",
          "name": "strat",
          "type": "string"
        }
      ],
      "name": "WhitelistStrat",
      "type": "event"
    },
    {
      "anonymous": false,
      "inputs": [
        {
          "indexed": true,
          "internalType": "address",
          "name": "vault",
          "type": "address"
        },
        {
          "indexed": false,
          "internalType": "uint256",
          "name": "amount",
          "type": "uint256"
        },
        {
          "indexed": false,
          "internalType": "address",
          "name": "to",
          "type": "address"
        },
        {
          "indexed": false,
          "internalType": "uint256",
          "name": "newBalance",
          "type": "uint256"
        }
      ],
      "name": "WithdrawVaultBalance",
      "type": "event"
    },
    {
      "inputs": [
        {
          "internalType": "address[]",
          "name": "operators_",
          "type": "address[]"
        }
      ],
      "name": "addOperators",
      "outputs": [],
      "stateMutability": "nonpayable",
      "type": "function"
    },
    {
      "inputs": [
        {
          "internalType": "address",
          "name": "vault_",
          "type": "address"
        },
        {
          "internalType": "bytes",
          "name": "datas_",
          "type": "bytes"
        },
        {
          "internalType": "string",
          "name": "strat_",
          "type": "string"
        }
      ],
      "name": "addVault",
      "outputs": [],
      "stateMutability": "payable",
      "type": "function"
    },
    {
      "inputs": [
        {
          "internalType": "address",
          "name": "vault_",
          "type": "address"
        }
      ],
      "name": "fundVaultBalance",
      "outputs": [],
      "stateMutability": "payable",
      "type": "function"
    },
    {
      "inputs": [],
      "name": "gelatoFeeCollector",
      "outputs": [
        {
          "internalType": "address payable",
          "name": "",
          "type": "address"
        }
      ],
      "stateMutability": "view",
      "type": "function"
    },
    {
      "inputs": [],
      "name": "getOperators",
      "outputs": [
        {
          "internalType": "address[]",
          "name": "",
          "type": "address[]"
        }
      ],
      "stateMutability": "view",
      "type": "function"
    },
    {
      "inputs": [
        {
          "internalType": "address",
          "name": "vault_",
          "type": "address"
        }
      ],
      "name": "getVaultInfo",
      "outputs": [
        {
          "components": [
            {
              "internalType": "uint256",
              "name": "balance",
              "type": "uint256"
            },
            {
              "internalType": "uint256",
              "name": "lastRebalance",
              "type": "uint256"
            },
            {
              "internalType": "bytes",
              "name": "datas",
              "type": "bytes"
            },
            {
              "internalType": "bytes32",
              "name": "strat",
              "type": "bytes32"
            },
            {
              "internalType": "uint256",
              "name": "termEnd",
              "type": "uint256"
            }
          ],
          "internalType": "struct VaultInfo",
          "name": "",
          "type": "tuple"
        }
      ],
      "stateMutability": "view",
      "type": "function"
    },
    {
      "inputs": [],
      "name": "getWhitelistedStrat",
      "outputs": [
        {
          "internalType": "bytes32[]",
          "name": "",
          "type": "bytes32[]"
        }
      ],
      "stateMutability": "view",
      "type": "function"
    },
    {
      "inputs": [
        {
          "internalType": "address",
          "name": "owner_",
          "type": "address"
        },
        {
          "internalType": "address",
          "name": "gelatoFeeCollector_",
          "type": "address"
        }
      ],
      "name": "initialize",
      "outputs": [],
      "stateMutability": "nonpayable",
      "type": "function"
    },
    {
      "inputs": [],
      "name": "managerFeeBPS",
      "outputs": [
        {
          "internalType": "uint16",
          "name": "",
          "type": "uint16"
        }
      ],
      "stateMutability": "view",
      "type": "function"
    },
    {
      "inputs": [],
      "name": "owner",
      "outputs": [
        {
          "internalType": "address",
          "name": "",
          "type": "address"
        }
      ],
      "stateMutability": "view",
      "type": "function"
    },
    {
      "inputs": [],
      "name": "pause",
      "outputs": [],
      "stateMutability": "nonpayable",
      "type": "function"
    },
    {
      "inputs": [],
      "name": "paused",
      "outputs": [
        {
          "internalType": "bool",
          "name": "",
          "type": "bool"
        }
      ],
      "stateMutability": "view",
      "type": "function"
    },
    {
      "inputs": [
        {
          "internalType": "address",
          "name": "vault_",
          "type": "address"
        },
        {
          "components": [
            {
              "internalType": "int24",
              "name": "lowerTick",
              "type": "int24"
            },
            {
              "internalType": "int24",
              "name": "upperTick",
              "type": "int24"
            },
            {
              "internalType": "uint24",
              "name": "feeTier",
              "type": "uint24"
            }
          ],
          "internalType": "struct Range[]",
          "name": "ranges_",
          "type": "tuple[]"
        },
        {
          "components": [
            {
              "components": [
                {
                  "internalType": "uint128",
                  "name": "liquidity",
                  "type": "uint128"
                },
                {
                  "components": [
                    {
                      "internalType": "int24",
                      "name": "lowerTick",
                      "type": "int24"
                    },
                    {
                      "internalType": "int24",
                      "name": "upperTick",
                      "type": "int24"
                    },
                    {
                      "internalType": "uint24",
                      "name": "feeTier",
                      "type": "uint24"
                    }
                  ],
                  "internalType": "struct Range",
                  "name": "range",
                  "type": "tuple"
                }
              ],
              "internalType": "struct PositionLiquidity[]",
              "name": "removes",
              "type": "tuple[]"
            },
            {
              "components": [
                {
                  "internalType": "uint128",
                  "name": "liquidity",
                  "type": "uint128"
                },
                {
                  "components": [
                    {
                      "internalType": "int24",
                      "name": "lowerTick",
                      "type": "int24"
                    },
                    {
                      "internalType": "int24",
                      "name": "upperTick",
                      "type": "int24"
                    },
                    {
                      "internalType": "uint24",
                      "name": "feeTier",
                      "type": "uint24"
                    }
                  ],
                  "internalType": "struct Range",
                  "name": "range",
                  "type": "tuple"
                }
              ],
              "internalType": "struct PositionLiquidity[]",
              "name": "deposits",
              "type": "tuple[]"
            },
            {
              "components": [
                {
                  "internalType": "bytes",
                  "name": "payload",
                  "type": "bytes"
                },
                {
                  "internalType": "address",
                  "name": "router",
                  "type": "address"
                },
                {
                  "internalType": "uint256",
                  "name": "amountIn",
                  "type": "uint256"
                },
                {
                  "internalType": "uint256",
                  "name": "expectedMinReturn",
                  "type": "uint256"
                },
                {
                  "internalType": "bool",
                  "name": "zeroForOne",
                  "type": "bool"
                }
              ],
              "internalType": "struct SwapPayload",
              "name": "swap",
              "type": "tuple"
            },
            {
              "internalType": "uint256",
              "name": "minDeposit0",
              "type": "uint256"
            },
            {
              "internalType": "uint256",
              "name": "minDeposit1",
              "type": "uint256"
            }
          ],
          "internalType": "struct Rebalance",
          "name": "rebalanceParams_",
          "type": "tuple"
        },
        {
          "components": [
            {
              "internalType": "int24",
              "name": "lowerTick",
              "type": "int24"
            },
            {
              "internalType": "int24",
              "name": "upperTick",
              "type": "int24"
            },
            {
              "internalType": "uint24",
              "name": "feeTier",
              "type": "uint24"
            }
          ],
          "internalType": "struct Range[]",
          "name": "rangesToRemove_",
          "type": "tuple[]"
        },
        {
          "internalType": "uint256",
          "name": "feeAmount_",
          "type": "uint256"
        }
      ],
      "name": "rebalance",
      "outputs": [],
      "stateMutability": "nonpayable",
      "type": "function"
    },
    {
      "inputs": [
        {
          "internalType": "address[]",
          "name": "operators_",
          "type": "address[]"
        }
      ],
      "name": "removeOperators",
      "outputs": [],
      "stateMutability": "nonpayable",
      "type": "function"
    },
    {
      "inputs": [
        {
          "internalType": "address",
          "name": "vault_",
          "type": "address"
        },
        {
          "internalType": "address payable",
          "name": "to_",
          "type": "address"
        }
      ],
      "name": "removeVault",
      "outputs": [],
      "stateMutability": "nonpayable",
      "type": "function"
    },
    {
      "inputs": [
        {
          "internalType": "address",
          "name": "vault_",
          "type": "address"
        }
      ],
      "name": "renewTerm",
      "outputs": [],
      "stateMutability": "nonpayable",
      "type": "function"
    },
    {
      "inputs": [],
      "name": "renounceOwnership",
      "outputs": [],
      "stateMutability": "nonpayable",
      "type": "function"
    },
    {
      "inputs": [
        {
          "internalType": "address payable",
          "name": "gelatoFeeCollector_",
          "type": "address"
        }
      ],
      "name": "setGelatoFeeCollector",
      "outputs": [],
      "stateMutability": "nonpayable",
      "type": "function"
    },
    {
      "inputs": [
        {
          "internalType": "address",
          "name": "vault_",
          "type": "address"
        },
        {
          "internalType": "bytes",
          "name": "data_",
          "type": "bytes"
        }
      ],
      "name": "setVaultData",
      "outputs": [],
      "stateMutability": "nonpayable",
      "type": "function"
    },
    {
      "inputs": [
        {
          "internalType": "address",
          "name": "vault_",
          "type": "address"
        },
        {
          "internalType": "string",
          "name": "strat_",
          "type": "string"
        }
      ],
      "name": "setVaultStratByName",
      "outputs": [],
      "stateMutability": "nonpayable",
      "type": "function"
    },
    {
      "inputs": [],
      "name": "termDuration",
      "outputs": [
        {
          "internalType": "uint256",
          "name": "",
          "type": "uint256"
        }
      ],
      "stateMutability": "view",
      "type": "function"
    },
    {
      "inputs": [],
      "name": "terms",
      "outputs": [
        {
          "internalType": "address",
          "name": "",
          "type": "address"
        }
      ],
      "stateMutability": "view",
      "type": "function"
    },
    {
      "inputs": [
        {
          "internalType": "address",
          "name": "newOwner",
          "type": "address"
        }
      ],
      "name": "transferOwnership",
      "outputs": [],
      "stateMutability": "nonpayable",
      "type": "function"
    },
    {
      "inputs": [],
      "name": "unpause",
      "outputs": [],
      "stateMutability": "nonpayable",
      "type": "function"
    },
    {
      "inputs": [
        {
          "internalType": "address",
          "name": "",
          "type": "address"
        }
      ],
      "name": "vaults",
      "outputs": [
        {
          "internalType": "uint256",
          "name": "balance",
          "type": "uint256"
        },
        {
          "internalType": "uint256",
          "name": "lastRebalance",
          "type": "uint256"
        },
        {
          "internalType": "bytes",
          "name": "datas",
          "type": "bytes"
        },
        {
          "internalType": "bytes32",
          "name": "strat",
          "type": "bytes32"
        },
        {
          "internalType": "uint256",
          "name": "termEnd",
          "type": "uint256"
        }
      ],
      "stateMutability": "view",
      "type": "function"
    },
    {
      "inputs": [
        {
          "internalType": "string",
          "name": "strat_",
          "type": "string"
        }
      ],
      "name": "whitelistStrat",
      "outputs": [],
      "stateMutability": "nonpayable",
      "type": "function"
    },
    {
      "inputs": [
        {
          "internalType": "address[]",
          "name": "tokens_",
          "type": "address[]"
        },
        {
          "internalType": "address",
          "name": "to_",
          "type": "address"
        }
      ],
      "name": "withdrawFeesEarned",
      "outputs": [],
      "stateMutability": "nonpayable",
      "type": "function"
    },
    {
      "inputs": [
        {
          "internalType": "address",
          "name": "vault_",
          "type": "address"
        },
        {
          "internalType": "uint256",
          "name": "amount_",
          "type": "uint256"
        },
        {
          "internalType": "address payable",
          "name": "to_",
          "type": "address"
        }
      ],
      "name": "withdrawVaultBalance",
      "outputs": [],
      "stateMutability": "nonpayable",
      "type": "function"
    }
  ],
  "transactionHash": "0x81043cf2e70dca04c545177807b7e11bdfa52b714220adf2c4560ff225b93605",
  "args": [
    4750,
    "0x4DddBE38f61d71C308CD7BbB6Cc1DAcaAAD288F2",
    7884000
  ],
  "numDeployments": 1,
  "solcInputHash": "bc55e5568e4784f897ee3725c9942a26",
  "bytecode": "0x60e06040523480156200001157600080fd5b506040516200352438038062003524833981016040819052620000349162000052565b61ffff9092166080526001600160a01b031660a05260c052620000ab565b6000806000606084860312156200006857600080fd5b835161ffff811681146200007b57600080fd5b60208501519093506001600160a01b03811681146200009957600080fd5b80925050604084015190509250925092565b60805160a05160c05161342d620000f76000396000818161051b0152818161071e01526120ee0152600081816104e70152818161060c01526115f101526000610480015261342d6000f3fe6080604052600436106101b75760003560e01c806386de1467116100ec578063ccdf7a021161008a578063d83d324111610064578063d83d324114610509578063da5e3bb81461054b578063ded2df711461056d578063f2fde38b1461058057600080fd5b8063ccdf7a021461046e578063d365a377146104b5578063d5025625146104d557600080fd5b8063a07aea1c116100c6578063a07aea1c146103dd578063a622ee7c146103fd578063b7d382431461042e578063cc73ee031461044e57600080fd5b806386de14671461035e5780638da5cb5b1461037e57806390229af7146103b057600080fd5b8063485cc95511610159578063715018a611610133578063715018a6146102f4578063730bdcb1146103095780637407e38c146103295780638456cb591461034957600080fd5b8063485cc955146102915780635c975abb146102b157806370dff1dd146102d457600080fd5b806327a099d81161019557806327a099d8146102115780633a91f42a1461023c5780633f4ba83a1461025c5780634802b9511461027157600080fd5b80630cff5594146101bc57806319e050d0146101d15780631a24bd51146101f1575b600080fd5b6101cf6101ca3660046128a2565b6105a0565b005b3480156101dd57600080fd5b506101cf6101ec3660046128a2565b6105f9565b3480156101fd57600080fd5b506101cf61020c36600461290b565b610785565b34801561021d57600080fd5b50610226610890565b6040516102339190612962565b60405180910390f35b34801561024857600080fd5b506101cf6102573660046129f1565b6108a1565b34801561026857600080fd5b506101cf6109d8565b34801561027d57600080fd5b506101cf61028c366004612a46565b6109ea565b34801561029d57600080fd5b506101cf6102ac366004612a88565b610b29565b3480156102bd57600080fd5b5060655460ff166040519015158152602001610233565b3480156102e057600080fd5b506101cf6102ef366004612b06565b610c92565b34801561030057600080fd5b506101cf610de8565b34801561031557600080fd5b506101cf6103243660046128a2565b610dfa565b34801561033557600080fd5b506101cf6103443660046129f1565b610ebc565b34801561035557600080fd5b506101cf610ff9565b34801561036a57600080fd5b506101cf610379366004612bbe565b611009565b34801561038a57600080fd5b506033546001600160a01b03165b6040516001600160a01b039091168152602001610233565b3480156103bc57600080fd5b506103d06103cb3660046128a2565b611141565b6040516102339190612c4d565b3480156103e957600080fd5b506101cf6103f8366004612c9d565b611290565b34801561040957600080fd5b5061041d6104183660046128a2565b6113aa565b604051610233959493929190612cd3565b34801561043a57600080fd5b506101cf610449366004612a88565b611461565b34801561045a57600080fd5b50609c54610398906001600160a01b031681565b34801561047a57600080fd5b506104a27f000000000000000000000000000000000000000000000000000000000000000081565b60405161ffff9091168152602001610233565b3480156104c157600080fd5b506101cf6104d0366004612c9d565b611567565b3480156104e157600080fd5b506103987f000000000000000000000000000000000000000000000000000000000000000081565b34801561051557600080fd5b5061053d7f000000000000000000000000000000000000000000000000000000000000000081565b604051908152602001610233565b34801561055757600080fd5b506105606115b3565b6040516102339190612d06565b6101cf61057b366004612d3e565b6115bf565b34801561058c57600080fd5b506101cf61059b3660046128a2565b6116ed565b6105a8611766565b6001600160a01b0381166000908152609b60205260408120600401548291036105ec5760405162461bcd60e51b81526004016105e390612dc1565b60405180910390fd5b6105f5826117ac565b5050565b610601611766565b336001600160a01b037f000000000000000000000000000000000000000000000000000000000000000016146106795760405162461bcd60e51b815260206004820152601b60248201527f50414c4d4d616e616765723a206f6e6c792050414c4d5465726d73000000000060448201526064016105e3565b806001600160a01b0381166106a05760405162461bcd60e51b81526004016105e390612df8565b6001600160a01b0382166000908152609b60205260408120600401548391036106db5760405162461bcd60e51b81526004016105e390612dc1565b6001600160a01b0383166000818152609b60205260409020600401547f27d4ba059c105c4c040f57e190ccdf5cda73ddfa873ed76edf044fbb8df524da906107437f000000000000000000000000000000000000000000000000000000000000000042612e45565b6001600160a01b0387166000908152609b60205260409081902060040182905551610778929190918252602082015260400190565b60405180910390a2505050565b61078d611766565b610795611829565b60005b8281101561088a5760008484838181106107b4576107b4612e5d565b90506020020160208101906107c991906128a2565b6040516370a0823160e01b81523060048201526001600160a01b0391909116906370a0823190602401602060405180830381865afa15801561080f573d6000803e3d6000fd5b505050506040513d601f19601f820116820180604052508101906108339190612e73565b9050801561087757610877838287878681811061085257610852612e5d565b905060200201602081019061086791906128a2565b6001600160a01b03169190611883565b508061088281612e8c565b915050610798565b50505050565b606061089c60996118d5565b905090565b6108a9611766565b826001600160a01b0381166108d05760405162461bcd60e51b81526004016105e390612df8565b83336001600160a01b0316816001600160a01b0316638da5cb5b6040518163ffffffff1660e01b8152600401602060405180830381865afa158015610919573d6000803e3d6000fd5b505050506040513d601f19601f8201168201806040525081019061093d9190612ea5565b6001600160a01b0316146109635760405162461bcd60e51b81526004016105e390612ec2565b6001600160a01b0385166000908152609b602052604081206004015486910361099e5760405162461bcd60e51b81526004016105e390612dc1565b6109d08686866040516020016109b5929190612ef9565b604051602081830303815290604052805190602001206118e9565b505050505050565b6109e0611829565b6109e8611a08565b565b6109f2611766565b6109fa611829565b60008282604051602001610a0f929190612ef9565b60408051601f1981840301815282825280516020918201206000845290830191829052915190209091508103610a875760405162461bcd60e51b815260206004820152601960248201527f50414c4d4d616e616765723a20656d70747920737472696e670000000000000060448201526064016105e3565b610a92609782611a5a565b15610adf5760405162461bcd60e51b815260206004820152601f60248201527f50414c4d4d616e616765723a2073747261742077686974656c69737465642e0060448201526064016105e3565b610aea609782611a77565b507fea5ee9e566e8b8ed51cd2316bf05281be3a4a65abbcb6313c3165a31253b744b8383604051610b1c929190612f32565b60405180910390a1505050565b600054610100900460ff1615808015610b495750600054600160ff909116105b80610b635750303b158015610b63575060005460ff166001145b610bc65760405162461bcd60e51b815260206004820152602e60248201527f496e697469616c697a61626c653a20636f6e747261637420697320616c72656160448201526d191e481a5b9a5d1a585b1a5e995960921b60648201526084016105e3565b6000805460ff191660011790558015610be9576000805461ff0019166101001790555b610bf283611a83565b610bfa611ad5565b609c80546001600160a01b0319166001600160a01b0384169081179091556040519081527f35da7b0f5d90431dba09a3c5b4e543a65e6c0cc9b5afc9fbafaa4fd285b602649060200160405180910390a18015610c8d576000805461ff0019169055604051600181527f7f26b83ff96e1f2b6a682f133852f6798a09c465da95921460cefb384740249890602001610b1c565b505050565b610c9a611766565b6001600160a01b0387166000908152609b6020526040812060040154889103610cd55760405162461bcd60e51b81526004016105e390612dc1565b610cde33611b04565b610d255760405162461bcd60e51b81526020600482015260186024820152772820a626a6b0b730b3b2b91d1037379037b832b930ba37b960411b60448201526064016105e3565b6000610d318984611b38565b6040516326d8168960e21b81529091506001600160a01b038a1690639b605a2490610d68908b908b908b908b908b906004016130a6565b600060405180830381600087803b158015610d8257600080fd5b505af1158015610d96573d6000803e3d6000fd5b50505050886001600160a01b03167fa44b3c204c0102fc9bea80c7d9b377b92e3d60599ce49e19119c40d9325c2aaa82604051610dd591815260200190565b60405180910390a2505050505050505050565b610df0611829565b6109e86000611a83565b610e02611766565b610e0a611829565b609c546001600160a01b03808316911603610e675760405162461bcd60e51b815260206004820152601f60248201527f50414c4d4d616e616765723a2067656c61746f466565436f6c6c6563746f720060448201526064016105e3565b609c80546001600160a01b0319166001600160a01b0383169081179091556040519081527f35da7b0f5d90431dba09a3c5b4e543a65e6c0cc9b5afc9fbafaa4fd285b60264906020015b60405180910390a150565b610ec4611766565b826001600160a01b038116610eeb5760405162461bcd60e51b81526004016105e390612df8565b83336001600160a01b0316816001600160a01b0316638da5cb5b6040518163ffffffff1660e01b8152600401602060405180830381865afa158015610f34573d6000803e3d6000fd5b505050506040513d601f19601f82011682018060405250810190610f589190612ea5565b6001600160a01b031614610f7e5760405162461bcd60e51b81526004016105e390612ec2565b6001600160a01b0385166000908152609b6020526040812060040154869103610fb95760405162461bcd60e51b81526004016105e390612dc1565b6109d08686868080601f016020809104026020016040519081016040528093929190818152602001838380828437600092019190915250611bf892505050565b611001611829565b6109e8611ce7565b611011611766565b826001600160a01b0381166110385760405162461bcd60e51b81526004016105e390612df8565b83336001600160a01b0316816001600160a01b0316638da5cb5b6040518163ffffffff1660e01b8152600401602060405180830381865afa158015611081573d6000803e3d6000fd5b505050506040513d601f19601f820116820180604052508101906110a59190612ea5565b6001600160a01b0316146110cb5760405162461bcd60e51b81526004016105e390612ec2565b6001600160a01b0385166000908152609b60205260408120600401548691036111065760405162461bcd60e51b81526004016105e390612dc1565b836001600160a01b03811661112d5760405162461bcd60e51b81526004016105e390612df8565b611138878787611d24565b50505050505050565b6111766040518060a0016040528060008152602001600081526020016060815260200160008019168152602001600081525090565b816001600160a01b03811661119d5760405162461bcd60e51b81526004016105e390612df8565b609b6000846001600160a01b03166001600160a01b031681526020019081526020016000206040518060a001604052908160008201548152602001600182015481526020016002820180546111f1906131ef565b80601f016020809104026020016040519081016040528092919081815260200182805461121d906131ef565b801561126a5780601f1061123f5761010080835404028352916020019161126a565b820191906000526020600020905b81548152906001019060200180831161124d57829003601f168201915b505050505081526020016003820154815260200160048201548152505091505b50919050565b611298611766565b6112a0611829565b60005b8181101561136c5760008383838181106112bf576112bf612e5d565b90506020020160208101906112d491906128a2565b6001600160a01b03161415801561131857506113188383838181106112fb576112fb612e5d565b905060200201602081019061131091906128a2565b609990611e3f565b61135c5760405162461bcd60e51b81526020600482015260156024820152742820a626a6b0b730b3b2b91d1037b832b930ba37b960591b60448201526064016105e3565b61136581612e8c565b90506112a3565b507f9194d2f68cef6a457d2d5946cbcd9992b460839b42100183d98128a83175ef7e828260405161139e929190613223565b60405180910390a15050565b609b60205260009081526040902080546001820154600283018054929391926113d2906131ef565b80601f01602080910402602001604051908101604052809291908181526020018280546113fe906131ef565b801561144b5780601f106114205761010080835404028352916020019161144b565b820191906000526020600020905b81548152906001019060200180831161142e57829003601f168201915b5050505050908060030154908060040154905085565b611469611766565b816001600160a01b0381166114905760405162461bcd60e51b81526004016105e390612df8565b82336001600160a01b0316816001600160a01b0316638da5cb5b6040518163ffffffff1660e01b8152600401602060405180830381865afa1580156114d9573d6000803e3d6000fd5b505050506040513d601f19601f820116820180604052508101906114fd9190612ea5565b6001600160a01b0316146115235760405162461bcd60e51b81526004016105e390612ec2565b6001600160a01b0384166000908152609b6020526040812060040154900361155d5760405162461bcd60e51b81526004016105e390612dc1565b61088a8484611e54565b61156f611766565b611577611829565b6105f5828280806020026020016040519081016040528093929190818152602001838360200280828437600092019190915250611eea92505050565b606061089c6097611faa565b6115c7611766565b846001600160a01b0381166115ee5760405162461bcd60e51b81526004016105e390612df8565b857f00000000000000000000000000000000000000000000000000000000000000006001600160a01b0316816001600160a01b0316638da5cb5b6040518163ffffffff1660e01b8152600401602060405180830381865afa158015611657573d6000803e3d6000fd5b505050506040513d601f19601f8201168201806040525081019061167b9190612ea5565b6001600160a01b0316146116d15760405162461bcd60e51b815260206004820152601f60248201527f50414c4d4d616e616765723a206f776e6572206e6f2050414c4d5465726d730060448201526064016105e3565b6116de8787878787611fb5565b341561113857611138876117ac565b6116f5611829565b6001600160a01b03811661175a5760405162461bcd60e51b815260206004820152602660248201527f4f776e61626c653a206e6577206f776e657220697320746865207a65726f206160448201526564647265737360d01b60648201526084016105e3565b61176381611a83565b50565b60655460ff16156109e85760405162461bcd60e51b815260206004820152601060248201526f14185d5cd8589b194e881c185d5cd95960821b60448201526064016105e3565b6001600160a01b0381166000908152609b6020526040812080543492906117d4908490612e45565b90915550506001600160a01b0381166000818152609b60209081526040918290205491519182527f2bae9ef5356c8b1ba3acb21df1a9201ff1ef943f4d8425697ce2d6381fcdac99910160405180910390a250565b6033546001600160a01b031633146109e85760405162461bcd60e51b815260206004820181905260248201527f4f776e61626c653a2063616c6c6572206973206e6f7420746865206f776e657260448201526064016105e3565b604080516001600160a01b038416602482015260448082018490528251808303909101815260649091019091526020810180516001600160e01b031663a9059cbb60e01b179052610c8d908490612179565b606060006118e28361224b565b9392505050565b6001600160a01b0382166000908152609b60205260409020600301548190036119495760405162461bcd60e51b81526020600482015260126024820152711410531353585b9859d95c8e881cdd1c985d60721b60448201526064016105e3565b611954609782611a5a565b6119ac5760405162461bcd60e51b815260206004820152602360248201527f50414c4d4d616e616765723a207374726174206e6f742077686974656c69737460448201526232b21760e91b60648201526084016105e3565b6001600160a01b0382166000818152609b602052604090819020600301839055517f243930e940e93a5b6e26b15204394bc1aa410465b647ea787ae57960c5cf79a8906119fc9084815260200190565b60405180910390a25050565b611a106122a7565b6065805460ff191690557f5db9ee0a495bf2e6ff9c91a7834c1ba4fdd244a5e8aa4e537bd38aeae4b073aa335b6040516001600160a01b03909116815260200160405180910390a1565b600081815260018301602052604081205415155b90505b92915050565b6000611a6e83836122f0565b603380546001600160a01b038381166001600160a01b0319831681179093556040519116919082907f8be0079c531659141344cd1fd0a4f28419497f9722a3daafe3b4186f6b6457e090600090a35050565b600054610100900460ff16611afc5760405162461bcd60e51b81526004016105e390613271565b6109e861233f565b6000816001600160a01b038116611b2d5760405162461bcd60e51b81526004016105e390612df8565b6118e2609984612372565b6001600160a01b0382166000908152609b602052604081205482811015611bb45760405162461bcd60e51b815260206004820152602a60248201527f50414c4d4d616e616765723a204e6f7420656e6f7567682062616c616e636520604482015269746f207061792066656560b01b60648201526084016105e3565b611bbe83826132bc565b6001600160a01b038086166000908152609b60205260409020426001820155829055609c54919350611bf1911684612394565b5092915050565b8080519060200120609b6000846001600160a01b03166001600160a01b03168152602001908152602001600020600201604051611c3591906132d3565b604051809103902003611c7e5760405162461bcd60e51b815260206004820152601160248201527050414c4d4d616e616765723a206461746160781b60448201526064016105e3565b6001600160a01b0382166000908152609b602090815260409091208251611cad92600290920191840190612736565b50816001600160a01b03167f428733985d5c007cd5d8813643ceb64f6a3f2606066e9a08d07af65254ea3952826040516119fc919061336e565b611cef611766565b6065805460ff191660011790557f62e78cea01bee320cd4e420270b5ea74000d11b0c9f74754ebdbfc544b05a258611a3d3390565b6001600160a01b0383166000908152609b6020526040902054821115611da25760405162461bcd60e51b815260206004820152602d60248201527f50414c4d4d616e616765723a20616d6f756e742065786365656473206176616960448201526c6c61626c652062616c616e636560981b60648201526084016105e3565b6001600160a01b0383166000908152609b602052604081208054849290611dca9084906132bc565b90915550611de390506001600160a01b03821683612394565b6001600160a01b038381166000818152609b60209081526040918290205482518781529486169185019190915290830152907f7408fb14206b893353f1ad47950175963a6dfacb1021ac84e613aa220fd4e1ad90606001610778565b6000611a6e836001600160a01b0384166122f0565b6001600160a01b0382166000908152609b6020526040812080548282556001820183905591611e8660028301826127ba565b506000600382018190556004909101558015611eaf57611eaf6001600160a01b03831682612394565b826001600160a01b03167f3c5c011a5287a3bb157571fbfec1ee8b0ced5809ff6a685b64e5858ea037c1498260405161077891815260200190565b60005b8151811015611f7a57611f23828281518110611f0b57611f0b612e5d565b602002602001015160996124ad90919063ffffffff16565b611f6a5760405162461bcd60e51b81526020600482015260186024820152772820a626a6b0b730b3b2b91d1037379037b832b930ba37b960411b60448201526064016105e3565b611f7381612e8c565b9050611eed565b507f626c7b0cc629b069bd6acf919cc498afe43e1e4da7fc425182040d1a093e968781604051610eb19190612962565b6060611a718261224b565b60008282604051602001611fca929190612ef9565b60408051601f1981840301815291905280516020909101209050611fef609782611a5a565b61203b5760405162461bcd60e51b815260206004820152601c60248201527f50414c4d4d616e616765723a204e6f742077686974656c69737465640000000060448201526064016105e3565b6001600160a01b0386166000908152609b6020526040902060040154156120a45760405162461bcd60e51b815260206004820181905260248201527f50414c4d4d616e616765723a205661756c7420616c726561647920616464656460448201526064016105e3565b6001600160a01b0386166000908152609b602052604090206120ca9060020186866127f4565b506001600160a01b0386166000908152609b602052604090206003018190556121137f000000000000000000000000000000000000000000000000000000000000000042612e45565b6001600160a01b0387166000818152609b6020526040908190206004019290925590517fe2ac259cf4e54760e2d0661b0606ddf3f470df2dc47f57e5cc9c4f533a87082690612169908890889088908890613381565b60405180910390a2505050505050565b60006121ce826040518060400160405280602081526020017f5361666545524332303a206c6f772d6c6576656c2063616c6c206661696c6564815250856001600160a01b03166124c29092919063ffffffff16565b805190915015610c8d57808060200190518101906121ec91906133a8565b610c8d5760405162461bcd60e51b815260206004820152602a60248201527f5361666545524332303a204552433230206f7065726174696f6e20646964206e6044820152691bdd081cdd58d8d9595960b21b60648201526084016105e3565b60608160000180548060200260200160405190810160405280929190818152602001828054801561229b57602002820191906000526020600020905b815481526020019060010190808311612287575b50505050509050919050565b60655460ff166109e85760405162461bcd60e51b815260206004820152601460248201527314185d5cd8589b194e881b9bdd081c185d5cd95960621b60448201526064016105e3565b600081815260018301602052604081205461233757508154600181810184556000848152602080822090930184905584548482528286019093526040902091909155611a71565b506000611a71565b600054610100900460ff166123665760405162461bcd60e51b81526004016105e390613271565b6065805460ff19169055565b6001600160a01b03811660009081526001830160205260408120541515611a6e565b804710156123e45760405162461bcd60e51b815260206004820152601d60248201527f416464726573733a20696e73756666696369656e742062616c616e636500000060448201526064016105e3565b6000826001600160a01b03168260405160006040518083038185875af1925050503d8060008114612431576040519150601f19603f3d011682016040523d82523d6000602084013e612436565b606091505b5050905080610c8d5760405162461bcd60e51b815260206004820152603a60248201527f416464726573733a20756e61626c6520746f2073656e642076616c75652c207260448201527f6563697069656e74206d6179206861766520726576657274656400000000000060648201526084016105e3565b6000611a6e836001600160a01b0384166124d9565b60606124d184846000856125cc565b949350505050565b600081815260018301602052604081205480156125c25760006124fd6001836132bc565b8554909150600090612511906001906132bc565b905081811461257657600086600001828154811061253157612531612e5d565b906000526020600020015490508087600001848154811061255457612554612e5d565b6000918252602080832090910192909255918252600188019052604090208390555b8554869080612587576125876133c5565b600190038181906000526020600020016000905590558560010160008681526020019081526020016000206000905560019350505050611a71565b6000915050611a71565b60608247101561262d5760405162461bcd60e51b815260206004820152602660248201527f416464726573733a20696e73756666696369656e742062616c616e636520666f6044820152651c8818d85b1b60d21b60648201526084016105e3565b6001600160a01b0385163b6126845760405162461bcd60e51b815260206004820152601d60248201527f416464726573733a2063616c6c20746f206e6f6e2d636f6e747261637400000060448201526064016105e3565b600080866001600160a01b031685876040516126a091906133db565b60006040518083038185875af1925050503d80600081146126dd576040519150601f19603f3d011682016040523d82523d6000602084013e6126e2565b606091505b50915091506126f28282866126fd565b979650505050505050565b6060831561270c5750816118e2565b82511561271c5782518084602001fd5b8160405162461bcd60e51b81526004016105e3919061336e565b828054612742906131ef565b90600052602060002090601f01602090048101928261276457600085556127aa565b82601f1061277d57805160ff19168380011785556127aa565b828001600101855582156127aa579182015b828111156127aa57825182559160200191906001019061278f565b506127b6929150612868565b5090565b5080546127c6906131ef565b6000825580601f106127d6575050565b601f0160209004906000526020600020908101906117639190612868565b828054612800906131ef565b90600052602060002090601f01602090048101928261282257600085556127aa565b82601f1061283b5782800160ff198235161785556127aa565b828001600101855582156127aa579182015b828111156127aa57823582559160200191906001019061284d565b5b808211156127b65760008155600101612869565b6001600160a01b038116811461176357600080fd5b803561289d8161287d565b919050565b6000602082840312156128b457600080fd5b81356118e28161287d565b60008083601f8401126128d157600080fd5b50813567ffffffffffffffff8111156128e957600080fd5b6020830191508360208260051b850101111561290457600080fd5b9250929050565b60008060006040848603121561292057600080fd5b833567ffffffffffffffff81111561293757600080fd5b612943868287016128bf565b90945092505060208401356129578161287d565b809150509250925092565b6020808252825182820181905260009190848201906040850190845b818110156129a35783516001600160a01b03168352928401929184019160010161297e565b50909695505050505050565b60008083601f8401126129c157600080fd5b50813567ffffffffffffffff8111156129d957600080fd5b60208301915083602082850101111561290457600080fd5b600080600060408486031215612a0657600080fd5b8335612a118161287d565b9250602084013567ffffffffffffffff811115612a2d57600080fd5b612a39868287016129af565b9497909650939450505050565b60008060208385031215612a5957600080fd5b823567ffffffffffffffff811115612a7057600080fd5b612a7c858286016129af565b90969095509350505050565b60008060408385031215612a9b57600080fd5b8235612aa68161287d565b91506020830135612ab68161287d565b809150509250929050565b60008083601f840112612ad357600080fd5b50813567ffffffffffffffff811115612aeb57600080fd5b60208301915083602060608302850101111561290457600080fd5b600080600080600080600060a0888a031215612b2157600080fd5b8735612b2c8161287d565b9650602088013567ffffffffffffffff80821115612b4957600080fd5b612b558b838c01612ac1565b909850965060408a0135915080821115612b6e57600080fd5b9089019060a0828c031215612b8257600080fd5b90945060608901359080821115612b9857600080fd5b50612ba58a828b01612ac1565b989b979a50959894979596608090950135949350505050565b600080600060608486031215612bd357600080fd5b8335612bde8161287d565b92506020840135915060408401356129578161287d565b60005b83811015612c10578181015183820152602001612bf8565b8381111561088a5750506000910152565b60008151808452612c39816020860160208601612bf5565b601f01601f19169290920160200192915050565b6020815281516020820152602082015160408201526000604083015160a06060840152612c7d60c0840182612c21565b905060608401516080840152608084015160a08401528091505092915050565b60008060208385031215612cb057600080fd5b823567ffffffffffffffff811115612cc757600080fd5b612a7c858286016128bf565b85815284602082015260a060408201526000612cf260a0830186612c21565b606083019490945250608001529392505050565b6020808252825182820181905260009190848201906040850190845b818110156129a357835183529284019291840191600101612d22565b600080600080600060608688031215612d5657600080fd5b8535612d618161287d565b9450602086013567ffffffffffffffff80821115612d7e57600080fd5b612d8a89838a016129af565b90965094506040880135915080821115612da357600080fd5b50612db0888289016129af565b969995985093965092949392505050565b6020808252601e908201527f50414c4d4d616e616765723a205661756c74206e6f74206d616e616765640000604082015260600190565b60208082526019908201527f50414c4d4d616e616765723a2061646472657373205a65726f00000000000000604082015260600190565b634e487b7160e01b600052601160045260246000fd5b60008219821115612e5857612e58612e2f565b500190565b634e487b7160e01b600052603260045260246000fd5b600060208284031215612e8557600080fd5b5051919050565b600060018201612e9e57612e9e612e2f565b5060010190565b600060208284031215612eb757600080fd5b81516118e28161287d565b6020808252601d908201527f50414c4d4d616e616765723a206f6e6c79207661756c74206f776e6572000000604082015260600190565b8183823760009101908152919050565b81835281816020850137506000828201602090810191909152601f909101601f19169091010190565b6020815260006124d1602083018486612f09565b8035600281900b811461289d57600080fd5b612f6181612f46565b60020b8252612f7260208201612f46565b60020b6020830152604081013562ffffff8116808214612f9157600080fd5b80604085015250505050565b81835260208301925060008160005b84811015612fd157612fbe8683612f58565b6060958601959190910190600101612fac565b5093949350505050565b6000808335601e19843603018112612ff257600080fd5b830160208101925035905067ffffffffffffffff81111561301257600080fd5b8060071b360383131561290457600080fd5b818352600060208085019450826000805b868110156130815782356fffffffffffffffffffffffffffffffff811680821461305d578384fd5b89525061306e848901848601612f58565b6080978801979290920191600101613035565b50959695505050505050565b801515811461176357600080fd5b803561289d8161308d565b600060608083526130ba818401888a612f9d565b6020848203818601526130cd8889612fdb565b60a084526130df60a085018284613024565b9150506130ee828a018a612fdb565b84830384860152613100838284613024565b925050506040890135609e198a360301811261311b57600080fd5b83820360408501528901803536829003601e1901811261313a57600080fd5b8101803567ffffffffffffffff81111561315357600080fd5b80360383131561316257600080fd5b60a0845261317660a0850182878501612f09565b915050613184848301612892565b6001600160a01b0316848401526040828101359084015285820135868401526131af6080830161309b565b80151560808501529350858b01358686015260808b0135608086015287810360408901526131de818a8c612f9d565b9d9c50505050505050505050505050565b600181811c9082168061320357607f821691505b60208210810361128a57634e487b7160e01b600052602260045260246000fd5b60208082528181018390526000908460408401835b8681101561326657823561324b8161287d565b6001600160a01b031682529183019190830190600101613238565b509695505050505050565b6020808252602b908201527f496e697469616c697a61626c653a20636f6e7472616374206973206e6f74206960408201526a6e697469616c697a696e6760a81b606082015260800190565b6000828210156132ce576132ce612e2f565b500390565b600080835481600182811c9150808316806132ef57607f831692505b6020808410820361330e57634e487b7160e01b86526022600452602486fd5b818015613322576001811461333357613360565b60ff19861689528489019650613360565b60008a81526020902060005b868110156133585781548b82015290850190830161333f565b505084890196505b509498975050505050505050565b602081526000611a6e6020830184612c21565b604081526000613395604083018688612f09565b82810360208401526126f2818587612f09565b6000602082840312156133ba57600080fd5b81516118e28161308d565b634e487b7160e01b600052603160045260246000fd5b600082516133ed818460208701612bf5565b919091019291505056fea264697066735822122031511ea1a19298e08aedfbf9fbb7ed8cd13f3802d2847371d5a25399e4ad546064736f6c634300080d0033",
  "devdoc": {
    "kind": "dev",
    "methods": {
      "owner()": {
        "details": "Returns the address of the current owner."
      },
      "paused()": {
        "details": "Returns true if the contract is paused, and false otherwise."
      },
      "renounceOwnership()": {
        "details": "Leaves the contract without owner. It will not be possible to call `onlyOwner` functions anymore. Can only be called by the current owner. NOTE: Renouncing ownership will leave the contract without an owner, thereby removing any functionality that is only available to the owner."
      },
      "transferOwnership(address)": {
        "details": "Transfers ownership of the contract to a new account (`newOwner`). Can only be called by the current owner."
      }
    },
    "version": 1
  },
  "userdoc": {
    "kind": "user",
    "methods": {},
    "version": 1
  },
  "storageLayout": {
    "storage": [
      {
        "astId": 467,
        "contract": "contracts/PALMManager.sol:PALMManager",
        "label": "_initialized",
        "offset": 0,
        "slot": "0",
        "type": "t_uint8"
      },
      {
        "astId": 470,
        "contract": "contracts/PALMManager.sol:PALMManager",
        "label": "_initializing",
        "offset": 1,
        "slot": "0",
        "type": "t_bool"
      },
      {
        "astId": 1081,
        "contract": "contracts/PALMManager.sol:PALMManager",
        "label": "__gap",
        "offset": 0,
        "slot": "1",
        "type": "t_array(t_uint256)50_storage"
      },
      {
        "astId": 339,
        "contract": "contracts/PALMManager.sol:PALMManager",
        "label": "_owner",
        "offset": 0,
        "slot": "51",
        "type": "t_address"
      },
      {
        "astId": 459,
        "contract": "contracts/PALMManager.sol:PALMManager",
        "label": "__gap",
        "offset": 0,
        "slot": "52",
        "type": "t_array(t_uint256)49_storage"
      },
      {
        "astId": 632,
        "contract": "contracts/PALMManager.sol:PALMManager",
        "label": "_paused",
        "offset": 0,
        "slot": "101",
        "type": "t_bool"
      },
      {
        "astId": 737,
        "contract": "contracts/PALMManager.sol:PALMManager",
        "label": "__gap",
        "offset": 0,
        "slot": "102",
        "type": "t_array(t_uint256)49_storage"
      },
      {
        "astId": 5600,
        "contract": "contracts/PALMManager.sol:PALMManager",
        "label": "_whitelistedStrat",
        "offset": 0,
        "slot": "151",
        "type": "t_struct(Bytes32Set)3494_storage"
      },
      {
        "astId": 5603,
        "contract": "contracts/PALMManager.sol:PALMManager",
        "label": "_operators",
        "offset": 0,
        "slot": "153",
        "type": "t_struct(AddressSet)3601_storage"
      },
      {
        "astId": 5608,
        "contract": "contracts/PALMManager.sol:PALMManager",
        "label": "vaults",
        "offset": 0,
        "slot": "155",
        "type": "t_mapping(t_address,t_struct(VaultInfo)8274_storage)"
      },
      {
        "astId": 5610,
        "contract": "contracts/PALMManager.sol:PALMManager",
        "label": "gelatoFeeCollector",
        "offset": 0,
        "slot": "156",
        "type": "t_address_payable"
      }
    ],
    "types": {
      "t_address": {
        "encoding": "inplace",
        "label": "address",
        "numberOfBytes": "20"
      },
      "t_address_payable": {
        "encoding": "inplace",
        "label": "address payable",
        "numberOfBytes": "20"
      },
      "t_array(t_bytes32)dyn_storage": {
        "base": "t_bytes32",
        "encoding": "dynamic_array",
        "label": "bytes32[]",
        "numberOfBytes": "32"
      },
      "t_array(t_uint256)49_storage": {
        "base": "t_uint256",
        "encoding": "inplace",
        "label": "uint256[49]",
        "numberOfBytes": "1568"
      },
      "t_array(t_uint256)50_storage": {
        "base": "t_uint256",
        "encoding": "inplace",
        "label": "uint256[50]",
        "numberOfBytes": "1600"
      },
      "t_bool": {
        "encoding": "inplace",
        "label": "bool",
        "numberOfBytes": "1"
      },
      "t_bytes32": {
        "encoding": "inplace",
        "label": "bytes32",
        "numberOfBytes": "32"
      },
      "t_bytes_storage": {
        "encoding": "bytes",
        "label": "bytes",
        "numberOfBytes": "32"
      },
      "t_mapping(t_address,t_struct(VaultInfo)8274_storage)": {
        "encoding": "mapping",
        "key": "t_address",
        "label": "mapping(address => struct VaultInfo)",
        "numberOfBytes": "32",
        "value": "t_struct(VaultInfo)8274_storage"
      },
      "t_mapping(t_bytes32,t_uint256)": {
        "encoding": "mapping",
        "key": "t_bytes32",
        "label": "mapping(bytes32 => uint256)",
        "numberOfBytes": "32",
        "value": "t_uint256"
      },
      "t_struct(AddressSet)3601_storage": {
        "encoding": "inplace",
        "label": "struct EnumerableSet.AddressSet",
        "members": [
          {
            "astId": 3600,
            "contract": "contracts/PALMManager.sol:PALMManager",
            "label": "_inner",
            "offset": 0,
            "slot": "0",
            "type": "t_struct(Set)3300_storage"
          }
        ],
        "numberOfBytes": "64"
      },
      "t_struct(Bytes32Set)3494_storage": {
        "encoding": "inplace",
        "label": "struct EnumerableSet.Bytes32Set",
        "members": [
          {
            "astId": 3493,
            "contract": "contracts/PALMManager.sol:PALMManager",
            "label": "_inner",
            "offset": 0,
            "slot": "0",
            "type": "t_struct(Set)3300_storage"
          }
        ],
        "numberOfBytes": "64"
      },
      "t_struct(Set)3300_storage": {
        "encoding": "inplace",
        "label": "struct EnumerableSet.Set",
        "members": [
          {
            "astId": 3295,
            "contract": "contracts/PALMManager.sol:PALMManager",
            "label": "_values",
            "offset": 0,
            "slot": "0",
            "type": "t_array(t_bytes32)dyn_storage"
          },
          {
            "astId": 3299,
            "contract": "contracts/PALMManager.sol:PALMManager",
            "label": "_indexes",
            "offset": 0,
            "slot": "1",
            "type": "t_mapping(t_bytes32,t_uint256)"
          }
        ],
        "numberOfBytes": "64"
      },
      "t_struct(VaultInfo)8274_storage": {
        "encoding": "inplace",
        "label": "struct VaultInfo",
        "members": [
          {
            "astId": 8265,
            "contract": "contracts/PALMManager.sol:PALMManager",
            "label": "balance",
            "offset": 0,
            "slot": "0",
            "type": "t_uint256"
          },
          {
            "astId": 8267,
            "contract": "contracts/PALMManager.sol:PALMManager",
            "label": "lastRebalance",
            "offset": 0,
            "slot": "1",
            "type": "t_uint256"
          },
          {
            "astId": 8269,
            "contract": "contracts/PALMManager.sol:PALMManager",
            "label": "datas",
            "offset": 0,
            "slot": "2",
            "type": "t_bytes_storage"
          },
          {
            "astId": 8271,
            "contract": "contracts/PALMManager.sol:PALMManager",
            "label": "strat",
            "offset": 0,
            "slot": "3",
            "type": "t_bytes32"
          },
          {
            "astId": 8273,
            "contract": "contracts/PALMManager.sol:PALMManager",
            "label": "termEnd",
            "offset": 0,
            "slot": "4",
            "type": "t_uint256"
          }
        ],
        "numberOfBytes": "160"
      },
      "t_uint256": {
        "encoding": "inplace",
        "label": "uint256",
        "numberOfBytes": "32"
      },
      "t_uint8": {
        "encoding": "inplace",
        "label": "uint8",
        "numberOfBytes": "1"
      }
    }
  }
}