{
  "address": "0xECF6a02A8BFC046ff75e893d8a5Ae993B069C38F",
  "abi": [
    {
      "inputs": [
        {
          "internalType": "address",
          "name": "terms_",
          "type": "address"
        },
        {
          "internalType": "uint256",
          "name": "termDuration_",
          "type": "uint256"
        },
        {
          "internalType": "uint16",
          "name": "managerFeeBPS_",
          "type": "uint16"
        }
      ],
      "stateMutability": "nonpayable",
      "type": "constructor"
    },
    {
      "anonymous": false,
      "inputs": [
        {
          "indexed": false,
          "internalType": "address[]",
          "name": "operators",
          "type": "address[]"
        }
      ],
      "name": "AddOperators",
      "type": "event"
    },
    {
      "anonymous": false,
      "inputs": [
        {
          "indexed": true,
          "internalType": "address",
          "name": "vault",
          "type": "address"
        },
        {
          "indexed": false,
          "internalType": "bytes",
          "name": "datas",
          "type": "bytes"
        },
        {
          "indexed": false,
          "internalType": "string",
          "name": "strat",
          "type": "string"
        }
      ],
      "name": "AddVault",
      "type": "event"
    },
    {
      "anonymous": false,
      "inputs": [
        {
          "indexed": false,
          "internalType": "uint8",
          "name": "version",
          "type": "uint8"
        }
      ],
      "name": "Initialized",
      "type": "event"
    },
    {
      "anonymous": false,
      "inputs": [
        {
          "indexed": true,
          "internalType": "address",
          "name": "previousOwner",
          "type": "address"
        },
        {
          "indexed": true,
          "internalType": "address",
          "name": "newOwner",
          "type": "address"
        }
      ],
      "name": "OwnershipTransferred",
      "type": "event"
    },
    {
      "anonymous": false,
      "inputs": [
        {
          "indexed": false,
          "internalType": "address",
          "name": "account",
          "type": "address"
        }
      ],
      "name": "Paused",
      "type": "event"
    },
    {
      "anonymous": false,
      "inputs": [
        {
          "indexed": true,
          "internalType": "address",
          "name": "vault",
          "type": "address"
        },
        {
          "indexed": false,
          "internalType": "uint256",
          "name": "newBalance",
          "type": "uint256"
        }
      ],
      "name": "RebalanceVault",
      "type": "event"
    },
    {
      "anonymous": false,
      "inputs": [
        {
          "indexed": false,
          "internalType": "address[]",
          "name": "operators",
          "type": "address[]"
        }
      ],
      "name": "RemoveOperators",
      "type": "event"
    },
    {
      "anonymous": false,
      "inputs": [
        {
          "indexed": true,
          "internalType": "address",
          "name": "vault",
          "type": "address"
        },
        {
          "indexed": false,
          "internalType": "uint256",
          "name": "sendBack",
          "type": "uint256"
        }
      ],
      "name": "RemoveVault",
      "type": "event"
    },
    {
      "anonymous": false,
      "inputs": [
        {
          "indexed": false,
          "internalType": "address",
          "name": "gelatoFeeCollector",
          "type": "address"
        }
      ],
      "name": "SetGelatoFeeCollector",
      "type": "event"
    },
    {
      "anonymous": false,
      "inputs": [
        {
          "indexed": true,
          "internalType": "address",
          "name": "vault",
          "type": "address"
        },
        {
          "indexed": false,
          "internalType": "uint16",
          "name": "managerFeeBPS",
          "type": "uint16"
        }
      ],
      "name": "SetManagerFeeBPS",
      "type": "event"
    },
    {
      "anonymous": false,
      "inputs": [
        {
          "indexed": true,
          "internalType": "address",
          "name": "vault",
          "type": "address"
        },
        {
          "indexed": false,
          "internalType": "uint256",
          "name": "oldtermEnd",
          "type": "uint256"
        },
        {
          "indexed": false,
          "internalType": "uint256",
          "name": "newtermEnd",
          "type": "uint256"
        }
      ],
      "name": "SetTermEnd",
      "type": "event"
    },
    {
      "anonymous": false,
      "inputs": [
        {
          "indexed": true,
          "internalType": "address",
          "name": "vault",
          "type": "address"
        },
        {
          "indexed": false,
          "internalType": "bytes",
          "name": "data",
          "type": "bytes"
        }
      ],
      "name": "SetVaultData",
      "type": "event"
    },
    {
      "anonymous": false,
      "inputs": [
        {
          "indexed": true,
          "internalType": "address",
          "name": "vault",
          "type": "address"
        },
        {
          "indexed": false,
          "internalType": "bytes32",
          "name": "strat",
          "type": "bytes32"
        }
      ],
      "name": "SetVaultStrat",
      "type": "event"
    },
    {
      "anonymous": false,
      "inputs": [
        {
          "indexed": false,
          "internalType": "address",
          "name": "account",
          "type": "address"
        }
      ],
      "name": "Unpaused",
      "type": "event"
    },
    {
      "anonymous": false,
      "inputs": [
        {
          "indexed": true,
          "internalType": "address",
          "name": "vault",
          "type": "address"
        },
        {
          "indexed": false,
          "internalType": "uint256",
          "name": "newBalance",
          "type": "uint256"
        }
      ],
      "name": "UpdateVaultBalance",
      "type": "event"
    },
    {
      "anonymous": false,
      "inputs": [
        {
          "indexed": false,
          "internalType": "string",
          "name": "strat",
          "type": "string"
        }
      ],
      "name": "WhitelistStrat",
      "type": "event"
    },
    {
      "anonymous": false,
      "inputs": [
        {
          "indexed": true,
          "internalType": "address",
          "name": "vault",
          "type": "address"
        },
        {
          "indexed": false,
          "internalType": "uint256",
          "name": "amount",
          "type": "uint256"
        },
        {
          "indexed": false,
          "internalType": "address",
          "name": "to",
          "type": "address"
        },
        {
          "indexed": false,
          "internalType": "uint256",
          "name": "newBalance",
          "type": "uint256"
        }
      ],
      "name": "WithdrawVaultBalance",
      "type": "event"
    },
    {
      "inputs": [
        {
          "internalType": "address[]",
          "name": "operators_",
          "type": "address[]"
        }
      ],
      "name": "addOperators",
      "outputs": [],
      "stateMutability": "nonpayable",
      "type": "function"
    },
    {
      "inputs": [
        {
          "internalType": "address",
          "name": "vault_",
          "type": "address"
        },
        {
          "internalType": "bytes",
          "name": "datas_",
          "type": "bytes"
        },
        {
          "internalType": "string",
          "name": "strat_",
          "type": "string"
        }
      ],
      "name": "addVault",
      "outputs": [],
      "stateMutability": "payable",
      "type": "function"
    },
    {
      "inputs": [
        {
          "internalType": "address",
          "name": "vault_",
          "type": "address"
        }
      ],
      "name": "fundVaultBalance",
      "outputs": [],
      "stateMutability": "payable",
      "type": "function"
    },
    {
      "inputs": [],
      "name": "gelatoFeeCollector",
      "outputs": [
        {
          "internalType": "address payable",
          "name": "",
          "type": "address"
        }
      ],
      "stateMutability": "view",
      "type": "function"
    },
    {
      "inputs": [],
      "name": "getOperators",
      "outputs": [
        {
          "internalType": "address[]",
          "name": "",
          "type": "address[]"
        }
      ],
      "stateMutability": "view",
      "type": "function"
    },
    {
      "inputs": [
        {
          "internalType": "address",
          "name": "vault_",
          "type": "address"
        }
      ],
      "name": "getVaultInfo",
      "outputs": [
        {
          "components": [
            {
              "internalType": "uint256",
              "name": "balance",
              "type": "uint256"
            },
            {
              "internalType": "uint256",
              "name": "lastRebalance",
              "type": "uint256"
            },
            {
              "internalType": "bytes",
              "name": "datas",
              "type": "bytes"
            },
            {
              "internalType": "bytes32",
              "name": "strat",
              "type": "bytes32"
            },
            {
              "internalType": "uint256",
              "name": "termEnd",
              "type": "uint256"
            }
          ],
          "internalType": "struct VaultInfo",
          "name": "",
          "type": "tuple"
        }
      ],
      "stateMutability": "view",
      "type": "function"
    },
    {
      "inputs": [],
      "name": "getWhitelistedStrat",
      "outputs": [
        {
          "internalType": "bytes32[]",
          "name": "",
          "type": "bytes32[]"
        }
      ],
      "stateMutability": "view",
      "type": "function"
    },
    {
      "inputs": [
        {
          "internalType": "address",
          "name": "owner_",
          "type": "address"
        },
        {
          "internalType": "address",
          "name": "gelatoFeeCollector_",
          "type": "address"
        }
      ],
      "name": "initialize",
      "outputs": [],
      "stateMutability": "nonpayable",
      "type": "function"
    },
    {
      "inputs": [],
      "name": "managerFeeBPS",
      "outputs": [
        {
          "internalType": "uint16",
          "name": "",
          "type": "uint16"
        }
      ],
      "stateMutability": "view",
      "type": "function"
    },
    {
      "inputs": [],
      "name": "owner",
      "outputs": [
        {
          "internalType": "address",
          "name": "",
          "type": "address"
        }
      ],
      "stateMutability": "view",
      "type": "function"
    },
    {
      "inputs": [],
      "name": "pause",
      "outputs": [],
      "stateMutability": "nonpayable",
      "type": "function"
    },
    {
      "inputs": [],
      "name": "paused",
      "outputs": [
        {
          "internalType": "bool",
          "name": "",
          "type": "bool"
        }
      ],
      "stateMutability": "view",
      "type": "function"
    },
    {
      "inputs": [
        {
          "internalType": "address",
          "name": "vault_",
          "type": "address"
        },
        {
          "components": [
            {
              "components": [
                {
                  "internalType": "uint128",
                  "name": "liquidity",
                  "type": "uint128"
                },
                {
                  "components": [
                    {
                      "internalType": "int24",
                      "name": "lowerTick",
                      "type": "int24"
                    },
                    {
                      "internalType": "int24",
                      "name": "upperTick",
                      "type": "int24"
                    },
                    {
                      "internalType": "uint24",
                      "name": "feeTier",
                      "type": "uint24"
                    }
                  ],
                  "internalType": "struct Range",
                  "name": "range",
                  "type": "tuple"
                }
              ],
              "internalType": "struct PositionLiquidity[]",
              "name": "burns",
              "type": "tuple[]"
            },
            {
              "components": [
                {
                  "internalType": "uint128",
                  "name": "liquidity",
                  "type": "uint128"
                },
                {
                  "components": [
                    {
                      "internalType": "int24",
                      "name": "lowerTick",
                      "type": "int24"
                    },
                    {
                      "internalType": "int24",
                      "name": "upperTick",
                      "type": "int24"
                    },
                    {
                      "internalType": "uint24",
                      "name": "feeTier",
                      "type": "uint24"
                    }
                  ],
                  "internalType": "struct Range",
                  "name": "range",
                  "type": "tuple"
                }
              ],
              "internalType": "struct PositionLiquidity[]",
              "name": "mints",
              "type": "tuple[]"
            },
            {
              "components": [
                {
                  "internalType": "bytes",
                  "name": "payload",
                  "type": "bytes"
                },
                {
                  "internalType": "address",
                  "name": "router",
                  "type": "address"
                },
                {
                  "internalType": "uint256",
                  "name": "amountIn",
                  "type": "uint256"
                },
                {
                  "internalType": "uint256",
                  "name": "expectedMinReturn",
                  "type": "uint256"
                },
                {
                  "internalType": "bool",
                  "name": "zeroForOne",
                  "type": "bool"
                }
              ],
              "internalType": "struct SwapPayload",
              "name": "swap",
              "type": "tuple"
            },
            {
              "internalType": "uint256",
              "name": "minBurn0",
              "type": "uint256"
            },
            {
              "internalType": "uint256",
              "name": "minBurn1",
              "type": "uint256"
            },
            {
              "internalType": "uint256",
              "name": "minDeposit0",
              "type": "uint256"
            },
            {
              "internalType": "uint256",
              "name": "minDeposit1",
              "type": "uint256"
            }
          ],
          "internalType": "struct Rebalance",
          "name": "rebalanceParams_",
          "type": "tuple"
        },
        {
          "internalType": "uint256",
          "name": "feeAmount_",
          "type": "uint256"
        }
      ],
      "name": "rebalance",
      "outputs": [],
      "stateMutability": "nonpayable",
      "type": "function"
    },
    {
      "inputs": [
        {
          "internalType": "address[]",
          "name": "operators_",
          "type": "address[]"
        }
      ],
      "name": "removeOperators",
      "outputs": [],
      "stateMutability": "nonpayable",
      "type": "function"
    },
    {
      "inputs": [
        {
          "internalType": "address",
          "name": "vault_",
          "type": "address"
        },
        {
          "internalType": "address payable",
          "name": "to_",
          "type": "address"
        }
      ],
      "name": "removeVault",
      "outputs": [],
      "stateMutability": "nonpayable",
      "type": "function"
    },
    {
      "inputs": [
        {
          "internalType": "address",
          "name": "vault_",
          "type": "address"
        }
      ],
      "name": "renewTerm",
      "outputs": [],
      "stateMutability": "nonpayable",
      "type": "function"
    },
    {
      "inputs": [],
      "name": "renounceOwnership",
      "outputs": [],
      "stateMutability": "nonpayable",
      "type": "function"
    },
    {
      "inputs": [
        {
          "internalType": "address payable",
          "name": "gelatoFeeCollector_",
          "type": "address"
        }
      ],
      "name": "setGelatoFeeCollector",
      "outputs": [],
      "stateMutability": "nonpayable",
      "type": "function"
    },
    {
      "inputs": [
        {
          "internalType": "address",
          "name": "vault_",
          "type": "address"
        }
      ],
      "name": "setManagerFeeBPS",
      "outputs": [],
      "stateMutability": "nonpayable",
      "type": "function"
    },
    {
      "inputs": [
        {
          "internalType": "address",
          "name": "vault_",
          "type": "address"
        },
        {
          "internalType": "bytes",
          "name": "data_",
          "type": "bytes"
        }
      ],
      "name": "setVaultData",
      "outputs": [],
      "stateMutability": "nonpayable",
      "type": "function"
    },
    {
      "inputs": [
        {
          "internalType": "address",
          "name": "vault_",
          "type": "address"
        },
        {
          "internalType": "string",
          "name": "strat_",
          "type": "string"
        }
      ],
      "name": "setVaultStratByName",
      "outputs": [],
      "stateMutability": "nonpayable",
      "type": "function"
    },
    {
      "inputs": [],
      "name": "termDuration",
      "outputs": [
        {
          "internalType": "uint256",
          "name": "",
          "type": "uint256"
        }
      ],
      "stateMutability": "view",
      "type": "function"
    },
    {
      "inputs": [],
      "name": "terms",
      "outputs": [
        {
          "internalType": "address",
          "name": "",
          "type": "address"
        }
      ],
      "stateMutability": "view",
      "type": "function"
    },
    {
      "inputs": [
        {
          "internalType": "address",
          "name": "newOwner",
          "type": "address"
        }
      ],
      "name": "transferOwnership",
      "outputs": [],
      "stateMutability": "nonpayable",
      "type": "function"
    },
    {
      "inputs": [],
      "name": "unpause",
      "outputs": [],
      "stateMutability": "nonpayable",
      "type": "function"
    },
    {
      "inputs": [
        {
          "internalType": "address",
          "name": "",
          "type": "address"
        }
      ],
      "name": "vaults",
      "outputs": [
        {
          "internalType": "uint256",
          "name": "balance",
          "type": "uint256"
        },
        {
          "internalType": "uint256",
          "name": "lastRebalance",
          "type": "uint256"
        },
        {
          "internalType": "bytes",
          "name": "datas",
          "type": "bytes"
        },
        {
          "internalType": "bytes32",
          "name": "strat",
          "type": "bytes32"
        },
        {
          "internalType": "uint256",
          "name": "termEnd",
          "type": "uint256"
        }
      ],
      "stateMutability": "view",
      "type": "function"
    },
    {
      "inputs": [
        {
          "internalType": "string",
          "name": "strat_",
          "type": "string"
        }
      ],
      "name": "whitelistStrat",
      "outputs": [],
      "stateMutability": "nonpayable",
      "type": "function"
    },
    {
      "inputs": [
        {
          "internalType": "address[]",
          "name": "tokens_",
          "type": "address[]"
        },
        {
          "internalType": "address",
          "name": "to_",
          "type": "address"
        }
      ],
      "name": "withdrawFeesEarned",
      "outputs": [],
      "stateMutability": "nonpayable",
      "type": "function"
    },
    {
      "inputs": [
        {
          "internalType": "address",
          "name": "vault_",
          "type": "address"
        },
        {
          "internalType": "uint256",
          "name": "amount_",
          "type": "uint256"
        },
        {
          "internalType": "address payable",
          "name": "to_",
          "type": "address"
        }
      ],
      "name": "withdrawVaultBalance",
      "outputs": [],
      "stateMutability": "nonpayable",
      "type": "function"
    }
  ],
  "transactionHash": "0x1a1c81c0e8dfeec4bdda66c8916c25d29ff593944d3cd2e6959b7705d33e1ca9",
  "args": [
    "0xB041f628e961598af9874BCf30CC865f67fad3EE",
    7884000,
    5000
  ],
  "numDeployments": 2,
  "solcInputHash": "b65d5a3f16c5136c10ea559aa7b0d342",
  "bytecode": "0x60e06040523480156200001157600080fd5b506040516200485f3803806200485f833981016040819052620000349162000052565b6001600160a01b0390921660805260a05261ffff1660c052620000ab565b6000806000606084860312156200006857600080fd5b83516001600160a01b03811681146200008057600080fd5b60208501516040860151919450925061ffff81168114620000a057600080fd5b809150509250925092565b60805160a05160c05161473762000128600039600081816104d2015281816115b8015261163601526000818161056d015281816108a5015261322f015260008181610539015281816106be01528181610b060152818161138d015281816115060152818161175101528181611f40015261215901526147376000f3fe6080604052600436106101c25760003560e01c806386de1467116100f7578063cc73ee0311610095578063d83d324111610064578063d83d32411461055b578063da5e3bb81461059d578063ded2df71146105bf578063f2fde38b146105d257600080fd5b8063cc73ee0314610493578063ccdf7a02146104c0578063d365a37714610507578063d50256251461052757600080fd5b80639773bbbf116100d15780639773bbbf14610402578063a07aea1c14610422578063a622ee7c14610442578063b7d382431461047357600080fd5b806386de1467146103695780638da5cb5b1461038957806390229af7146103d557600080fd5b8063485cc95511610164578063730bdcb11161013e578063730bdcb1146102f45780637407e38c1461031457806381a6c3f3146103345780638456cb591461035457600080fd5b8063485cc9551461029c5780635c975abb146102bc578063715018a6146102df57600080fd5b806327a099d8116101a057806327a099d81461021c5780633a91f42a146102475780633f4ba83a146102675780634802b9511461027c57600080fd5b80630cff5594146101c757806319e050d0146101dc5780631a24bd51146101fc575b600080fd5b6101da6101d5366004613be0565b6105f2565b005b3480156101e857600080fd5b506101da6101f7366004613be0565b61069e565b34801561020857600080fd5b506101da610217366004613c49565b610919565b34801561022857600080fd5b50610231610a57565b60405161023e9190613ca0565b60405180910390f35b34801561025357600080fd5b506101da610262366004613d3c565b610a68565b34801561027357600080fd5b506101da610c58565b34801561028857600080fd5b506101da610297366004613d91565b610c6a565b3480156102a857600080fd5b506101da6102b7366004613dd3565b610dfb565b3480156102c857600080fd5b5060655460ff16604051901515815260200161023e565b3480156102eb57600080fd5b506101da611150565b34801561030057600080fd5b506101da61030f366004613be0565b611162565b34801561032057600080fd5b506101da61032f366004613d3c565b6112ef565b34801561034057600080fd5b506101da61034f366004613be0565b6114e6565b34801561036057600080fd5b506101da6116a3565b34801561037557600080fd5b506101da610384366004613e0c565b6116b3565b34801561039557600080fd5b5060335473ffffffffffffffffffffffffffffffffffffffff165b60405173ffffffffffffffffffffffffffffffffffffffff909116815260200161023e565b3480156103e157600080fd5b506103f56103f0366004613be0565b6118fb565b60405161023e9190613eb9565b34801561040e57600080fd5b506101da61041d366004613f09565b611abb565b34801561042e57600080fd5b506101da61043d366004613f68565b611cae565b34801561044e57600080fd5b5061046261045d366004613be0565b611deb565b60405161023e959493929190613f9e565b34801561047f57600080fd5b506101da61048e366004613dd3565b611ea2565b34801561049f57600080fd5b50609c546103b09073ffffffffffffffffffffffffffffffffffffffff1681565b3480156104cc57600080fd5b506104f47f000000000000000000000000000000000000000000000000000000000000000081565b60405161ffff909116815260200161023e565b34801561051357600080fd5b506101da610522366004613f68565b612063565b34801561053357600080fd5b506103b07f000000000000000000000000000000000000000000000000000000000000000081565b34801561056757600080fd5b5061058f7f000000000000000000000000000000000000000000000000000000000000000081565b60405190815260200161023e565b3480156105a957600080fd5b506105b26120af565b60405161023e9190613fd1565b6101da6105cd366004614009565b6120bb565b3480156105de57600080fd5b506101da6105ed366004613be0565b612309565b6105fa6123c0565b73ffffffffffffffffffffffffffffffffffffffff81166000908152609b6020526040812060040154829103610691576040517f08c379a000000000000000000000000000000000000000000000000000000000815260206004820152601e60248201527f50414c4d4d616e616765723a205661756c74206e6f74206d616e61676564000060448201526064015b60405180910390fd5b61069a8261242d565b5050565b6106a66123c0565b3373ffffffffffffffffffffffffffffffffffffffff7f00000000000000000000000000000000000000000000000000000000000000001614610745576040517f08c379a000000000000000000000000000000000000000000000000000000000815260206004820152601b60248201527f50414c4d4d616e616765723a206f6e6c792050414c4d5465726d7300000000006044820152606401610688565b8073ffffffffffffffffffffffffffffffffffffffff81166107c3576040517f08c379a000000000000000000000000000000000000000000000000000000000815260206004820152601960248201527f50414c4d4d616e616765723a2061646472657373205a65726f000000000000006044820152606401610688565b73ffffffffffffffffffffffffffffffffffffffff82166000908152609b6020526040812060040154839103610855576040517f08c379a000000000000000000000000000000000000000000000000000000000815260206004820152601e60248201527f50414c4d4d616e616765723a205661756c74206e6f74206d616e6167656400006044820152606401610688565b73ffffffffffffffffffffffffffffffffffffffff83166000818152609b60205260409020600401547f27d4ba059c105c4c040f57e190ccdf5cda73ddfa873ed76edf044fbb8df524da906108ca7f0000000000000000000000000000000000000000000000000000000000000000426140bb565b73ffffffffffffffffffffffffffffffffffffffff87166000908152609b6020526040908190206004018290555161090c929190918252602082015260400190565b60405180910390a2505050565b6109216123c0565b610929612528565b60005b82811015610a51576000848483818110610948576109486140d3565b905060200201602081019061095d9190613be0565b6040517f70a0823100000000000000000000000000000000000000000000000000000000815230600482015273ffffffffffffffffffffffffffffffffffffffff91909116906370a0823190602401602060405180830381865afa1580156109c9573d6000803e3d6000fd5b505050506040513d601f19601f820116820180604052508101906109ed9190614102565b90508015610a3e57610a3e8382878786818110610a0c57610a0c6140d3565b9050602002016020810190610a219190613be0565b73ffffffffffffffffffffffffffffffffffffffff1691906125a9565b5080610a498161411b565b91505061092c565b50505050565b6060610a636099612636565b905090565b610a706123c0565b8273ffffffffffffffffffffffffffffffffffffffff8116610aee576040517f08c379a000000000000000000000000000000000000000000000000000000000815260206004820152601960248201527f50414c4d4d616e616765723a2061646472657373205a65726f000000000000006044820152606401610688565b3373ffffffffffffffffffffffffffffffffffffffff7f00000000000000000000000000000000000000000000000000000000000000001614610b8d576040517f08c379a000000000000000000000000000000000000000000000000000000000815260206004820152601b60248201527f50414c4d4d616e616765723a206f6e6c792050414c4d5465726d7300000000006044820152606401610688565b73ffffffffffffffffffffffffffffffffffffffff84166000908152609b6020526040812060040154859103610c1f576040517f08c379a000000000000000000000000000000000000000000000000000000000815260206004820152601e60248201527f50414c4d4d616e616765723a205661756c74206e6f74206d616e6167656400006044820152606401610688565b610c51858585604051602001610c36929190614153565b6040516020818303038152906040528051906020012061264a565b5050505050565b610c60612528565b610c686127dc565b565b610c726123c0565b610c7a612528565b60008282604051602001610c8f929190614153565b604080517fffffffffffffffffffffffffffffffffffffffffffffffffffffffffffffffe081840301815282825280516020918201206000845290830191829052915190209091508103610d3f576040517f08c379a000000000000000000000000000000000000000000000000000000000815260206004820152601960248201527f50414c4d4d616e616765723a20656d70747920737472696e67000000000000006044820152606401610688565b610d4a609782612859565b15610db1576040517f08c379a000000000000000000000000000000000000000000000000000000000815260206004820152601f60248201527f50414c4d4d616e616765723a2073747261742077686974656c69737465642e006044820152606401610688565b610dbc609782612876565b507fea5ee9e566e8b8ed51cd2316bf05281be3a4a65abbcb6313c3165a31253b744b8383604051610dee9291906141ac565b60405180910390a1505050565b600054610100900460ff1615808015610e1b5750600054600160ff909116105b80610e355750303b158015610e35575060005460ff166001145b610ec1576040517f08c379a000000000000000000000000000000000000000000000000000000000815260206004820152602e60248201527f496e697469616c697a61626c653a20636f6e747261637420697320616c72656160448201527f647920696e697469616c697a65640000000000000000000000000000000000006064820152608401610688565b600080547fffffffffffffffffffffffffffffffffffffffffffffffffffffffffffffff001660011790558015610f1f57600080547fffffffffffffffffffffffffffffffffffffffffffffffffffffffffffff00ff166101001790555b73ffffffffffffffffffffffffffffffffffffffff8316610fc2576040517f08c379a000000000000000000000000000000000000000000000000000000000815260206004820152602260248201527f50414c4d4d616e616765723a206f776e65722069732061646472657373207a6560448201527f726f0000000000000000000000000000000000000000000000000000000000006064820152608401610688565b73ffffffffffffffffffffffffffffffffffffffff8216611065576040517f08c379a000000000000000000000000000000000000000000000000000000000815260206004820152602f60248201527f50414c4d4d616e616765723a2067656c61746f466565436f6c6c6563746f722060448201527f69732061646472657373207a65726f00000000000000000000000000000000006064820152608401610688565b61106e83612882565b6110766128f9565b609c80547fffffffffffffffffffffffff00000000000000000000000000000000000000001673ffffffffffffffffffffffffffffffffffffffff84169081179091556040519081527f35da7b0f5d90431dba09a3c5b4e543a65e6c0cc9b5afc9fbafaa4fd285b602649060200160405180910390a1801561114b57600080547fffffffffffffffffffffffffffffffffffffffffffffffffffffffffffff00ff169055604051600181527f7f26b83ff96e1f2b6a682f133852f6798a09c465da95921460cefb384740249890602001610dee565b505050565b611158612528565b610c686000612882565b61116a6123c0565b611172612528565b8073ffffffffffffffffffffffffffffffffffffffff81166111f0576040517f08c379a000000000000000000000000000000000000000000000000000000000815260206004820152601960248201527f50414c4d4d616e616765723a2061646472657373205a65726f000000000000006044820152606401610688565b609c5473ffffffffffffffffffffffffffffffffffffffff808416911603611274576040517f08c379a000000000000000000000000000000000000000000000000000000000815260206004820152601f60248201527f50414c4d4d616e616765723a2067656c61746f466565436f6c6c6563746f72006044820152606401610688565b609c80547fffffffffffffffffffffffff00000000000000000000000000000000000000001673ffffffffffffffffffffffffffffffffffffffff84169081179091556040519081527f35da7b0f5d90431dba09a3c5b4e543a65e6c0cc9b5afc9fbafaa4fd285b60264906020015b60405180910390a15050565b6112f76123c0565b8273ffffffffffffffffffffffffffffffffffffffff8116611375576040517f08c379a000000000000000000000000000000000000000000000000000000000815260206004820152601960248201527f50414c4d4d616e616765723a2061646472657373205a65726f000000000000006044820152606401610688565b3373ffffffffffffffffffffffffffffffffffffffff7f00000000000000000000000000000000000000000000000000000000000000001614611414576040517f08c379a000000000000000000000000000000000000000000000000000000000815260206004820152601b60248201527f50414c4d4d616e616765723a206f6e6c792050414c4d5465726d7300000000006044820152606401610688565b73ffffffffffffffffffffffffffffffffffffffff84166000908152609b60205260408120600401548591036114a6576040517f08c379a000000000000000000000000000000000000000000000000000000000815260206004820152601e60248201527f50414c4d4d616e616765723a205661756c74206e6f74206d616e6167656400006044820152606401610688565b610c518585858080601f01602080910402602001604051908101604052809392919081815260200183838082843760009201919091525061299892505050565b6114ee6123c0565b3373ffffffffffffffffffffffffffffffffffffffff7f0000000000000000000000000000000000000000000000000000000000000000161461158d576040517f08c379a000000000000000000000000000000000000000000000000000000000815260206004820152601b60248201527f50414c4d4d616e616765723a206f6e6c792050414c4d5465726d7300000000006044820152606401610688565b6040517f4794c84a00000000000000000000000000000000000000000000000000000000815261ffff7f000000000000000000000000000000000000000000000000000000000000000016600482015273ffffffffffffffffffffffffffffffffffffffff821690634794c84a90602401600060405180830381600087803b15801561161857600080fd5b505af115801561162c573d6000803e3d6000fd5b505060405161ffff7f000000000000000000000000000000000000000000000000000000000000000016815273ffffffffffffffffffffffffffffffffffffffff841692507fec4ced14b5b836ebbc58dff0208415b7684f92a899d738abe88a923c0df9f3c491506020015b60405180910390a250565b6116ab612528565b610c68612ae1565b6116bb6123c0565b8273ffffffffffffffffffffffffffffffffffffffff8116611739576040517f08c379a000000000000000000000000000000000000000000000000000000000815260206004820152601960248201527f50414c4d4d616e616765723a2061646472657373205a65726f000000000000006044820152606401610688565b3373ffffffffffffffffffffffffffffffffffffffff7f000000000000000000000000000000000000000000000000000000000000000016146117d8576040517f08c379a000000000000000000000000000000000000000000000000000000000815260206004820152601b60248201527f50414c4d4d616e616765723a206f6e6c792050414c4d5465726d7300000000006044820152606401610688565b73ffffffffffffffffffffffffffffffffffffffff84166000908152609b602052604081206004015485910361186a576040517f08c379a000000000000000000000000000000000000000000000000000000000815260206004820152601e60248201527f50414c4d4d616e616765723a205661756c74206e6f74206d616e6167656400006044820152606401610688565b8273ffffffffffffffffffffffffffffffffffffffff81166118e8576040517f08c379a000000000000000000000000000000000000000000000000000000000815260206004820152601960248201527f50414c4d4d616e616765723a2061646472657373205a65726f000000000000006044820152606401610688565b6118f3868686612b3c565b505050505050565b6119306040518060a0016040528060008152602001600081526020016060815260200160008019168152602001600081525090565b8173ffffffffffffffffffffffffffffffffffffffff81166119ae576040517f08c379a000000000000000000000000000000000000000000000000000000000815260206004820152601960248201527f50414c4d4d616e616765723a2061646472657373205a65726f000000000000006044820152606401610688565b609b60008473ffffffffffffffffffffffffffffffffffffffff1673ffffffffffffffffffffffffffffffffffffffff1681526020019081526020016000206040518060a00160405290816000820154815260200160018201548152602001600282018054611a1c906141c0565b80601f0160208091040260200160405190810160405280929190818152602001828054611a48906141c0565b8015611a955780601f10611a6a57610100808354040283529160200191611a95565b820191906000526020600020905b815481529060010190602001808311611a7857829003601f168201915b505050505081526020016003820154815260200160048201548152505091505b50919050565b611ac36123c0565b73ffffffffffffffffffffffffffffffffffffffff83166000908152609b6020526040812060040154849103611b55576040517f08c379a000000000000000000000000000000000000000000000000000000000815260206004820152601e60248201527f50414c4d4d616e616765723a205661756c74206e6f74206d616e6167656400006044820152606401610688565b611b5e33612c8e565b611bc4576040517f08c379a000000000000000000000000000000000000000000000000000000000815260206004820152601860248201527f50414c4d4d616e616765723a206e6f206f70657261746f7200000000000000006044820152606401610688565b6000611bd08584612d19565b6040517f8712e49700000000000000000000000000000000000000000000000000000000815290915073ffffffffffffffffffffffffffffffffffffffff861690638712e49790611c2590879060040161440e565b600060405180830381600087803b158015611c3f57600080fd5b505af1158015611c53573d6000803e3d6000fd5b505050508473ffffffffffffffffffffffffffffffffffffffff167fa44b3c204c0102fc9bea80c7d9b377b92e3d60599ce49e19119c40d9325c2aaa82604051611c9f91815260200190565b60405180910390a25050505050565b611cb66123c0565b611cbe612528565b60005b81811015611db9576000838383818110611cdd57611cdd6140d3565b9050602002016020810190611cf29190613be0565b73ffffffffffffffffffffffffffffffffffffffff1614158015611d435750611d43838383818110611d2657611d266140d3565b9050602002016020810190611d3b9190613be0565b609990612e20565b611da9576040517f08c379a000000000000000000000000000000000000000000000000000000000815260206004820152601560248201527f50414c4d4d616e616765723a206f70657261746f7200000000000000000000006044820152606401610688565b611db28161411b565b9050611cc1565b507f9194d2f68cef6a457d2d5946cbcd9992b460839b42100183d98128a83175ef7e82826040516112e39291906144fe565b609b6020526000908152604090208054600182015460028301805492939192611e13906141c0565b80601f0160208091040260200160405190810160405280929190818152602001828054611e3f906141c0565b8015611e8c5780601f10611e6157610100808354040283529160200191611e8c565b820191906000526020600020905b815481529060010190602001808311611e6f57829003601f168201915b5050505050908060030154908060040154905085565b611eaa6123c0565b8173ffffffffffffffffffffffffffffffffffffffff8116611f28576040517f08c379a000000000000000000000000000000000000000000000000000000000815260206004820152601960248201527f50414c4d4d616e616765723a2061646472657373205a65726f000000000000006044820152606401610688565b3373ffffffffffffffffffffffffffffffffffffffff7f00000000000000000000000000000000000000000000000000000000000000001614611fc7576040517f08c379a000000000000000000000000000000000000000000000000000000000815260206004820152601b60248201527f50414c4d4d616e616765723a206f6e6c792050414c4d5465726d7300000000006044820152606401610688565b73ffffffffffffffffffffffffffffffffffffffff83166000908152609b6020526040812060040154849103612059576040517f08c379a000000000000000000000000000000000000000000000000000000000815260206004820152601e60248201527f50414c4d4d616e616765723a205661756c74206e6f74206d616e6167656400006044820152606401610688565b610a518484612e42565b61206b6123c0565b612073612528565b61069a828280806020026020016040519081016040528093929190818152602001838360200280828437600092019190915250612f8892505050565b6060610a636097613072565b6120c36123c0565b8473ffffffffffffffffffffffffffffffffffffffff8116612141576040517f08c379a000000000000000000000000000000000000000000000000000000000815260206004820152601960248201527f50414c4d4d616e616765723a2061646472657373205a65726f000000000000006044820152606401610688565b3373ffffffffffffffffffffffffffffffffffffffff7f000000000000000000000000000000000000000000000000000000000000000016146121e0576040517f08c379a000000000000000000000000000000000000000000000000000000000815260206004820152601b60248201527f50414c4d4d616e616765723a206f6e6c792050414c4d5465726d7300000000006044820152606401610688565b853373ffffffffffffffffffffffffffffffffffffffff168173ffffffffffffffffffffffffffffffffffffffff16638da5cb5b6040518163ffffffff1660e01b8152600401602060405180830381865afa158015612243573d6000803e3d6000fd5b505050506040513d601f19601f820116820180604052508101906122679190614559565b73ffffffffffffffffffffffffffffffffffffffff16146122e4576040517f08c379a000000000000000000000000000000000000000000000000000000000815260206004820152601d60248201527f50414c4d4d616e616765723a206f6e6c79207661756c74206f776e65720000006044820152606401610688565b6122f1878787878761307d565b3415612300576123008761242d565b50505050505050565b612311612528565b73ffffffffffffffffffffffffffffffffffffffff81166123b4576040517f08c379a000000000000000000000000000000000000000000000000000000000815260206004820152602660248201527f4f776e61626c653a206e6577206f776e657220697320746865207a65726f206160448201527f64647265737300000000000000000000000000000000000000000000000000006064820152608401610688565b6123bd81612882565b50565b60655460ff1615610c68576040517f08c379a000000000000000000000000000000000000000000000000000000000815260206004820152601060248201527f5061757361626c653a20706175736564000000000000000000000000000000006044820152606401610688565b60003411612497576040517f08c379a000000000000000000000000000000000000000000000000000000000815260206004820152601f60248201527f50414c4d4d616e616765723a2063616e6e6f742066756e6420776974682030006044820152606401610688565b73ffffffffffffffffffffffffffffffffffffffff81166000908152609b6020526040812080543492906124cc9084906140bb565b909155505073ffffffffffffffffffffffffffffffffffffffff81166000818152609b60209081526040918290205491519182527f2bae9ef5356c8b1ba3acb21df1a9201ff1ef943f4d8425697ce2d6381fcdac999101611698565b60335473ffffffffffffffffffffffffffffffffffffffff163314610c68576040517f08c379a000000000000000000000000000000000000000000000000000000000815260206004820181905260248201527f4f776e61626c653a2063616c6c6572206973206e6f7420746865206f776e65726044820152606401610688565b6040805173ffffffffffffffffffffffffffffffffffffffff8416602482015260448082018490528251808303909101815260649091019091526020810180517bffffffffffffffffffffffffffffffffffffffffffffffffffffffff167fa9059cbb0000000000000000000000000000000000000000000000000000000017905261114b9084906132c7565b60606000612643836133d3565b9392505050565b73ffffffffffffffffffffffffffffffffffffffff82166000908152609b60205260409020600301548190036126dc576040517f08c379a000000000000000000000000000000000000000000000000000000000815260206004820152601260248201527f50414c4d4d616e616765723a20737472617400000000000000000000000000006044820152606401610688565b6126e7609782612859565b612773576040517f08c379a000000000000000000000000000000000000000000000000000000000815260206004820152602360248201527f50414c4d4d616e616765723a207374726174206e6f742077686974656c69737460448201527f65642e00000000000000000000000000000000000000000000000000000000006064820152608401610688565b73ffffffffffffffffffffffffffffffffffffffff82166000818152609b602052604090819020600301839055517f243930e940e93a5b6e26b15204394bc1aa410465b647ea787ae57960c5cf79a8906127d09084815260200190565b60405180910390a25050565b6127e461342f565b606580547fffffffffffffffffffffffffffffffffffffffffffffffffffffffffffffff001690557f5db9ee0a495bf2e6ff9c91a7834c1ba4fdd244a5e8aa4e537bd38aeae4b073aa335b60405173ffffffffffffffffffffffffffffffffffffffff909116815260200160405180910390a1565b600081815260018301602052604081205415155b90505b92915050565b600061286d838361349b565b6033805473ffffffffffffffffffffffffffffffffffffffff8381167fffffffffffffffffffffffff0000000000000000000000000000000000000000831681179093556040519116919082907f8be0079c531659141344cd1fd0a4f28419497f9722a3daafe3b4186f6b6457e090600090a35050565b600054610100900460ff16612990576040517f08c379a000000000000000000000000000000000000000000000000000000000815260206004820152602b60248201527f496e697469616c697a61626c653a20636f6e7472616374206973206e6f74206960448201527f6e697469616c697a696e670000000000000000000000000000000000000000006064820152608401610688565b610c686134ea565b8080519060200120609b60008473ffffffffffffffffffffffffffffffffffffffff1673ffffffffffffffffffffffffffffffffffffffff1681526020019081526020016000206002016040516129ef9190614576565b604051809103902003612a5e576040517f08c379a000000000000000000000000000000000000000000000000000000000815260206004820152601160248201527f50414c4d4d616e616765723a20646174610000000000000000000000000000006044820152606401610688565b73ffffffffffffffffffffffffffffffffffffffff82166000908152609b602090815260409091208251612a9a92600290920191840190613a49565b508173ffffffffffffffffffffffffffffffffffffffff167f428733985d5c007cd5d8813643ceb64f6a3f2606066e9a08d07af65254ea3952826040516127d09190614648565b612ae96123c0565b606580547fffffffffffffffffffffffffffffffffffffffffffffffffffffffffffffff001660011790557f62e78cea01bee320cd4e420270b5ea74000d11b0c9f74754ebdbfc544b05a25861282f3390565b73ffffffffffffffffffffffffffffffffffffffff83166000908152609b602052604090205482811015612bf2576040517f08c379a000000000000000000000000000000000000000000000000000000000815260206004820152602d60248201527f50414c4d4d616e616765723a20616d6f756e742065786365656473206176616960448201527f6c61626c652062616c616e6365000000000000000000000000000000000000006064820152608401610688565b6000612bfe848361465b565b73ffffffffffffffffffffffffffffffffffffffff8087166000908152609b60205260409020829055909150612c36908416856135ab565b6040805185815273ffffffffffffffffffffffffffffffffffffffff8581166020830152918101839052908616907f7408fb14206b893353f1ad47950175963a6dfacb1021ac84e613aa220fd4e1ad90606001611c9f565b60008173ffffffffffffffffffffffffffffffffffffffff8116612d0e576040517f08c379a000000000000000000000000000000000000000000000000000000000815260206004820152601960248201527f50414c4d4d616e616765723a2061646472657373205a65726f000000000000006044820152606401610688565b612643609984613705565b73ffffffffffffffffffffffffffffffffffffffff82166000908152609b602052604081205482811015612dcf576040517f08c379a000000000000000000000000000000000000000000000000000000000815260206004820152602a60248201527f50414c4d4d616e616765723a204e6f7420656e6f7567682062616c616e63652060448201527f746f2070617920666565000000000000000000000000000000000000000000006064820152608401610688565b612dd9838261465b565b73ffffffffffffffffffffffffffffffffffffffff8086166000908152609b60205260409020426001820155829055609c54919350612e199116846135ab565b5092915050565b600061286d8373ffffffffffffffffffffffffffffffffffffffff841661349b565b73ffffffffffffffffffffffffffffffffffffffff82166000818152609b60205260408082205481517f7ecd67170000000000000000000000000000000000000000000000000000000081529151909392637ecd6717926004808201939182900301818387803b158015612eb557600080fd5b505af1158015612ec9573d6000803e3d6000fd5b50505073ffffffffffffffffffffffffffffffffffffffff84166000908152609b60205260408120818155600181018290559150612f0a6002830182613acd565b506000600382018190556004909101558015612f4057612f4073ffffffffffffffffffffffffffffffffffffffff8316826135ab565b8273ffffffffffffffffffffffffffffffffffffffff167f3c5c011a5287a3bb157571fbfec1ee8b0ced5809ff6a685b64e5858ea037c1498260405161090c91815260200190565b60005b815181101561303757612fc1828281518110612fa957612fa96140d3565b6020026020010151609961373490919063ffffffff16565b613027576040517f08c379a000000000000000000000000000000000000000000000000000000000815260206004820152601860248201527f50414c4d4d616e616765723a206e6f206f70657261746f7200000000000000006044820152606401610688565b6130308161411b565b9050612f8b565b507f626c7b0cc629b069bd6acf919cc498afe43e1e4da7fc425182040d1a093e9687816040516130679190613ca0565b60405180910390a150565b6060612870826133d3565b60008282604051602001613092929190614153565b604080517fffffffffffffffffffffffffffffffffffffffffffffffffffffffffffffffe0818403018152919052805160209091012090506130d5609782612859565b61313b576040517f08c379a000000000000000000000000000000000000000000000000000000000815260206004820152601c60248201527f50414c4d4d616e616765723a204e6f742077686974656c6973746564000000006044820152606401610688565b73ffffffffffffffffffffffffffffffffffffffff86166000908152609b6020526040902060040154156131cb576040517f08c379a000000000000000000000000000000000000000000000000000000000815260206004820181905260248201527f50414c4d4d616e616765723a205661756c7420616c72656164792061646465646044820152606401610688565b73ffffffffffffffffffffffffffffffffffffffff86166000908152609b602052604090206131fe906002018686613b07565b5073ffffffffffffffffffffffffffffffffffffffff86166000908152609b602052604090206003018190556132547f0000000000000000000000000000000000000000000000000000000000000000426140bb565b73ffffffffffffffffffffffffffffffffffffffff87166000818152609b6020526040908190206004019290925590517fe2ac259cf4e54760e2d0661b0606ddf3f470df2dc47f57e5cc9c4f533a870826906132b7908890889088908890614672565b60405180910390a2505050505050565b6000613329826040518060400160405280602081526020017f5361666545524332303a206c6f772d6c6576656c2063616c6c206661696c65648152508573ffffffffffffffffffffffffffffffffffffffff166137569092919063ffffffff16565b80519091501561114b57808060200190518101906133479190614699565b61114b576040517f08c379a000000000000000000000000000000000000000000000000000000000815260206004820152602a60248201527f5361666545524332303a204552433230206f7065726174696f6e20646964206e60448201527f6f742073756363656564000000000000000000000000000000000000000000006064820152608401610688565b60608160000180548060200260200160405190810160405280929190818152602001828054801561342357602002820191906000526020600020905b81548152602001906001019080831161340f575b50505050509050919050565b60655460ff16610c68576040517f08c379a000000000000000000000000000000000000000000000000000000000815260206004820152601460248201527f5061757361626c653a206e6f74207061757365640000000000000000000000006044820152606401610688565b60008181526001830160205260408120546134e257508154600181810184556000848152602080822090930184905584548482528286019093526040902091909155612870565b506000612870565b600054610100900460ff16613581576040517f08c379a000000000000000000000000000000000000000000000000000000000815260206004820152602b60248201527f496e697469616c697a61626c653a20636f6e7472616374206973206e6f74206960448201527f6e697469616c697a696e670000000000000000000000000000000000000000006064820152608401610688565b606580547fffffffffffffffffffffffffffffffffffffffffffffffffffffffffffffff00169055565b80471015613615576040517f08c379a000000000000000000000000000000000000000000000000000000000815260206004820152601d60248201527f416464726573733a20696e73756666696369656e742062616c616e63650000006044820152606401610688565b60008273ffffffffffffffffffffffffffffffffffffffff168260405160006040518083038185875af1925050503d806000811461366f576040519150601f19603f3d011682016040523d82523d6000602084013e613674565b606091505b505090508061114b576040517f08c379a000000000000000000000000000000000000000000000000000000000815260206004820152603a60248201527f416464726573733a20756e61626c6520746f2073656e642076616c75652c207260448201527f6563697069656e74206d617920686176652072657665727465640000000000006064820152608401610688565b73ffffffffffffffffffffffffffffffffffffffff81166000908152600183016020526040812054151561286d565b600061286d8373ffffffffffffffffffffffffffffffffffffffff841661376d565b60606137658484600085613860565b949350505050565b6000818152600183016020526040812054801561385657600061379160018361465b565b85549091506000906137a59060019061465b565b905081811461380a5760008660000182815481106137c5576137c56140d3565b90600052602060002001549050808760000184815481106137e8576137e86140d3565b6000918252602080832090910192909255918252600188019052604090208390555b855486908061381b5761381b6146b6565b600190038181906000526020600020016000905590558560010160008681526020019081526020016000206000905560019350505050612870565b6000915050612870565b6060824710156138f2576040517f08c379a000000000000000000000000000000000000000000000000000000000815260206004820152602660248201527f416464726573733a20696e73756666696369656e742062616c616e636520666f60448201527f722063616c6c00000000000000000000000000000000000000000000000000006064820152608401610688565b73ffffffffffffffffffffffffffffffffffffffff85163b613970576040517f08c379a000000000000000000000000000000000000000000000000000000000815260206004820152601d60248201527f416464726573733a2063616c6c20746f206e6f6e2d636f6e74726163740000006044820152606401610688565b6000808673ffffffffffffffffffffffffffffffffffffffff16858760405161399991906146e5565b60006040518083038185875af1925050503d80600081146139d6576040519150601f19603f3d011682016040523d82523d6000602084013e6139db565b606091505b50915091506139eb8282866139f6565b979650505050505050565b60608315613a05575081612643565b825115613a155782518084602001fd5b816040517f08c379a00000000000000000000000000000000000000000000000000000000081526004016106889190614648565b828054613a55906141c0565b90600052602060002090601f016020900481019282613a775760008555613abd565b82601f10613a9057805160ff1916838001178555613abd565b82800160010185558215613abd579182015b82811115613abd578251825591602001919060010190613aa2565b50613ac9929150613b99565b5090565b508054613ad9906141c0565b6000825580601f10613ae9575050565b601f0160209004906000526020600020908101906123bd9190613b99565b828054613b13906141c0565b90600052602060002090601f016020900481019282613b355760008555613abd565b82601f10613b6c578280017fffffffffffffffffffffffffffffffffffffffffffffffffffffffffffffff00823516178555613abd565b82800160010185558215613abd579182015b82811115613abd578235825591602001919060010190613b7e565b5b80821115613ac95760008155600101613b9a565b73ffffffffffffffffffffffffffffffffffffffff811681146123bd57600080fd5b8035613bdb81613bae565b919050565b600060208284031215613bf257600080fd5b813561264381613bae565b60008083601f840112613c0f57600080fd5b50813567ffffffffffffffff811115613c2757600080fd5b6020830191508360208260051b8501011115613c4257600080fd5b9250929050565b600080600060408486031215613c5e57600080fd5b833567ffffffffffffffff811115613c7557600080fd5b613c8186828701613bfd565b9094509250506020840135613c9581613bae565b809150509250925092565b6020808252825182820181905260009190848201906040850190845b81811015613cee57835173ffffffffffffffffffffffffffffffffffffffff1683529284019291840191600101613cbc565b50909695505050505050565b60008083601f840112613d0c57600080fd5b50813567ffffffffffffffff811115613d2457600080fd5b602083019150836020828501011115613c4257600080fd5b600080600060408486031215613d5157600080fd5b8335613d5c81613bae565b9250602084013567ffffffffffffffff811115613d7857600080fd5b613d8486828701613cfa565b9497909650939450505050565b60008060208385031215613da457600080fd5b823567ffffffffffffffff811115613dbb57600080fd5b613dc785828601613cfa565b90969095509350505050565b60008060408385031215613de657600080fd5b8235613df181613bae565b91506020830135613e0181613bae565b809150509250929050565b600080600060608486031215613e2157600080fd5b8335613e2c81613bae565b9250602084013591506040840135613c9581613bae565b60005b83811015613e5e578181015183820152602001613e46565b83811115610a515750506000910152565b60008151808452613e87816020860160208601613e43565b601f017fffffffffffffffffffffffffffffffffffffffffffffffffffffffffffffffe0169290920160200192915050565b6020815281516020820152602082015160408201526000604083015160a06060840152613ee960c0840182613e6f565b905060608401516080840152608084015160a08401528091505092915050565b600080600060608486031215613f1e57600080fd5b8335613f2981613bae565b9250602084013567ffffffffffffffff811115613f4557600080fd5b840160e08187031215613f5757600080fd5b929592945050506040919091013590565b60008060208385031215613f7b57600080fd5b823567ffffffffffffffff811115613f9257600080fd5b613dc785828601613bfd565b85815284602082015260a060408201526000613fbd60a0830186613e6f565b606083019490945250608001529392505050565b6020808252825182820181905260009190848201906040850190845b81811015613cee57835183529284019291840191600101613fed565b60008060008060006060868803121561402157600080fd5b853561402c81613bae565b9450602086013567ffffffffffffffff8082111561404957600080fd5b61405589838a01613cfa565b9096509450604088013591508082111561406e57600080fd5b5061407b88828901613cfa565b969995985093965092949392505050565b7f4e487b7100000000000000000000000000000000000000000000000000000000600052601160045260246000fd5b600082198211156140ce576140ce61408c565b500190565b7f4e487b7100000000000000000000000000000000000000000000000000000000600052603260045260246000fd5b60006020828403121561411457600080fd5b5051919050565b60007fffffffffffffffffffffffffffffffffffffffffffffffffffffffffffffffff820361414c5761414c61408c565b5060010190565b8183823760009101908152919050565b8183528181602085013750600060208284010152600060207fffffffffffffffffffffffffffffffffffffffffffffffffffffffffffffffe0601f840116840101905092915050565b602081526000613765602083018486614163565b600181811c908216806141d457607f821691505b602082108103611ab5577f4e487b7100000000000000000000000000000000000000000000000000000000600052602260045260246000fd5b60008083357fffffffffffffffffffffffffffffffffffffffffffffffffffffffffffffffe184360301811261424257600080fd5b830160208101925035905067ffffffffffffffff81111561426257600080fd5b8060071b3603831315613c4257600080fd5b8035600281900b8114613bdb57600080fd5b8183526000602080850194508260005b8581101561431d5781356fffffffffffffffffffffffffffffffff81168082146142bf57600080fd5b8852506142cd828401614274565b600290810b888501526040906142e4848301614274565b900b9088015260608281013562ffffff811680821461430257600080fd5b91890191909152506080968701969190910190600101614296565b509495945050505050565b80151581146123bd57600080fd5b8035613bdb81614328565b600081357fffffffffffffffffffffffffffffffffffffffffffffffffffffffffffffffe183360301811261437557600080fd5b8201803567ffffffffffffffff81111561438e57600080fd5b80360384131561439d57600080fd5b60a085526143b260a086018260208501614163565b9150506143c160208401613bd0565b73ffffffffffffffffffffffffffffffffffffffff811660208601525060408301356040850152606083013560608501526143fe60808401614336565b8015156080860152509392505050565b60208152600061441e838461420d565b60e0602085015261443461010085018284614286565b915050614444602085018561420d565b7fffffffffffffffffffffffffffffffffffffffffffffffffffffffffffffffe08086850301604087015261447a848385614286565b9350604087013592507fffffffffffffffffffffffffffffffffffffffffffffffffffffffffffffff618736030183126144b357600080fd5b858403016060860152506144c982828701614341565b91505060608401356080840152608084013560a084015260a084013560c084015260c084013560e08401528091505092915050565b60208082528181018390526000908460408401835b8681101561454e57823561452681613bae565b73ffffffffffffffffffffffffffffffffffffffff1682529183019190830190600101614513565b509695505050505050565b60006020828403121561456b57600080fd5b815161264381613bae565b600080835481600182811c91508083168061459257607f831692505b602080841082036145ca577f4e487b710000000000000000000000000000000000000000000000000000000086526022600452602486fd5b8180156145de576001811461460d5761463a565b7fffffffffffffffffffffffffffffffffffffffffffffffffffffffffffffff0086168952848901965061463a565b60008a81526020902060005b868110156146325781548b820152908501908301614619565b505084890196505b509498975050505050505050565b60208152600061286d6020830184613e6f565b60008282101561466d5761466d61408c565b500390565b604081526000614686604083018688614163565b82810360208401526139eb818587614163565b6000602082840312156146ab57600080fd5b815161264381614328565b7f4e487b7100000000000000000000000000000000000000000000000000000000600052603160045260246000fd5b600082516146f7818460208701613e43565b919091019291505056fea2646970667358221220a118e122043b01c2bee3b040d68bdc016dd7808332dce27ba57dcc9abb911d9c64736f6c634300080d0033",
  "devdoc": {
    "kind": "dev",
    "methods": {
      "addOperators(address[])": {
        "details": "only callable by owner",
        "params": {
          "operators_": "list of operators to add"
        }
      },
      "addVault(address,bytes,string)": {
        "details": "only callable by Terms and only for Terms owned vault.",
        "params": {
          "datas_": "metadata that be used by PALM to manage vault",
          "strat_": "strategy type chosen by client",
          "vault_": "Arrakis V2 vault address"
        }
      },
      "fundVaultBalance(address)": {
        "details": "only for managed vault",
        "params": {
          "vault_": "Arrakis V2 vault address"
        }
      },
      "getOperators()": {
        "returns": {
          "_0": "operators array of address representing operators"
        }
      },
      "getVaultInfo(address)": {
        "params": {
          "vault_": "Arrakis V2 vault address"
        },
        "returns": {
          "_0": "vaultInfo data related to Arrakis V2 vault managed"
        }
      },
      "owner()": {
        "details": "Returns the address of the current owner."
      },
      "paused()": {
        "details": "Returns true if the contract is paused, and false otherwise."
      },
      "rebalance(address,((uint128,(int24,int24,uint24))[],(uint128,(int24,int24,uint24))[],(bytes,address,uint256,uint256,bool),uint256,uint256,uint256,uint256),uint256)": {
        "details": "only operators can call it",
        "params": {
          "feeAmount_": "gas cost of rebalance",
          "rebalanceParams_": "contains all data for doing reblance",
          "vault_": "Arrakis V2 vault address"
        }
      },
      "removeOperators(address[])": {
        "details": "only callable by owner",
        "params": {
          "operators_": "list of operators to remove"
        }
      },
      "removeVault(address,address)": {
        "details": "only callable by Terms and only for Terms owned vault.",
        "params": {
          "to_": "address that will left over balance.",
          "vault_": "Arrakis V2 vault address"
        }
      },
      "renewTerm(address)": {
        "details": "only for managed vault",
        "params": {
          "vault_": "Arrakis V2 vault address"
        }
      },
      "renounceOwnership()": {
        "details": "Leaves the contract without owner. It will not be possible to call `onlyOwner` functions anymore. Can only be called by the current owner. NOTE: Renouncing ownership will leave the contract without an owner, thereby removing any functionality that is only available to the owner."
      },
      "setGelatoFeeCollector(address)": {
        "details": "only callable by owner",
        "params": {
          "gelatoFeeCollector_": "new gelato fee collector address"
        }
      },
      "setManagerFeeBPS(address)": {
        "details": "only callable by owner",
        "params": {
          "vault_": "Arrakis V2 vault address"
        }
      },
      "setVaultData(address,bytes)": {
        "details": "only callable by Terms and only for Terms owned vault.",
        "params": {
          "data_": "metadata used by PALM to manage the vault",
          "vault_": "Arrakis V2 vault address"
        }
      },
      "setVaultStratByName(address,string)": {
        "details": "only callable by Terms and only for Terms owned vault.",
        "params": {
          "strat_": "strategy type chosen by client",
          "vault_": "Arrakis V2 vault address"
        }
      },
      "transferOwnership(address)": {
        "details": "Transfers ownership of the contract to a new account (`newOwner`). Can only be called by the current owner."
      },
      "whitelistStrat(string)": {
        "details": "only for managed vault",
        "params": {
          "strat_": "strategy type to whitelist"
        }
      },
      "withdrawFeesEarned(address[],address)": {
        "details": "only callable by owner",
        "params": {
          "to_": "receiver of fees",
          "tokens_": "list of tokens where withdrawing fees"
        }
      },
      "withdrawVaultBalance(address,uint256,address)": {
        "details": "only callable by palm term and managed vault",
        "params": {
          "amount_": "amount of balance to retrieve",
          "to_": "receiver of balance",
          "vault_": "Arrakis V2 vault address"
        }
      }
    },
    "version": 1
  },
  "userdoc": {
    "kind": "user",
    "methods": {
      "addOperators(address[])": {
        "notice": "for adding operators"
      },
      "addVault(address,bytes,string)": {
        "notice": "add vault to manage"
      },
      "fundVaultBalance(address)": {
        "notice": "fund vault balance"
      },
      "getOperators()": {
        "notice": "get list of operators"
      },
      "getVaultInfo(address)": {
        "notice": "get vault info"
      },
      "getWhitelistedStrat()": {
        "notice": "get whitelisted list of strategies"
      },
      "rebalance(address,((uint128,(int24,int24,uint24))[],(uint128,(int24,int24,uint24))[],(bytes,address,uint256,uint256,bool),uint256,uint256,uint256,uint256),uint256)": {
        "notice": "rebalance Arrakis V2 tokens allocation on Uniswap V3."
      },
      "removeOperators(address[])": {
        "notice": "for removing operators"
      },
      "removeVault(address,address)": {
        "notice": "remove vault from management"
      },
      "renewTerm(address)": {
        "notice": "fund vault balance"
      },
      "setGelatoFeeCollector(address)": {
        "notice": "for setting gelato fee collector"
      },
      "setManagerFeeBPS(address)": {
        "notice": "for setting manager fee"
      },
      "setVaultData(address,bytes)": {
        "notice": "for setting managed vault meta data"
      },
      "setVaultStratByName(address,string)": {
        "notice": "for changing strategy type"
      },
      "whitelistStrat(string)": {
        "notice": "whitelist strategy as owner"
      },
      "withdrawFeesEarned(address[],address)": {
        "notice": "for withdrawing fee earn as manager"
      },
      "withdrawVaultBalance(address,uint256,address)": {
        "notice": "for withdrawing vault fund balance"
      }
    },
    "version": 1
  },
  "storageLayout": {
    "storage": [
      {
        "astId": 854,
        "contract": "contracts/PALMManager.sol:PALMManager",
        "label": "_initialized",
        "offset": 0,
        "slot": "0",
        "type": "t_uint8"
      },
      {
        "astId": 857,
        "contract": "contracts/PALMManager.sol:PALMManager",
        "label": "_initializing",
        "offset": 1,
        "slot": "0",
        "type": "t_bool"
      },
      {
        "astId": 1468,
        "contract": "contracts/PALMManager.sol:PALMManager",
        "label": "__gap",
        "offset": 0,
        "slot": "1",
        "type": "t_array(t_uint256)50_storage"
      },
      {
        "astId": 726,
        "contract": "contracts/PALMManager.sol:PALMManager",
        "label": "_owner",
        "offset": 0,
        "slot": "51",
        "type": "t_address"
      },
      {
        "astId": 846,
        "contract": "contracts/PALMManager.sol:PALMManager",
        "label": "__gap",
        "offset": 0,
        "slot": "52",
        "type": "t_array(t_uint256)49_storage"
      },
      {
        "astId": 1019,
        "contract": "contracts/PALMManager.sol:PALMManager",
        "label": "_paused",
        "offset": 0,
        "slot": "101",
        "type": "t_bool"
      },
      {
        "astId": 1124,
        "contract": "contracts/PALMManager.sol:PALMManager",
        "label": "__gap",
        "offset": 0,
        "slot": "102",
        "type": "t_array(t_uint256)49_storage"
      },
      {
        "astId": 5775,
        "contract": "contracts/PALMManager.sol:PALMManager",
        "label": "_whitelistedStrat",
        "offset": 0,
        "slot": "151",
        "type": "t_struct(Bytes32Set)3881_storage"
      },
      {
        "astId": 5778,
        "contract": "contracts/PALMManager.sol:PALMManager",
        "label": "_operators",
        "offset": 0,
        "slot": "153",
        "type": "t_struct(AddressSet)3988_storage"
      },
      {
        "astId": 5783,
        "contract": "contracts/PALMManager.sol:PALMManager",
        "label": "vaults",
        "offset": 0,
        "slot": "155",
        "type": "t_mapping(t_address,t_struct(VaultInfo)8196_storage)"
      },
      {
        "astId": 5785,
        "contract": "contracts/PALMManager.sol:PALMManager",
        "label": "gelatoFeeCollector",
        "offset": 0,
        "slot": "156",
        "type": "t_address_payable"
      }
    ],
    "types": {
      "t_address": {
        "encoding": "inplace",
        "label": "address",
        "numberOfBytes": "20"
      },
      "t_address_payable": {
        "encoding": "inplace",
        "label": "address payable",
        "numberOfBytes": "20"
      },
      "t_array(t_bytes32)dyn_storage": {
        "base": "t_bytes32",
        "encoding": "dynamic_array",
        "label": "bytes32[]",
        "numberOfBytes": "32"
      },
      "t_array(t_uint256)49_storage": {
        "base": "t_uint256",
        "encoding": "inplace",
        "label": "uint256[49]",
        "numberOfBytes": "1568"
      },
      "t_array(t_uint256)50_storage": {
        "base": "t_uint256",
        "encoding": "inplace",
        "label": "uint256[50]",
        "numberOfBytes": "1600"
      },
      "t_bool": {
        "encoding": "inplace",
        "label": "bool",
        "numberOfBytes": "1"
      },
      "t_bytes32": {
        "encoding": "inplace",
        "label": "bytes32",
        "numberOfBytes": "32"
      },
      "t_bytes_storage": {
        "encoding": "bytes",
        "label": "bytes",
        "numberOfBytes": "32"
      },
      "t_mapping(t_address,t_struct(VaultInfo)8196_storage)": {
        "encoding": "mapping",
        "key": "t_address",
        "label": "mapping(address => struct VaultInfo)",
        "numberOfBytes": "32",
        "value": "t_struct(VaultInfo)8196_storage"
      },
      "t_mapping(t_bytes32,t_uint256)": {
        "encoding": "mapping",
        "key": "t_bytes32",
        "label": "mapping(bytes32 => uint256)",
        "numberOfBytes": "32",
        "value": "t_uint256"
      },
      "t_struct(AddressSet)3988_storage": {
        "encoding": "inplace",
        "label": "struct EnumerableSet.AddressSet",
        "members": [
          {
            "astId": 3987,
            "contract": "contracts/PALMManager.sol:PALMManager",
            "label": "_inner",
            "offset": 0,
            "slot": "0",
            "type": "t_struct(Set)3687_storage"
          }
        ],
        "numberOfBytes": "64"
      },
      "t_struct(Bytes32Set)3881_storage": {
        "encoding": "inplace",
        "label": "struct EnumerableSet.Bytes32Set",
        "members": [
          {
            "astId": 3880,
            "contract": "contracts/PALMManager.sol:PALMManager",
            "label": "_inner",
            "offset": 0,
            "slot": "0",
            "type": "t_struct(Set)3687_storage"
          }
        ],
        "numberOfBytes": "64"
      },
      "t_struct(Set)3687_storage": {
        "encoding": "inplace",
        "label": "struct EnumerableSet.Set",
        "members": [
          {
            "astId": 3682,
            "contract": "contracts/PALMManager.sol:PALMManager",
            "label": "_values",
            "offset": 0,
            "slot": "0",
            "type": "t_array(t_bytes32)dyn_storage"
          },
          {
            "astId": 3686,
            "contract": "contracts/PALMManager.sol:PALMManager",
            "label": "_indexes",
            "offset": 0,
            "slot": "1",
            "type": "t_mapping(t_bytes32,t_uint256)"
          }
        ],
        "numberOfBytes": "64"
      },
      "t_struct(VaultInfo)8196_storage": {
        "encoding": "inplace",
        "label": "struct VaultInfo",
        "members": [
          {
            "astId": 8187,
            "contract": "contracts/PALMManager.sol:PALMManager",
            "label": "balance",
            "offset": 0,
            "slot": "0",
            "type": "t_uint256"
          },
          {
            "astId": 8189,
            "contract": "contracts/PALMManager.sol:PALMManager",
            "label": "lastRebalance",
            "offset": 0,
            "slot": "1",
            "type": "t_uint256"
          },
          {
            "astId": 8191,
            "contract": "contracts/PALMManager.sol:PALMManager",
            "label": "datas",
            "offset": 0,
            "slot": "2",
            "type": "t_bytes_storage"
          },
          {
            "astId": 8193,
            "contract": "contracts/PALMManager.sol:PALMManager",
            "label": "strat",
            "offset": 0,
            "slot": "3",
            "type": "t_bytes32"
          },
          {
            "astId": 8195,
            "contract": "contracts/PALMManager.sol:PALMManager",
            "label": "termEnd",
            "offset": 0,
            "slot": "4",
            "type": "t_uint256"
          }
        ],
        "numberOfBytes": "160"
      },
      "t_uint256": {
        "encoding": "inplace",
        "label": "uint256",
        "numberOfBytes": "32"
      },
      "t_uint8": {
        "encoding": "inplace",
        "label": "uint8",
        "numberOfBytes": "1"
      }
    }
  }
}